:020000040800F2
:1000000000000120A9100008990F00089B0F0008AC
:100010009D0F00089F0F0008A10F000800000000BE
:10002000000000000000000000000000A30F000816
:10003000A50F000800000000A70F0008A90F000886
:10004000F1100008F1100008F1100008F11000088C
:10005000F1100008F1100008F1100008F11000087C
:10006000F1100008F1100008F1100008F11000086C
:10007000F1100008F1100008F1100008F11000085C
:10008000F1100008F1100008F1100008F11000084C
:10009000F1100008F1100008F1100008F11000083C
:1000A000F1100008F1100008F1100008F11000082C
:1000B000AD0F0008F1100008F1100008F110000861
:1000C000F1100008F1100008F1100008F11000080C
:1000D000F1100008F1100008F1100008F1100008FC
:1000E000F1100008F1100008F1100008F1100008EC
:1000F000F1100008F1100008F1100008F1100008DC
:10010000F1100008F1100008F1100008F1100008CB
:10011000F1100008F1100008F1100008F1100008BB
:10012000F1100008F1100008F1100008F1100008AB
:1001300000000000000000000000000000000000BF
:1001400000000000000000000000000000000000AF
:10015000000000000000000000000000000000009F
:10016000000000000000000000000000000000008F
:10017000000000000000000000000000000000007F
:10018000000000000000000000000000000000006F
:10019000000000000000000000000000000000005F
:1001A000000000000000000000000000000000004F
:1001B000000000000000000000000000000000003F
:1001C000000000000000000000000000000000002F
:1001D000000000000000000000000000000000001F
:0401E0005FF8E0F1F3
:1001E40010B5054C237833B9044B13B10448AFF36D
:1001F40000800123237010BD0C00002000000000CB
:100204004C11000808B5034B1BB103490348AFF375
:10021400008008BD00000000100000204C11000800
:1002240038B50E4B054618784FF47A73B3FBF0F3E8
:100234000B4A1068B0FBF3F000F08CF8044658B990
:100244000F2D09D8024629464FF0FF3000F042F83E
:10025400044B20461D6038BD012038BD000000203D
:100264000800002004000020074A08B51368032092
:1002740043F01003136000F01BF80020FFF7D0FFD9
:1002840000F066FE002008BD00200240034A044B33
:1002940011681B780B441360704700BF2C000020CA
:1002A40000000020014B1868704700BF2C0000209C
:1002B400074A0002D36800F4E06023F4E0631B04FF
:1002C4001B0C43F0BF6343F400330343D360704714
:1002D40000ED00E0174B30B5DC68C4F30224C4F130
:1002E4000703251D042B28BF0423062D4FF0010509
:1002F40098BF002405FA03F303F1FF3388BF033CDE
:100304001940A14005FA04F4013C2240002842EAC5
:1003140001024FEA0212AFBF00F16040064B00F049
:100324000F00D2B2A5BFD2B200F561401A5480F8D2
:10033400002330BD00ED00E014ED00E0012342098C
:1003440000F01F0003FA00F0014B43F8220070474D
:1003540000E100E00138B0F1807F0AD2F021064BC1
:10036400064A586082F823100020072298601A6019
:1003740070470120704700BF10E000E000ED00E08E
:100384002DE9F74F002216466C4F6D4BDFF8B8E1AC
:10039400DFF8B8C14FF001080C6808FA06F808EA5B
:1003A4000404A04540F085804D68122D00F0B7800C
:1003B40000F28D80022D00F0AF8000F28180002DCC
:1003C40000F09180012D00F0A5804FF00F09FF2C63
:1003D40093BF824606F18045083DD0F800B092BF35
:1003E400B500D0F804B0AD0009FA05F82BEA080806
:1003F40002FA05F588BF00F1040A48EA0505CAF8BF
:100404000050D1F804A01AF0805F52D0BD6926F0E4
:10041400030845F00105BD61BD6908F1804805F098
:100424000105019508F5803806F0030B019D4FEA9C
:100434008B0BD8F8085009FA0BF925EA0909414D44
:10044400A84271D005F58065A8426FD005F5806596
:10045400A8426DD005F58065A8426BD005F580658E
:10046400A84269D070450CBF0525062505FA0BF591
:1004740045EA0905C8F808501D681AF4803F14BFFE
:100484002543A5431D605D681AF4003F14BF25434E
:10049400A5435D609D681AF4801F14BF2543A543DE
:1004A4009D60DD681AF4001F14BF2C4325EA040480
:1004B400DC600136102E7FF46DAF03B0BDE8F08F21
:1004C400032D25D0112D80D1CA6804327DE76545FE
:1004D40009D012D8DFF878904D4504D009F5803959
:1004E4004D457FF472AF8A68E2B1012A0CBFC0F8AF
:1004F4001080C0F81480082267E7DFF858904D4553
:10050400F1D009F580394D45EDD0A9F58019E7E71B
:1005140000225AE7CA6858E7CA68083255E7CA6829
:100524000C3252E7042250E700259FE701259DE79E
:1005340002259BE7032599E7042597E7001002406D
:100544000004014000080140001C0140000021108B
:1005540000001110000031100AB101617047090454
:10056400FBE7000003682DE9F341DB07054610D4DF
:100574002B689F075ED42B68190700F195802B68C0
:100584005A0700F1BF80EA69002A40F02D8100205B
:1005940014E0904C636803F00C03042B07D06368E9
:1005A40003F00C03082B0CD16368DE0309D5236820
:1005B4009C03DDD56B68002BDAD1012002B0BDE8C5
:1005C400F0816B68B3F5803F10D1236843F4803326
:1005D4002360FFF767FE064623689803C8D4FFF735
:1005E40061FE801B6428F7D90320E7E79BB92368E1
:1005F40023F480332360236823F480232360FFF7EC
:1006040051FE064623689903B2D5FFF74BFE801BC3
:100614006428F7D9E8E7B3F5A02F236803D143F49E
:1006240080232360D1E723F480332360236823F4F9
:100634008023CDE7674C636813F00C0F07D0636821
:1006440003F00C03082B10D16368DA030DD423687C
:100654009B0702D52B69012BAFD123686A6923F06C
:10066400F80343EAC203236085E72A695A4B6AB157
:1006740001221A60FFF716FE064623689F07ECD492
:10068400FFF710FE801B0228F7D9ADE71A60FFF7C9
:1006940009FE0646236898077FF56DAFFFF702FE53
:1006A400801B0228F6D99FE7AA694A4C4B4BDAB162
:1006B40001221A60FFF7F6FD0646636A9B070DD513
:1006C4004FF4FA52464B1B68B3FBF2F3019300BF9D
:1006D400019B5A1E0192002BF9D150E7FFF7E2FD6E
:1006E400801B0228E9D97FE71A60FFF7DBFD064685
:1006F400636A9F077FF543AFFFF7D4FD801B022891
:10070400F6D971E7334CE369D80024D40127E369AF
:1007140043F08053E361E36903F080530093009B4B
:10072400304E3368D90518D5EB68012B26D1236ADE
:1007340043F001032362FFF7B5FD41F2883680469A
:10074400236A9B073FD5002F3FF41DAFE36923F0D5
:100754008053E36117E70027E2E7336843F48073CB
:100764003360FFF79FFD80463368DA05DCD4FFF77A
:1007740099FDA0EB08006428F6D935E7ABB9236AE4
:1007840041F2883823F001032362236A23F004032F
:100794002362FFF787FD0646236A9807D3D5FFF740
:1007A40081FD801B4045F7D91EE7052B236A03D141
:1007B40043F004032362BAE723F001032362236AAC
:1007C40023F00403B6E7FFF76DFDA0EB0800B04289
:1007D400B6D909E7001002400000424280044242B8
:1007E4000800002000700040224C636803F00C03F2
:1007F400082B3FF4E2AE00231F4E022A33602BD1B4
:10080400FFF750FD0746236899011FD42B6AB3F5FF
:10081400803F05D16268A96822F400320A4362600D
:10082400696A62680B4322F4741213436360012300
:100834003360FFF737FD054623689A013FF5A7AEFD
:10084400FFF730FD401B0228F6D9CDE6FFF72AFD5D
:10085400C01B0228D7D9C7E6FFF724FD0546236845
:100864009B017FF594AEFFF71DFD401B0228F6D9CE
:10087400BAE600BF001002406000424230B5194B96
:1008840087B002AC03F11005224618685968083392
:1008940003C2AB421446F7D101238DF8043002237E
:1008A40011498DF805304B6803F00C02082A17D162
:1008B400C3F3834206A80244DB0312F8102C0CD5C0
:1008C4004B680A48C3F34043504306AA134413F841
:1008D400143CB0FBF3F007B030BD05485043FAE7D1
:1008E4000248F8E7641100080010024000127A0080
:1008F40000093D00544A2DE9F0411368054603F010
:1009040007038B420E462AD329688C0734D4CA07BE
:1009140047D44D4A136803F007039E42C0F0828017
:100924002A684A4C12F0040F40F08780130706D55A
:1009340063682A6923F4605343EAC2036360FFF7E0
:100944009DFF6368424AC3F30313D35CD840414B11
:1009540018600020FFF764FC0020BDE8F0811368F4
:1009640023F007030B431360136803F00703994252
:10097400CAD00120BDE8F081344B11F0040F1EBF32
:100984005A6842F4E0625A60080742BF5A6842F467
:1009940060525A605A68A86822F0F00202435A6012
:1009A400B5E76A68294C012A23681CD113F4003F77
:1009B400DFD0636841F2883823F003031343636094
:1009C400FFF770FC6B680746012B14D1636803F0D2
:1009D4000C03042B9DD0FFF765FCC01B4045F5D9E3
:1009E4000320BDE8F081022A02D113F0007FDFE783
:1009F40013F0020FDCE7022B0FD1636803F00C0342
:100A0400082B86D0FFF74EFCC01B4045F5D9E7E71D
:100A1400FFF748FCC01B4045E2D8636813F00C0F95
:100A2400F6D176E7136823F00703334313601368A2
:100A340003F007039E429CD172E76368E96823F4DC
:100A4400E0630B43636071E7002002400010024042
:100A5400741100080800002003680020DA6842F0DE
:100A64000102DA601A6842F001021A60704790F8D5
:100A74003C3070B5012B4FF002031CD0012280F8EA
:100A84003D30036880F83C209A6822F47F4222F0CB
:100A940077029A600A68402A79D019D8102A00F09F
:100AA40093800AD8002A00F08980012380F83D3021
:100AB400002380F83C30184670BD202A00F08A805C
:100AC400302AF2D19A6822F0700242F0370236E0FE
:100AD400702A36D01BD8502A42D0602AE5D11C6A2D
:100AE4004D6824F01004CE681C6299691A6A21F4D6
:100AF400704122F0A00242EA051241EA06319961EE
:100B04001A629A6822F0700242F0670217E0B2F5A6
:100B1400805F11D0B2F5005FC7D18A684D689C68C8
:100B2400C9682A4324F47F4442EA012222439A609A
:100B34009A6842F4804202E09A6822F007029A60BE
:100B4400B3E78A684D689C68C9682A4324F47F44E3
:100B540042EA012222439A609A6842F07702EEE761
:100B64004C68CE68196A1D6A21F00A0125F0010556
:100B74001D629A69214322F0F00242EA06129A6148
:100B840019629A6822F0700242F05702D7E74C6863
:100B9400CE68196A1D6A21F00A0125F001051D625B
:100BA4009A69214322F0F00242EA06129A6119621C
:100BB4009A6822F0700242F04702C0E79A6822F075
:100BC400700242F00702BAE79A6822F0700242F01B
:100BD4001702B4E79A6822F0700242F02702AEE7E7
:100BE4007047704770477047036810B51A69044628
:100BF40091070ED5DA6892070BD56FF002021A61DD
:100C040001229B6902779B0777D0FFF7EAFF002355
:100C1400237723681A69500710D5DA6851070DD570
:100C24006FF004021A6102229B69227713F4407F59
:100C3400204668D0FFF7D5FF0023237723681A697D
:100C440012070FD5DA6810070CD56FF008021A6185
:100C54000422DB692277990720465AD0FFF7C1FFA7
:100C64000023237723681A69D20610D5DA68D006E0
:100C74000DD56FF010021A610822DB69227713F494
:100C8400407F20464BD0FFF7ACFF00232377236837
:100C94001A69D10708D5DA68D20705D56FF00102C1
:100CA40020461A6100F038F923681A69100608D53D
:100CB400DA68110605D56FF0800220461A6100F04B
:100CC400BEF823681A69520608D5DA68500605D5B5
:100CD4006FF0400220461A61FFF785FF23681A6906
:100CE400910622D5DA6892061FD56FF020022046BD
:100CF400BDE810401A6100F0A1B8FFF771FF20466B
:100D0400FFF770FF83E7FFF76BFF2046FFF76AFFEB
:100D140092E7FFF765FF2046FFF764FFA0E7FFF7C0
:100D24005FFF2046FFF75EFFAFE710BD244A03686C
:100D3400904212D002F5006290420ED0B0F1804F82
:100D44000BD0A2F59832904207D002F5806290420F
:100D540003D002F5806290421DD14A6823F07003EB
:100D64001343174A904212D002F5006290420ED00B
:100D7400B0F1804F0BD0A2F59832904207D002F523
:100D84008062904203D002F58062904203D1CA6827
:100D940023F4407313434A6923F08003134303602D
:100DA4008B68C3620B688362054B984203D003F5DA
:100DB4000063984201D10B690363012343617047C7
:100DC400002C014010B50446A0B190F83D3003F06A
:100DD400FF021BB980F83C2000F048F90223206888
:100DE40084F83D30211DFFF7A1FF0123002084F882
:100DF4003D3010BD012010BD90F83C3010B5012BE2
:100E04004FF0020318D080F83D3003680C685A682C
:100E1400496822F070025A605A6822435A609A68FC
:100E240022F080029A609A680A439A60012380F84B
:100E34003D30002380F83C30184610BD70477047A1
:100E440010B586B01022002102A800F075F9134BEA
:100E5400134C9A69204642F004029A619A6920214F
:100E640002F004020092009A9A6942F008029A6120
:100E74009B69002203F008030193019BFFF76CFBBD
:100E8400202302930123039300230493032302A941
:100E940020460593FFF774FA06B010BD0010024017
:100EA400000C014010B590B02822002106A800F0E3
:100EB40043F90021142201A800F03EF94FF48033D5
:100EC4000122022407930E934FF4E01306A806921E
:100ED4000A920F930D94FFF745FB0F234FF48062A2
:100EE40001930023214601A80294039304920593DD
:100EF400FFF700FD10B010BD08B5FFF7B5F9FFF717
:100F0400D1FFFFF79DFF00F07BF80248FFF7A4FD37
:100F1400FEE700BF30000020094B10B583420CD11E
:100F2400084C237853B9012220210748FFF714FB0A
:100F34002378B3FA83F35B09237010BD0022F3E72F
:100F44003000002028000020000C01407047000001
:100F54000E4B82B09A6942F001029A619A6902F0DA
:100F640001020092009ADA6942F08052DA61DB6988
:100F7400074A03F080530193019B536823F0E06315
:100F840043F00073536002B0704700BF001002408A
:100F9400000001407047FEE7FEE7FEE7FEE770470A
:100FA40070477047FFF772B90148FFF71DBE00BFD5
:100FB400300000200F4B1A6842F001021A60596891
:100FC4000D4A0A405A601A6822F0847222F4803270
:100FD4001A601A6822F480221A605A6822F4FE0207
:100FE4005A604FF41F029A604FF00062034B9A60FC
:100FF400704700BF001002400000FFF800ED00E061
:101004007FB51022002102A800F096F8002341F6D3
:101014001F424FF0804114480093019380E806007A
:10102400836041F2873203618023C2608361FFF7EA
:10103400C9FE08B1FFF78AFF4FF4805302A90A489A
:101044000293FFF714FD08B1FFF780FF0023694600
:10105400054800930193FFF7CFFE08B1FFF776FF31
:1010640007B05DF804FB00BF30000020036807B53B
:10107400B3F1804F12D103F50433DA691C2042F036
:101084000102DA610022DB69114603F001030193D6
:10109400019BFFF71FF91C20FFF750F903B05DF81F
:1010A40004FB0000002103E00B4B5B584350043168
:1010B4000A480B4B42189A42F6D30A4A02E000232C
:1010C40042F8043B084B9A42F9D3FFF773FF00F050
:1010D4000FF8FFF711FF70478C1100080000002083
:1010E4000C0000200C00002070000020FEE700002F
:1010F40070B500250C4E0D4CA41BA410A54209D1BB
:1011040000F022F800250A4E0A4CA41BA410A542A4
:1011140005D170BD56F8253098470135EEE756F8ED
:10112400253098470135F2E784110008841100083E
:10113400841100088811000803460244934200D138
:10114400704703F8011BF9E7F8B500BFF8BC08BC09
:101154009E467047F8B500BFF8BC08BC9E46704771
:1011640002030405060708090A0B0C0D0E0F1010E4
:101174000000000000000000010203040607080943
:041184000902000854
:04118800E501000875
:0C118C00010000001000000000A24A0456
:04000005080010A936
:00000001FF
