:020000040800F2
:1000000000500020991B0008D9180008DB180008D0
:10001000DD180008DF180008E118000800000000E3
:10002000000000000000000000000000E3180008CD
:10003000E518000800000000E7180008E9180008AB
:10004000E11B0008E11B0008E11B0008E11B0008A0
:10005000E11B0008E11B0008E11B0008E11B000890
:10006000E11B0008E11B0008E11B0008E11B000880
:10007000E11B0008E11B0008E11B0008E11B000870
:10008000E11B0008E11B0008E11B0008E11B000860
:10009000E11B0008E11B0008E11B0008E11B000850
:1000A000E11B0008E11B0008E11B0008E11B000840
:1000B000E11B0008E11B0008E11B0008E11B000830
:1000C000E11B0008E11B0008E11B0008E11B000820
:1000D000E11B0008E11B0008E11B0008E11B000810
:1000E000E11B0008E11B0008E11B00080000000004
:1000F0000000000000000000000000000000000000
:0C01000000000000000000005FF808F1A3
:10010C0010B5054C237833B9044B13B10448AFF345
:10011C0000800123237010BD0C00002000000000A3
:10012C003C1C000808B5034B1BB103490348AFF353
:10013C00008008BD00000000100000203C1C0008DE
:10014C0038B50E4B054618784FF47A73B3FBF0F3C1
:10015C000B4A1068B0FBF3F000F092F8044658B963
:10016C000F2D09D8024629464FF0FF3000F054F805
:10017C00044B20461D6038BD012038BD0000002016
:10018C000800002004000020074A08B5136803206B
:10019C0043F01003136000F02DF80020FFF7D0FFA0
:1001AC0001F072FB002008BD00200240034A044B02
:1001BC0011681B780B441360704700BF28000020A7
:1001CC0000000020014B1868704700BF2800002079
:1001DC0038B50446FFF7F6FF0546631C1EBF044BFB
:1001EC001B78E418FFF7EEFF401B8442FAD838BDA9
:1001FC0000000020074A0002D36800F4E06023F4FA
:10020C00E0631B041B0C43F0BF6343F40033034354
:10021C00D360704700ED00E0174B30B5DC68C4F3D9
:10022C000224C4F10703251D042B28BF0423062D2B
:10023C004FF0010598BF002405FA03F303F1FF33D7
:10024C0088BF033C1940A14005FA04F4013C22404C
:10025C00002842EA01024FEA0212A9BF00F16040F5
:10026C00064BD2B200F56140BBBF00F00F00D2B21A
:10027C0080F800231A5430BD00ED00E014ED00E0CE
:10028C000138B0F1807F0AD2F021064B064A586043
:10029C0082F823100020072298601A607047012012
:1002AC00704700BF10E000E000ED00E02DE9F74FD3
:1002BC0000242646664BDFF8A8E1DFF8A8C10A68DF
:1002CC0032FA06F502D103B0BDE8F08F4FF0010809
:1002DC0008FA06F802EA080290457FD14D68122D03
:1002EC0000F0AA8000F28380022D00F0A28077D863
:1002FC00002D00F08980012D00F099804FF00F093E
:10030C00FF2A93BF824606F18045083DD0F800B025
:10031C0092BFB500D0F804B0AD0009FA05F82BEA8D
:10032C00080804FA05F588BF00F1040A48EA050537
:10033C00CAF80050D1F804A01AF0805F4ED0454D99
:10034C00444FAD6926F0030845F00105BD61BD6958
:10035C0008F1804805F00105019508F5803806F094
:10036C00030B019D4FEA8B0BD8F8085009FA0BF9D7
:10037C0025EA0909384DA84263D005F58065A842E5
:10038C0061D005F58065A8425FD005F58065A8426F
:10039C000CBF0325042505FA0BF545EA0905C8F839
:1003AC0008501D681AF4803F14BF154395431D6017
:1003BC005D681AF4003F14BF154395435D609D685A
:1003CC001AF4801F14BF154395439D60DD681AF421
:1003DC00001F14BF2A4325EA0202DA6001366EE7D9
:1003EC00032D22D0112D89D1CC68043486E71B4F04
:1003FC00BD4209D012D8DFF870904D4504D009F5F4
:10040C0080394D457FF47AAF8C68C4B1012C0CBF98
:10041C00C0F81080C0F8148008246FE77545F3D03D
:10042C006545F1D0DFF84490EBE7002466E7CC6833
:10043C0064E7CC68083461E7CC680C345EE70424CC
:10044C005CE70025A7E70125A5E70225A3E700BF88
:10045C00000401400010024000080140000021107F
:10046C0000003110000032100000111000002210AA
:10047C000AB1016170470904FBE7016800224B696E
:10048C0013F4806310D06FF480634B6120230263FC
:10049C0080F83D3080F83E20036C80F83C2043F01F
:1004AC000403036401207047184670472DE9F84394
:1004BC00044617469946C1F307488EB22568B8F131
:1004CC00010F0CBF6B69AB6936EA030314BF012043
:1004DC00002008B9BDE8F8836B695A0516D52B685E
:1004EC00202243F400732B606FF480636B61002354
:1004FC00236384F83D2084F83E30226C42F00402E1
:10050C00226484F83C300120BDE8F8837B1CD5D0F4
:10051C00FFF758FEA0EB0900874201D3002FCDD185
:10052C0000232022236384F83D2084F83E30226C83
:10053C0042F02002E4E770B504460D4616462368E7
:10054C005B695B0701D5002070BD2046FFF795FF66
:10055C00A8B96A1CF3D0FFF735FE801B854201D386
:10056C00002DECD100232022236384F83D2084F855
:10057C003E30226C84F83C3042F020022264012090
:10058C0070BD2DE9F843044690461F46089EC1F302
:10059C0007498DB22368B9F1010F0CBF5B699B69E8
:1005AC0035EA03030CBF01230023434502D000208E
:1005BC00BDE8F8837B1CEDD0FFF704FE801B87425F
:1005CC0001D3002FE6D100232022236384F83D20A1
:1005DC0084F83E30226C84F83C3042F020022264D5
:1005EC000120BDE8F88370B504460D461646236815
:1005FC005B691B0601D5002070BD2046FFF73DFF4F
:10060C00A8B96A1CF3D0FFF7DDFD801B854201D32E
:10061C00002DECD100232022236384F83D2084F8A4
:10062C003E30226C84F83C3042F0200222640120DF
:10063C0070BD00002DE9FF4115460268984613680D
:10064C000B9E43F4807313600F4600960A9B0022A6
:10065C004FF001110446FFF794FF18B1012004B0CC
:10066C00BDE8F081236807F0FE071F610A9A334644
:10067C0016492046FFF71AFF0028EFD12368039094
:10068C005A690A9903929B69324603932046039B4D
:10069C00FFF7A9FF40B1236C042B01BF226813683C
:1006AC0043F400731360D9E7B8F1010F236802D14A
:1006BC00EDB21D61D3E72A0A1A610A993246204627
:1006CC00FFF791FF0028E6D12368F1E70200010053
:1006DC0070B5044608B9012070BD90F83D3003F0A8
:1006EC00FF021BB980F83C2000F0CAFF24232268CB
:1006FC0084F83D30136823F00103136000F09AFB7B
:10070C006568414B9D424DD8404B9842E3D94049D6
:10071C002268B0FBF1F1536823F03F030B435360A5
:10072C00136A23F03F03013119431162D169364B2F
:10073C0021F44F419D4221F0FF0100F1FF3048D8D8
:10074C006D00B0FBF5F00130C0F30B03042B38BF88
:10075C0004230B43D3611168206AE36921F0C001C3
:10076C0003430B4313609168E068236921F4034150
:10077C00034321F0FF010B439360D168A0696369C7
:10078C0021F0FF0103430B43D3601368002043F0B7
:10079C00010313602023206484F83D30206384F827
:1007AC003E0070BD1B4B984295D9194E4FF4967173
:1007BC00B0FBF6F622687143536823F03F033343D2
:1007CC004FF47A765360136AB1FBF6F123F03F03D2
:1007DC00A9E7A36853B905EB4503B0FBF3F0431C41
:1007EC00C3F30B036BB143F40043B2E719236B4320
:1007FC00B0FBF3F0431CC3F30B0313B143F44043BE
:10080C00A7E70123A5E700BFA08601007F841E0097
:10081C0040420F00FF083D002DE9F743044699467E
:10082C000F4690460C9EFFF7CDFC94F83D300546E4
:10083C00202B03D0022003B0BDE8F08300901923D5
:10084C0001223B492046FFF79CFE0028F2D194F888
:10085C003C30012BEED0012384F83C302368204639
:10086C001A68D10758BF1A6839465CBF42F00102BA
:10087C001A601A6822F400621A60212384F83D3051
:10088C00402384F83E30002323640A9B0195636265
:10089C00BDF82C3000966385638D42462385254B2D
:1008AC00E3624B46FFF7C6FE00282AD00120C2E7C0
:1008BC00FFF799FE40B1236C042B01BF226813682B
:1008CC0043F400731360F1E7636A27681A4612F861
:1008DC00011B39616262628D218D013A92B262858F
:1008EC007A69481E80B2520720850AD548B15A78D9
:1008FC0002333A616362638D0239013B9BB22185FD
:10090C006385238D2A4631462046002BD0D1FFF734
:10091C0012FE0028CFD12268136843F400731360D1
:10092C00202384F83C0084F83D3084F83E0082E7B4
:10093C00020010000000FFFF0122014B1A607047FB
:10094C0020000E422DE9F341054608B901203CE098
:10095C000368DB0710D42B689F075DD42B6819073D
:10096C0000F194802B685A0700F1BE80E8690028DA
:10097C0040F02C81002028E08F4C636803F00C03BE
:10098C00042B07D0636803F00C03082B09D16368B0
:10099C00DE0306D523689C03DDD56B68002BDAD10A
:1009AC00D4E76B68B3F5803F12D1236843F48033EE
:1009BC002360FFF707FC064623689803CBD4FFF7A8
:1009CC0001FC801B6428F7D9032002B0BDE8F0813C
:1009DC009BB9236823F480332360236823F480239A
:1009EC002360FFF7EFFB064623689903B3D5FFF7A7
:1009FC00E9FB801B6428F7D9E6E7B3F5A02F236841
:100A0C0003D143F480232360CFE723F480332360A6
:100A1C00236823F48023CBE7674C636813F00C0F37
:100A2C0007D0636803F00C03082B10D16368DA035A
:100A3C000DD423689B0702D52B69012B86D1236823
:100A4C006A6923F0F80343EAC203236086E72A6944
:100A5C005A4B6AB101221A60FFF7B4FB06462368B1
:100A6C009F07ECD4FFF7AEFB801B0228F7D9ABE74E
:100A7C001A60FFF7A7FB0646236898077FF56EAF51
:100A8C00FFF7A0FB801B0228F6D99DE7AA694A4C08
:100A9C004B4BDAB101221A60FFF794FB0646636AEE
:100AAC009B070DD54FF4FA52464B1B68B3FBF2F380
:100ABC00019300BF019B5A1E0192002BF9D151E703
:100ACC00FFF780FB801B0228E9D97DE71A60FFF74E
:100ADC0079FB0646636A9F077FF544AFFFF772FB0D
:100AEC00801B0228F6D96FE7334CE369D80024D475
:100AFC000127E36943F08053E361E36903F080531A
:100B0C000093009B304E3368D90518D5EB68012B48
:100B1C0026D1236A43F001032362FFF753FB41F212
:100B2C0088368046236A9B073FD5002F3FF41EAFC3
:100B3C00E36923F08053E36118E70027E2E73368A9
:100B4C0043F480733360FFF73DFB80463368DA056E
:100B5C00DCD4FFF737FBA0EB08006428F6D933E7A9
:100B6C00ABB9236A41F2883823F001032362236A6C
:100B7C0023F004032362FFF725FB0646236A98073C
:100B8C00D3D5FFF71FFB801B4045F7D91CE7052B7E
:100B9C00236A03D143F004032362BAE723F0010371
:100BAC002362236A23F00403B6E7FFF70BFBA0EBE9
:100BBC000800B042B6D907E70010024000004242DC
:100BCC008004424208000020007000402A4B5A6802
:100BDC001C4602F00C02082A3DD00023274E0228A6
:100BEC0033602BD1FFF7EEFA0746236899011FD427
:100BFC002B6AB3F5803F05D16268A96822F40032F4
:100C0C000A436260696A62680B4322F474121343EC
:100C1C00636001233360FFF7D5FA054623689A0118
:100C2C003FF5A8AEFFF7CEFA401B0228F6D9CBE66B
:100C3C00FFF7C8FAC01B0228D7D9C5E6FFF7C2FADE
:100C4C00054623689B017FF595AEFFF7BBFA401B69
:100C5C000228F6D9B8E601283FF4B7AE58682B6ADB
:100C6C0000F480329A427FF471AE6B6A00F470101B
:100C7C00C01A18BF0120A8E60010024060004242D2
:100C8C0030B5194B87B002AC03F110052246186839
:100C9C005968083303C2AB421446F7D101238DF8CF
:100CAC000430022311498DF805304B6803F00C0217
:100CBC00082A17D1C3F3834206A80244DB0312F8B7
:100CCC00102C0CD54B680A48C3F34043504306AA7A
:100CDC00134413F8143CB0FBF3F007B030BD0548D7
:100CEC005043FAE70248F8E7541C00080010024091
:100CFC0000127A0000093D002DE9F0410D46044632
:100D0C0010B90120BDE8F081454A136803F00703D0
:100D1C008B4229D321688E0731D4CA0744D4404A68
:100D2C00136803F007039D4267D322683D4D12F010
:100D3C00040F6ED1130706D56B68226923F4605338
:100D4C0043EAC2036B60FFF79BFF6B68364AC3F341
:100D5C000313D35CD840354B1860354B1868FFF73C
:100D6C00EFF90020BDE8F081136823F007030B4373
:100D7C001360136803F007039942C2D1CAE7294BE9
:100D8C0011F0040F1EBF5A6842F4E0625A60080763
:100D9C0042BF5A6842F460525A605A68A06822F006
:100DAC00F00202435A60B8E762681E4E012A3368AB
:100DBC001BD113F4003FA4D0736841F2883823F0A0
:100DCC00030313437360FFF7FDF90746736862680A
:100DDC0003F00C03B3EB820FA1D0FFF7F3F9C01BA8
:100DEC004045F3D90320BDE8F081022A02D113F06B
:100DFC00007FE0E713F0020FDDE7136823F0070331
:100E0C002B431360136803F007039D427FF479AF03
:100E1C008BE76B68E16823F4E0630B436B6089E755
:100E2C000020024000100240741C00080800002042
:100E3C0004000020044B054A5B68C3F30223D35C17
:100E4C00034A1068D840704700100240841C000808
:100E5C0008000020044B054A5B68C3F3C223D35C33
:100E6C00034A1068D840704700100240841C0008E8
:100E7C000800002003682DE9F341D907054620D569
:100E8C00354CE369DA0032D40127E36943F080532F
:100E9C00E361E36903F080530193019B2F4E3368A8
:100EAC00DB0526D5236A13F4407336D1236A6A68AE
:100EBC0023F44073134323621FB1E36923F080537F
:100ECC00E3612868830706D5234AA968536823F48D
:100EDC0040430B43536010F010001BD01E4AE968CE
:100EEC005368002023F480030B43536012E0002767
:100EFC00D4E7336843F480733360FFF763F98046BB
:100F0C003368D805CED4FFF75DF9A0EB0800642850
:100F1C00F6D9032002B0BDE8F0816A6802F4407291
:100F2C009342C3D001200E4A236A1060002023F4A0
:100F3C00407110602162D907B8D5FFF743F941F22F
:100F4C0088380646236A9A07B0D4FFF73BF9801B12
:100F5C004045F7D9DDE700BF0010024000700040AB
:100F6C004004424270B50446354B86B002AD03F1E5
:100F7C0010062A4618685968083303C2B34215464E
:100F8C00F7D101238DF8043002239C428DF80530F3
:100F9C0047D0102C17D0012C4FD140F20231294AE6
:100FAC00136A1940B1F5817F44D003F44073B3F553
:100FBC00007F2DD149F64040536A13F0020F08BF51
:100FCC00002006B070BD1F4B5968186810F0807077
:100FDC00F7D0C1F3834206A8024412F8100CCA03DE
:100FEC0041BF5A6806A9C2F34042521844BF12F8D6
:100FFC00141C154A5B684CBFB2FBF1F2134A5B023E
:10100C0002FB00F0DDD403234000B0FBF3F0D8E783
:10101C00B3F5407F11D113684FF2244013F4003F15
:10102C00CDE7FFF717FF074B5B68C3F38133013341
:10103C005B00EAE74FF40040C3E70020C1E700BFC4
:10104C00641C00080010024000127A0000093D00E8
:10105C00036830B59A69D869996995B28CB2A54282
:10106C001DBFD86980B240EA014080B208BF40EA97
:10107C00024030BD0368186A5B6A9BB243EA0040C9
:10108C0070470023092803D840EA0310C0B2704708
:10109C000A380133C0B2F5E70A22030900F00F0049
:1010AC0002FB0300C0B27047022970B54FF0170362
:1010BC0000F5FA654FF009061AD84B4300F2CF74CD
:1010CC00B3FBF6F04FF4C873B4FBF3F304322A44C9
:1010DC00104400EB940018446423B4FBF3F4001B9D
:1010EC000723B0FBF3F3C3EBC303C01AC0B270BD4C
:1010FC0003FB01F0B0FBF6F002322A444FF4C87344
:10110C0010446422B5FBF3F3B5FBF2F200EB95004F
:10111C001844801AE4E738B50446FFF753F805463F
:10112C0023685A68920605D55A68002042F01002CE
:10113C005A6038BDFFF746F8401BB0F57A7FEFD9FF
:10114C00032038BD026838B55368044623F01003F9
:10115C005360FFF737F8054623685B689B0601D59B
:10116C00002038BDFFF72EF8401BB0F57A7FF3D97D
:10117C00032038BD38B505460C46FFF7CCFF58B9EF
:10118C002B68220CA4B29A612846DC61FFF7DAFFC7
:10119C00003018BF012038BD012038BD38B50546D8
:1011AC000C46FFF7B8FF58B92B68220CA4B21A6290
:1011BC0028465C62FFF7C6FF003018BF012038BD1F
:1011CC00012038BD70B50446E0B1D9B1037C0226CC
:1011DC00012B46D001234674037408784E78897825
:1011EC0092B93C254FF46163754303FB00504518DD
:1011FC0029462046FFF7BEFF0646B0B104236374B0
:10120C000023237401262CE0FFF746FF05463046E9
:10121C00FFF742FF3C2358434FF4616303FB050582
:10122C000846FFF739FF0544E2E722682046536879
:10123C0023F005035360FFF71DFF431C0DD08542BF
:10124C000BD900F5A83101F5C0712046FFF7A6FFB8
:10125C0018B1042326746374D4E701236374002348
:10126C002374304670BD00002DE9F8430D469046BE
:10127C00044610B90120BDE8F8830029FAD00368B0
:10128C005B685E07F6D4FFF7E3FE4FF46162B0FBD8
:10129C00F2F3074602FB13023C20B2FBF0F100FB19
:1012AC001122172B6970AA7040F285801821B3FBAC
:1012BC00F1F201FB123320462B70FFF7DBFE411CD1
:1012CC00064604D087422CBF4FF0FF36C61B404B5E
:1012DC002046B7FBF3F903FB19794946FFF74AFFA0
:1012EC000028C7D1721C2FD009EB06012046FFF74E
:1012FC0055FF0028BED1364B0026B7FBF3F74FF055
:10130C00640E4FF4C87C40F2D529E07B617BA27B54
:10131C00B7421BD1C9B2D2B2E0736173A273FFF7AB
:10132C00C3FE2073B8F1000F0BD02878FFF7A9FE8D
:10133C0028706878FFF7A5FE6870A878FFF7A1FE03
:10134C00A8700020BDE8F8833146CFE74B1E092B6F
:10135C0035D829FA03F3DB072FD421F00203042B31
:10136C0001D0092B04D11D2A06D9013101222DE00F
:10137C0002292BD11B2A01D8013227E01C2A13D1B8
:10138C0082B2930712D1B2FBFEF30EFB13239BB276
:10139C007BB9B2FBFCF30CFB13239BB2002B16BFE7
:1013AC0001221D22032111E01D2A0FD1012203214C
:1013BC000CE01D220AE02B70B4E71E2AD4E70C299E
:1013CC00CBD11E2AD8D901221146013001369FE714
:1013DC008051010070B50D46044658B351B3037CDF
:1013EC000220012B27D0012360742374C8781ABB08
:1013FC00E0734B7863738B78A373A27B617BE07B88
:10140C00FFF752FE207328702046FFF721FE1C4B7D
:10141C00984230D9A3F60F63B0FBF3F503FB150527
:10142C0020462946FFF7A6FE064688B104236374BE
:10143C0000232374012070BDFFF72EFEE073487863
:10144C00FFF72AFE60738878FFF726FEA073D4E7B7
:10145C002046FFF70FFE431C0DD085420BD900F53B
:10146C00A83101F5C0712046FFF798FE18B104238E
:10147C0026746374DEE7012300206374207470BD4E
:10148C008F5F0100F7B5174600220C46ADF804201B
:10149C008DF80620054618B90122104603B0F0BDA0
:1014AC000029F9D001A9FFF7DFFE02460028F3D18D
:1014BC002B7B2370E87BE0706E7B6670A97BA17040
:1014CC00002FEAD0FFF7DDFDE0703046FFF7D9FDC5
:1014DC0060700846FFF7D5FDA070DEE738B504460E
:1014EC00A8B10268536823F008035360FEF76AFE44
:1014FC00054623685B681B0701D5002038BDFEF745
:10150C0061FE401BB0F57A7FF3D9032038BD012072
:10151C0038BD000010B5044670B1437C03F0FF02E7
:10152C0013B9027400F092F9022320466374FFF79A
:10153C00D5FF18B104236374012010BD2046FFF7BA
:10154C00EAFD0028F6D12268A068536823F007034F
:10155C005360174A18B1116B21F001011163D36A62
:10156C0023F460730343D3626068431C05D10120EC
:10157C00FFF7F8FC0028DDD001382268936823F0CF
:10158C000F0343EA10439360D36880B21B0C1B0417
:10159C001843D0602046FFF7D5FD012310B104227B
:1015AC006274C9E7E0736373A373637410BD00BF07
:1015BC00006C0040102210B588B00DEB0200002129
:1015CC0000F02EFB1C4B1D4C9A69204642F0100279
:1015DC009A619A694FF4005102F010020092009A3D
:1015EC009A6942F020029A619A6902F020020192F3
:1015FC00019A9A6942F004029A619A6902F0040213
:10160C000292029A9A6942F008029A619B6900223E
:10161C0003F008030393039BFEF72AFF4FF40053D8
:10162C0000220493012304A92046059306920793F4
:10163C00FEF73CFE08B010BD001002400010014047
:10164C0008B50C480C4BDFF834E04FF4804280E8CE
:10165C000840002302618360C36043618361C361FE
:10166C000362FFF735F818B1BDE8084000F0B0B8D8
:10167C0008BD00BF2C00002000540040A0860100D3
:10168C0010B5044686B01022002102A800F0C8FA5A
:10169C002268114B9A421CD1104C02A9A369104824
:1016AC0043F00803A361A36903F008030093009BB4
:1016BC00C02302931223039303230593FEF7F6FD35
:1016CC00E36943F40013E361E36903F4001301934A
:1016DC00019B06B010BD00BF00540040001002403A
:1016EC00000C0140282230B595B00DEB0200002112
:1016FC0000F096FA142200210DEB020000F090FA93
:10170C001022002101A800F08BFA05230A934FF454
:10171C008033012402250B9312934FF4E0130AA893
:10172C0013930D940E941195FFF70CF90F234FF4AE
:10173C00806205930023294605A807930892099314
:10174C000695FFF7D9FA4FF4807301A80194029320
:10175C00FFF790FB15B030BD07B5FEF715FD012561
:10176C00FFF7C0FFFFF726FFFFF76AFF00F032F824
:10177C0000F004F900F087F9124E134C01222146B7
:10178C003046FFF771FD012210493046FFF77AFE13
:10179C000323227819460095012000F0B1F90323A8
:1017AC00627819460095322000F0AAF90323A2783A
:1017BC00009519465A2000F0A3F94FF47A70FEF701
:1017CC0007FDDAE78800002084000020800000205C
:1017DC007047000013B54FF0FF3200244FF48073B4
:1017EC0018481949ADF800408DF80240019480E882
:1017FC000E00FFF78FFE08B1FFF7EAFF01226946E2
:10180C0010488DF800408DF801408DF80240FFF72C
:10181C00D9FC08B1FFF7DCFF03238DF80430022359
:10182C008DF8053019238DF806302023012201A9EB
:10183C0004488DF80730FFF7CDFD08B1FFF7C8FF5E
:10184C0002B010BD880000200028004007B50B4BEB
:10185C0002689A420ED1FFF76FF8094BDA6942F031
:10186C000062DA610122DB6903F000630193019BE2
:10187C00044B1A6003B05DF804FB00BF0028004065
:10188C00001002403C0442420E4B82B09A6942F076
:10189C0001029A619A6902F001020092009ADA69D7
:1018AC0042F08052DA61DB69074A03F080530193FE
:1018BC00019B536823F0E06343F00073536002B064
:1018CC00704700BF00100240000001407047FEE767
:1018DC00FEE7FEE7FEE7704770477047FEF766BC11
:1018EC000F4B1A6842F001021A6059680D4A0A40FF
:1018FC005A601A6822F0847222F480321A601A68D4
:10190C0022F480221A605A6822F4FE025A604FF4C4
:10191C001F029A604FF00062034B9A60704700BF41
:10192C00001002400000FFF800ED00E07FB56423DA
:10193C0006AA02F8010D0293012378218DE80C0010
:10194C0003480022FEF768FF07B05DF804FB00BFF8
:10195C002C0000207FB5642306AA02F8010D029327
:10196C00012378218DE80C0003484022FEF754FF38
:10197C0007B05DF804FB00BF2C00002008B5642004
:10198C00FEF726FCAE20FFF7D1FF2020FFF7CEFF9D
:10199C001020FFF7CBFFB020FFF7C8FFC820FFF7E0
:1019AC00C5FF0020FFF7C2FF1020FFF7BFFF40204C
:1019BC00FFF7BCFF8120FFF7B9FFFF20FFF7B6FF51
:1019CC00A120FFF7B3FFA620FFF7B0FFA820FFF779
:1019DC00ADFF3F20FFF7AAFFA420FFF7A7FFD320FE
:1019EC00FFF7A4FF0020FFF7A1FFD520FFF79EFF14
:1019FC00F020FFF79BFFD920FFF798FF2220FFF77D
:101A0C0095FFDA20FFF792FF1220FFF78FFFDB2004
:101A1C00FFF78CFF2020FFF789FF8D20FFF786FF53
:101A2C001420FFF783FFBDE80840AF20FFF77EBF0F
:101A3C0010B504465039C8B2FFF778FF200940F0C2
:101A4C001000FFF773FF04F00E0040F00100BDE83A
:101A5C001040FFF76BBF70B50646B0242046FFF769
:101A6C0065FF0020FFF762FF1020FFF75FFF812565
:101A7C00013D04D10134E4B2B82CEFD170BD304635
:101A8C00FFF768FFF4E70020FFF7E5BFF8B5203A51
:101A9C000C46D5B20206064642BF00260234E4B21A
:101AAC00102B2146304619D10027FFF7C1FF124AEF
:101ABC0002EB0515E85D0137FFF74CFF082FF9D154
:101ACC00611CC9B23046FFF7B3FF00242B19187AFA
:101ADC000134FFF73FFF082CF8D1F8BDFFF7A8FF42
:101AEC0006230024054A03FB0525285D0134FFF776
:101AFC0031FF062CF9D1F8BDB41E00088C1C00086F
:101B0C002DE9F04F9946002405468A4606464FF0CB
:101B1C000A0885B09DF8387003927B0802930194F3
:101B2C0009F1FF3B4C4502D105B0BDE8F08F012215
:101B3C00ABEB0403DBB2013BDBB2FF2B19D1039BF4
:101B4C000199B3FBF2F2B2FBF8F308FB1322D3B208
:101B5C00A1B9A34512DD7AB93B462022514628464D
:101B6C00FFF794FF029B01341D441E44EDB2F6B204
:101B7C00D8E708FB02F2DEE70122019203F1300202
:101B8C00D2B23B4651463046EAE70000002103E062
:101B9C000B4B5B58435004310A480B4B42189A428A
:101BAC00F6D30A4A02E0002342F8043B084B9A425F
:101BBC00F9D3FFF795FE00F00FF8FFF7CDFD704756
:101BCC00AC240008000000200C0000200C000020B9
:101BDC009C000020FEE7000070B500250C4E0D4C5B
:101BEC00A41BA410A54209D100F022F800250A4E2E
:101BFC000A4CA41BA410A54205D170BD56F8253083
:101C0C0098470135EEE756F8253098470135F2E74D
:101C1C00A4240008A4240008A4240008A824000874
:101C2C0003460244934200D1704703F8011BF9E7C5
:101C3C00F8B500BFF8BC08BC9E467047F8B500BFAD
:081C4C00F8BC08BC9E4670477D
:101C540002030405060708090A0B0C0D0E0F1010E9
:101C640002030405060708090A0B0C0D0E0F1010D9
:101C74000000000000000000010203040607080938
:101C84000000000001020304000000000000000046
:101C9400002F000000000700070000147F147F14C9
:101CA40000242A7F2A12006264081323003649554F
:101CB400225000000503000000001C224100000027
:101CC40041221C000014083E08140008083E0808BD
:101CD400000000A060000008080808080000606018
:101CE4000000002010080402003E5149453E000057
:101CF400427F4000004261514946002141454B3139
:101D0400001814127F10002745454539003C4A4904
:101D14004930000171090503003649494936000676
:101D24004949291E000036360000000056360000DE
:101D34000008142241000014141414140000412259
:101D4400140800020151090600324959513E007C31
:101D54001211127C007F49494936003E414141221B
:101D6400007F4141221C007F49494941007F090904
:101D74000901003E4149497A007F0808087F0000B4
:101D8400417F4100002040413F01007F081422416F
:101D9400007F40404040007F020C027F007F040827
:101DA400107F003E4141413E007F09090906003E83
:101DB4004151215E007F09192946004649494931AC
:101DC4000001017F0101003F4040403F001F2040CF
:101DD400201F003F4038403F00631408146300078D
:101DE4000870080700615149454300007F414100E4
:101DF40000552A552A55000041417F000004020184
:101E04000204004040404040000001020400002061
:101E140054545478007F484444380038444444209F
:101E240000384444487F00385454541800087E094C
:101E340001020018A4A4A47C007F08040478000014
:101E4400447D4000004080847D00007F10284400D1
:101E54000000417F4000007C04180478007C0804E2
:101E6400047800384444443800FC2424241800181E
:101E7400242418FC007C080404080048545454200A
:101E840000043F444020003C4040207C001C204093
:101E9400201C003C4030403C004428102844001CD6
:101EA400A0A0A07C004464544C44141414141414CE
:101EB400000000000000000000000000000000001E
:101EC400000000F8000000000000003330000000B3
:101ED40000100C06100C06000000000000000000BA
:101EE40040C07840C0784000043F04043F0404002C
:101EF400007088FC08300000001820FF211E00003C
:101F0400F008F000E018000000211C031E211E0050
:101F140000F00888700000001E21232419272110D6
:101F240010160E0000000000000000000000000079
:101F3400000000E018040200000000071820400020
:101F440000020418E0000000004020180700000010
:101F5400404080F0804040000202010F0102020074
:101F6400000000F0000000000101011F0101010058
:101F7400000000000000000080B0700000000000BD
:101F84000000000000000000000101010101010146
:101F940000000000000000000030300000000000DD
:101FA40000000000806018040060180601000000B2
:101FB40000E010080810E000000F102020100F00AF
:101FC400001010F8000000000020203F2020000036
:101FD400007008080888700000302824222130008E
:101FE40000300888884830000018202020110E0096
:101FF4000000C02010F8000000070424243F24003F
:1020040000F80888880808000019212020110E0013
:1020140000E0108888180000000F112020110E0025
:1020240000380808C83808000000003F000000001D
:102034000070880808887000001C222121221C00DE
:1020440000E010080810E0000000312222110F0007
:10205400000000C0C000000000000030300000009C
:10206400000000800000000000008060000000000C
:102074000000804020100800000102040810200025
:102084004040404040404000040404040404040070
:102094000008102040800000002010080402010005
:1020A400007048080808F000000000303601000005
:1020B400C030C828E810E0000718272423140B00B8
:1020C4000000C038E0000000203C23020227382032
:1020D40008F8888888700000203F202020110E0016
:1020E400C03008080808380007182020201008000D
:1020F40008F808080810E000203F202020100F00F6
:1021040008F88888E8081000203F202023201800C1
:1021140008F88888E8081000203F20000300000029
:10212400C03008080838000007182020221E0200CA
:1021340008F808000008F808203F210101213F2089
:10214400000808F8080800000020203F20200000B4
:1021540000000808F8080800C08080807F000000A4
:1021640008F888C028180800203F200126382000DD
:1021740008F8080000000000203F20202020300044
:1021840008F8F800F8F80800203F003F003F20005E
:1021940008F830C00008F808203F200007183F0066
:1021A400E01008080810E0000F10202020100F0095
:1021B40008F808080808F000203F21010101000088
:1021C400E01008080810E0000F18242438504F00CD
:1021D40008F8888888887000203F2000030C30208D
:1021E40000708808080838000038202121221C00CB
:1021F400180808F8080818000000203F2000000014
:1022040008F808000008F808001F202020201F00FC
:102214000878880000C83808000007380E0100005C
:10222400F80800F80008F800033C0700073C030026
:10223400081868808068180820302C03032C30208C
:102244000838C800C83808000000203F20000000FB
:1022540010080808C8380800203826212020180053
:10226400000000FE020202000000007F4040400027
:10227400000C30C000000000000000010638C0005F
:1022840000020202FE000000004040407F00000007
:10229400000004020202040000000000000000002C
:1022A400000000000000000080808080808080802A
:1022B4000002020400000000000000000000000012
:1022C40000008080808000000019242222223F2008
:1022D40008F8008080000000003F112020110E004B
:1022E4000000008080800000000E112020201100DA
:1022F400000000808088F800000E112020103F208C
:102304000000808080800000001F2222222213000F
:10231400008080F0888888180020203F202000005A
:102324000000808080808000006B9494949360000F
:1023340008F8008080800000203F210000203F201A
:1023440000809898000000000020203F202000001A
:10235400000000809898000000C08080807F00000A
:1023640008F8000080808000203F24022D302000E7
:10237400000808F8000000000020203F2020000092
:102384008080808080808000203F20003F20003FAC
:102394008080008080800000203F210000203F20BA
:1023A4000000808080800000001F202020201F006B
:1023B400808000808000000080FFA12020110E009A
:1023C4000000008080808000000E112020A0FF808B
:1023D400808080008080800020203F212000010038
:1023E400000080808080800000332424242419008D
:1023F400008080E0808000000000001F202000009A
:102404008080000000808000001F202020103F20DA
:10241400808080000080808000010E30080601006A
:1024240080800080008080800F300C030C300F000F
:1024340000808000808080000020312E0E3120003A
:10244400808080000080808080818E70180601006A
:1024540000808080808080000021302C2221300088
:1024640000000000807C020200000000003F4040A9
:1024740000000000FF00000000000000FF0000005A
:102484000002027C800000000040403F0000000089
:102494000006010102020404000000000000000024
:0424A40031010008FA
:0424A8000D0100081A
:0C24AC0001000000100000000024F400FB
:0400000508001B993B
:00000001FF
