:020000040800F2
:10000000000001205D120008CD100008CF1000088C
:10001000D1100008D3100008D5100008000000001F
:10002000000000000000000000000000D7100008E1
:10003000D910000800000000DB100008DD100008E7
:10004000A5120008A5120008A5120008A5120008B4
:10005000A5120008A5120008A5120008A5120008A4
:10006000A5120008A5120008A5120008A512000894
:10007000A5120008A5120008A5120008A512000884
:10008000A5120008A5120008A5120008A512000874
:10009000A5120008A5120008A5120008A512000864
:1000A000A5120008A5120008A5120008A512000854
:1000B000A5120008A5120008A5120008A512000844
:1000C000A5120008A5120008A5120008A512000834
:1000D000A5120008A5120008A5120008A512000824
:1000E000A5120008A5120008A5120008A512000814
:1000F000A5120008A5120008A5120008A512000804
:10010000A5120008A5120008A5120008A5120008F3
:10011000A5120008A5120008A5120008A5120008E3
:10012000A5120008A5120008A5120008A5120008D3
:1001300000000000000000000000000000000000BF
:1001400000000000000000000000000000000000AF
:10015000000000000000000000000000000000009F
:10016000000000000000000000000000000000008F
:10017000000000000000000000000000000000007F
:10018000000000000000000000000000000000006F
:10019000000000000000000000000000000000005F
:1001A000000000000000000000000000000000004F
:1001B000000000000000000000000000000000003F
:1001C000000000000000000000000000000000002F
:1001D000000000000000000000000000000000001F
:0401E0005FF8E0F1F3
:1001E40010B5054C237833B9044B13B10448AFF36D
:1001F40000800123237010BD0C00002000000000CB
:100204000013000808B5034B1BB103490348AFF3BF
:10021400008008BD0000000010000020001300084A
:1002240038B50E4B054618784FF47A73B3FBF0F3E8
:100234000B4A1068B0FBF3F000F092F8044658B98A
:100244000F2D09D8024629464FF0FF3000F054F82C
:10025400044B20461D6038BD012038BD000000203D
:100264000800002004000020074A08B51368032092
:1002740043F01003136000F02DF80020FFF7D0FFC7
:1002840000F000FF002008BD00200240034A044B98
:1002940011681B780B441360704700BF28000020CE
:1002A40000000020014B1868704700BF28000020A0
:1002B40038B50446FFF7F6FF0546631C1EBF044B22
:1002C4001B78E418FFF7EEFF401B8442FAD838BDD0
:1002D40000000020074A0002D36800F4E06023F421
:1002E400E0631B041B0C43F0BF6343F4003303437C
:1002F400D360704700ED00E0174B30B5DC68C4F301
:100304000224C4F10703251D042B28BF0423062D52
:100314004FF0010598BF002405FA03F303F1FF33FE
:1003240088BF033C1940A14005FA04F4013C224073
:10033400002842EA01024FEA0212AFBF00F1604016
:10034400064B00F00F00D2B2A5BFD2B200F5614057
:100354001A5480F8002330BD00ED00E014ED00E0F5
:100364000138B0F1807F0AD2F021064B064A58606A
:1003740082F823100020072298601A607047012039
:10038400704700BF10E000E000ED00E02DE9F74FFA
:10039400002216466C4F6D4BDFF8B8E1DFF8B8C1A8
:1003A4004FF001080C6808FA06F808EA0404A045AE
:1003B40040F085804D68122D00F0B78000F28D80EA
:1003C400022D00F0AF8000F28180002D00F09180BA
:1003D400012D00F0A5804FF00F09FF2C93BF82463A
:1003E40006F18045083DD0F800B092BFB500D0F8C2
:1003F40004B0AD0009FA05F82BEA080802FA05F57D
:1004040088BF00F1040A48EA0505CAF80050D1F88B
:1004140004A01AF0805F52D0BD6926F0030845F0AD
:100424000105BD61BD6908F1804805F0010501952C
:1004340008F5803806F0030B019D4FEA8B0BD8F8C2
:10044400085009FA0BF925EA0909414DA84271D06F
:1004540005F58065A8426FD005F58065A8426DD08A
:1004640005F58065A8426BD005F58065A84269D082
:1004740070450CBF0525062505FA0BF545EA090567
:10048400C8F808501D681AF4803F14BF2543A543DB
:100494001D605D681AF4003F14BF2543A5435D60E9
:1004A4009D681AF4801F14BF2543A5439D60DD6831
:1004B4001AF4001F14BF2C4325EA0404DC6001363F
:1004C400102E7FF46DAF03B0BDE8F08F032D25D05F
:1004D400112D80D1CA6804327DE7654509D012D850
:1004E400DFF878904D4504D009F580394D457FF407
:1004F40072AF8A68E2B1012A0CBFC0F81080C0F85C
:100504001480082267E7DFF858904D45F1D009F5CB
:1005140080394D45EDD0A9F58019E7E700225AE767
:10052400CA6858E7CA68083255E7CA680C3252E705
:10053400042250E700259FE701259DE702259BE75C
:10054400032599E7042597E70010024000040140C1
:1005540000080140001C014000002110000011109F
:100564000000311003682DE9F341DB07054610D480
:100574002B689F075ED42B68190700F195802B68C0
:100584005A0700F1BF80EA69002A40F02D8100205B
:1005940014E0904C636803F00C03042B07D06368E9
:1005A40003F00C03082B0CD16368DE0309D5236820
:1005B4009C03DDD56B68002BDAD1012002B0BDE8C5
:1005C400F0816B68B3F5803F10D1236843F4803326
:1005D4002360FFF767FE064623689803C8D4FFF735
:1005E40061FE801B6428F7D90320E7E79BB92368E1
:1005F40023F480332360236823F480232360FFF7EC
:1006040051FE064623689903B2D5FFF74BFE801BC3
:100614006428F7D9E8E7B3F5A02F236803D143F49E
:1006240080232360D1E723F480332360236823F4F9
:100634008023CDE7674C636813F00C0F07D0636821
:1006440003F00C03082B10D16368DA030DD423687C
:100654009B0702D52B69012BAFD123686A6923F06C
:10066400F80343EAC203236085E72A695A4B6AB157
:1006740001221A60FFF716FE064623689F07ECD492
:10068400FFF710FE801B0228F7D9ADE71A60FFF7C9
:1006940009FE0646236898077FF56DAFFFF702FE53
:1006A400801B0228F6D99FE7AA694A4C4B4BDAB162
:1006B40001221A60FFF7F6FD0646636A9B070DD513
:1006C4004FF4FA52464B1B68B3FBF2F3019300BF9D
:1006D400019B5A1E0192002BF9D150E7FFF7E2FD6E
:1006E400801B0228E9D97FE71A60FFF7DBFD064685
:1006F400636A9F077FF543AFFFF7D4FD801B022891
:10070400F6D971E7334CE369D80024D40127E369AF
:1007140043F08053E361E36903F080530093009B4B
:10072400304E3368D90518D5EB68012B26D1236ADE
:1007340043F001032362FFF7B5FD41F2883680469A
:10074400236A9B073FD5002F3FF41DAFE36923F0D5
:100754008053E36117E70027E2E7336843F48073CB
:100764003360FFF79FFD80463368DA05DCD4FFF77A
:1007740099FDA0EB08006428F6D935E7ABB9236AE4
:1007840041F2883823F001032362236A23F004032F
:100794002362FFF787FD0646236A9807D3D5FFF740
:1007A40081FD801B4045F7D91EE7052B236A03D141
:1007B40043F004032362BAE723F001032362236AAC
:1007C40023F00403B6E7FFF76DFDA0EB0800B04289
:1007D400B6D909E7001002400000424280044242B8
:1007E4000800002000700040224C636803F00C03F2
:1007F400082B3FF4E2AE00231F4E022A33602BD1B4
:10080400FFF750FD0746236899011FD42B6AB3F5FF
:10081400803F05D16268A96822F400320A4362600D
:10082400696A62680B4322F4741213436360012300
:100834003360FFF737FD054623689A013FF5A7AEFD
:10084400FFF730FD401B0228F6D9CDE6FFF72AFD5D
:10085400C01B0228D7D9C7E6FFF724FD0546236845
:100864009B017FF594AEFFF71DFD401B0228F6D9CE
:10087400BAE600BF001002406000424230B5194B96
:1008840087B002AC03F11005224618685968083392
:1008940003C2AB421446F7D101238DF8043002237E
:1008A40011498DF805304B6803F00C02082A17D162
:1008B400C3F3834206A80244DB0312F8102C0CD5C0
:1008C4004B680A48C3F34043504306AA134413F841
:1008D400143CB0FBF3F007B030BD05485043FAE7D1
:1008E4000248F8E7181300080010024000127A00CA
:1008F40000093D00544A2DE9F0411368054603F010
:1009040007038B420E462AD329688C0734D4CA07BE
:1009140047D44D4A136803F007039E42C0F0828017
:100924002A684A4C12F0040F40F08780130706D55A
:1009340063682A6923F4605343EAC2036360FFF7E0
:100944009DFF6368424AC3F30313D35CD840414B11
:1009540018600020FFF764FC0020BDE8F0811368F4
:1009640023F007030B431360136803F00703994252
:10097400CAD00120BDE8F081344B11F0040F1EBF32
:100984005A6842F4E0625A60080742BF5A6842F467
:1009940060525A605A68A86822F0F00202435A6012
:1009A400B5E76A68294C012A23681CD113F4003F77
:1009B400DFD0636841F2883823F003031343636094
:1009C400FFF770FC6B680746012B14D1636803F0D2
:1009D4000C03042B9DD0FFF765FCC01B4045F5D9E3
:1009E4000320BDE8F081022A02D113F0007FDFE783
:1009F40013F0020FDCE7022B0FD1636803F00C0342
:100A0400082B86D0FFF74EFCC01B4045F5D9E7E71D
:100A1400FFF748FCC01B4045E2D8636813F00C0F95
:100A2400F6D176E7136823F00703334313601368A2
:100A340003F007039E429CD172E76368E96823F4DC
:100A4400E0630B43636071E7002002400010024042
:100A54002813000808000020036A70B523F001037E
:100A64000362036A446882690D6822F073022A43B0
:100A74008D6823F002032B430E4DA84202D00E4E84
:100A8400B04210D1CE6823F008033343A84223F0C8
:100A9400040302D0084DA84205D14D698E6924F49F
:100AA400407435432C43446082614A684263036264
:100AB40070BD00BF002C014000340140036A70B5D2
:100AC40023F480730362036A4468C2690D6822F0E8
:100AD40073022A438D6823F4007343EA0523114DFE
:100AE400A84203D005F50065A84214D1CD6823F4CB
:100AF400006343EA05230B4D23F48063A84203D02B
:100B040005F50065A84206D14D698E6924F4405468
:100B1400354344EA05144460C2614A68C26303620F
:100B240070BD00BF002C0140036A30B523F480532C
:100B34000362036A4468C2690D6822F4E64242EA29
:100B440005228D6823F4005343EA0533084DA84277
:100B540003D005F50065A84204D14D6924F480440E
:100B640044EA85144460C2614A680264036230BD89
:100B7400002C0140704790F83C3070B5012B4FF0C9
:100B840002031CD0012280F83D30036880F83C2029
:100B94009A6822F47F4222F077029A600A68402A17
:100BA40079D019D8102A00F093800AD8002A00F0CE
:100BB4008980012380F83D30002380F83C301846BA
:100BC40070BD202A00F08A80302AF2D19A6822F07F
:100BD400700242F0370236E0702A36D01BD8502A11
:100BE40042D0602AE5D11C6A4D6824F01004CE6816
:100BF4001C6299691A6A21F4704122F0A00242EA47
:100C0400051241EA063199611A629A6822F070026B
:100C140042F0670217E0B2F5805F11D0B2F5005FD1
:100C2400C7D18A684D689C68C9682A4324F47F4404
:100C340042EA012222439A609A6842F4804202E026
:100C44009A6822F007029A60B3E78A684D689C6844
:100C5400C9682A4324F47F4442EA012222439A6069
:100C64009A6842F07702EEE74C68CE68196A1D6A0A
:100C740021F00A0125F001051D629A69214322F041
:100C8400F00242EA06129A6119629A6822F070022E
:100C940042F05702D7E74C68CE68196A1D6A21F002
:100CA4000A0125F001051D629A69214322F0F00230
:100CB40042EA06129A6119629A6822F0700242F0BE
:100CC4004702C0E79A6822F0700242F00702BAE7CE
:100CD4009A6822F0700242F01702B4E79A6822F090
:100CE400700242F02702AEE7244A0368904212D011
:100CF40002F5006290420ED0B0F1804F0BD0A2F505
:100D04009832904207D002F58062904203D002F5F7
:100D1400806290421DD14A6823F070031343174A3E
:100D2400904212D002F5006290420ED0B0F1804F92
:100D34000BD0A2F59832904207D002F5806290421F
:100D440003D002F58062904203D1CA6823F4407351
:100D540013434A6923F08003134303608B68C3621F
:100D64000B688362054B984203D003F500639842F5
:100D740001D10B690363012343617047002C0140D7
:100D840010B50446A0B190F83D3003F0FF021BB942
:100D940080F83C2000F0C8F90223206884F83D3034
:100DA400211DFFF7A1FF0123002084F83D3010BD71
:100DB400012010BD10B50446A0B190F83D3003F0F9
:100DC400FF021BB980F83C20FFF7D4FE0223206801
:100DD40084F83D30211DFFF787FF0123002084F8AC
:100DE4003D3010BD012010BD036A70B523F010031F
:100DF4000362036A446882690D6822F4E64242EAA7
:100E040005228D6823F0200343EA0513104DA84200
:100E140003D005F50065A84214D1CD6823F0800302
:100E240043EA05130A4D23F04003A84203D005F515
:100E34000065A84206D14D698E6924F440643543A7
:100E440044EA8504446082614A688263036270BD37
:100E5400002C014038B590F83C300446012B4FF08B
:100E6400020025D0012384F83D0084F83C300C2A8C
:100E740018D8DFE802F0071717171E1717172F17D0
:100E8400171740002068FFF7E7FD236809699A698E
:100E940042F008029A619A6922F004029A619A69FE
:100EA4000A439A610123002084F83D3084F83C0011
:100EB40038BD2068FFF798FF236809699A6942F4EE
:100EC40000629A619A6922F480629A619A6942EA9C
:100ED4000122E6E72068FFF7F1FD23680969DA6972
:100EE40042F00802DA61DA6922F00402DA61DA69AE
:100EF4000A43DA61D6E72068FFF716FE236809691A
:100F0400DA6942F40062DA61DA6922F48062DA6151
:100F1400DA6942EA0122ECE710B50124036A8C4045
:100F240023EA04030362036A8A401A43026210BD7F
:100F340010B5044601220068FFF7EEFF2368084A53
:100F4400934203D002F50062934203D15A6C42F4F7
:100F540000425A641A68002042F001021A6010BD6F
:100F6400002C014090F83C3010B5012B4FF00203E7
:100F740018D080F83D3003680C685A68496822F03C
:100F840070025A605A6822435A609A6822F08002BA
:100F94009A609A680A439A60012380F83D300023DE
:100FA40080F83C30184610BD0A4B82B09A6942F072
:100FB40004029A619A6902F004020092009A9A6902
:100FC40042F008029A619B6903F008030193019BB4
:100FD40002B070470010024010B590B028220021E2
:100FE40006A800F083F90021142201A800F07EF97C
:100FF4004FF480330122022407930E934FF4E0133D
:1010040006A806920A920F930D94FFF7ABFA0F23EA
:101014004FF4806201930023214601A802940393B4
:1010240004920593FFF766FC10B010BD38B5FFF7C6
:101034001BF9FFF7D1FFFFF7B7FF00F0BBF804215E
:101044000E48FFF775FF00240C4DB4F57A7F0DD3DD
:10105400013CA4B22B6801209C63FFF729F914F129
:10106400FF34F7D2C820FFF723F900242B6801349A
:10107400A4B29C630120FFF71BF9E6E72C000020D3
:10108400704700000E4B82B09A6942F001029A61E7
:101094009A6902F001020092009ADA6942F08052E1
:1010A400DA61DB69074A03F080530193019B5368BB
:1010B40023F0E06343F00073536002B0704700BF55
:1010C40000100240000001407047FEE7FEE7FEE723
:1010D400FEE7704770477047FFF7D8B80F4B1A68A0
:1010E40042F001021A6059680D4A0A405A601A68AF
:1010F40022F0847222F480321A601A6822F4802268
:101104001A605A6822F4FE025A604FF41F029A6071
:101114004FF00062034B9A60704700BF001002401A
:101124000000FFF800ED00E00268084B82B09A422C
:101134000AD103F50333DA6942F00202DA61DB69AA
:1011440003F002030193019B02B0704700040040C6
:1011540010B5044686B01022002102A800F0C6F89B
:101164002268114B9A421DD103F503339A6902A9EF
:1011740042F008029A619B690C4803F0080301934A
:10118400019B202302930223039303230593FFF778
:10119400FDF8074A536823F4406343F0E06343F4E3
:1011A4000063536006B010BD00040040000C014011
:1011B4000000014010B58EB01022002103A800F0F9
:1011C40095F800241C2221460DEB020001940294A0
:1011D40000F08CF847231E481E4A846080E80C0007
:1011E40040F2E7330461C3608461FFF7C9FD08B1CD
:1011F400FFF746FF4FF4805303A915480393FFF705
:10120400BAFC08B1FFF73CFF1148FFF7D3FD08B162
:10121400FFF736FF002401A90D4801940294FFF75B
:10122400A1FE08B1FFF72CFF6023079302230422D9
:1012340007A90748089409930B94FFF70BFE08B11C
:10124400FFF71EFF0248FFF783FF0EB010BD00BF7B
:101254002C00002000040040002103E00B4B5B58ED
:10126400435004310A480B4B42189A42F6D30A4AB7
:1012740002E0002342F8043B084B9A42F9D3FFF7FB
:101284002DFF00F00FF8FFF7D1FE70474013000860
:10129400000000200C0000200C0000206C00002046
:1012A400FEE7000070B500250C4E0D4CA41BA410E5
:1012B400A54209D100F022F800250A4E0A4CA41BCD
:1012C400A410A54205D170BD56F8253098470135C4
:1012D400EEE756F8253098470135F2E73813000851
:1012E40038130008381300083C130008034602446E
:1012F400934200D1704703F8011BF9E7F8B500BF2A
:10130400F8BC08BC9E467047F8B500BFF8BC08BCE2
:041314009E4670473A
:1013180002030405060708090A0B0C0D0E0F10102E
:10132800000000000000000001020304060708098D
:04133800090200089E
:04133C00E5010008BF
:0C134000010000001000000000A24A04A0
:040000050800125D80
:00000001FF
