:020000040800F2
:1000000000000220AD230008E90A0008EB0A0008FE
:10001000ED0A0008EF0A0008F10A000800000000DD
:10002000000000000000000000000000F30A0008CB
:10003000F50A000800000000F70A0008F90A0008A5
:10004000FD230008FD230008FD230008FD23000810
:10005000FD230008FD230008FD230008FD23000800
:10006000FD230008FD230008FD230008FD230008F0
:10007000FD230008FD230008FD230008FD230008E0
:10008000FD230008FD230008FD230008FD230008D0
:10009000FD230008FD230008FD230008FD230008C0
:1000A000FD230008FD230008FD230008FD230008B0
:1000B000FD230008FD230008FD230008FD230008A0
:1000C000FD230008FD230008FD230008FD23000890
:1000D000FD230008FD230008FD230008FD23000880
:1000E000FD230008010B0008FD230008FD23000884
:1000F000FD230008FD230008FD230008FD23000860
:10010000FD230008FD230008FD230008FD2300084F
:10011000FD230008FD230008FD230008FD2300083F
:10012000FD230008FD230008FD230008FD2300082F
:10013000FD230008FD230008FD230008FD2300081F
:10014000FD230008FD230008FD230008FD2300080F
:10015000FD230008FD230008FD230008FD230008FF
:10016000FD230008FD230008FD230008FD230008EF
:10017000FD230008FD230008FD2300080000000007
:08018000FD230008FD23000827
:1001900010B5054C237833B9044B13B10448AFF3C1
:1001A00000800123237010BD7000002000000000BB
:1001B000D02C000808B5034B1BB103490348AFF32B
:1001C000008008BD0000000074000020D02C000852
:1001D00001F0FF01102A2BDB10F0070F08D010F8F8
:1001E000013B013A8B422DD010F0070F42B3F6D1FC
:1001F000F0B441EA012141EA014122F007047FF015
:1002000000070023F0E80256083C85EA010586EA6B
:10021000010685FA47F5A3FA87F586FA47F6A5FAA7
:1002200087F68EB9EED1F0BC01F0FF0102F00702B3
:1002300032B110F8013B013A83EA010313B1F8D15E
:100240000020704701387047002D06BF354603383F
:10025000073815F0010F07D1013015F4807F02BF78
:10026000013015F4C03F0130F0BC0138704700BFC9
:1002700053B94AB9002908BF00281CBF4FF0FF310D
:100280004FF0FF3000F06EB9ADF1080C6DE904CE0F
:1002900000F006F8DDF804E0DDE9022304B0704761
:1002A0002DE9F047089D04468C46002B40F08380E2
:1002B0008A42174647D9B2FA82F242B1C2F120000F
:1002C00024FA00F09140974040EA010C94404FEA34
:1002D0001748230CBCFBF8F61FFA87FE08FB16C173
:1002E00043EA014306FB0EF1994209D9FB1806F1D6
:1002F000FF3080F01981994240F21681023E3B4462
:100300005B1AA4B2B3FBF8F008FB103344EA0344D1
:1003100000FB0EFEA64509D93C1900F1FF3380F021
:100320000581A64540F2028102383C4440EA06407D
:10033000A4EB0E0400261DB1D4400023C5E9004300
:100340003146BDE8F08702B9FFDEB2FA82F2002A38
:1003500050D1CB1B4FEA174E1FFA87F80126B3FB8B
:10036000FEFC210C0EFB1C3341EA034108FB0CF39D
:100370008B4207D979180CF1FF3002D28B4200F280
:10038000E9808446C91AA3B2B1FBFEF00EFB10113E
:1003900043EA014408FB00F8A04507D93C1900F1E5
:1003A000FF3302D2A04500F2D9801846A4EB08041E
:1003B00040EA0C40BFE78B4209D9002D00F0B18024
:1003C0000026C5E9000130463146BDE8F087B3FAA2
:1003D00083F6002E4AD18B4202D3824200F2B880CB
:1003E000841A61EB030101208C46002DA8D0C5E9D9
:1003F000004CA5E7C2F1200320FA03F6974001FA6A
:1004000002F04FEA174ED9403043030CB1FBFEF621
:100410001FFA87F80EFB161143EA014306FB08F1A9
:10042000994204FA02F409D9FB1806F1FF3C80F066
:100430008D80994240F28A80023E3B445B1A81B231
:10044000B3FBFEF00EFB103341EA034100FB08F35F
:100450008B4207D9791800F1FF3C73D28B4271D9D6
:1004600002383944CB1A40EA064678E7C6F1200C38
:1004700003FA06F422FA0CF31C4320FA0CF701FAF3
:1004800006F34FEA144E21FA0CF11F433B0CB1FB6B
:10049000FEF91FFA84F80EFB191143EA014109FB2A
:1004A00008FA8A4502FA06F200FA06F308D961183A
:1004B00009F1FF3048D28A4546D9A9F10209214401
:1004C000A1EB0A01BFB2B1FBFEF00EFB101147EA2F
:1004D000014700FB08F8B84507D9E71900F1FF31DB
:1004E0002ED2B8452CD90238274440EA0940A7EB60
:1004F0000807A0FB02894F45C64649461AD317D0C4
:100500005DB1B3EB0E0267EB010707FA0CFCF2409A
:100510004CEA0202F740C5E9002700263146BDE853
:10052000F0872E4628460BE70646E9E61846FDE624
:100530004345E5D2B8EB020E69EB04010138DFE771
:100540000846D2E760468DE78146B9E7664675E71B
:1005500030464AE7ACF1020C394413E702383C4418
:1005600024E700BF704700BF00B587B08DF81700C3
:1005700064230293012301930DF1170200920022DC
:100580007821034801F060FE07B05DF804FB00BF6E
:10059000D400002000B587B08DF8170064230293C3
:1005A000012301930DF117020092402278210348A4
:1005B00001F04AFE07B05DF804FB00BFD400002044
:1005C00008B5642001F080FBAE20FFF7CDFF2020AE
:1005D000FFF7CAFF1020FFF7C7FFB020FFF7C4FFE7
:1005E000C820FFF7C1FF0020FFF7BEFF1020FFF774
:1005F000BBFF4020FFF7B8FF8120FFF7B5FFFF20CA
:10060000FFF7B2FFA120FFF7AFFFA620FFF7ACFF77
:10061000A820FFF7A9FF3F20FFF7A6FFA420FFF7C0
:10062000A3FFD320FFF7A0FF0020FFF79DFFD520F9
:10063000FFF79AFFF020FFF797FFD920FFF794FF0D
:100640002220FFF791FFDA20FFF78EFF1220FFF73D
:100650008BFFDB20FFF788FF2020FFF785FF8D2031
:10066000FFF782FF1420FFF77FFFAF20FFF77CFF2B
:1006700008BD10B50446A1F15000C0B2FFF774FFE9
:10068000200940F01000FFF76FFF04F00E0040F06B
:100690000100FFF769FF10BD70B50546002601E0B7
:1006A0000136F6B2072E14D8A6F15000C0B2FFF7FB
:1006B0005BFF0020FFF758FF1020FFF755FF0024D5
:1006C00014F0800FECD12846FFF764FF0134E4B248
:1006D000F6E770BD08B50020FFF7DEFF08BD00009B
:1006E0002DE9F84306460F469046012B26D0022BF3
:1006F0005AD0BDE8F8830636F6B209F101095FFA6F
:1007000089F918F80950002DF3D0203DEDB27E2E66
:1007100002D90137FFB2002639463046FFF7A9FF5C
:100720000024052CE7D805EB4503214A02EB4303DF
:10073000185DFFF72FFF0134E4B2F2E74FF0000934
:10074000DFE704EB05131B4AD05CFFF723FF0134FE
:10075000E4B2072CF5D9791CC9B23046FFF789FFFE
:10076000002408E004EB05130833124AD05CFFF7BD
:1007700011FF0134E4B2072CF4D90836F6B209F1BE
:1007800001095FFA89F918F80950002DB1D0203D10
:10079000EDB2782E02D90137FFB200263946304635
:1007A000FFF767FF0024D4E74FF00009EBE700BF35
:1007B000E82C0008102F000870B598B030220021F6
:1007C0000DEB020001F040FE002407940894099408
:1007D0000A940B9403940494059406940194214B79
:1007E0001A6C42F080521A641B6C03F08053019320
:1007F000019B02941C4B1A6842F480421A601B68E9
:1008000003F480430293029B05260C964FF4803339
:100810000D9301230E93022512954FF48003139339
:10082000082314934FF4A873159316950423179374
:100830000CA800F0CBFC0F230793089509944FF404
:10084000A0530A934FF480530B93314607A800F04E
:1008500019FF03954FF48073069303A800F0D8FFA7
:1008600018B070BD003802400070004000B58BB079
:1008700001F0FEF9FFF7A0FF00F052F800F0A4F835
:1008800001F044FAFFF79CFEFFF724FF01231C4A06
:1008900000211846FFF724FF1A4C1B4D0022214669
:1008A000284600F0ECFBA378009363782278174980
:1008B00003A801F0D1FD012303AA19461846FFF74A
:1008C0000FFF134C00222146284600F000FCA378BD
:1008D00000936378E2780F4903A801F0BDFD01237E
:1008E00003AA02211846FFF7FBFE4FF400710A48E5
:1008F00001F024F94FF47A7001F0E6F9CCE700BF7B
:10090000003500089C000020B000002014350008CD
:1009100098000020243500080014024070470000B1
:1009200030B58BB00024059406940794089409947C
:100930000094234B1A6B42F004021A631A6B02F004
:1009400004020092009A01941A6B42F020021A638A
:100950001A6B02F020020192019A02941A6B42F083
:1009600080021A631A6B02F080020292029A0394C8
:100970001A6B42F001021A631A6B02F00102039231
:10098000039A04941A6B42F002021A631B6B03F081
:1009900002030493049B0B4D22464FF4007128463A
:1009A00001F0C6F84FF400730593012306930794F2
:1009B0000223089305A9284600F0D4FF0BB030BDF0
:1009C000003802400014024010B590B000240B948F
:1009D0000C940D940E940F940A9428222146684694
:1009E00001F032FD3348344B036044607F23836061
:1009F000FF23C36004614461846100F00EF90028A4
:100A000048D114238DF82C3040238DF82D3000234D
:100A10008DF82E300E934FF480230F9301220BA9F3
:100A2000244800F067F9002837D104238DF82830D6
:100A300002238DF8293027238DF82A3020238DF8C2
:100A40002B3001220AA91B4800F0D3F940BB002338
:100A50008DF800308DF8013010228DF802200193BE
:100A600003934FF480220492059306930793012287
:100A70008DF820204FF48073099369460D4800F0EB
:100A800025FA80B9002211460A4800F03EFB68B9F9
:100A900010B010BDFFF742FFB3E7FFF73FFFC4E719
:100AA000FFF73CFFD3E7FFF739FFEBE7FFF736FF30
:100AB000EEE700BFB00000200028004008B5026843
:100AC000074B9A4200D008BD064B01221A60002253
:100AD0001146292001F04EF8292001F07FF8F2E7B5
:100AE000002800403C0E47427047FEE7FEE7FEE765
:100AF000FEE770477047704708B501F0D3F808BDAE
:100B000008B5024800F022F808BD00BFB000002080
:100B100082B0002100910B4B5A6C42F480425A641F
:100B20005A6C02F480420092009A01911A6C42F0D1
:100B300080521A641B6C03F080530193019B02B036
:100B4000704700BF003802407047000010B50446EF
:100B500003689A6812F4805F03D0DB6813F4807F27
:100B60000FD123689A6812F4005F03D0DB6813F496
:100B7000007F0FD10C4B4FF400325A610123637791
:100B800010BDFFF7E1FF2268D368DBB263F4C073E6
:100B9000D360E6E7204600F018FB2268D368DBB29A
:100BA00063F42073D360E5E7003C014038B50446A8
:100BB0000268D36823F0A003D36001F07FF80546F4
:100BC0002368DB6813F0200F07D101F077F8401B92
:100BD000B0F57A7FF4D9032000E0002038BD38B5A5
:100BE0000368DA6812F0400F01D0002038BD0446D7
:100BF0004FF0FF32DA6001F061F805462368DB68E8
:100C000013F0400F07D101F059F8431BB3F57A7F79
:100C1000F4D90320EAE70020E8E738B500285CD0E3
:100C20000446437F002B41D0022363772368CA2206
:100C30005A62236853225A622046FFF7D0FF0546C6
:100C4000002837D12268936823F4E00323F040039F
:100C5000936021688A68636820690343606903437D
:100C600013438B602368E2681A6122681369A168E4
:100C700043EA014313612268D36823F08003D36001
:100C800023689B6813F0200F1BD02268136C23F499
:100C9000802313642268136CA1690B4313642368D7
:100CA000FF225A6201236377284638BD0377FFF796
:100CB00005FFB9E72368FF225A6204236377012501
:100CC000F2E72046FFF772FF0028DED02368FF22FC
:100CD0005A62042363770125E6E70125E4E7002350
:100CE000092803D901330A38C0B2F9E71B01DBB286
:100CF00018437047F8B5037F012B78D004460E46A1
:100D00000123037702234377002A47D103689B68B6
:100D100013F0400F01D10023CB703078FFF7DFFFD5
:100D200005047078FFF7DBFF45EA0025B078FFF790
:100D3000D6FF0543F07845EA00452368CA225A6287
:100D4000236853225A622046FFF749FF07460028CE
:100D500036D1236805F07F3525F0FE451D602268F9
:100D6000936823F48023936021688B68F26830696C
:100D7000024313438B602268D36823F08003D3605F
:100D800023689B6813F0200F23D02368FF225A6248
:100D900001236377002323773846F8BD03689B68F7
:100DA00013F0400F01D10023CB703578707800022A
:100DB00040EA0540B5782843F57840EA0545BCE7A8
:100DC0002368FF225A6204236377002323770127D5
:100DD000E2E72046FFF7EAFE0028D6D02368FF228C
:100DE0005A6204236377002323770127D4E702277D
:100DF000D2E770B5037F012B66D004460E4601236F
:100E00000377022343773AB94B7813F0100F03D0DE
:100E100003F0EF030A334B70002A33D1F078FFF769
:100E20005EFF05047078FFF75AFF45EA0025B078A9
:100E3000FFF755FF0543307845EA40352368CA225D
:100E40005A62236853225A622046FFF7C8FE0646BC
:100E500018BB236825F07F4525F0C0055D6022683A
:100E6000D36823F08003D36023689B6813F0200FBE
:100E70001CD02368FF225A62012363770023237763
:100E8000304670BDF5787078000240EA0540B578CC
:100E90002843357840EA4535D0E72368FF225A6277
:100EA00004236377002323770126E9E72046FFF731
:100EB0007DFE0028DDD02368FF225A620423637779
:100EC000002323770126DBE70226D9E7F0B583B0BC
:100ED0000D46634B1B686349A1FB0313DB0A4FF408
:100EE0007A7101FB03F30193037F012B00F0B580BE
:100EF00004460123037702234377002A61D1036864
:100F00009B6813F0400F01D10023EB70EF69287844
:100F1000FFF7E5FE06046878FFF7E1FE46EA0026E3
:100F2000A878FFF7DCFE0643E87846EA004695F825
:100F30002000FFF7D4FE46EA00663E436B691E437D
:100F40006868AB6918432368CA225A62236853222F
:100F50005A626B6AB3F5807F4DD02268936823F4A0
:100F6000007393602268D368DBB263F42073D360AC
:100F7000019B5A1E0192002B67D02368DA6812F099
:100F8000020FF5D01E62236898642268936843F4C8
:100F9000007393602268936843F400539360324B6C
:100FA0001A6842F400321A609A6842F400329A6079
:100FB0002368FF225A62012363770020207703B061
:100FC000F0BD03689B6813F0400F01D10023EB7064
:100FD000EA6929786B781B0243EA0143A9780B433D
:100FE000E97843EA014395F8201043EA016313438B
:100FF0006E691E43A4E72268936823F480739360AC
:101000002268D368DBB263F4C073D360019B5A1EBD
:10101000019293B12368D96811F0010FF6D0DE6117
:10102000236858642268936843F48073936022684D
:10103000936843F480539360B1E72368FF225A62B8
:101040000320607700232377B9E72368FF225A62E1
:101050000320607700232377B1E70220AFE700BFCA
:1010600008000020D34D6210003C0140030903EB4F
:10107000830300F00F0000EB4300C0B2704770B56F
:101080000C4603689B6A4B6003681B69C3F30E033D
:101090008B6003681D68C5F30641C5F305402070E9
:1010A000C5F30626667005F07F05A57001F04003C4
:1010B000E37052B9FFF7DAFF20703046FFF7D6FF32
:1010C00060702846FFF7D2FFA070002070BD70B599
:1010D00003685B68C3F30740C870C3F304264E700F
:1010E00003F03F058D70C3F342330B705AB90C46C1
:1010F000FFF7BCFFE0703046FFF7B8FF607028468E
:10110000FFF7B4FFA070002070BDF8B5037F012B7E
:1011100059D004460D461646012303770223437730
:101120000368CA225A62036853225A6203689B68A2
:1011300013F4806F15D000F0C1FD07462368DB680B
:1011400013F0040F0DD000F0B9FDC01BB0F57A7F8D
:10115000F4D92368FF225A620320607700232377A3
:1011600030E02268936823F48063936000F0A6FD6A
:1011700007462368DA6812F0040F0DD100F09EFDD7
:10118000C31BB3F57A7FF4D92368FF225A62032088
:1011900060770023237715E09A6822F007029A60AF
:1011A000226893681E43966023685D612268936895
:1011B00043F4806393602368FF225A6201236377BC
:1011C00000202077F8BD0220FCE77047002800F0DF
:1011D000D98170B582B00446036813F0010F3BD08B
:1011E000A64B9B6803F00C03042B2CD0A34B9B68ED
:1011F00003F00C03082B21D06368B3F5803F4FD078
:10120000B3F5A02F52D09D4B1A6822F480321A6099
:101210001A6822F480221A606368002B50D000F014
:101220004DFD0546954B1B6813F4003F14D100F0AB
:1012300045FD401B6428F5D90320AAE18F4B5B686C
:1012400013F4800FD8D08D4B1B6813F4003F03D0EC
:101250006368002B00F09881236813F0020F54D0CC
:10126000864B9B6813F00C0F3ED0844B9B6803F0B9
:101270000C03082B33D0E368002B67D0804B01228E
:101280001A6000F01BFD05467C4B1B6813F0020F33
:1012900053D100F013FD401B0228F5D9032078E15B
:1012A000764A136843F480331360B5E7734B1A68CA
:1012B00042F480221A601A6842F480321A60ABE766
:1012C00000F0FCFC05466D4B1B6813F4003FC3D0D7
:1012D00000F0F4FC401B6428F5D9032059E1674B6A
:1012E0005B6813F4800FC6D1644B1B6813F0020FC8
:1012F00003D0E368012B40F04981604A136823F072
:10130000F803216943EAC1031360236813F0080F4F
:1013100040D0636963B35B4B01221A6000F0CEFCDE
:101320000546564B5B6F13F0020F33D100F0C6FC3D
:10133000401B0228F5D903202BE1504A136823F003
:10134000F803216943EAC1031360DEE74C4B002236
:101350001A6000F0B3FC0546484B1B6813F0020FFF
:10136000D3D000F0ABFC401B0228F5D9032010E1DC
:10137000444B00221A6000F0A1FC05463F4B5B6F16
:1013800013F0020F06D000F099FC401B0228F5D99B
:101390000320FEE0236813F0040F78D0374B1B6C5A
:1013A00013F0805F0DD100230193344B1A6C42F08F
:1013B00080521A641B6C03F080530193019B01253A
:1013C00000E00025304B1B6813F4807F21D0A36818
:1013D000012B32D0052B36D0284B1A6F22F0010298
:1013E0001A671A6F22F004021A67A368002B34D020
:1013F00000F064FC0646214B1B6F13F0020F45D131
:1014000000F05CFC801B41F288339842F3D9032042
:10141000BFE01D4A136843F48073136000F04EFC74
:101420000646194B1B6813F4807FD0D100F046FCB0
:10143000801B0228F5D90320ABE0104A136F43F05C
:1014400001031367D1E70D4B1A6F42F004021A67CC
:101450001A6F42F001021A67C7E700F02FFC064638
:10146000064B1B6F13F0020F10D000F027FC801BFF
:1014700041F288339842F3D903208AE000380240D1
:1014800000004742800E474200700040E5B9A36962
:10149000002B7DD0464A926802F00C02082A51D0F7
:1014A000022B17D0434B00221A6000F007FC0446C1
:1014B0003F4B1B6813F0007F42D000F0FFFB001B86
:1014C0000228F5D9032064E0394A136C23F08053D5
:1014D0001364DCE7374B00221A6000F0EFFB05468F
:1014E000334B1B6813F0007F06D000F0E7FB401B76
:1014F0000228F5D903204CE0E369226A1343626AAB
:1015000043EA8213A26A5208013A43EA0243E26ABA
:1015100043EA0263264A5360264B01221A6000F018
:10152000CDFB0446224B1B6813F0007F06D100F070
:10153000C5FB001B0228F5D903202AE0002028E083
:10154000002026E0012B26D0194B9B6803F4800174
:10155000E269914221D103F03F02216A8A421ED101
:10156000616A47F6C0721A408A421AD103F44032C7
:10157000A16A8A4217D103F07063E26A934214D1E0
:10158000002006E001207047012002E0012000E079
:10159000002002B070BD0120FBE70120F9E7012027
:1015A000F7E70120F5E70120F3E70120F1E700BFAD
:1015B0000038024060004742F8B52F4B9B6803F0AB
:1015C0000C03042B53D0082B53D12B4B5A6802F039
:1015D0003F025B6813F4800F28D0274B5B68C3F38E
:1015E000881358010021C01A61F100018E0146EAFA
:1015F000906687013C1A66EB0105E90041EA5471E7
:10160000E000C01841F100014B0243EAD05344020C
:10161000204619460023FEF72BFE174B5B68C3F3E9
:10162000014301335B00B0FBF3F023E0124B5B6836
:10163000C3F388135C010025E41A65F10005AE01CF
:1016400046EA9466A701381B66EB0501CC0044EA24
:101650005074C500E81844F100018B0243EA90532E
:101660008402204619460023FEF702FED5E7034810
:1016700000E00348F8BD00BF0038024000127A00C5
:101680000024F400002800F09B8070B50D4604464D
:101690004F4B1B6803F00F038B4208D2CBB24C4A6E
:1016A0001370136803F00F038B4240F08B802368A4
:1016B00013F0020F17D013F0040F04D0454A9368BB
:1016C00043F4E0539360236813F0080F04D0414AB9
:1016D000936843F4604393603E4A936823F0F003B9
:1016E000A1680B439360236813F0010F32D0636845
:1016F000012B21D09A1E012A25D9364A126812F0F0
:10170000020F61D033498A6822F0030213438B60D1
:1017100000F0D4FA06462F4B9B6803F00C03626876
:10172000B3EB820F16D000F0C9FA801B41F2883368
:101730009842F0D9032042E0264A126812F4003F92
:10174000E0D101203BE0234A126812F0007FD9D19A
:10175000012034E01E4B1B6803F00F03AB4207D996
:10176000EAB21B4B1A701B6803F00F03AB422DD17A
:10177000236813F0040F06D0164A936823F4E0534D
:10178000E1680B439360236813F0080F07D0114AF8
:10179000936823F46043216943EAC1039360FFF730
:1017A0000BFF0C4B9B68C3F303130B4AD35CD8406D
:1017B0000A4B18600A4B186800F034FA002070BD1C
:1017C000012070470120FAE70120F8E70120F6E741
:1017D000003C024000380240383500080800002074
:1017E00004000020014B1868704700BF080000206B
:1017F00008B5FFF7F7FF044B9B68C3F38223034A46
:10180000D35CD84008BD00BF00380240483500080E
:1018100030B583B00446036813F0050F06D1236882
:1018200013F0020F2ED1002003B030BD494B00222F
:101830001A6000F043FA0546474B1B6813F0006F2F
:1018400006D000F03BFA431B022BF5D90320EBE74F
:101850006268A3681B0743EA82133F4AC2F88430D8
:101860003C4B01221A6000F029FA05463A4B1B68EE
:1018700013F0006FD3D100F021FA431B022BF5D9EE
:101880000320D1E700230193334B1A6C42F08052BE
:101890001A641B6C03F080530193019B2F4A136859
:1018A00043F48073136000F009FA05462B4B1B6864
:1018B00013F4807F06D100F001FA431B022BF5D907
:1018C0000320B1E7244B1B6F13F4407312D0E2687E
:1018D00002F440729A420DD01F4B1A6F22F44072EC
:1018E0001F4901200860002008601A671B6F13F071
:1018F000010F13D1E36803F44072B2F5407F1ED0AC
:10190000154A936823F4F813936013490B6FE26848
:10191000C2F30B0213430B67002085E700F0CEF9FA
:1019200005460D4B1B6F13F0020FE3D100F0C6F913
:10193000401B41F288339842F3D9032074E70649EB
:101940008A6822F4F81223F0704323F4407313439F
:101950008B60DAE7680047420038024000700040C0
:10196000400E474200230F2B00F2D980F0B583B020
:1019700039E0072200E00022B2403A430234684EC8
:1019800046F82420674A1468EA4324EA05064F68AB
:1019900017F4803F01D045EA0406624C2660646873
:1019A00002EA04064F6817F4003F01D045EA040636
:1019B0005C4C6660A46802EA04064F6817F4801F56
:1019C00001D045EA0406574CA660E46822404E6800
:1019D00016F4001F01D045EA0402524CE2600133C4
:1019E0000F2B00F29A8001229A400C6804EA02054B
:1019F00032EA0404F3D14C68661E012E03D9112C7F
:101A000001D0122C12D186685F000324BC4026EA64
:101A10000406CC68BC4034438460466826EA02066B
:101A20004C68C4F300129A4032434260C7685E00BB
:101A30000324B440E24327EA04078C68B4403C43E3
:101A4000C4604C68022C01D0122C13D1DF08083777
:101A500050F827E003F007044FEA840C0F2404FA3F
:101A60000CF42EEA040E0C6904FA0CF444EA0E0499
:101A700040F82740046814404A6802F00302B2406C
:101A8000224302604A6812F0805FA8D000220192CF
:101A9000254A546C44F480445464526C02F48042ED
:101AA0000192019A9C08A61C1D4A52F8267003F068
:101AB000030296000F22B24027EA02071B4A904217
:101AC0003FF459AF02F5806290421AD002F580626D
:101AD000904218D002F58062904216D002F58062E2
:101AE000904214D002F58062904212D002F58062DA
:101AF000904210D002F5806290423FF43AAF082243
:101B00003AE7012238E7022236E7032234E70422CB
:101B100032E7052230E706222EE703B0F0BD70471A
:101B200000380140003C0140003802400000024003
:101B30000AB181617047090481617047436931EAE4
:101B4000030301D08161704709048161704700007F
:101B5000074AD36823F4E0631B041B0C000200F463
:101B6000E060034343F0BF6343F40033D360704746
:101B700000ED00E030B4174BDB68C3F30223C3F180
:101B80000704042C28BF04241D1D062D18D9033B6F
:101B90004FF0FF3505FA04F421EA0401994005FAF3
:101BA00003F322EA0303194300280BDB0901C9B23E
:101BB00000F1604000F5614080F8001330BC7047D0
:101BC0000023E5E700F00F000901C9B2024B1954E8
:101BD000F4E700BF00ED00E014ED00E0002807DBB3
:101BE00000F01F02400901239340024A42F82030CE
:101BF000704700BF00E100E00138B0F1807F0AD2F9
:101C0000064B5860064AF02182F8231000209860A5
:101C100007221A6070470120704700BF10E000E003
:101C200000ED00E010B504460E4B18784FF47A73BF
:101C3000B3FBF0F30C4A1068B0FBF3F0FFF7DCFFE6
:101C400068B90F2C01D901200AE0002221464FF08B
:101C5000FF30FFF78FFF054B1C60002000E00120E4
:101C600010BD00BF0000002008000020040000207C
:101C700008B50B4B1A6842F400721A601A6842F4F5
:101C800080621A601A6842F480721A600320FFF7BB
:101C90005FFF0020FFF7C6FFFEF73AFF002008BDF8
:101CA000003C0240034A1168034B1B780B4413604D
:101CB000704700BFD000002000000020014B1868D2
:101CC000704700BFD000002038B50446FFF7F6FF8C
:101CD0000546B4F1FF3F02D0044B1B781C44FFF7CC
:101CE000EDFF401BA042FAD338BD00BF000000202A
:101CF000054BD3F8882042F47002C3F888204FF0D7
:101D000000629A60704700BF00ED00E008B50B4824
:101D10000B4B03600B4B436000238360C3604FF4A5
:101D20008042026143618361C361036200F0AEF9E6
:101D300000B908BDFEF7F2FDFBE700BFD4000020AC
:101D400000540040A086010030B589B00023039301
:101D500004930593069307930268154B9A4201D0AA
:101D600009B030BD00250195124C236B43F00203EE
:101D70002363236B03F002030193019BC0230393AE
:101D8000122304930123059303230693042307934B
:101D900003A90948FFF7E6FD0295236C43F40013FD
:101DA0002364236C03F400130293029BD8E700BF63
:101DB00000540040003802400004024003685A69A1
:101DC00012F4806F01D1002070476FF480625A6175
:101DD00000230363202280F83D2080F83E30026C0F
:101DE00042F00402026480F83C30012070472DE983
:101DF000F04107460D4690461E4622E0FFF75EFF83
:101E0000069BC01AB04200D8DEB900233B632022F3
:101E100087F83D2087F83E303A6C42F020023A6461
:101E200087F83C3001201AE03B689C6925EA0404ED
:101E3000A4B2B4FA84F46409A0450FD1B6F1FF3F0F
:101E4000DCD1C5F30743012BEED13B685C6925EA81
:101E50000404A4B2B4FA84F46409EDE70020BDE8F8
:101E6000F0812DE9F04105460E46174698463DE0C3
:101E70001A6842F400721A602B686FF480625A612B
:101E800000232B63202285F83D2085F83E302A6C04
:101E900042F004022A6485F83C30012034E0FFF768
:101EA0000DFFA0EB0800B84200D8FFB900232B6358
:101EB000202285F83D2085F83E302A6C42F0200231
:101EC0002A6485F83C3001201EE02B689C6926EAD4
:101ED0000404A4B2003C18BF0124A4B12B685A69C1
:101EE00012F4806FC4D1B7F1FF3FD8D1C6F30743D6
:101EF000012BEAD12B685C6926EA0404A4B2003CF9
:101F000018BF0124E9E70020BDE8F08170B5044660
:101F10000D46164623685B6913F0800F1CD12046DE
:101F2000FFF74CFFD0B9B5F1FF3FF3D0FFF7C6FE86
:101F3000801BA84201D8002DECD10023236320226E
:101F400084F83D2084F83E30226C42F02002226466
:101F500084F83C30012000E0002070BD0120FCE747
:101F60002DE9F04385B004460D4691461F46DDF845
:101F700030800D9E0368196841F4807119600096E5
:101F8000434600224FF00111FFF731FF60B923688B
:101F900005F0FE051D613346424626492046FFF7FF
:101FA00060FF68B1012008E023681B6813F4807F9C
:101FB00002D04FF400732364032005B0BDE8F08322
:101FC0000023039323685A6903929B690393039B3D
:101FD000324641462046FFF799FF30B9012F0FD115
:101FE00023685FFA89F61E61E7E7236C042B01D0B2
:101FF0000120E2E72268136843F400731360F7E7F7
:1020000023684FEA19221A61324641462046FFF7FB
:102010007DFF20B923685FFA89F61E61CDE7236C46
:10202000042B01D00120C8E72268136843F4007331
:102030001360F7E70200010070B504460D4616462E
:1020400023685B6913F0040F1CD12046FFF7B6FE2E
:10205000D0B9B5F1FF3FF3D0FFF730FE801BA842A7
:1020600001D8002DECD100232363202284F83D20E9
:1020700084F83E30226C42F02002226484F83C3026
:10208000012000E0002070BD0120FCE7002800F0E6
:10209000CC80F8B5044690F83D30002B77D024234F
:1020A00084F83D302268136823F00103136022682E
:1020B000136843F4004313602268136823F4004359
:1020C0001360FFF795FB62685A4B9A4264D85A4BEB
:1020D00098428CBF00230123002B40F0A880574D6D
:1020E000A5FB0035AF0C2668716821F03F0141EA7D
:1020F0009541716021680B6A23F03F0365684D4A82
:1021000095424FD87A1C13430B622568E96921F484
:102110004F4121F0FF016368464A93424CD8013891
:102120005B00B0FBF3F0013040F6FC73184278D04E
:10213000C0F30B030B43EB6121680B6823F0C00372
:10214000E269206A024313430B6021688B6823F421
:10215000034323F0FF032269E068024313438B60CB
:102160002168CB6823F0FF036269A069024313432F
:10217000CB602268136843F00103136000202064E1
:10218000202384F83D30206384F83E00F8BD80F8B9
:102190003C30FFF7D9FD82E7294B98428CBF0023E2
:1021A000012399E74FF4967202FB07F2254DA5FB38
:1021B000025292090132A6E7A268BAB9461E03EBA1
:1021C0004307B6FBF7F60136C6F30B06B6FA86F6FA
:1021D000760946BBC2B9421E03EB4303B2FBF3F2DE
:1021E0000132C2F30B0242F40043A3E7461E03EBA5
:1021F000830707EB8707B6FBF7F60136C6F30B0636
:10220000B6FA86F67609E4E7421E03EB830303EB96
:102210008303B2FBF3F20132C2F30B0242F44043F8
:1022200088E7042386E7012384E701207047012023
:10223000ACE700BFA08601007F841E0083DE1B4345
:10224000FF083D00D34D62102DE9F04383B00446F2
:102250000F46904699460C9EFFF730FD054694F8D0
:102260003D00C0B2202803D0022003B0BDE8F083B7
:102270000095192301224B492046FFF7B8FD00289D
:1022800040F0898094F83C30012B00F086800123D7
:1022900084F83C3023681A6812F0010F03D11A68E1
:1022A00042F001021A602268136823F4006313608D
:1022B000212384F83D30402384F83E3000232364FA
:1022C0000A9B6362BDF82C306385638D2385364B92
:1022D000E362019500964B46424639462046FFF799
:1022E0003FFE00285BD1238D002B35D02A46314696
:1022F0002046FFF70BFE20BB626A236812781A6142
:10230000616A4B1C6362228D013A92B22285638D11
:102310009BB2013B9BB263852368586910F0040FA0
:10232000E1D0002ADFD04A781A61636A0133636220
:10233000238D013B2385638D9BB2013B9BB263855B
:10234000D1E7236C042B01D001208EE722681368AB
:1023500043F400731360F7E72A4631462046FFF73F
:102360006BFE50B1236C042B01D001207DE7226865
:10237000136843F400731360F7E72268136843F4AB
:1023800000731360202384F83D30002384F83E302E
:1023900084F83C3069E7022067E7022065E7012006
:1023A00063E700BF020010000000FFFFDFF834D039
:1023B000002103E00C4B5B58435004310B480C4B9D
:1023C00042189A42F6D30B4A02E0002342F8043B3B
:1023D000094B9A42F9D3FFF78BFC00F011F8FEF796
:1023E00045FA7047000002209435000800000020E4
:1023F000700000207000002038010020FEE700007F
:1024000070B50D4D0D4C641BA4100026A64209D1D9
:102410000B4D0C4C00F05CFC641BA4100026A64283
:1024200005D170BD55F8043B98470136EEE755F8E5
:10243000043B98470136F2E78C3500088C350008DC
:102440008C3500089035000802440346934200D1C1
:10245000704703F8011BF9E70EB400B59CB01DAB43
:10246000029006906FF000410948079104910949D4
:1024700053F8042B05910068019302A900F068F855
:10248000029B00221A701CB05DF804EB03B0704789
:102490000C0000200802FFFF2DE9F0478E689E42E5
:1024A00082460C4690461F4638D88A8912F4906FAF
:1024B00032D025680969A5EB0109656905EB450579
:1024C00005EBD57501334B446D109D4238BF1D4659
:1024D000530531D5294600F047FB064650B90C2379
:1024E000CAF80030A38943F04003A3814FF0FF30C6
:1024F000BDE8F08721694A4600F0BEFAA38923F4BB
:10250000906343F08003A381266165614E44A5EB8F
:1025100009052660A5603E46BE4200D93E463246C9
:102520002068414600F0B6FAA36822689B1B32443B
:10253000A36022600020DBE72A4600F06FFB06461E
:102540000028E1D12169504600F0BEFAC7E700003B
:102550002DE9F04F98468B891B069DB007460D4626
:1025600014460ED50B6963B9402100F0FDFA2860CE
:10257000286120B90C233B604FF0FF30D1E04023AD
:102580006B610023099320238DF82930CDF80C804E
:102590003023DFF8A8818DF82A304FF00109234657
:1025A0009A4613F8012B0AB1252AF9D1BAEB040B8C
:1025B0000BD05B46224629463846FFF76DFF0130B7
:1025C00000F0AA80099A5A4409929AF80030002B28
:1025D00000F0A28000234FF0FF32CDE905230AF17D
:1025E000010A049307938DF853301A935446052239
:1025F00014F8011B5148FDF7EBFD049AD8B9D00639
:1026000044BF20238DF85330110744BF2B238DF88E
:1026100053309AF800302A2B15D0079A54460020E0
:102620004FF00A0C214611F8013B303B092B4ED9E3
:10263000B0B1079214E0A0EB080309FA03F31343C7
:102640000493A246D2E7039B191D1B680391002B3C
:10265000BBBF5B4242F0020207930793B8BF0492EC
:1026600023782E2B0CD163782A2B35D1039B1A1D8E
:102670001B680392002BB8BF4FF0FF330234059361
:10268000DFF8C8A0217803225046FDF7A1FD40B134
:102690004023A0EB0A0003FA00F0049B034301343B
:1026A000049314F8011B26488DF828100622FDF724
:1026B0008FFD002838D0234B1BBB039B073323F02F
:1026C000070308330393099B3344099367E70CFB23
:1026D00002320C460120A5E7002301340593194678
:1026E0004FF00A0C204610F8012B303A092A03D982
:1026F000002BC5D00591C3E70CFB01210446012343
:10270000F0E703AB00932A460F4B04A93846AFF31A
:102710000080421C0646D6D1AB895B063FF52CAF44
:1027200009981DB0BDE8F08F03AB00932A46064B15
:1027300004A9384600F07AF8EBE700BF50350008EE
:102740005A3500080000000099240008563500089A
:102750002DE9F047164699468A680B69DDF8208016
:102760009342B8BF1346336091F8432007460C46A6
:102770000AB1013333602368990642BF33680233DC
:102780003360256815F0060506D104F1190AE368DF
:1027900032689B1AAB4226DC94F84320131E226851
:1027A00018BF012392062BD404F143024946384650
:1027B000C04701301ED02368E568326803F0060385
:1027C000042B08BFAD1AA36822690CBF25EAE57582
:1027D00000259342C4BF9B1AED1800261A34B54257
:1027E0001AD1002008E00123524649463846C04726
:1027F000013003D14FF0FF30BDE8F0870135C6E767
:10280000E1185A1C302081F84300224494F8451006
:1028100082F843100233C7E701232246494638466F
:10282000C0470130E6D00136D9E700002DE9FF4767
:102830000C469146277E0C99782F80469A4604F1E3
:10284000430207D8622F0AD8002F00F0D880582FF3
:1028500000F0A38004F1420684F842703AE0A7F148
:102860006303152BF6D801A050F823F0C528000803
:10287000D9280008552800085528000855280008C0
:1028800055280008D92800085528000855280008B0
:102890005528000855280008E529000809290008DE
:1028A000C72900085528000855280008072A0008ED
:1028B000552800080929000855280008552800084F
:1028C000CF2900080B681A1D1B680A6004F1420634
:1028D00084F842300123A3E0256808682E0600F141
:1028E00004030AD505680B60002D03DA2D236D4221
:1028F00084F843305E480A2319E015F0400F05685C
:102900000B6018BF2DB2EFE70B682568181D086033
:10291000280601D51D6802E06906FBD51D885448CC
:102920006F2F0CBF08230A23002184F84310666828
:10293000A660002EA2BF216821F0040121600DB91C
:10294000002E4DD01646B5FBF3F103FB1157C75DC2
:1029500006F8017D2F46BB420D46F4D9082B0BD15A
:102960002368DF0708D5236961689942DEBF3023F9
:1029700006F8013C06F1FF36921B2261CDF800A05B
:102980004B4603AA21464046FFF7E2FE01304CD1F8
:102990004FF0FF3004B0BDE8F087354884F845704B
:1029A00023680E681F0656F8045B0E6014D5D9071D
:1029B00044BF43F0200323601DB9236823F02003A4
:1029C00023601023B0E7236843F0200323607823BB
:1029D000284884F84530E3E75E0648BFADB2E6E735
:1029E0001646BBE70B68266860691D1D0D6035063D
:1029F0001B6801D5186002E07106FBD51880002322
:102A000023611646BAE70B681A1D0A601E686268E1
:102A100000213046FDF7DCFB08B1801B6060636875
:102A20002361002384F84330A8E7236932464946EE
:102A30004046D0470130ABD023689B0713D4E068F1
:102A4000039B9842B8BF1846A4E701233246494683
:102A50004046D04701309BD00135E36803995B1AAB
:102A6000AB42F2DCEBE7002504F11906F5E700BF05
:102A700061350008723500080A44914200F1FF33C5
:102A800000D1704710B511F8014B03F8014F914286
:102A9000F9D110BD884210B501EB020402D984427D
:102AA000234607D8431EA14208D011F8012B03F892
:102AB000012FF8E7024401468A4200D110BD13F805
:102AC000014D02F8014DF7E737B5002948D051F81C
:102AD000043C0190002BA1F10404B8BFE41800F0FD
:102AE000D3F8204A01981368154633B9636014601F
:102AF00003B0BDE8304000F0CDB8A3420BD9216847
:102B00006218934204BF1A685B68636004BF52187E
:102B100022602C60ECE71A465B680BB1A342FAD93D
:102B200011685518A5420BD1246821445418A342BA
:102B30001160DDD11C685B68536021441160D7E7E8
:102B400002D90C230360D3E7256861198B4204BFC7
:102B500019685B68636004BF491921605460C7E766
:102B600003B030BD8C000020F8B5CD1C25F0030566
:102B700008350C2D38BF0C25002D064601DBA94277
:102B800003D90C2333600020F8BD00F07DF8214903
:102B90000A6814469CB9204F3B6823B92146304649
:102BA00000F062F838602946304600F05DF8431CBA
:102BB00023D10C233360304600F06CF8E3E7236840
:102BC0005B1B17D40B2B03D923601C44256004E046
:102BD0006368A2420CBF0B605360304600F05AF8A5
:102BE00004F10B00231D20F00700C21ACCD01B1AE1
:102BF000A350C9E722466468CCE7C41C24F0030450
:102C0000A042E3D0211A304600F02EF80130DDD189
:102C1000CFE700BF8C00002090000020F8B50746E9
:102C200014460E4621B9BDE8F8401146FFF79CBF97
:102C300022B9FFF749FF25462846F8BD00F030F8D5
:102C4000A0420FD221463846FFF78EFF05460028E6
:102C5000F2D031462246FFF70FFF31463846FFF7E4
:102C600033FFE9E73546E7E738B5064D002304466C
:102C700008462B6000F01EF8431C02D12B6803B1FC
:102C8000236038BD28010020014800F011B800BFC2
:102C900030010020014800F00CB800BF30010020D6
:102CA00051F8043C181F002BBCBF0B58C0187047CC
:102CB00070477047044A05491368002B08BF0B464C
:102CC0001844106018467047940000203801002016
:102CD000F8B500BFF8BC08BC9E467047F8B500BF09
:082CE000F8BC08BC9E467047D9
:102CE8000000000000000000002F000000000700A6
:102CF800070000147F147F1400242A7F2A12006220
:102D080064081323003649552250000005030000CB
:102D180000001C224100000041221C000014083E53
:102D280008140008083E0808000000A06000000819
:102D3800080808080000606000000020100804026D
:102D4800003E5149453E0000427F4000004261512B
:102D58004946002141454B31001814127F100027C5
:102D680045454539003C4A49493000017109050388
:102D780000364949493600064949291E00003636B9
:102D8800000000005636000000081422410000141C
:102D980014141414000041221408000201510906F9
:102DA80000324959513E007C1211127C007F49497A
:102DB8004936003E41414122007F4141221C007FAB
:102DC80049494941007F09090901003E4149497AB9
:102DD800007F0808087F0000417F41000020404133
:102DE8003F01007F08142241007F40404040007F9F
:102DF800020C027F007F0408107F003E4141413EE3
:102E0800007F09090906003E4151215E007F09192A
:102E180029460046494949310001017F0101003F27
:102E28004040403F001F2040201F003F4038403FA7
:102E3800006314081463000708700807006151490B
:102E4800454300007F41410000552A552A5500009E
:102E580041417F000004020102040040404040401C
:102E6800000001020400002054545478007F4844B4
:102E7800443800384444442000384444487F0038EB
:102E88005454541800087E0901020018A4A4A47C14
:102E9800007F080404780000447D400000408084DE
:102EA8007D00007F102844000000417F4000007C26
:102EB80004180478007C0804047800384444443832
:102EC80000FC242424180018242418FC007C08047E
:102ED800040800485454542000043F444020003C57
:102EE8004040207C001C2040201C003C4030403CDE
:102EF800004428102844001CA0A0A07C004464546E
:102F08004C441414141414140000000000000000B1
:102F18000000000000000000000000F800000000B1
:102F2800000000333000000000100C06100C0600F2
:102F3800000000000000000040C07840C078400059
:102F4800043F04043F040400007088FC08300000BB
:102F5800001820FF211E0000F008F000E018000013
:102F680000211C031E211E0000F0088870000000CC
:102F78001E2123241927211010160E00000000001E
:102F88000000000000000000000000E0180402003B
:102F9800000000071820400000020418E0000000AC
:102FA8000040201807000000404080F080404000AA
:102FB8000202010F01020200000000F00000000000
:102FC8000101011F010101000000000000000000D4
:102FD80080B0700000000000000000000000000049
:102FE80000010101010101010000000000000000D2
:102FF800003030000000000000000000806018046D
:10300800006018060100000000E010080810E00049
:10301800000F102020100F00001010F80000000012
:103028000020203F20200000007008080888700059
:1030380000302824222130000030088888483000D9
:103048000018202020110E000000C02010F80000F9
:1030580000070424243F240000F808888808080092
:103068000019212020110E0000E0108888180000A7
:10307800000F112020110E0000380808C838080079
:103088000000003F000000000070880808887000F9
:10309800001C222121221C0000E010080810E0007A
:1030A8000000312222110F00000000C0C000000003
:1030B8000000003030000000000000800000000028
:1030C8000000806000000000000080402010080020
:1030D80000010204081020004040404040404000E9
:1030E80004040404040404000008102040800000C4
:1030F8000020100804020100007048080808F000C9
:103108000000003036010000C030C828E810E00098
:103118000718272423140B000000C038E000000023
:10312800203C23020227382008F88888887000008D
:10313800203F202020110E00C03008080808380061
:10314800071820202010080008F808080810E000D8
:10315800203F202020100F0008F88888E808100079
:10316800203F20202320180008F88888E80810004D
:10317800203F200003000000C03008080838000085
:1031880007182020221E020008F808000008F80886
:10319800203F210101213F20000808F8080800000D
:1031A8000020203F2020000000000808F808080040
:1031B800C08080807F00000008F888C028180800B8
:1031C800203F20012638200008F8080000000000F1
:1031D800203F20202020300008F8F800F8F80800E8
:1031E800203F003F003F200008F830C00008F808E2
:1031F800203F200007183F00E01008080810E000F2
:103208000F10202020100F0008F808080808F00008
:10321800203F210101010000E01008080810E0002B
:103228000F18242438504F0008F8888888887000C0
:10323800203F2000030C3020007088080808380060
:103248000038202121221C00180808F80808180056
:103258000000203F2000000008F808000008F808D7
:10326800001F202020201F000878880000C8380888
:10327800000007380E010000F80800F80008F80000
:10328800033C0700073C030008186880806818089A
:1032980020302C03032C30200838C800C838080018
:1032A8000000203F2000000010080808C838080067
:1032B8002038262120201800000000FE020202000B
:1032C8000000007F40404000000C30C000000000BB
:1032D800000000010638C00000020202FE000000E3
:1032E800004040407F000000000004020202040089
:1032F80000000000000000000000000000000000C6
:1033080080808080808080800002020400000000AD
:1033180000000000000000000000808080800000A5
:103328000019242222223F2008F800808000000093
:10333800003F112020110E00000000808080000056
:10334800000E112020201100000000808088F80065
:10335800000E112020103F20000080808080000097
:10336800001F222222221300008080F088888818FB
:103378000020203F20200000000080808080800006
:10338800006B94949493600008F80080808000009B
:10339800203F210000203F20008098980000000076
:1033A8000020203F202000000000008098980000A6
:1033B80000C08080807F000008F8000080808000C6
:1033C800203F24022D302000000808F800000000EB
:1033D8000020203F202000008080808080808000A6
:1033E800203F20003F20003F808000808080000038
:1033F800203F210000203F200000808080800000C6
:10340800001F202020201F008080008080000000F6
:1034180080FFA12020110E00000000808080800025
:10342800000E112020A0FF80808080008080800016
:1034380020203F2120000100000080808080800043
:103448000033242424241900008080E080800000B8
:103458000000001F20200000808000000080800005
:10346800001F202020103F20808080000080808066
:1034780000010E30080601008080008000808080F6
:103488000F300C030C300F0000808000808080001B
:103498000020312E0E312000808080000080808046
:1034A80080818E70180601000080808080808000F6
:1034B8000021302C2221300000000000807C020214
:1034C80000000000003F404000000000FF00000036
:1034D80000000000FF0000000002027C80000000E5
:1034E8000040403F00000000000601010202040401
:1034F800000000000000000044657369676E6564A1
:10350800206279204A6F655F6A6F650025303264F2
:103518003A253032643A25303264000032302530A2
:1035280032643A253032643A2530326400000000B3
:10353800000000000000000001020304060708095B
:103548000000000001020304232D302B2000686CCA
:103558004C006566674546470030313233343536AE
:1035680037383941424344454600303132333435E7
:0C35780036373839616263646566000014
:083584001CCDFF7F01000000D7
:04358C00B50100087D
:04359000910100089D
:1035940001000000100000000024F40010000020CE
:1035A4000000000000000000000000000000000017
:1035B4000000000000000000000000000000000007
:1035C40000000000000000000000000000000000F7
:1035D40000000000000000000000000000000000E7
:1035E40000000000000000000000000000000000D7
:1035F40000000000000000000000000000000000C7
:04000005080023AD1F
:00000001FF
