:020000040800F2
:1000000000000120E9120008BD110008BF1100081E
:10001000C1110008C3110008C5110008000000004C
:10002000000000000000000000000000C7110008F0
:10003000C911000800000000CB110008CD11000814
:100040003113000831130008311300083113000880
:100050003113000831130008311300083113000870
:100060003113000831130008311300083113000860
:100070003113000831130008311300083113000850
:100080003113000831130008311300083113000840
:100090003113000831130008311300083113000830
:1000A0003113000831130008311300083113000820
:1000B0003113000831130008311300083113000810
:1000C0003113000831130008311300083113000800
:1000D00031130008D1110008311300083113000852
:1000E00031130008311300083113000831130008E0
:1000F00031130008311300083113000831130008D0
:1001000031130008311300083113000831130008BF
:1001100031130008311300083113000831130008AF
:10012000311300083113000831130008311300089F
:1001300000000000000000000000000000000000BF
:1001400000000000000000000000000000000000AF
:10015000000000000000000000000000000000009F
:10016000000000000000000000000000000000008F
:10017000000000000000000000000000000000007F
:10018000000000000000000000000000000000006F
:10019000000000000000000000000000000000005F
:1001A000000000000000000000000000000000004F
:1001B000000000000000000000000000000000003F
:1001C000000000000000000000000000000000002F
:1001D000000000000000000000000000000000001F
:0401E0005FF8E0F1F3
:1001E40010B5054C237833B9044B13B10448AFF36D
:1001F40000800123237010BD0C00002000000000CB
:100204008C13000808B5034B1BB103490348AFF333
:10021400008008BD00000000100000208C130008BE
:1002240038B50E4B054618784FF47A73B3FBF0F3E8
:100234000B4A1068B0FBF3F000F08CF8044658B990
:100244000F2D09D8024629464FF0FF3000F042F83E
:10025400044B20461D6038BD012038BD000000203D
:100264000800002004000020074A08B51368032092
:1002740043F01003136000F01BF80020FFF7D0FFD9
:1002840000F078FF002008BD00200240034A044B20
:1002940011681B780B441360704700BF2C000020CA
:1002A40000000020014B1868704700BF2C0000209C
:1002B400074A0002D36800F4E06023F4E0631B04FF
:1002C4001B0C43F0BF6343F400330343D360704714
:1002D40000ED00E0174B30B5DC68C4F30224C4F130
:1002E4000703251D042B28BF0423062D4FF0010509
:1002F40098BF002405FA03F303F1FF3388BF033CDE
:100304001940A14005FA04F4013C2240002842EAC5
:1003140001024FEA0212AFBF00F16040064B00F049
:100324000F00D2B2A5BFD2B200F561401A5480F8D2
:10033400002330BD00ED00E014ED00E0012342098C
:1003440000F01F0003FA00F0014B43F8220070474D
:1003540000E100E00138B0F1807F0AD2F021064BC1
:10036400064A586082F823100020072298601A6019
:1003740070470120704700BF10E000E000ED00E08E
:1003840090F8213010B5022B03D00423836301209D
:1003940010BD03681A6822F00E021A601A6822F06F
:1003A40001021A60294A934224D902F562729342E7
:1003B40019D01432934218D01432934217D0143205
:1003C40093420CBF4FF480534FF48033204A536060
:1003D4000123002480F82130436B80F820409BB334
:1003E4009847204610BD0123F0E71023EEE74FF4B1
:1003F4008073EBE717498B4216D014318B4215D02A
:1004040014318B4214D014318B4214D014318B42EA
:1004140014D014318B4214D0934214BF4FF4803360
:100424004FF080730C4AD2E70123FBE71023F9E76E
:100434004FF48073F6E74FF48053F3E74FF48033BF
:10044400F0E74FF48013EDE7184610BD800002403A
:100454000004024008000240000002402DE9F74F6A
:10046400002216466C4F6D4BDFF8B8E1DFF8B8C1D7
:100474004FF001080C6808FA06F808EA0404A045DD
:1004840040F085804D68122D00F0B78000F28D8019
:10049400022D00F0AF8000F28180002D00F09180E9
:1004A400012D00F0A5804FF00F09FF2C93BF824669
:1004B40006F18045083DD0F800B092BFB500D0F8F1
:1004C40004B0AD0009FA05F82BEA080802FA05F5AC
:1004D40088BF00F1040A48EA0505CAF80050D1F8BB
:1004E40004A01AF0805F52D0BD6926F0030845F0DD
:1004F4000105BD61BD6908F1804805F0010501955C
:1005040008F5803806F0030B019D4FEA8B0BD8F8F1
:10051400085009FA0BF925EA0909414DA84271D09E
:1005240005F58065A8426FD005F58065A8426DD0B9
:1005340005F58065A8426BD005F58065A84269D0B1
:1005440070450CBF0525062505FA0BF545EA090596
:10055400C8F808501D681AF4803F14BF2543A5430A
:100564001D605D681AF4003F14BF2543A5435D6018
:100574009D681AF4801F14BF2543A5439D60DD6860
:100584001AF4001F14BF2C4325EA0404DC6001366E
:10059400102E7FF46DAF03B0BDE8F08F032D25D08E
:1005A400112D80D1CA6804327DE7654509D012D87F
:1005B400DFF878904D4504D009F580394D457FF436
:1005C40072AF8A68E2B1012A0CBFC0F81080C0F88B
:1005D4001480082267E7DFF858904D45F1D009F5FB
:1005E40080394D45EDD0A9F58019E7E700225AE797
:1005F400CA6858E7CA68083255E7CA680C3252E735
:10060400042250E700259FE701259DE702259BE78B
:10061400032599E7042597E70010024000040140F0
:1006240000080140001C01400000211000001110CE
:100634000000311003682DE9F341DB07054610D4AF
:100644002B689F075ED42B68190700F195802B68EF
:100654005A0700F1BF80EA69002A40F02D8100208A
:1006640014E0904C636803F00C03042B07D0636818
:1006740003F00C03082B0CD16368DE0309D523684F
:100684009C03DDD56B68002BDAD1012002B0BDE8F4
:10069400F0816B68B3F5803F10D1236843F4803355
:1006A4002360FFF7FFFD064623689803C8D4FFF7CD
:1006B400F9FD801B6428F7D90320E7E79BB9236879
:1006C40023F480332360236823F480232360FFF71B
:1006D400E9FD064623689903B2D5FFF7E3FD801BC5
:1006E4006428F7D9E8E7B3F5A02F236803D143F4CE
:1006F40080232360D1E723F480332360236823F429
:100704008023CDE7674C636813F00C0F07D0636850
:1007140003F00C03082B10D16368DA030DD42368AB
:100724009B0702D52B69012BAFD123686A6923F09B
:10073400F80343EAC203236085E72A695A4B6AB186
:1007440001221A60FFF7AEFD064623689F07ECD42A
:10075400FFF7A8FD801B0228F7D9ADE71A60FFF761
:10076400A1FD0646236898077FF56DAFFFF79AFD54
:10077400801B0228F6D99FE7AA694A4C4B4BDAB191
:1007840001221A60FFF78EFD0646636A9B070DD5AA
:100794004FF4FA52464B1B68B3FBF2F3019300BFCC
:1007A400019B5A1E0192002BF9D150E7FFF77AFD05
:1007B400801B0228E9D97FE71A60FFF773FD06461C
:1007C400636A9F077FF543AFFFF76CFD801B022828
:1007D400F6D971E7334CE369D80024D40127E369DF
:1007E40043F08053E361E36903F080530093009B7B
:1007F400304E3368D90518D5EB68012B26D1236A0E
:1008040043F001032362FFF74DFD41F28836804631
:10081400236A9B073FD5002F3FF41DAFE36923F004
:100824008053E36117E70027E2E7336843F48073FA
:100834003360FFF737FD80463368DA05DCD4FFF711
:1008440031FDA0EB08006428F6D935E7ABB9236A7B
:1008540041F2883823F001032362236A23F004035E
:100864002362FFF71FFD0646236A9807D3D5FFF7D7
:1008740019FD801B4045F7D91EE7052B236A03D1D8
:1008840043F004032362BAE723F001032362236ADB
:1008940023F00403B6E7FFF705FDA0EB0800B04220
:1008A400B6D909E7001002400000424280044242E7
:1008B4000800002000700040224C636803F00C0321
:1008C400082B3FF4E2AE00231F4E022A33602BD1E3
:1008D400FFF7E8FC0746236899011FD42B6AB3F598
:1008E400803F05D16268A96822F400320A4362603D
:1008F400696A62680B4322F4741213436360012330
:100904003360FFF7CFFC054623689A013FF5A7AE95
:10091400FFF7C8FC401B0228F6D9CDE6FFF7C2FC5E
:10092400C01B0228D7D9C7E6FFF7BCFC05462368DD
:100934009B017FF594AEFFF7B5FC401B0228F6D966
:10094400BAE600BF001002406000424230B5194BC5
:1009540087B002AC03F110052246186859680833C1
:1009640003C2AB421446F7D101238DF804300223AD
:1009740011498DF805304B6803F00C02082A17D191
:10098400C3F3834206A80244DB0312F8102C0CD5EF
:100994004B680A48C3F34043504306AA134413F870
:1009A400143CB0FBF3F007B030BD05485043FAE700
:1009B4000248F8E7A41300080010024000127A006D
:1009C40000093D00544A2DE9F0411368054603F03F
:1009D40007038B420E462AD329688C0734D4CA07EE
:1009E40047D44D4A136803F007039E42C0F0828047
:1009F4002A684A4C12F0040F40F08780130706D58A
:100A040063682A6923F4605343EAC2036360FFF70F
:100A14009DFF6368424AC3F30313D35CD840414B40
:100A240018600020FFF7FCFB0020BDE8F08113688C
:100A340023F007030B431360136803F00703994281
:100A4400CAD00120BDE8F081344B11F0040F1EBF61
:100A54005A6842F4E0625A60080742BF5A6842F496
:100A640060525A605A68A86822F0F00202435A6041
:100A7400B5E76A68294C012A23681CD113F4003FA6
:100A8400DFD0636841F2883823F0030313436360C3
:100A9400FFF708FC6B680746012B14D1636803F069
:100AA4000C03042B9DD0FFF7FDFBC01B4045F5D97B
:100AB4000320BDE8F081022A02D113F0007FDFE7B2
:100AC40013F0020FDCE7022B0FD1636803F00C0371
:100AD400082B86D0FFF7E6FBC01B4045F5D9E7E7B6
:100AE400FFF7E0FBC01B4045E2D8636813F00C0F2E
:100AF400F6D176E7136823F00703334313601368D2
:100B040003F007039E429CD172E76368E96823F40B
:100B1400E0630B43636071E7002002400010024071
:100B2400BD13000808000020044B054A5B68C3F3AA
:100B34000223D35C034A1068D84070470010024077
:100B4400CD13000808000020044B054A5B68C3F37A
:100B5400C223D35C034A1068D84070470010024097
:100B6400CD130008080000200368DA6822F49072AC
:100B7400DA605A6922F001025A61202380F83A307F
:100B8400704700002DE9F0470568C2682B690169C8
:100B940023F4405313432B618368EA680B43416990
:100BA40022F4B05222F00C020B431343EB606B6946
:100BB400826923F4407313436B61404B81469D4229
:100BC4004FF0190446D1FFF7BFFF04FB00F3D9F837
:100BD40004604FF06408B600B3FBF6F3B3FBF8F31C
:100BE4001E01FFF7B1FF6043D9F804309B00B0FB4E
:100BF400F3F7FFF7A9FF6043D9F804309B00B0FB7B
:100C0400F3F3B3FBF8F308FB13731B013233B3FBA9
:100C1400F8F303F0F007FFF797FF6043D9F80420D7
:100C24009200B0FBF2FAFFF78FFF6043D9F804306B
:100C34009B00B0FBF3F3B3FBF8F308FB13A31B0116
:100C44003233B3FBF8F303F00F033B433344AB609D
:100C5400BDE8F087FFF768FF04FB00F3D9F80460F0
:100C64004FF06408B600B3FBF6F3B3FBF8F31E01D0
:100C7400FFF75AFF6043D9F804309B00B0FBF3F749
:100C8400FFF752FF6043D9F804309B00B0FBF3F345
:100C9400B3FBF8F308FB13731B013233B3FBF8F314
:100CA40003F0F007FFF740FF6043D9F804209200F7
:100CB400B0FBF2FAFFF738FFB7E700BF0038014096
:100CC400F8B504460E4617461D4621680B6836EAF9
:100CD400030301D10020F8BD6B1CF7D095B923683C
:100CE4000320DA6822F4D072DA605A6922F0010231
:100CF4005A61202384F8393084F83A30002384F888
:100D04003830F8BDFFF7CEFAC01B8542DDD2E6E7E6
:100D140010B5044640B390F8393003F0FF021BB914
:100D240080F8382000F09AFA2423226884F83930B5
:100D3400D368204623F40053D360FFF723FF2368CE
:100D440000201A6922F490421A615A6922F02A0298
:100D54005A61DA6842F40052DA602023E06384F8CE
:100D6400393084F83A3010BD012010BD2DE9F0412E
:100D74001F4690F839300446202B0D4690464ED13C
:100D8400002949D0002A47D090F83830012B46D0AA
:100D9400012380F838300023C363212380F83930DD
:100DA400FFF780FA0646A4F82480A4F82680E38C92
:100DB4009BB26BB93B46324640212046FFF780FF89
:100DC400A8B9202384F8380084F83930BDE8F081CC
:100DD400E38C3246013B9BB2E384A3688021B3F5E4
:100DE400805F20463B460ED1FFF76AFF10B1032017
:100DF400BDE8F0812B882268C3F30803536023699C
:100E040043B90235D3E7FFF75BFF0028EFD123682E
:100E14002A785A600135CAE70120BDE8F081022032
:100E2400BDE8F08190F83A30202B20D1E9B1E2B14D
:100E340090F83830012B1AD0C285828500232222F3
:100E4400C36380F83A2002688162D16880F8383040
:100E540041F48071D1605169184641F0010151613A
:100E6400D16841F02001D160704701207047022011
:100E74007047704790F83A3010B5222B36D183680A
:100E84000169B3F5805F0268836A23D15268E9B9C6
:100E9400C2F3080223F8022B8362C48D013CA4B27E
:100EA400C4858CB90368DA6822F02002DA60DA6853
:100EB40022F48072DA605A6922F001025A61202316
:100EC40080F83A3000F00AF9002010BDD2B223F8BD
:100ED400012BE1E721B9591C526881621A70DCE7E1
:100EE4005268591C816202F07F02F7E7022010BDAC
:100EF40070470000036870B51A6804461607D9687D
:100F04005D6907D196065AD58D0658D5BDE870405F
:100F1400FFF7B0BF15F0010502D111F4907F4ED058
:100F2400D30705D5CE0542BFE36B43F00103E3636A
:100F3400500704D51DB1E36B43F00203E363930749
:100F440004D51DB1E36B43F00403E363160704D532
:100F54001DB1E36B43F00803E363E36B002B66D03E
:100F6400950604D5880602D52046FFF783FF23683B
:100F740020465D69E26B110702D415F040051AD0D2
:100F8400FFF7F2FD23685A69520610D55A69606B5F
:100F940022F040025A6150B1254B4363FFF7F0F948
:100FA400002844D0606BBDE87040436B184720466E
:100FB400FFF79EFF70BDFFF79BFFE56370BD16064C
:100FC40027D50D0625D594F83920212A2FD1A268DA
:100FD400B2F5805F226A17D11188C1F30801596004
:100FE400216979B902322262E28C013A92B2E28436
:100FF400EAB9DA6822F08002DA60DA6842F0400284
:10100400DA6070BD0132EEE7511C216212785A6039
:10101400EAE750060BD54A0609D5DA68204622F0DD
:101024004002DA60202384F83930FFF722FF70BDD4
:101034003910000808B50023406AC385C384FFF74C
:1010440057FF08BD90F8392090F83A0010437047D4
:10105400064B82B09A6942F004029A619B6903F0DC
:1010640004030193019B02B0704700BF00100240CB
:1010740000B591B02822002106A800F07DF91422C1
:10108400002101A800F078F90223069301230A93B2
:10109400102306A80B93FFF7CDFA00210F2301A814
:1010A40001930291039104910591FFF78BFC11B018
:1010B4005DF804FB08B5FFF7D7F8FFF7D9FFFFF792
:1010C400C7FF00F0AFF8012202490348FFF7AAFE68
:1010D400FEE700BF300100203401002038B51F4A6C
:1010E40013781446FF2B15D100241D481470214693
:1010F4004FF4807200F040F94FF6FF73224619490D
:101104001948FFF733FEBDE8384001221749164855
:10111400FFF788BE15485A1C11490078D2B2C8544A
:101124008B1813F8010C22700A28ECD113F8023C36
:101134000D2BE8D14FF6FF730B48FFF717FE0A4D4E
:101144002846FFF77FFF2128FAD000214FF4807250
:101154000348217000F010F9D5E700BF28000020F3
:1011640030000020B41300083401002030010020B6
:10117400704700000E4B82B09A6942F001029A61F6
:101184009A6902F001020092009ADA6942F08052F0
:10119400DA61DB69074A03F080530193019B5368CA
:1011A40023F0E06343F00073536002B0704700BF64
:1011B40000100240000001407047FEE7FEE7FEE732
:1011C400FEE7704770477047FFF760B80148FFF7C4
:1011D40091BE00BF340100200F4B1A6842F0010297
:1011E4001A6059680D4A0A405A601A6822F08472DB
:1011F40022F480321A601A6822F480221A605A6833
:1012040022F4FE025A604FF41F029A604FF000620B
:10121400034B9A60704700BF001002400000FFF8C3
:1012240000ED00E008B54FF4E13E0A480A4B0C22F9
:1012340080E80840002342618360C36003618361E6
:10124400C361FFF765FD18B1BDE80840FFF790BF23
:1012540008BD00BF340100200038014010B5044629
:1012640086B01022002102A800F086F822681B4BE9
:101274009A4230D103F558439A6902A942F4804254
:101284009A619A69164802F480420092009A9A6917
:10129400002442F004029A619B6903F00403019361
:1012A400019B4FF4007302930223039303230593DA
:1012B400FFF7D4F84FF4806302A90948029303941A
:1012C4000494FFF7CBF8252022462146FFF702F8C5
:1012D4002520FFF733F806B010BD00BF00380140E9
:1012E40000080140002103E00B4B5B5843500431DC
:1012F4000A480B4B42189A42F6D30A4A02E00023EA
:1013040042F8043B084B9A42F9D3FFF765FF00F01B
:101314000FF8FFF7CFFE7047E0130008000000202D
:101324000C0000200C00002074010020FEE70000E7
:1013340070B500250C4E0D4CA41BA410A54209D178
:1013440000F022F800250A4E0A4CA41BA410A54262
:1013540005D170BD56F8253098470135EEE756F8AB
:10136400253098470135F2E7D8130008D813000850
:10137400D8130008DC13000803460244934200D14A
:10138400704703F8011BF9E7F8B500BFF8BC08BCC7
:101394009E467047F8B500BFF8BC08BC9E4670472F
:1013A40002030405060708090A0B0C0D0E0F1010A2
:1013B400CAFDBEDDD2E7B3F6000000000000000065
:1013C40000010203040607080900000000010203EB
:0413D4000400000011
:0413D80009020008FE
:0413DC00E50100081F
:0C13E000010000001000000000A24A0400
:04000005080012E9F4
:00000001FF
