:020000040800F2
:1000000000000220AD0E00087D0E00087F0E0008E3
:10001000810E0008830E0008850E00080000000015
:10002000000000000000000000000000870E000833
:10003000890E0008000000008B0E00088D0E0008DD
:10004000FD0E0008FD0E0008FD0E0008FD0E000864
:10005000FD0E0008FD0E0008FD0E0008FD0E000854
:10006000FD0E0008FD0E0008FD0E0008FD0E000844
:10007000FD0E0008FD0E0008FD0E0008FD0E000834
:10008000FD0E0008FD0E0008FD0E0008FD0E000824
:10009000FD0E0008FD0E0008FD0E0008FD0E000814
:1000A000FD0E0008FD0E0008FD0E0008FD0E000804
:1000B000FD0E0008FD0E0008FD0E0008FD0E0008F4
:1000C000FD0E0008FD0E0008FD0E0008FD0E0008E4
:1000D000FD0E0008FD0E0008FD0E0008FD0E0008D4
:1000E000FD0E0008FD0E0008FD0E0008FD0E0008C4
:1000F000FD0E0008FD0E0008FD0E0008FD0E0008B4
:10010000FD0E0008FD0E0008FD0E0008FD0E0008A3
:10011000FD0E0008FD0E0008FD0E0008FD0E000893
:10012000FD0E0008FD0E0008FD0E0008FD0E000883
:10013000FD0E0008FD0E0008FD0E0008FD0E000873
:10014000FD0E0008FD0E0008FD0E0008FD0E000863
:10015000FD0E0008FD0E0008FD0E0008FD0E000853
:10016000FD0E0008FD0E0008FD0E0008FD0E000843
:10017000FD0E0008FD0E0008FD0E00080000000046
:08018000FD0E0008FD0E000851
:1001880010B5054C237833B9044B13B10448AFF3C9
:1001980000800123237010BD0C0000200000000027
:1001A800580F000808B5034B1BB103490348AFF3C8
:1001B800008008BD0000000010000020580F000853
:1001C80053B94AB9002908BF00281CBF4FF0FF31B6
:1001D8004FF0FF3000F07AB9ADF1080C6DE904CEAC
:1001E80000F006F8DDF804E0DDE9022304B070470A
:1001F8002DE9F0478C460D460446089E002B51D148
:100208008A4217466DD9B2FA82FEBEF1000F0BD0B2
:10021800CEF1200C01FA0EF520FA0CFC02FA0EF7CA
:100228004CEA050C00FA0EF44FEA174A250CBCFB01
:10023800FAF81FFA87F90AFB18CC45EA0C4508FBBF
:1002480009F3AB420AD9ED1908F1FF3280F0238196
:10025800AB4240F22081A8F102083D44ED1AA4B255
:10026800B5FBFAF00AFB105544EA054400FB09F90E
:10027800A14509D9E41900F1FF3380F00A81A145AD
:1002880040F2078102383C44A4EB090440EA0840E4
:100298000021002E61D024FA0EF40023346073602C
:1002A800BDE8F0878B4207D9002E54D0002186E89C
:1002B80021000846BDE8F087B3FA83F1002940F031
:1002C8008E80AB4202D3824200F2FA80841A65EB38
:1002D80003050120AC46002E3FD086E81010BDE88B
:1002E800F08712B90127B7FBF2F7B7FA87FEBEF11C
:1002F800000F34D1EB1B3A0C1FFA87FC0121B3FB2A
:10030800F2F8250C02FB183345EA03450CFB08F309
:10031800AB4207D9ED1908F1FF3002D2AB4200F227
:10032800D1808046ED1AA3B2B5FBF2F002FB10555E
:1003380043EA05440CFB00FCA44507D9E41900F185
:10034800FF3302D2A44500F2B8801846A4EB0C048F
:1003580040EA08409DE731463046BDE8F087CEF1D7
:10036800200405FA0EF307FA0EF720FA04F83A0CFF
:1003780025FA04F448EA0308B4FBF2F14FEA1845F9
:1003880002FB11441FFA87FC45EA044501FB0CF304
:10039800AB4200FA0EF409D9ED1901F1FF3080F0F3
:1003A8008A80AB4240F2878002393D44EB1A1FFA3B
:1003B80088F5B3FBF2F002FB103345EA034500FB76
:1003C8000CF3AB4207D9ED1900F1FF386FD2AB42FD
:1003D8006DD902383D44EB1A40EA01418FE7C1F17B
:1003E800200722FA07F88B4005FA01F448EA0303CC
:1003F80020FA07FE4FEA134CFD404EEA040EB5FB07
:10040800FCF94FEA1E440CFB19551FFA83F844EA1D
:10041800054509FB08F4AC4202FA01F200FA01FAB8
:1004280008D9ED1809F1FF3043D2AC4241D9A9F1FE
:1004380002091D442D1B1FFA8EFEB5FBFCF00CFBB8
:1004480010554EEA054400FB08F8A04507D9E41802
:1004580000F1FF3529D2A04527D902381C4440EACB
:100468000940A4EB0804A0FB02894C45C6464D464A
:1004780015D312D056B1BAEB0E0364EB050404FA97
:1004880007F7CB401F43CC40376074600021BDE8BC
:10049800F0871846F8E69046E0E6C245EAD2B8EB9F
:1004A800020E69EB03050138E4E72846D7E7404622
:1004B80091E78146BEE7014678E702383C4445E7C4
:1004C800084608E7A8F102083D442BE7704700BF3B
:1004D80038B50E4A0E4B054618784FF47A73B3FBBD
:1004E800F0F31068B0FBF3F000F09CF8044658B93C
:1004F8000F2D09D8024629464FF0FF3000F05EF86C
:10050800044B20461D6038BD012038BD080000207E
:10051800000000200400002008B50B4B1A6842F4C4
:1005280000721A601A6842F480621A601A6842F40B
:1005380080721A60032000F02FF80020FFF7C8FF30
:1005480000F07CFC002008BD003C0240034A044B3C
:1005580011681B780B441360704700BF2800002007
:1005680000000020014B1868704700BF28000020D9
:1005780038B50446FFF7F6FF631C1CBF054B1B7814
:10058800054618BFE418FFF7EDFF401B8442FAD870
:1005980038BD00BF00000020074AD36823F4E06399
:1005A8001B041B0C43F0BF63000243F4003300F448
:1005B800E0600343D360704700ED00E0174B30B5AF
:1005C800DC68C4F30224C4F10703251D042B28BFEB
:1005D8000423062D4FF0010505FA03F303F1FF3359
:1005E8008CBF033C00241940A14005FA04F4013CE7
:1005F8002240002842EA01024FEA0212ADBF00F190
:10060800604000F00F00064B00F56140B5BFD2B264
:10061800D2B21A5480F8002330BD00BF00ED00E0CC
:1006280014ED00E00138B0F1807F0AD2064B074A8A
:100638005860F02182F823100020072298601A6081
:1006480070470120704700BF10E000E000ED00E0B7
:100658002DE9F04F85B00B68DFF8AC81684ADFF808
:10066800AC91019300230124019D9C402540AC429C
:1006780040F0B0804C6824F0100C0CF1FF36012ECD
:100688004FEA430E12D88768032606FA0EF627EAC1
:100698000607CE6806FA0EF63E4386604768C4F33E
:1006A800001627EA05079E403E4346600326C768B2
:1006B80006FA0EF6F64307EA060A8F6807FA0EF7F7
:1006C80047EA0A07BCF1020FC76016D14FEAD30AFE
:1006D80000EB8A0A03F0070BDAF820704FEA8B0B5D
:1006E8004FF00F0C0CFA0BFC27EA0C0C0F6907FAF9
:1006F8000BF747EA0C07CAF8207007683E4004F079
:10070800030707FA0EFE4EEA06060660E60061D504
:100718004FF0000BCDF80CB0D8F84470394E47F4C0
:100728008047C8F84470D8F8447007F480470397A6
:10073800039F23F0030707F1804707F59C3703F071
:10074800030CD7F808A04FEA8C0C4FF00F0E0EFAE6
:100758000CFEB0422AEA0E0E43D006F58066B0427F
:1007680041D006F58066B0423FD006F58066B042BB
:100778003DD006F58066B0423BD048453BD006F5F3
:100788000066B04239D006F58066B04214BF08262C
:10079800072606FA0CF646EA0E06BE601668EF4310
:1007A80014F4803F0CBF3E402E431660566814F484
:1007B800003F0CBF3E402E435660966814F4801FDD
:1007C8000CBF3E402E439660D668A40254BF3E40FC
:1007D8002E43D6600133102B7FF445AF05B0BDE83A
:1007E800F08F5E46D5E70126D3E70226D1E7032638
:1007F800CFE70426CDE70526CBE70626C9E700BFE5
:10080800003C014000000240003802400014024051
:100818000AB1816170470904FBE7436931EA0303C0
:1008280008BF0904816170472DE9F341044608B9FE
:1008380001203FE00368DD0710D4236898075AD4E5
:1008480023681A0700F19C8023685B0700F1BA80CF
:10085800A069002840F01B8100202BE0A44B9A6877
:1008680002F00C02042A07D09A6802F00C02082A47
:100878000AD15B68590207D59D4B1B689A03DCD5E2
:100888006368002BD9D1D3E76368994DB3F5803FEE
:1008980013D12B6843F480332B60FFF763FE944D2C
:1008A80006462B689B03C8D4FFF75CFE801B6428B0
:1008B800F7D9032002B0BDE8F081B3F5A02F04D129
:1008C8002B6843F480232B60E3E72A6822F4803204
:1008D8002A602A6822F480222A60002BDDD1FFF7E3
:1008E80041FE06462B689F03A7D5FFF73BFE801BFA
:1008F8006428F7D9DDE77E4B9A6812F00C0F07D011
:100908009A6802F00C02082A11D15B685E020ED4C4
:10091800774B1A68950702D5E268012A88D11A68C8
:10092800216922F0F80242EAC1021A6088E7E26807
:10093800704BB2B101221A60FFF714FE6C4D0646E7
:100948002B68980707D52B68226923F0F80343EA38
:10095800C2032B6074E7FFF705FE801B0228EFD95E
:10096800A7E71A60FFF7FEFD614D06462B68990759
:100978007FF566AFFFF7F6FD801B0228F6D998E7EA
:1009880062695D4B7AB101221A60FFF7EBFD584DA1
:1009980006466B6F9F073FF557AFFFF7E3FD801BD8
:1009A8000228F6D985E71A60FFF7DCFD504D0646A8
:1009B8006B6F98077FF548AFFFF7D4FD801B0228BF
:1009C800F6D976E74A4B1A6C12F0805228D1019278
:1009D8001A6C42F080521A641B6C03F08053019326
:1009E800019B0126454D2B68D9051BD5A368404DB1
:1009F800012B27D12B6F43F001032B67FFF7B2FDC3
:100A08003B4D074641F288382B6F9B0739D5002E9E
:100A18003FF41EAF364A136C23F08053136417E774
:100A28000026DFE72B6843F480732B60FFF79AFDFD
:100A380007462B68DA05D9D4FFF794FDC01B0228B6
:100A4800F7D936E7052B04D12B6F43F004032B6746
:100A5800D0E72A6F22F001022A672A6F22F00402E7
:100A68002A67002BCAD1FFF77DFD41F28838074677
:100A78002B6F9807CBD5FFF775FDC01B4045F7D9FD
:100A880017E7FFF76FFDC01B4045BDD911E7184DAB
:100A9800AB6803F00C03082B47D0194E002302283B
:100AA800336035D1FFF75EFD07462B68990129D4DD
:100AB800226AE3691343626A43EA8213E26A43EAF9
:100AC8000263A26A0A4C5208013A43EA02436B6085
:100AD80001233360FFF746FD054623689A013FF579
:100AE800BBAEFFF73FFD401B0228F6D9E1E600BF89
:100AF8000038024000004742800E47420070004024
:100B080060004742FFF72EFDC01B0228CDD9D0E672
:100B1800FFF728FD04462B689B017FF59DAEFFF784
:100B280021FD001B0228F6D9C3E601283FF4C2AE16
:100B3800A868E36900F480029A427FF479AE226AD9
:100B480000F03F0393427FF473AE626A47F6C073C6
:100B5800034093427FF46CAEA26A00F440339342A0
:100B68007FF466AEE36A00F07060C01A18BF012017
:100B7800A0E600BF134908B58B6803F00C03042BEB
:100B880003D0082B03D0104808BD104808BD4A6898
:100B98004B68496813F4800314BF0C480A48C1F332
:100BA800881118BF002302F03F02A1FB0001FFF7E4
:100BB80007FB044B5B68C3F3014301335B00B0FBE5
:100BC800F3F008BD003802400024F40000127A0057
:100BD8002DE9F0410D46044610B90120BDE8F08129
:100BE800444B1A6802F00F028A4229D321688F0702
:100BF8002ED4C80741D43F4B1A6802F00F02954221
:100C080067D3226851076DD4130707D53A4A21697B
:100C1800936823F4604343EAC1039360FFF7AAFF94
:100C2800354B364A9B68C3F30313D35CD840344B27
:100C38001860344B1868FFF74BFC0020BDE8F081C2
:100C4800CAB21A701B6803F00F039942C5D1CDE7E9
:100C5800294B11F0040F1EBF9A6842F4E0529A60C3
:100C68000E0742BF9A6842F460429A609A68A06888
:100C780022F0F00202439A60BBE762681E4B012A29
:100C88001DD11B6813F4003FA7D01B4EB36823F097
:100C980003031343B360FFF765FC41F28838074646
:100CA800B368626803F00C03B3EB820FA3D0FFF7BD
:100CB80059FCC01B4045F3D90320BDE8F081911EC3
:100CC80001291B6802D813F0007FDDE713F0020F3B
:100CD800DAE7EAB21A701B6803F00F039D427FF44B
:100CE8007CAF8EE70449E0688B6823F4E053034344
:100CF8008B6089E7003C024000380240700F000812
:100D0800080000200400002030B589B0142200211A
:100D180003A800F015F90024134B01941A6B134D26
:100D280042F080021A631A6B02F080020192019A63
:100D380002941A6B42F001021A631B6B03F0010361
:100D4800029322462846C021029BFFF761FDC0237B
:100D5800039303A901232846049305940693FFF7F8
:100D680077FC09B030BD00BF0038024000000240E7
:100D780030B595B03022002108A800F0E1F8002134
:100D8800142203A800F0DCF800241C4B01941A6C10
:100D980042F080521A641B6C03F080530193019B4C
:100DA800174B02941A6842F480421A601B6803F4D5
:100DB80080430293029B012308934FF480330993E5
:100DC8004FF480030225A8220F9308A80423109348
:100DD800119213930E951295FFF726FD0F23039397
:100DE8004FF4A053069305214FF4805303A80495AC
:100DF80005940793FFF7ECFE15B030BD00380240AC
:100E08000070004008B5FFF787FBFFF7B1FFFFF759
:100E18007BFF094C40212046FFF7FFFC4FF4FA7096
:100E2800FFF7A6FB20468021FFF7F7FC4FF4FA7086
:100E3800FFF79EFBEEE700BF0000024082B00C4BBC
:100E4800002100915A6C42F480425A645A6C02F4B0
:100E580080420092009A01911A6C42F080521A6402
:100E68001B6C03F080530193019B02B0704700BFD5
:100E7800003802407047FEE7FEE7FEE7FEE77047EE
:100E880070477047FFF762BB054BD3F8882042F4E0
:100E98007002C3F888204FF000629A60704700BF64
:100EA80000ED00E0DFF834D0002103E00C4B5B5884
:100EB800435004310B480C4B42189A42F6D30B4A64
:100EC80002E0002342F8043B094B9A42F9D3FFF7AA
:100ED800DBFF00F011F8FFF795FF704700000220D4
:100EE800900F0008000000200C0000200C000020DB
:100EF8002C000020FEE7000070B50D4E0D4CA41B21
:100F0800A4100025A54209D10B4E0C4C00F020F886
:100F1800A41BA4100025A54205D170BD56F82530A4
:100F280098470135EEE756F8253098470135F2E73E
:100F3800880F0008880F0008880F00088C0F000829
:100F480002440346934200D1704703F8011BF9E7B6
:100F5800F8B500BFF8BC08BC9E467047F8B500BF9E
:080F6800F8BC08BC9E4670476E
:100F70000000000000000000010203040607080949
:080F800078F2FF7F0100000080
:040F8800AD010008AF
:040F8C0089010008CF
:0C0F900001000000100000000024F4002C
:0400000508000EAD34
:00000001FF
