:020000040800F2
:10000000000002202D1E00088D1B00088F1B000819
:10001000911B0008931B0008951B000800000000BE
:10002000000000000000000000000000971B000816
:10003000991B0008000000009B1B00089D1B000886
:100040007D1E00087D1E00087D1E00087D1E000824
:100050007D1E00087D1E00087D1E00087D1E000814
:100060007D1E00087D1E00087D1E00087D1E000804
:100070007D1E00087D1E00087D1E00087D1E0008F4
:100080007D1E00087D1E00087D1E00087D1E0008E4
:100090007D1E00087D1E00087D1E00087D1E0008D4
:1000A0007D1E00087D1E00087D1E00087D1E0008C4
:1000B0007D1E00087D1E00087D1E00087D1E0008B4
:1000C0007D1E00087D1E00087D1E00087D1E0008A4
:1000D0007D1E00087D1E00087D1E00087D1E000894
:1000E0007D1E00087D1E00087D1E00087D1E000884
:1000F0007D1E00087D1E00087D1E00087D1E000874
:100100007D1E00087D1E00087D1E00087D1E000863
:100110007D1E00087D1E00087D1E00087D1E000853
:100120007D1E00087D1E00087D1E00087D1E000843
:100130007D1E00087D1E00087D1E00087D1E000833
:100140007D1E00087D1E00087D1E00087D1E000823
:100150007D1E00087D1E00087D1E00087D1E000813
:100160007D1E00087D1E00087D1E00087D1E000803
:100170007D1E00087D1E00087D1E00080000000096
:080180007D1E00087D1E000831
:1001900010B5054C237833B9044B13B10448AFF3C1
:1001A00000800123237010BD7000002000000000BB
:1001B0002027000808B5034B1BB103490348AFF3E0
:1001C000008008BD00000000740000202027000807
:1001D00001F0FF01102A2BDB10F0070F08D010F8F8
:1001E000013B013A8B422DD010F0070F42B3F6D1FC
:1001F000F0B441EA012141EA014122F007047FF015
:1002000000070023F0E80256083C85EA010586EA6B
:10021000010685FA47F5A3FA87F586FA47F6A5FAA7
:1002200087F68EB9EED1F0BC01F0FF0102F00702B3
:1002300032B110F8013B013A83EA010313B1F8D15E
:100240000020704701387047002D06BF354603383F
:10025000073815F0010F07D1013015F4807F02BF78
:10026000013015F4C03F0130F0BC0138704700BFC9
:1002700053B94AB9002908BF00281CBF4FF0FF310D
:100280004FF0FF3000F07AB9ADF1080C6DE904CE03
:1002900000F006F8DDF804E0DDE9022304B0704761
:1002A0002DE9F0478C460D460446089E002B51D19F
:1002B0008A4217466DD9B2FA82FEBEF1000F0BD00A
:1002C000CEF1200C01FA0EF520FA0CFC02FA0EF722
:1002D0004CEA050C00FA0EF44FEA174A250CBCFB59
:1002E000FAF81FFA87F90AFB18CC45EA0C4508FB17
:1002F00009F3AB420AD9ED1908F1FF3280F02381EE
:10030000AB4240F22081A8F102083D44ED1AA4B2AC
:10031000B5FBFAF00AFB105544EA054400FB09F965
:10032000A14509D9E41900F1FF3380F00A81A14504
:1003300040F2078102383C44A4EB090440EA08403B
:100340000021002E61D024FA0EF400233460736083
:10035000BDE8F0878B4207D9002E54D0002186E8F3
:1003600021000846BDE8F087B3FA83F1002940F088
:100370008E80AB4202D3824200F2FA80841A65EB8F
:1003800003050120AC46002E3FD086E81010BDE8E2
:10039000F08712B90127B7FBF2F7B7FA87FEBEF173
:1003A000000F34D1EB1B3A0C1FFA87FC0121B3FB81
:1003B000F2F8250C02FB183345EA03450CFB08F361
:1003C000AB4207D9ED1908F1FF3002D2AB4200F27F
:1003D000D1808046ED1AA3B2B5FBF2F002FB1055B6
:1003E00043EA05440CFB00FCA44507D9E41900F1DD
:1003F000FF3302D2A44500F2B8801846A4EB0C04E7
:1004000040EA08409DE731463046BDE8F087CEF12E
:10041000200405FA0EF307FA0EF720FA04F83A0C56
:1004200025FA04F448EA0308B4FBF2F14FEA184550
:1004300002FB11441FFA87FC45EA044501FB0CF35B
:10044000AB4200FA0EF409D9ED1901F1FF3080F04A
:100450008A80AB4240F2878002393D44EB1A1FFA92
:1004600088F5B3FBF2F002FB103345EA034500FBCD
:100470000CF3AB4207D9ED1900F1FF386FD2AB4254
:100480006DD902383D44EB1A40EA01418FE7C1F1D2
:10049000200722FA07F88B4005FA01F448EA030323
:1004A00020FA07FE4FEA134CFD404EEA040EB5FB5E
:1004B000FCF94FEA1E440CFB19551FFA83F844EA75
:1004C000054509FB08F4AC4202FA01F200FA01FA10
:1004D00008D9ED1809F1FF3043D2AC4241D9A9F156
:1004E00002091D442D1B1FFA8EFEB5FBFCF00CFB10
:1004F00010554EEA054400FB08F8A04507D9E4185A
:1005000000F1FF3529D2A04527D902381C4440EA22
:100510000940A4EB0804A0FB02894C45C6464D46A1
:1005200015D312D056B1BAEB0E0364EB050404FAEE
:1005300007F7CB401F43CC40376074600021BDE813
:10054000F0871846F8E69046E0E6C245EAD2B8EBF6
:10055000020E69EB03050138E4E72846D7E7404679
:1005600091E78146BEE7014678E702383C4445E71B
:10057000084608E7A8F102083D442BE7704700BF92
:1005800038B50E4A0E4B054618784FF47A73B3FB14
:10059000F0F31068B0FBF3F000F09CF8044658B993
:1005A0000F2D09D8024629464FF0FF3000F05EF8C3
:1005B000044B20461D6038BD012038BD08000020D6
:1005C000000000200400002008B50B4B1A6842F41C
:1005D00000721A601A6842F480621A601A6842F463
:1005E00080721A60032000F02FF80020FFF7C8FF88
:1005F00001F0B0FA002008BD003C0240034A044B61
:1006000011681B780B441360704700BF98000020EE
:1006100000000020014B1868704700BF98000020C0
:1006200038B50446FFF7F6FF631C1CBF054B1B786B
:10063000054618BFE418FFF7EDFF401B8442FAD8C7
:1006400038BD00BF00000020074AD36823F4E063F0
:100650001B041B0C43F0BF63000243F4003300F49F
:10066000E0600343D360704700ED00E0174B30B506
:10067000DC68C4F30224C4F10703251D042B28BF42
:100680000423062D4FF0010505FA03F303F1FF33B0
:100690008CBF033C00241940A14005FA04F4013C3E
:1006A0002240002842EA01024FEA0212ADBF00F1E7
:1006B000604000F00F00064B00F56140B5BFD2B2BC
:1006C000D2B21A5480F8002330BD00BF00ED00E024
:1006D00014ED00E00138B0F1807F0AD2064B074AE2
:1006E0005860F02182F823100020072298601A60D9
:1006F00070470120704700BF10E000E000ED00E00F
:100700002DE9F04F85B00B68DFF8AC81684ADFF85F
:10071000AC91019300230124019D9C402540AC42F3
:1007200040F0B0804C6824F0100C0CF1FF36012E24
:100730004FEA430E12D88768032606FA0EF627EA18
:100740000607CE6806FA0EF63E4386604768C4F395
:10075000001627EA05079E403E4346600326C76809
:1007600006FA0EF6F64307EA060A8F6807FA0EF74E
:1007700047EA0A07BCF1020FC76016D14FEAD30A55
:1007800000EB8A0A03F0070BDAF820704FEA8B0BB4
:100790004FF00F0C0CFA0BFC27EA0C0C0F6907FA50
:1007A0000BF747EA0C07CAF8207007683E4004F0D0
:1007B000030707FA0EFE4EEA06060660E60061D55C
:1007C0004FF0000BCDF80CB0D8F84470394E47F418
:1007D0008047C8F84470D8F8447007F480470397FE
:1007E000039F23F0030707F1804707F59C3703F0C9
:1007F000030CD7F808A04FEA8C0C4FF00F0E0EFA3E
:100800000CFEB0422AEA0E0E43D006F58066B042D6
:1008100041D006F58066B0423FD006F58066B04212
:100820003DD006F58066B0423BD048453BD006F54A
:100830000066B04239D006F58066B04214BF082683
:10084000072606FA0CF646EA0E06BE601668EF4367
:1008500014F4803F0CBF3E402E431660566814F4DB
:10086000003F0CBF3E402E435660966814F4801F34
:100870000CBF3E402E439660D668A40254BF3E4053
:100880002E43D6600133102B7FF445AF05B0BDE891
:10089000F08F5E46D5E70126D3E70226D1E703268F
:1008A000CFE70426CDE70526CBE70626C9E700BF3C
:1008B000003C0140000002400038024000140240A9
:1008C0000AB1816170470904FBE701684B6913F4C1
:1008D00080634FF0000210D06FF480634B612023DF
:1008E000026380F83D3080F83E20036C80F83C20A5
:1008F00043F00403036401207047184670472DE954
:10090000F843044617469946C1F307488EB2256856
:10091000B8F1010F0CBF6B69AB6936EA030314BF72
:100920000120002008B9BDE8F8836B695A0516D587
:100930002B6843F400732B606FF480636B6120229B
:100940000023236384F83D2084F83E30226C42F07B
:100950000402226484F83C300120BDE8F8837B1C4B
:10096000D5D0FFF757FEA0EB0900874201D3002F37
:10097000CDD100232022236384F83D2084F83E302B
:10098000226C42F02002E4E770B504460D4616469C
:1009900023685B695B0701D5002070BD2046FFF727
:1009A00094FFA8B96A1CF3D0FFF734FE801B854280
:1009B00001D3002DECD100232022236384F83D20B5
:1009C00084F83E30226C84F83C3042F020022264ED
:1009D000012070BD2DE9F843089E044690461F464D
:1009E000C1F307498DB22368B9F1010F0CBF5B69F0
:1009F0009B6935EA03030CBF01230023434502D062
:100A00000020BDE8F8837B1CEDD0FFF703FE801BC0
:100A1000874201D3002FE6D100232022236384F8EC
:100A20003D2084F83E30226C84F83C3042F02002B5
:100A300022640120BDE8F88370B504460D461646D1
:100A400023685B691B0601D5002070BD2046FFF7B7
:100A50003CFFA8B96A1CF3D0FFF7DCFD801B854280
:100A600001D3002DECD100232022236384F83D2004
:100A700084F83E30226C84F83C3042F0200222643C
:100A8000012070BD2DE9FF41154602680B9E984676
:100A9000136843F4807313600F460A9B009600228C
:100AA0004FF001110446FFF795FF236838B11B682A
:100AB000DB0502D54FF40073236403200AE007F03E
:100AC000FE071F610A9A194933462046FFF717FFB0
:100AD00018B1012004B0BDE8F081236803905A6981
:100AE00003929B69039332460A99039B2046FFF7C2
:100AF000A3FF40B1236C042B01BF2268136843F4A9
:100B000000731360E5E7B8F1010F236802D1EDB27D
:100B10001D61DFE72A0A1A610A9932462046FFF76B
:100B20008BFF0028E6D12368F1E700BF0200010037
:100B300070B5044608B9012070BD90F83D3003F04F
:100B4000FF021BB980F83C2000F0C2FE242384F889
:100B50003D3023681A6822F001021A601A6842F4D4
:100B600000421A601A6822F400421A6000F08CFBFE
:100B70006568414B9D424DD8404B9842DBD9226875
:100B80003F495368B0FBF1F123F03F030B4353603F
:100B9000136A23F03F03013119431162D169364BC7
:100BA00021F44F419D4221F0FF0100F1FF3048D870
:100BB0006D00B0FBF5F00130C0F30B03042B38BF20
:100BC00004230B43D3611168206AE36921F0C0015B
:100BD00003430B4313609168E068236921F40341E8
:100BE000034321F0FF010B439360D168A06963695F
:100BF00021F0FF0103430B43D360136843F001036B
:100C0000136000202023206484F83D30206384F8A2
:100C10003E0070BD1B4B98428DD92268184E536818
:100C2000B0FBF6F623F03F0333435360136A4FF4EF
:100C30009671714323F03F034FF47A76B1FBF6F1DE
:100C4000A9E7A36853B905EB4503B0FBF3F0431CD8
:100C5000C3F30B036BB143F40043B2E719236B43B7
:100C6000B0FBF3F0431CC3F30B0313B143F4404355
:100C7000A7E70123A5E700BFA08601007F841E002F
:100C800040420F00FF083D002DE9F7430446994616
:100C90000F4690460C9EFFF7BDFC94F83D30202B8C
:100CA000054603D0022003B0BDE8F083009019236D
:100CB00001223B492046FFF78DFE0028F2D194F82F
:100CC0003C30012BEED0012384F83C3023681A68B5
:100CD000D1075EBF1A6842F001021A601A6822F456
:100CE00000621A60212384F83D30402384F83E30AE
:100CF000002323640A9B6362BDF82C306385638DF7
:100D00002385284BE362019500964B4642463946BF
:100D10002046FFF7B7FE00282AD00120C3E7FFF7DF
:100D20008BFE40B1236C042B01BF2268136843F48F
:100D300000731360F1E7636A27681A4612F8011B13
:100D400039616262628D218D013A92B262857A695F
:100D5000481E80B2520720850AD548B15A783A61B8
:100D600002336362638D013B02399BB22185638547
:100D7000238D2A4631462046002BD0D1FFF704FEB2
:100D80000028CFD12268136843F400731360202336
:100D900084F83D3084F83C0084F83E0083E700BFCF
:100DA000020010000000FFFF2DE9F341044608B9DE
:100DB00001203FE00368DD0710D4236898075AD468
:100DC00023681A0700F19C8023685B0700F1BA8052
:100DD000A069002840F01B8100202BE0A44B9A68FA
:100DE00002F00C02042A07D09A6802F00C02082ACA
:100DF0000AD15B68590207D59D4B1B689A03DCD565
:100E00006368002BD9D1D3E76368994DB3F5803F70
:100E100013D12B6843F480332B60FFF7FBFB944D19
:100E200006462B689B03C8D4FFF7F4FB801B64289D
:100E3000F7D9032002B0BDE8F081B3F5A02F04D1AB
:100E40002B6843F480232B60E3E72A6822F4803286
:100E50002A602A6822F480222A60002BDDD1FFF765
:100E6000D9FB06462B689F03A7D5FFF7D3FB801B52
:100E70006428F7D9DDE77E4B9A6812F00C0F07D093
:100E80009A6802F00C02082A11D15B685E020ED447
:100E9000774B1A68950702D5E268012A88D11A684B
:100EA000216922F0F80242EAC1021A6088E7E2688A
:100EB000704BB2B101221A60FFF7ACFB6C4D0646D5
:100EC0002B68980707D52B68226923F0F80343EABB
:100ED000C2032B6074E7FFF79DFB801B0228EFD94C
:100EE000A7E71A60FFF796FB614D06462B68990746
:100EF0007FF566AFFFF78EFB801B0228F6D998E7D7
:100F000062695D4B7AB101221A60FFF783FB584D8D
:100F100006466B6F9F073FF557AFFFF77BFB801BC4
:100F20000228F6D985E71A60FFF774FB504D064694
:100F30006B6F98077FF548AFFFF76CFB801B0228AB
:100F4000F6D976E74A4B1A6C12F0805228D10192FA
:100F50001A6C42F080521A641B6C03F080530193A8
:100F6000019B0126454D2B68D9051BD5A368404D33
:100F7000012B27D12B6F43F001032B67FFF74AFBAF
:100F80003B4D074641F288382B6F9B0739D5002E21
:100F90003FF41EAF364A136C23F08053136417E7F7
:100FA0000026DFE72B6843F480732B60FFF732FBEA
:100FB00007462B68DA05D9D4FFF72CFBC01B0228A3
:100FC000F7D936E7052B04D12B6F43F004032B67C9
:100FD000D0E72A6F22F001022A672A6F22F004026A
:100FE0002A67002BCAD1FFF715FB41F28838074664
:100FF0002B6F9807CBD5FFF70DFBC01B4045F7D9EA
:1010000017E7FFF707FBC01B4045BDD911E7184D97
:10101000AB6803F00C03082B47D0194E00230228BD
:10102000336035D1FFF7F6FA07462B68990129D4CA
:10103000226AE3691343626A43EA8213E26A43EA7B
:101040000263A26A0A4C5208013A43EA02436B6007
:1010500001233360FFF7DEFA054623689A013FF566
:10106000BBAEFFF7D7FA401B0228F6D9E1E600BF76
:101070000038024000004742800E474200700040A6
:1010800060004742FFF7C6FAC01B0228CDD9D0E660
:10109000FFF7C0FA04462B689B017FF59DAEFFF772
:1010A000B9FA001B0228F6D9C3E601283FF4C2AE04
:1010B000A868E36900F480029A427FF479AE226A5C
:1010C00000F03F0393427FF473AE626A47F6C07349
:1010D000034093427FF46CAEA26A00F44033934223
:1010E0007FF466AEE36A00F07060C01A18BF01209A
:1010F000A0E600BF134908B58B6803F00C03042B6E
:1011000003D0082B03D0104808BD104808BD4A681A
:101110004B68496813F4800314BF0C480A48C1F3B4
:10112000881118BF002302F03F02A1FB0001FFF766
:101130009FF8044B5B68C3F3014301335B00B0FBD2
:10114000F3F008BD003802400024F40000127A00D9
:101150002DE9F0410D46044610B90120BDE8F081AB
:10116000444B1A6802F00F028A4229D321688F0784
:101170002ED4C80741D43F4B1A6802F00F029542A3
:1011800067D3226851076DD4130707D53A4A2169FE
:10119000936823F4604343EAC1039360FFF7AAFF17
:1011A000354B364A9B68C3F30313D35CD840344BAA
:1011B0001860344B1868FFF7E3F90020BDE8F081B0
:1011C000CAB21A701B6803F00F039942C5D1CDE76C
:1011D000294B11F0040F1EBF9A6842F4E0529A6046
:1011E0000E0742BF9A6842F460429A609A68A0680B
:1011F00022F0F00202439A60BBE762681E4B012AAC
:101200001DD11B6813F4003FA7D01B4EB36823F019
:1012100003031343B360FFF7FDF941F28838074633
:10122000B368626803F00C03B3EB820FA3D0FFF73F
:10123000F1F9C01B4045F3D90320BDE8F081911EB0
:1012400001291B6802D813F0007FDDE713F0020FBD
:10125000DAE7EAB21A701B6803F00F039D427FF4CD
:101260007CAF8EE70449E0688B6823F4E0530343C6
:101270008B6089E7003C0240003802407627000876
:101280000800002004000020044B054A9B68C3F3BB
:101290008223D35C034A1068D8407047003802406C
:1012A0008627000808000020036813F0050FF7B533
:1012B000054605D1286810F0020028D103B0F0BD22
:1012C000414C424E00232360FFF7A4F907463368E0
:1012D0001B0115D4AB686A681B0743EA8213C6F882
:1012E000843001232360FFF795F9384C06462368C4
:1012F0001801DFD4FFF78EF9801B0228F7D904E02C
:10130000FFF788F9C01B0228E1D90320D6E70023A4
:1013100001932E4B2E4C1A6C42F080521A641B6CB7
:1013200003F080530193019B236843F4807323608F
:10133000FFF770F906462368D9051BD5234C236FA8
:1013400013F440731CD1EB6803F44072B2F5407F94
:101350001E4A34D1916823F0704021F4F81120F432
:10136000407001439160116FC3F30B030B4313678C
:101370000020A3E7FFF74EF9801B0228DBD9C4E762
:10138000EA6802F440729342DDD0236F114A0121D2
:10139000116023F44073002111602367236FDA0783
:1013A000D1D5FFF737F941F288370646236F9B07FF
:1013B000C9D4FFF72FF9801BB842F7D9A5E7916888
:1013C00021F4F811CEE700BF680047420038024020
:1013D00000700040400E4742026838B5D36823F0E1
:1013E000A003D3600446FFF715F905462368DB68C0
:1013F0009B0601D5002038BDFFF70CF9401BB0F566
:101400007A7FF3D9032038BD38B50368DA6852060D
:10141000044601D5002038BD4FF0FF32DA60FFF7F7
:10142000F9F805462368DB685B06F3D4FFF7F2F8AA
:10143000401BB0F57A7FF5D9032038BD38B5044696
:10144000B8B1437F03F0FF0213B9027700F076FBD7
:10145000022363772368CA225A6253225A622046C3
:10146000FFF7D2FF2368054628B1FF225A62042302
:10147000637701252EE09A68206922F4E00222F0C9
:1014800040029A60626899680243606902430A43B5
:101490009A60E2681A611A69A16842EA01421A6117
:1014A000DA6822F08002DA609B689B0605D4204649
:1014B000FFF792FF08B12368D7E72368A1691A6C88
:1014C00022F480221A641A6C0A431A64FF225A62B8
:1014D00001236377284638BD0023092803D840EA52
:1014E0000310C0B270470A380133C0B2F5E7F8B54F
:1014F000037F012B06460F464FF002052FD0012334
:1015000003770368457708784D788C789B6842BBF1
:1015100013F0400308BFCB70FFF7DEFF01462846FB
:10152000FFF7DAFF02462046FFF7D6FFFB7840EAD6
:10153000034040EA014040EA02243368CA225A626A
:1015400053225A623046FFF75FFF33680546A8B161
:10155000FF225A620423737700233377012528463C
:10156000F8BD13F040034FEA052508BFCB7045EAEC
:1015700000402043CC7840EA0444DEE704F07F34A6
:1015800024F0FE441C609A68386922F480229A6034
:10159000FA68996802430A439A60DA6822F0800286
:1015A000DA609B689B060AD43046FFF715FF30B11E
:1015B0003368FF225A62042373773577CEE73368A6
:1015C000FF225A620123737700233377C7E7F8B508
:1015D000037F012B05464FF0020630D0012303772D
:1015E00046774B78C8788E780C78002A48D1DA068E
:1015F00003D523F010030A334B70FFF76DFF074646
:101600004878FFF769FF02463046FFF765FF40EA7A
:10161000443040EA074040EA02242B68CA225A625A
:1016200053225A622846FFF7EFFE2B68064640B168
:10163000FF225A6204236B7700232B770126304662
:10164000F8BD24F07F4424F0C0045C60DA6822F026
:101650008002DA609B689B060AD42846FFF7BCFE2E
:1016600030B12B68FF225A6204236B772E77E5E7AF
:101670002B68FF225A6201236B7700232B77DEE76A
:101680001B0243EA0040304340EA4434C5E7030903
:1016900003EB830300F00F0000EB4300C0B2704780
:1016A0000368986A486070B518691D6805F07F3353
:1016B00023F0FE43C0F30E001E0C8860C3F3062423
:1016C00006F03F0005F07F0506F0400608704C70FC
:1016D0008D70CE7052B9FFF7DAFF08702046FFF721
:1016E000D6FF48702846FFF7D2FF8870002070BDF3
:1016F00038B503685C6824F07F4323F0C003180CFE
:10170000C3F3042504F03F04C3F34233C8704D70A3
:101710008C700B7052B9FFF7BAFFC8702846FFF7FC
:10172000B6FF48702046FFF7B2FF8870002038BD32
:10173000037F012B2DE9F04104460E4617464FF07A
:10174000020029D00123237723686077CA225A62D6
:1017500053225A629B685A0520D42268936823F466
:1017600080639360FEF756FF80462368DD6815F0BE
:10177000040529D09A6822F007029A609A683A43D1
:101780009A605E619A6842F480629A60FF225A62AF
:101790000020012363772077BDE8F081FEF73AFF50
:1017A00005462368DB685B07D7D5FEF733FF401B90
:1017B000B0F57A7FF5D92368FF225A62032000230F
:1017C00060772377BDE8F081FEF724FFA0EB0800E7
:1017D000B0F57A7FC9D92368FF2203205A62607767
:1017E0002577BDE8F081000030B514228BB00DEBF9
:1017F0000200002100F06EFB0024234B00941A6BC2
:10180000224D42F004021A631A6B02F004020092A5
:10181000009A01941A6B42F020021A631A6B02F0CC
:1018200020020192019A02941A6B42F080021A631C
:101830001A6B02F080020292029A03941A6B42F031
:1018400001021A631A6B02F001020392039A0494D4
:101850001A6B42F002021A631B6B03F0020304933B
:10186000224628464FF4C061049BFFF729F84FF445
:10187000C063059305A9012328460693079408949D
:10188000FEF73EFF0BB030BD0038024000140240AE
:1018900008B50C480C4BDFF834E04FF4804280E888
:1018A000084000238360C360026143618361C361B8
:1018B0000362FFF73DF918B1BDE8084000F0ECB84D
:1018C00008BD00BF9C00002000540040A08601001D
:1018D00030B5044689B01422002103A800F0FAFABA
:1018E0002268144B9A4223D1134C144800250195C9
:1018F000236B43F002032363236B03F00203019382
:10190000019BC02303931223049301230593032314
:10191000069303A904230793FEF7F2FE0295236CB6
:1019200043F400132364236C03F400130293029B1B
:1019300009B030BD005400400038024000040240AD
:1019400070B5302298B00DEB0200002100F0C2FA11
:101950001422002107A800F0BDFA0021102203A8DC
:1019600000F0B8FA0025224B01951A6C42F0805223
:101970001A641B6C03F080530193019B1D4B02956D
:101980001A6842F480421A601B6803F48043029391
:10199000029B4FF480330D9301230E934FF4800389
:1019A0001393082314934FF4A87302240526159368
:1019B0000CA8042317930C9612941694FFF7F4F9CD
:1019C0000F2307934FF4A0530A9331464FF48053EB
:1019D00007A80B9308940995FFF7BAFB4FF480739F
:1019E00003A803940693FFF75FFC18B070BD00BF17
:1019F000003802400070004000B58DB0FEF7E4FDF5
:101A0000FFF79EFFFFF7F0FEFFF742FF00F046F8FA
:101A100000F016F900F099F90123194A194D1A4EF0
:101A20000021184600F094F900221649174C304660
:101A3000FFF736FEA9786B782A78009102A814493E
:101A400000F050FA01231946184602AA00F080F966
:101A5000214600223046FFF74BFEA1786378E278FA
:101A6000009102A80B4900F03DFA0123184602AA92
:101A7000022100F06DF94FF47A70FEF7D1FDD3E743
:101A800038270008F400002008010020F0000020A2
:101A90004C27000860270008704700007FB514221B
:101AA000002101A800F016FA2248234A002380E80A
:101AB0000C007F228260FF220093C26003614361B9
:101AC0008361FFF7BBFC08B1FFF7E6FF20238DF829
:101AD000043049238DF8053010238DF8063001229B
:101AE000002301A9134804930593FFF700FD08B1F3
:101AF000FFF7D2FF03238DF8003002238DF8013069
:101B000019238DF8023001222023694609488DF8F7
:101B10000330FFF75CFD08B1FFF7BEFF002211465E
:101B20000448FFF705FE08B1FFF7B6FF07B05DF800
:101B300004FB00BF08010020002800400268034B9E
:101B40009A4202BF024B01221A60704700280040EF
:101B50003C0E474282B00C4B002100915A6C42F47B
:101B600080425A645A6C02F480420092009A0191B9
:101B70001A6C42F080521A641B6C03F0805301937C
:101B8000019B02B0704700BF003802407047FEE77B
:101B9000FEE7FEE7FEE7704770477047FEF72EBD91
:101BA00008B50A4B1968024609B90949196018684D
:101BB000694602448A4206D900F062F90C230360A8
:101BC0004FF0FF3008BD1A6008BD00BF8C00002038
:101BD0002C010020054BD3F8882042F47002C3F892
:101BE00088204FF000629A60704700BF00ED00E06F
:101BF0007FB506AA642302F8010D029301238DE844
:101C00000C00782100220348FFF73EF807B05DF88A
:101C100004FB00BF9C0000207FB506AA642302F8E5
:101C2000010D029301238DE80C0078214022034826
:101C3000FFF72AF807B05DF804FB00BF9C00002006
:101C400008B56420FEF7ECFCAE20FFF7D1FF2020A2
:101C5000FFF7CEFF1020FFF7CBFFB020FFF7C8FF44
:101C6000C820FFF7C5FF0020FFF7C2FF1020FFF7D5
:101C7000BFFF4020FFF7BCFF8120FFF7B9FFFF2027
:101C8000FFF7B6FFA120FFF7B3FFA620FFF7B0FFD5
:101C9000A820FFF7ADFF3F20FFF7AAFFA420FFF722
:101CA000A7FFD320FFF7A4FF0020FFF7A1FFD52057
:101CB000FFF79EFFF020FFF79BFFD920FFF798FF6B
:101CC0002220FFF795FFDA20FFF792FF1220FFF79F
:101CD0008FFFDB20FFF78CFF2020FFF789FF8D208F
:101CE000FFF786FF1420FFF783FFAF20BDE8084011
:101CF000FFF77EBF10B550390446C8B2FFF778FF32
:101D0000200940F01000FFF773FF04F00E0040F0D0
:101D10000100BDE81040FFF76BBF70B50646B02468
:101D20002046FFF765FF0020FFF762FF1020FFF756
:101D30005FFF8125013D04D10134E4B2B82CEFD11D
:101D400070BD3046FFF768FFF4E70020FFF7E5BFFE
:101D5000012B2DE9F04704460D4617460BD0022B08
:101D600007D1DFF8C0904FF000085FFA88F3FE5CFF
:101D700056BBBDE8F087DFF8B0804FF000095FFA8E
:101D800089F3FE5C0EB9BDE8F0877E2C82BF013579
:101D9000EDB20024203E29462046F6B2FFF7AAFF06
:101DA00006EB460608EB46064FF0000A16F80A0056
:101DB0000AF1010AFFF730FFBAF1060FF6D1063437
:101DC000E4B209F10109DAE7782C82BF0135EDB2FE
:101DD000002429462046203EFFF78CFFF6B24FF044
:101DE000000A09EB061616F80A000AF1010AFFF7C5
:101DF00013FFBAF1080FF6D1691CC9B22046FFF7EC
:101E000079FF4FF0000A06EB0A030AF1010A187A7B
:101E1000FFF702FFBAF1080FF5D10834E4B208F178
:101E20000108A2E7B62900088E270008DFF834D0A1
:101E3000002103E00C4B5B58435004310B480C4B22
:101E400042189A42F6D30B4A02E0002342F8043BC0
:101E5000094B9A42F9D3FFF7BDFE00F017F8FFF7E0
:101E6000CBFD704700000220EC2F0008000000208E
:101E700070000020700000202C010020FEE7000010
:101E8000014B1868704700BF0C00002070B50D4E64
:101E90000D4CA41BA4100025A54209D10B4E0C4CDF
:101EA00000F03EFCA41BA4100025A54205D170BD86
:101EB00056F8253098470135EEE756F82530984713
:101EC0000135F2E7E42F0008E42F0008E42F0008B2
:101ED000E82F000802440346934200D1704703F8FC
:101EE000011BF9E70EB400B59CB04FF402711DABB5
:101EF000ADF81410029006906FF000410A4804916A
:101F000007914FF6FF7153F8042BADF816100068D7
:101F1000019302A900F066F8029B00221A701CB01F
:101F20005DF804EB03B070470C0000202DE9F0478A
:101F30008E689E4282460C469146984635D88A89DC
:101F400012F4906F31D0256809696F1A6569022310
:101F500005EB450595FBF3F508F101033B449D4274
:101F600038BF1D46530531D5294600F039FB0646DA
:101F700050B90C23CAF80030A38943F04003A38171
:101F80004FF0FF30BDE8F0873A46216900F0B4FA1F
:101F9000A38923F4906343F08003A38126616561E4
:101FA0003E44ED1B2660A5604646464528BF464692
:101FB00032464946206800F0AAFAA3689B1BA3603A
:101FC00023681E4426600020BDE8F0872A4600F002
:101FD00065FB06460028E1D12169504600F0B2FABF
:101FE000C7E700002DE9F04F9DB0804603938B8931
:101FF0001C060D4616460FD50B696BB9402100F043
:10200000EFFA2860286128B90C23C8F800304FF097
:10201000FF30C5E040236B610023099320238DF836
:10202000293030238DF82A304FF0010B37463C46DB
:1020300014F8013B002B3CD1B7EB060A0BD05346FA
:10204000324629464046FFF771FF013000F0A38079
:10205000099B534409933B78002B00F09C8000239C
:102060004FF0FF3204930793059206938DF8533097
:102070001A93052221785048FEF7AAF8671C049BA2
:10208000D8B9D90644BF20228DF853201A0744BF7F
:102090002B228DF8532022782A2A16D0079A002165
:1020A0000A20274601343B78303B092B51D9C9B16E
:1020B00011E0252BC0D02746B9E73F4A801A0BFA1A
:1020C00000F0184304903C46D3E7039A111D1268B0
:1020D0000391002A01DB079204E0524243F002031D
:1020E000079204933B782E2B0ED17B782A2B07F195
:1020F000010132D1039B1A1D1B680392002BB8BF4C
:102100004FF0FF33023705932C4C397803222046D9
:10211000FEF75EF838B14023001B03FA00F0049B81
:10212000034304930137397825488DF82810062297
:102130007E1CFEF74DF8002835D0224BFBB9039BDF
:10214000073323F0070308330393099B4B44099398
:102150006CE700FB02320121A3E700230593184638
:102160000A240F4601313A78303A092A03D9002B64
:10217000CAD00590C8E704FB00200123F1E703ABB8
:1021800000932A46104B04A94046AFF30080B0F1FB
:10219000FF3F8146D9D1AB895B063FF538AF09983F
:1021A0001DB0BDE8F08F03AB00932A46064B04A98F
:1021B000404600F081F8EAE7A62F0008AC2F00089F
:1021C000B02F0008000000002D1F00082DE9F04787
:1021D00091461F468A680B69DDF820809342B8BF9C
:1021E0001346C9F8003091F8432006460C4612B158
:1021F0000133C9F800302368990642BFD9F800308E
:102200000233C9F80030256815F0060507D104F13E
:10221000190AE368D9F800209B1A9D4229DB94F83B
:1022200043302268003318BF012392062ED404F1F4
:10223000430239463046C047013021D02368E56863
:10224000D9F8002003F00603042B08BFAD1AA368D9
:1022500022690CBF25EAE57500259342C4BF9B1A8D
:10226000ED184FF000091A344D451BD10020BDE890
:10227000F0870123524639463046C047013003D12A
:102280004FF0FF30BDE8F0870135C2E7E1185A1C76
:10229000302081F84300224494F8451082F843101E
:1022A0000233C4E70123224639463046C047013095
:1022B000E6D009F10109D7E72DE9F04317460A7E78
:1022C00085B06E2A984606460C460C9B01F1430EDB
:1022D00000F0BC801AD8632A2ED00AD8002A00F059
:1022E000C880582A00F08A8004F1420584F8422010
:1022F0002AE0642A01D0692AF6D121681A6811F00F
:10230000800F23D0111D1960136827E0732A00F095
:10231000B48008D86F2A2AD0702AE5D10A6842F022
:1023200020020A6003E0752A21D0782ADCD17822C5
:1023300084F845206E4964E01A6801F14205111DD8
:102340001960136884F842300123A3E011F0400FB4
:1023500002F104011960D7D0B2F90030002B03DA82
:102360002D225B4284F8432062490A2217E020684C
:10237000196810F0800F03D0081D18600B6806E084
:1023800010F0400F01F104001860F7D00B88594994
:102390006F2A14BF0A220822002084F843006568CF
:1023A000A560002DC0F29C80206820F00400206011
:1023B000002B3FD1002D40F095807546082A0BD1A7
:1023C0002368DA0708D5236962689A42DEBF3023A2
:1023D00005F8013C05F1FF35AEEB05032361CDF8AF
:1023E00000803B4603AA21463046FFF7EFFE01304E
:1023F00055D14FF0FF3005B0BDE8F08381F845209E
:102400003C492268186812F0800F00F104051D6035
:1024100001D0036802E05506FBD50388D00744BF0E
:1024200042F0200222601BB9226822F020022260C2
:102430001022B1E77546B3FBF2F002FB1033CB5C20
:1024400005F8013D03460028F5D1B7E708681A688A
:10245000496910F0800F04D0101D186013681960CE
:1024600007E010F0400F02F1040018601368F6D086
:102470001980002323617546B1E71A68111D1960A0
:102480001568626800212846FDF7A2FE08B1401BCE
:10249000606063682361002384F843309FE7236909
:1024A0002A4639463046C0470130A2D023689B07F0
:1024B00007D5002504F11909E368039A9B1A9D4288
:1024C00005DBE068039B9842B8BF184693E70123F9
:1024D0004A4639463046C04701308AD00135EBE7DD
:1024E000002BA7D10B7884F8423004F1420565E750
:1024F000C82F0008B72F000810B5431E0A449142A8
:1025000000D110BD11F8014B03F8014FF7E78842E5
:1025100010B501EB020303D8421E99420CD110BD45
:102520009842F9D28118D21AD34200D110BD13F8C3
:10253000014D01F8014DF7E711F8014B02F8014F89
:10254000EBE7000038B50546002945D051F8043CBA
:102550000C1F002BB8BFE41800F0D6F81F4A136810
:10256000104633B9636014602846BDE8384000F077
:10257000CCB8A3420CD921686218934204BF1A68F0
:102580005B68636004BF521822600460ECE7134686
:102590005A680AB1A242FAD919685818A0420BD158
:1025A00020680144581882421960DDD110685268D1
:1025B0005A6001441960D7E702D90C232B60D3E796
:1025C000206821188A4204BF11685268626004BF03
:1025D000091821605C60C7E738BD00BF900000208B
:1025E00070B5CD1C25F0030508350C2D38BF0C2522
:1025F000002D064601DBA94203D90C2333600020DD
:1026000070BD00F081F8234A1468214691B9224C2C
:1026100023681BB9304600F067F820602946304631
:1026200000F062F8431C26D10C233360304600F0E2
:102630006CF8E4E70B685B1B1AD40B2B0FD90B600B
:10264000CD50CC18304600F060F804F10B00231D8B
:1026500020F00700C31A1BD05A42E25070BD8C42D2
:102660000DBF63684B686360136018BF0C46E9E7F1
:102670000C464968CAE7C41C24F00304A04205D0F4
:10268000211A304600F030F80130CDD02560D9E76E
:1026900070BD00BF9000002094000020F8B50746F0
:1026A00014460E4621B91146BDE8F840FFF798BF21
:1026B00022B9FFF747FF25462846F8BD00F026F867
:1026C00084420FD921463846FFF78AFF0546002885
:1026D000F2D031462246FFF70FFF31463846FFF76A
:1026E00031FFE9E73546E7E738B5064C00230546F4
:1026F00008462360FFF754FA431C02D1236803B154
:102700002B6038BD280100207047704751F8040C39
:102710000028A0F10400BCBF0B58C018704700008F
:10272000F8B500BFF8BC08BC9E467047F8B500BFBE
:08273000F8BC08BC9E4670478E
:1027380044657369676E6564206279204A6F655FD6
:102748006A6F650054696D653A253032643A253000
:1027580032643A2530326400446174653A32302577
:102768003032642D253032642D253032640000006B
:102778000000000000000102030406070809000029
:102788000000010203040000000000000000002F08
:10279800000000000700070000147F147F140024C5
:1027A8002A7F2A12006264081323003649552250F2
:1027B80000000503000000001C2241000000412227
:1027C8001C000014083E08140008083E0808000011
:1027D80000A0600000080808080800006060000009
:1027E800002010080402003E5149453E0000427F87
:1027F8004000004261514946002141454B310018D3
:1028080014127F10002745454539003C4A49493094
:10281800000171090503003649494936000649494E
:10282800291E000036360000000056360000000859
:102838001422410000141414141400004122140836
:1028480000020151090600324959513E007C12111B
:10285800127C007F49494936003E41414122007FB0
:102868004141221C007F49494941007F090909016A
:10287800003E4149497A007F0808087F0000417FEF
:102888004100002040413F01007F08142241007FA1
:1028980040404040007F020C027F007F0408107F08
:1028A800003E4141413E007F09090906003E415171
:1028B800215E007F0919294600464949493100012E
:1028C800017F0101003F4040403F001F2040201F82
:1028D800003F4038403F0063140814630007087045
:1028E800080700615149454300007F4141000055F8
:1028F8002A552A55000041417F00000402010204C4
:1029080000404040404000000102040000205454B0
:102918005478007F48444438003844444420003800
:102928004444487F00385454541800087E09010272
:102938000018A4A4A47C007F080404780000447D47
:102948004000004080847D00007F10284400000083
:10295800417F4000007C04180478007C0804047857
:1029680000384444443800FC242424180018242443
:1029780018FC007C0804040800485454542000043F
:102988003F444020003C4040207C001C2040201C4C
:10299800003C4030403C004428102844001CA0A0C3
:1029A800A07C004464544C441414141414140000FF
:1029B800000000000000000000000000000000000F
:1029C80000F8000000000000003330000000001094
:1029D8000C06100C0600000000000000000040C0BB
:1029E8007840C0784000043F04043F0404000070AD
:1029F80088FC08300000001820FF211E0000F008A5
:102A0800F000E018000000211C031E211E0000F049
:102A18000888700000001E21232419272110101691
:102A28000E00000000000000000000000000000090
:102A380000E018040200000000071820400000020F
:102A48000418E00000000040201807000000404083
:102A580080F0804040000202010F010202000000E5
:102A680000F0000000000101011F01010100000049
:102A780000000000000080B07000000000000000AE
:102A88000000000000000001010101010101000037
:102A980000000000000000303000000000000000CE
:102AA800000080601804006018060100000000E0C3
:102AB80010080810E000000F102020100F00001070
:102AC80010F8000000000020203F202000000070C7
:102AD80008080888700000302824222130000030BF
:102AE8000888884830000018202020110E000000B7
:102AF800C02010F8000000070424243F240000F838
:102B08000888880808000019212020110E0000E01C
:102B1800108888180000000F112020110E000038BE
:102B28000808C83808000000003F000000000070D6
:102B3800880808887000001C222121221C0000E05F
:102B480010080810E0000000312222110F000000D8
:102B580000C0C0000000000000303000000000008D
:102B680000800000000000008060000000000000FD
:102B78008040201008000001020408102000404096
:102B880040404040400004040404040404000008D9
:102B9800102040800000002010080402010000708E
:102BA80048080808F0000000003036010000C03076
:102BB800C828E810E0000718272423140B00000099
:102BC800C038E0000000203C23020227382008F823
:102BD800888888700000203F202020110E00C03017
:102BE800080808083800071820202010080008F8EE
:102BF80008080810E000203F202020100F0008F8E7
:102C08008888E8081000203F20202320180008F8B2
:102C18008888E8081000203F200003000000C0302A
:102C280008080838000007182020221E020008F8AB
:102C380008000008F808203F210101213F20000872
:102C480008F8080800000020203F202000000000AD
:102C58000808F8080800C08080807F00000008F895
:102C680088C028180800203F20012638200008F8CE
:102C7800080000000000203F20202020300008F835
:102C8800F800F8F80800203F003F003F200008F84F
:102C980030C00008F808203F200007183F00E01067
:102CA80008080810E0000F10202020100F0008F876
:102CB80008080808F000203F210101010000E01089
:102CC80008080810E0000F18242438504F0008F8AE
:102CD800888888887000203F2000030C302000700E
:102CE8008808080838000038202121221C0018080C
:102CF80008F8080818000000203F2000000008F825
:102D080008000008F808001F202020201F0008786D
:102D1800880000C83808000007380E010000F808CD
:102D280000F80008F800033C0700073C03000818F7
:102D380068808068180820302C03032C302008385D
:102D4800C800C83808000000203F20000000100814
:102D58000808C8380800203826212020180000005C
:102D680000FE020202000000007F40404000000C0C
:102D780030C000000000000000010638C00000025A
:102D88000202FE000000004040407F0000000000FA
:102D9800040202020400000000000000000000001D
:102DA8000000000000008080808080808080000219
:102DB8000204000000000000000000000000000005
:102DC8008080808000000019242222223F2008F8F9
:102DD800008080000000003F112020110E0000003C
:102DE800008080800000000E1120202011000000CB
:102DF80000808088F800000E112020103F2000007D
:102E0800808080800000001F222222221300008080
:102E180080F0888888180020203F202000000000CB
:102E2800808080808000006B94949493600008F800
:102E3800008080800000203F210000203F2000808B
:102E48009898000000000020203F2020000000008B
:102E580000809898000000C08080807F000008F8FB
:102E6800000080808000203F24022D3020000008D0
:102E780008F8000000000020203F2020000080808B
:102E8800808080808000203F20003F20003F80809D
:102E9800008080800000203F210000203F200000AB
:102EA800808080800000001F202020201F0080805C
:102EB80000808000000080FFA12020110E0000008B
:102EC800008080808000000E112020A0FF8080807C
:102ED80080008080800020203F2120000100000029
:102EE80080808080800000332424242419000080FE
:102EF80080E0808000000000001F2020000080800B
:102F0800000000808000001F202020103F208080CB
:102F180080000080808000010E300806010080805B
:102F28000080008080800F300C030C300F00008080
:102F38008000808080000020312E0E3120008080AB
:102F480080000080808080818E70180601000080DB
:102F58008080808080000021302C222130000000F9
:102F68000000807C020200000000003F404000009A
:102F78000000FF00000000000000FF000000000249
:102F8800027C800000000040403F00000000000676
:102F98000101020204040000000000000000232DCB
:102FA800302B2000686C4C0065666745464700304A
:102FB8003132333435363738394142434445460097
:102FC8003031323334353637383961626364656697
:042FD80000000000F5
:082FDC00C4D2FF7F01000000D8
:042FE400B50100082B
:042FE800910100084B
:102FEC0001000000100000000024F400100000207C
:102FFC0000000000000000000000000000000000C5
:10300C0000000000000000000000000000000000B4
:10301C0000000000000000000000000000000000A4
:10302C000000000000000000000000000000000094
:10303C000000000000000000000000000000000084
:10304C000000000000000000000000000000000074
:0400000508001E2DA4
:00000001FF
