:020000040800F2
:100000000000012039240008E91F0008EB1F000848
:10001000ED1F0008EF1F0008F11F0008000000009E
:10002000000000000000000000000000F31F0008B6
:10003000F51F000800000000F71F0008F91F000866
:1000400081240008812400088124000881240008FC
:1000500081240008812400088124000881240008EC
:1000600081240008812400088124000881240008DC
:1000700081240008812400088124000881240008CC
:1000800081240008812400088124000881240008BC
:1000900081240008812400088124000881240008AC
:1000A000812400088124000881240008812400089C
:1000B000812400088124000881240008812400088C
:1000C000812400088124000881240008812400087C
:1000D000812400088124000881240008812400086C
:1000E000812400088124000881240008812400085C
:1000F000812400088124000881240008812400084C
:10010000812400088124000881240008812400083B
:10011000812400088124000881240008812400082B
:10012000812400088124000881240008812400081B
:1001300000000000000000000000000000000000BF
:1001400000000000000000000000000000000000AF
:10015000000000000000000000000000000000009F
:10016000000000000000000000000000000000008F
:10017000000000000000000000000000000000007F
:10018000000000000000000000000000000000006F
:10019000000000000000000000000000000000005F
:1001A000000000000000000000000000000000004F
:1001B000000000000000000000000000000000003F
:1001C000000000000000000000000000000000002F
:1001D000000000000000000000000000000000001F
:0401E0005FF8E0F1F3
:1001E40010B5054C237833B9044B13B10448AFF36D
:1001F40000800123237010BD0C00002000000000CB
:10020400DC24000808B5034B1BB103490348AFF3D2
:10021400008008BD0000000010000020DC2400085D
:1002240080F0004002E000BF81F0004142001FBFA7
:100234005FEA410392EA030F7FEA226C7FEA236CB0
:100244006AD04FEA1262D2EB1363C1BFD2184140A5
:1002540048404140B8BF5B42192B88BF704710F03B
:10026400004F40F4000020F07F4018BF404211F0DE
:10027400004F41F4000121F07F4118BF494292EA46
:10028400030F3FD0A2F1010241FA03FC10EB0C0072
:10029400C3F1200301FA03F100F0004302D54942FF
:1002A40060EB4000B0F5000F13D3B0F1807F06D3AC
:1002B40040084FEA310102F10102FE2A51D2B1F1A4
:1002C400004F40EBC25008BF20F0010040EA030099
:1002D4007047490040EB000010F4000FA2F1010246
:1002E400EDD1B0FA80FCACF1080CB2EB0C0200FAD0
:1002F4000CF0AABF00EBC25052421843BCBFD0401E
:100304001843704792F0000F81F4000106BF80F497
:1003140000000132013BB5E74FEA41037FEA226C5A
:1003240018BF7FEA236C21D092EA030F04D092F025
:10033400000F08BF0846704790EA010F1CBF002059
:10034400704712F07F4F04D1400028BF40F00040B6
:10035400704712F100723CBF00F50000704700F0D6
:10036400004343F0FE4040F4000070477FEA2262FD
:1003740016BF08467FEA23630146420206BF5FEACE
:10038400412390EA010F40F4800070474FF00003CE
:1003940004E000BF10F0004348BF40425FEA000C95
:1003A40008BF704743F0964301464FF000001CE03D
:1003B40050EA010208BF70474FF000030AE000BF93
:1003C40050EA010208BF704711F0004302D54042D1
:1003D40061EB41015FEA010C02BF84460146002043
:1003E40043F0B64308BFA3F18053A3F50003BCFA5E
:1003F4008CF2083AA3EBC25310DB01FA02FC63440B
:1004040000FA02FCC2F12002BCF1004F20FA02F211
:1004140043EB020008BF20F00100704702F1200204
:1004240001FA02FCC2F1200250EA4C0021FA02F265
:1004340043EB020008BF20EADC7070474FF0FF0C6A
:100444001CEAD0521EBF1CEAD15392EA0C0F93EA65
:100454000C0F6FD01A4480EA010C400218BF5FEA07
:1004640041211ED04FF0006343EA501043EA51117A
:10047400A0FB01310CF00040B1F5000F3EBF490074
:1004840041EAD3715B0040EA010062F17F02FD2A78
:100494001DD8B3F1004F40EBC25008BF20F001005B
:1004A400704790F0000F0CF0004C08BF49024CEA72
:1004B400502040EA51207F3AC2BFD2F1FF0340EA04
:1004C400C250704740F400004FF00003013A5DDC75
:1004D40012F1190FDCBF00F000407047C2F10002B6
:1004E400410021FA02F1C2F1200200FA02FC5FEAA3
:1004F400310040F1000053EA4C0308BF20EADC70ED
:10050400704792F0000F00F0004C02BF400010F45E
:10051400000F013AF9D040EA0C0093F0000F01F00B
:10052400004C02BF490011F4000F013BF9D041EA2D
:100534000C018FE70CEAD15392EA0C0F18BF93EA2F
:100544000C0F0AD030F0004C18BF31F0004CD8D159
:1005540080EA010000F00040704790F0000F17BFE0
:1005640090F0004F084691F0000F91F0004F14D026
:1005740092EA0C0F01D142020FD193EA0C0F03D17E
:100584004B0218BF084608D180EA010000F0004081
:1005940040F0FE4040F40000704740F0FE4040F45C
:1005A400400070474FF0FF0C1CEAD0521EBF1CEAFB
:1005B400D15392EA0C0F93EA0C0F69D0A2EB030219
:1005C40080EA010C49024FEA402037D04FF08053B3
:1005D40043EA111143EA10130CF000408B4238BF78
:1005E4005B0042F17D024FF4000C8B4224BF5B1A86
:1005F40040EA0C00B3EB510F24BFA3EB510340EAD4
:100604005C00B3EB910F24BFA3EB910340EA9C0081
:10061400B3EBD10F24BFA3EBD10340EADC001B01F1
:1006240018BF5FEA1C1CE0D1FD2A3FF650AF8B4295
:1006340040EBC25008BF20F0010070470CF0004CA2
:100644004CEA50207F32C2BFD2F1FF0340EAC250CD
:10065400704740F400004FF00003013A37E792F08E
:10066400000F00F0004C02BF400010F4000F013AEC
:10067400F9D040EA0C0093F0000F01F0004C02BFE7
:10068400490011F4000F013BF9D041EA0C0195E750
:100694000CEAD15392EA0C0F08D142027FF47DAFE9
:1006A40093EA0C0F7FF470AF084676E793EA0C0FD9
:1006B40004D14B023FF44CAF08466EE730F0004CD7
:1006C40018BF31F0004CCAD130F000427FF45CAF67
:1006D40031F000437FF43CAF5FE700BF42000ED22D
:1006E400B2F1FE4F0BD34FF09E03B3EB126209D469
:1006F4004FEA002343F0004323FA02F070474FF01F
:100704000000704712F1610F01D1420202D14FF093
:10071400FF3070474FF00000704700BF38B50E4BF4
:10072400054618784FF47A73B3FBF0F30B4A10685C
:10073400B0FBF3F000F068FB044658B90F2D09D85C
:10074400024629464FF0FF3000F02AFB044B2046B6
:100754001D6038BD012038BD0000002008000020C5
:1007640004000020074A08B51368032043F010036F
:10077400136000F003FB0020FFF7D0FF01F010FC32
:10078400002008BD00200240034A044B11681B7876
:100794000B441360704700BF2800002000000020B5
:1007A400014B1868704700BF2800002038B5044684
:1007B400FFF7F6FF0546631C1EBF044B1B78E418C5
:1007C400FFF7EEFF401B8442FAD838BD000000203A
:1007D400F7B5002604460D460196FFF7E1FF2368AE
:1007E40007469A68D20508D50120A36A84F82460D4
:1007F40043F02003A36203B0F0BD5A68D60503D4C6
:10080400DB6A13F4700F3BD03A4B02201E6801F0F0
:10081400B3F92368384A1969B6FBF0F01142374A34
:100824004FD1DE6836490E424BD11969114259D174
:10083400DA68344B1A4214BF2923142300FB03F64D
:10084400019B9E4220D96B1C05D05DB1FFF7A8FF28
:10085400C01B854206D3019B01330193F0E7681C5A
:100864000FD045B9A36A032043F00403A362002315
:1008740084F82430BFE7FFF793FFC01B8542F1D310
:10088400226813689907EAD56FF01203226813608F
:10089400A36A43F40073A362936803F46023B3F57B
:1008A400602F25D1E3681BBBA36A23F48073A36282
:1008B400A06A10F480501BD1A36A43F00103A36221
:1008C40099E71969114203D1D9680E4A11420BD034
:1008D40019690D4A114209D1DB68134214BFFC2384
:1008E4005423ABE72923A9E75423A7E7FC23A5E76F
:1008F400002080E708000020244992249224491211
:100904002449920092244900499224000368D86C37
:1009140070470000002373B5019390F82430012B35
:1009240074D001234D6880F82430062D02684FEA04
:1009340085030C6825D82B441F25566B053B9D4029
:1009440026EA050504FA03F32B435363092C4FEA03
:1009540044038D682FD907262344D1681E3B9E404B
:1009640021EA060105FA03F30B43D360A4F1100353
:10097400012B2BD90023002280F82420184602B032
:1009840070BD0C2D0BD82B441F25166B233B9D40AB
:1009940026EA050504FA03F32B431363D6E72B4435
:1009A4001F25D66A413B9D4026EA050504FA03F358
:1009B4002B43D362CAE70726116923449E4021EAE8
:1009C400060105FA03F30B431361CFE7104B9A4278
:1009D40016D193681B02CDD49368102C43F4000302
:1009E4009360C7D10B4B0C4A1B68B3FBF2F20A238A
:1009F40053430193019B002BBCD0019B013BF8E7BF
:100A0400836A43F0200383620123B4E70223B5E73A
:100A1400002401400800002040420F00806A704713
:100A2400002373B50193036804469A68D20702D57C
:100A3400002002B070BD9A6842F001029A60124B25
:100A4400124A1B68B3FBF2F30193019BC3B9FFF78E
:100A5400A7FE064623689D6815F00105E8D1FFF757
:100A64009FFE801B0228F5D9A36A84F8245043F022
:100A74001003A362E36A012043F00103E362D8E7B1
:100A8400019B013BE0E700BF0800002040420F004B
:100A940090F8243010B5012B044654D0012380F87B
:100AA4002430FFF7BDFF002849D1A36A274A23F465
:100AB400407323F0010343F48073A36223689342D9
:100AC40004D123494A6812F4702F2ED1A26A22F469
:100AD4008012A2625A68520541BFA26A22F44052AF
:100AE40042F48052A262A26A12F480521CBFE26AEB
:100AF40022F00602E262002284F824206FF002024F
:100B04001A609A6802F46022B2F5602F13D10F4A7A
:100B1400934205D1A2F58062526812F4702F0AD173
:100B24009A6842F4A0029A6010BDA26A42F480124C
:100B3400A2624A68CFE79A6842F48012F3E700237E
:100B440084F8243010BD022010BD00BF00280140ED
:100B54000024014038B5036804469A68D20701D4DA
:100B6400002038BD9A6822F001029A60FFF718FE4F
:100B7400054623689B68DB07F2D5FFF711FE401B8F
:100B84000228F6D9A36A012043F01003A362E36AA2
:100B940043F00103E36238BDF8B50446002877D07A
:100BA400836A23B9C36280F8243001F08FF82046A9
:100BB400FFF7D0FFA36A13F010036BD1002869D1AB
:100BC400A26A374922F4885222F0020242F0020259
:100BD400A26294E824008A42E16904D1B1F5402F6D
:100BE40008BF4FF40021E66845EA46052943A56895
:100BF400B5F5807F35D0012D08BF4FF48073676948
:100C0400012F06D17EBBA669013E43EA463343F475
:100C140000635668B5F5807F26F4694643EA060307
:100C2400536096681F4B03EA060343EA010393608B
:100C340001D0012D20D12369013B1B05D56A25F480
:100C440070052B43D3629268174B1340994215D118
:100C54000023E362A36A23F0030343F00103A362C6
:100C6400F8BD2B46CBE7A66A46F02006A662E66AE4
:100C740046F00106E662CCE70023DFE7A36A23F02F
:100C8400120343F01003A362E36A43F00103E36237
:100C94000120F8BDA36A43F01003A362F8E700BF84
:100CA400003C0140FDF7E1FFFE0E1FFF002373B57A
:100CB400019390F824300446012B5AD0012380F884
:100CC4002430FFF747FF0546002832D1A36A0220EB
:100CD40023F4885323F0020343F00203A362264B58
:100CE4001E6800F049FFB6FBF0F040000190019B44
:100CF4001BBB2046FFF794FE2268936843F0080369
:100D04009360FFF74DFD064623689A68120718D4CE
:100D14009A6842F004029A60FFF742FD064623688F
:100D24009B685B071FD4A36A23F0030343F001030A
:100D3400A362002384F8243012E0019B013B019359
:100D4400D5E7FFF72DFD801B0A28DDD9A36A01250D
:100D540023F0120343F01003A362002384F8243029
:100D6400284602B070BDFFF71BFD801B0A28D6D9A8
:100D7400ECE70225F4E700BF08000020074A000260
:100D8400D36800F4E06023F4E0631B041B0C43F01D
:100D9400BF6343F400330343D360704700ED00E0C6
:100DA400174B30B5DC68C4F30224C4F10703251DD6
:100DB400042B28BF0423062D4FF0010598BF0024FF
:100DC40005FA03F303F1FF3388BF033C1940A14044
:100DD40005FA04F4013C2240002842EA01024FEAE9
:100DE4000212AFBF00F16040064B00F00F00D2B218
:100DF400A5BFD2B200F561401A5480F8002330BD7B
:100E040000ED00E014ED00E00138B0F1807F0AD27B
:100E1400F021064B064A586082F82310002007226E
:100E240098601A6070470120704700BF10E000E02E
:100E340000ED00E010B5044668B1037903F0FF0249
:100E440013B9427100F08CFF0223002023710123A7
:100E54002061237110BD012010BD437910B5012B11
:100E64004FF0020315D001220371036842711C681C
:100E74008A4022431A601A6869B902F03C023C2A8B
:100E840003D15A6842F001025A600123037100231E
:100E94004371184610BD02F47012B2F5701FF4D1FC
:100EA4005A6842F00202EFE7437930B5012B4FF064
:100EB400020317D003710AC90B4340F6FE7104689C
:100EC40091402568934025EA01010B43C02123602A
:100ED400236801FA02F223EA020201232260037169
:100EE40000234371184630BD13B5002400680194F3
:100EF400019041B90199083100200A440192019AF4
:100F0400136002B010BD01991431F5E72DE9F74FD4
:100F1400002216466C4F6D4BDFF8B8E1DFF8B8C11C
:100F24004FF001080C6808FA06F808EA0404A04522
:100F340040F085804D68122D00F0B78000F28D805E
:100F4400022D00F0AF8000F28180002D00F091802E
:100F5400012D00F0A5804FF00F09FF2C93BF8246AE
:100F640006F18045083DD0F800B092BFB500D0F836
:100F740004B0AD0009FA05F82BEA080802FA05F5F1
:100F840088BF00F1040A48EA0505CAF80050D1F800
:100F940004A01AF0805F52D0BD6926F0030845F022
:100FA4000105BD61BD6908F1804805F001050195A1
:100FB40008F5803806F0030B019D4FEA8B0BD8F837
:100FC400085009FA0BF925EA0909414DA84271D0E4
:100FD40005F58065A8426FD005F58065A8426DD0FF
:100FE40005F58065A8426BD005F58065A84269D0F7
:100FF40070450CBF0525062505FA0BF545EA0905DC
:10100400C8F808501D681AF4803F14BF2543A5434F
:101014001D605D681AF4003F14BF2543A5435D605D
:101024009D681AF4801F14BF2543A5439D60DD68A5
:101034001AF4001F14BF2C4325EA0404DC600136B3
:10104400102E7FF46DAF03B0BDE8F08F032D25D0D3
:10105400112D80D1CA6804327DE7654509D012D8C4
:10106400DFF878904D4504D009F580394D457FF47B
:1010740072AF8A68E2B1012A0CBFC0F81080C0F8D0
:101084001480082267E7DFF858904D45F1D009F540
:1010940080394D45EDD0A9F58019E7E700225AE7DC
:1010A400CA6858E7CA68083255E7CA680C3252E77A
:1010B400042250E700259FE701259DE702259BE7D1
:1010C400032599E7042597E7001002400004014036
:1010D40000080140001C0140000021100000111014
:1010E400000031100268536913F480630DD06FF46B
:1010F400806353610423202203640023036380F884
:101104003C3080F83D2001207047184670472DE997
:10111400F843044617469946C1F307488EB225683A
:10112400B8F1010F0CBF6B69AB6936EA030314BF56
:101134000120002008B9BDE8F8836B695A0512D56F
:101144002B68202243F400732B606FF480636B617F
:101154000423236400230120236384F83C3084F8AF
:101164003D20BDE8F8837B1CD9D04FB90023202251
:10117400236384F83C3084F83D200320BDE8F883E1
:10118400FFF70EFBA0EB09008742C8D2EEE72DE97A
:10119400F843044690461F46089EC1F307498DB2A2
:1011A4002368B9F1010F0CBF5B699B6935EA03033E
:1011B4000CBF01230023434502D00020BDE8F8837F
:1011C4007B1CEDD05FB900232022236384F83C30DC
:1011D40084F83D20032084F83E30BDE8F883FFF70F
:1011E400DFFA801B8742DBD2EDE770B504460D467B
:1011F400164623685B691B0601D5002070BD204696
:10120400FFF770FFA8B96A1CF3D065B9236C2022DC
:1012140043F02003236400230320236384F83C3039
:1012240084F83D2070BDFFF7BBFA801B8542E0D2F5
:10123400ECE7012070BD00002DE9FF41154602686E
:10124400984613680B9E43F4807313600F46009610
:101254000A9B00224FF001110446FFF798FF68B97A
:10126400236807F0FE071F610A9A33461A4920468D
:10127400FFF74DFF30B1236C042B18D0032004B0CA
:10128400BDE8F081236803905A690A9903929B6927
:10129400324603932046039BFFF7A7FF48B1236C14
:1012A400042BEBD12268136843F40073136001200C
:1012B400E5E7B8F1010F236802D1EDB21D61DEE765
:1012C4002A0A1A610A9932462046FFF78EFF00283F
:1012D400E5D12368F1E700BF0200010070B50446C0
:1012E4000D46164623685B695B0701D5002070BD77
:1012F4002046FFF7F7FEA8B96A1CF3D065B9236C42
:10130400202243F02003236400230320236384F872
:101314003C3084F83D2070BDFFF742FA801B8542C3
:10132400E0D2ECE7012070BD38B5044608B90120CD
:1013340038BD90F83D3003F0FF021BB980F83C2023
:1013440000F074FD2423226884F83D30136823F0F0
:101354000103136000F078FB63682F4A934230D88E
:101364002E4A9042E3D92E4A2168B0FBF2F24A6039
:1013740001320A62284A0138934232D85B00B0FB3A
:10138400F3F0431CC3F30B03042B38BF0423CB61DA
:10139400226AE369002013430B60E2682369134364
:1013A4008B60A26963691343CB600B6843F001034C
:1013B4000B602023206484F83D30206384F83E00D1
:1013C40038BD184A9042B2D9154D4FF49672B0FB0D
:1013D400F5F521686A434D604FF47A75B2FBF5F276
:1013E400C6E7A26852B903EB4303B0FBF3F0431C16
:1013F400C3F30B036BB143F40043C8E7192253430F
:10140400B0FBF3F0431CC3F30B0313B143F44043A9
:10141400BDE70123BBE700BFA08601007F841E0057
:1014240040420F00FF083D002DE9F34704469A4669
:10143400884691460C9EFFF7B3F994F83D30054673
:10144400202B03D0022002B0BDE8F08700901923BE
:1014540001223E492046FFF79AFE0028F2D194F873
:101464003C30012BEED0012384F83C302368002764
:101474001A684146D20758BF1A6820465CBF42F03A
:1014840001021A601A6822F400621A60212384F8A7
:101494003D30402384F83E300A9B27646362BDF8E4
:1014A4002C30019563852A4B0096E362638D4A468E
:1014B40023855346FFF7C0FE00282AD0236C84F806
:1014C4003C70042B07D10120BDE7FFF78EFE20B14D
:1014D400236C042B34D00320B5E7616A27684B1CC6
:1014E40063620B78228D3B61638D501E013B9BB27E
:1014F40063857B6980B25B0720850AD548B18B1C64
:1015040063624B78023A3B61638D2285013B9BB257
:101514006385238D2A4631462046002BD5D1FFF71B
:10152400DDFE0028D4D12268136843F400731360ED
:10153400202384F83C0084F83D3084F83E0082E7A0
:101544002268136843F400731360BCE702001000C0
:101554000000FFFF03682DE9F341DB07054610D4C3
:101564002B689F075ED42B68190700F195802B68C0
:101574005A0700F1BF80EA69002A40F02D8100205B
:1015840014E0904C636803F00C03042B07D06368E9
:1015940003F00C03082B0CD16368DE0309D5236820
:1015A4009C03DDD56B68002BDAD1012002B0BDE8C5
:1015B400F0816B68B3F5803F10D1236843F4803326
:1015C4002360FFF7EDF8064623689803C8D4FFF7B5
:1015D400E7F8801B6428F7D90320E7E79BB9236861
:1015E40023F480332360236823F480232360FFF7EC
:1015F400D7F8064623689903B2D5FFF7D1F8801BC4
:101604006428F7D9E8E7B3F5A02F236803D143F49E
:1016140080232360D1E723F480332360236823F4F9
:101624008023CDE7674C636813F00C0F07D0636821
:1016340003F00C03082B10D16368DA030DD423687C
:101644009B0702D52B69012BAFD123686A6923F06C
:10165400F80343EAC203236085E72A695A4B6AB157
:1016640001221A60FFF79CF8064623689F07ECD412
:10167400FFF796F8801B0228F7D9ADE71A60FFF749
:101684008FF80646236898077FF56DAFFFF788F853
:10169400801B0228F6D99FE7AA694A4C4B4BDAB162
:1016A40001221A60FFF77CF80646636A9B070DD592
:1016B4004FF4FA52464B1B68B3FBF2F3019300BF9D
:1016C400019B5A1E0192002BF9D150E7FFF768F8ED
:1016D400801B0228E9D97FE71A60FFF761F8064604
:1016E400636A9F077FF543AFFFF75AF8801B022810
:1016F400F6D971E7334CE369D80024D40127E369B0
:1017040043F08053E361E36903F080530093009B4B
:10171400304E3368D90518D5EB68012B26D1236ADE
:1017240043F001032362FFF73BF841F28836804619
:10173400236A9B073FD5002F3FF41DAFE36923F0D5
:101744008053E36117E70027E2E7336843F48073CB
:101754003360FFF725F880463368DA05DCD4FFF7F9
:101764001FF8A0EB08006428F6D935E7ABB9236A63
:1017740041F2883823F001032362236A23F004032F
:101784002362FFF70DF80646236A9807D3D5FFF7BF
:1017940007F8801B4045F7D91EE7052B236A03D1C0
:1017A40043F004032362BAE723F001032362236AAC
:1017B40023F00403B6E7FEF7F3FFA0EB0800B04202
:1017C400B6D909E7001002400000424280044242B8
:1017D4000800002000700040224C636803F00C03F2
:1017E400082B3FF4E2AE00231F4E022A33602BD1B4
:1017F400FEF7D6FF0746236899011FD42B6AB3F579
:10180400803F05D16268A96822F400320A4362600D
:10181400696A62680B4322F4741213436360012300
:101824003360FEF7BDFF054623689A013FF5A7AE76
:10183400FEF7B6FF401B0228F6D9CDE6FEF7B0FF4F
:10184400C01B0228D7D9C7E6FEF7AAFF05462368BE
:101854009B017FF594AEFEF7A3FF401B0228F6D947
:10186400BAE600BF001002406000424230B5194B96
:1018740087B002AC03F11005224618685968083392
:1018840003C2AB421446F7D101238DF8043002237E
:1018940011498DF805304B6803F00C02082A17D162
:1018A400C3F3834206A80244DB0312F8102C0CD5C0
:1018B4004B680A48C3F34043504306AA134413F841
:1018C400143CB0FBF3F007B030BD05485043FAE7D1
:1018D4000248F8E7F42400080010024000127A00DD
:1018E40000093D00544A2DE9F0411368054603F010
:1018F40007038B420E462AD329688C0734D4CA07BF
:1019040047D44D4A136803F007039E42C0F0828017
:101914002A684A4C12F0040F40F08780130706D55A
:1019240063682A6923F4605343EAC2036360FFF7E0
:101934009DFF6368424AC3F30313D35CD840414B11
:1019440018600020FEF7EAFE0020BDE8F08113686D
:1019540023F007030B431360136803F00703994252
:10196400CAD00120BDE8F081344B11F0040F1EBF32
:101974005A6842F4E0625A60080742BF5A6842F467
:1019840060525A605A68A86822F0F00202435A6012
:10199400B5E76A68294C012A23681CD113F4003F77
:1019A400DFD0636841F2883823F003031343636094
:1019B400FEF7F6FE6B680746012B14D1636803F04B
:1019C4000C03042B9DD0FEF7EBFEC01B4045F5D95C
:1019D4000320BDE8F081022A02D113F0007FDFE783
:1019E40013F0020FDCE7022B0FD1636803F00C0342
:1019F400082B86D0FEF7D4FEC01B4045F5D9E7E797
:101A0400FEF7CEFEC01B4045E2D8636813F00C0F0E
:101A1400F6D176E7136823F00703334313601368A2
:101A240003F007039E429CD172E76368E96823F4DC
:101A3400E0630B43636071E7002002400010024042
:101A44003125000808000020044B054A5B68C3F3F5
:101A54000223D35C034A1068D84070470010024048
:101A64004125000808000020044B054A5B68C3F3C5
:101A7400C223D35C034A1068D84070470010024068
:101A8400412500080800002003682DE9F341D90727
:101A9400054620D5354CE369DA0032D40127E369E1
:101AA40043F08053E361E36903F080530193019BA6
:101AB4002F4E3368DB0526D5236A13F4407336D1E1
:101AC400236A6A6823F44073134323621FB1E369F2
:101AD40023F08053E3612868830706D5234AA96865
:101AE400536823F440430B43536010F010001BD0A1
:101AF4001E4A69695368002023F480030B43536032
:101B040012E00027D4E7336843F480733360FEF7B0
:101B140047FE80463368D805CED4FEF741FEA0EBDD
:101B240008006428F6D9032002B0BDE8F0816A6891
:101B340002F440729342C3D001200E4A236A10601B
:101B4400002023F4407110602162D907B8D5FEF754
:101B540027FE41F288380646236A9A07B0D4FEF776
:101B64001FFE801B4045F7D9DDE700BF001002408F
:101B74000070004040044242024670B53B4B86B0C0
:101B840002AD03F110062C4618685968083303C4E3
:101B9400B3422546F7D101238DF804300223501EA9
:101BA4008DF805300F285ED8DFE800F032515D2D46
:101BB4005D5D5D2D5D5D5D5D5D5D5D082C4B596812
:101BC400186810F0807037D0C1F3834206A802442D
:101BD40012F8100CCA0341BF5A6806A9C2F3404266
:101BE400521844BF12F8141C224A5B684CBFB2FB63
:101BF400F1F2214A5B0202FB00F01DD403234000F2
:101C0400B0FBF3F018E006B0BDE87040FFF72EBE5D
:101C140040F20231164A136A1940B1F5817F1FD090
:101C240003F44073B3F5007F08D149F64040536A8A
:101C340013F0020F08BF002006B070BDB3F5407F5B
:101C440011D113684FF2244013F4003FF2E7FFF779
:101C54000BFF074B5B68C3F3813301335B00CFE7B2
:101C64004FF40040E8E70020E6E700BF0425000841
:101C74000010024000127A0000093D001FB511480F
:101C8400114A0023026001244FF46022019302935D
:101C940003938360C3604361C26143600461FEF7E0
:101CA4007BFF08B100F07AF9002301A905480194EB
:101CB40002940393FEF72EFE08B100F06FF904B00E
:101CC40010BD00BF2C0000200024014010B50446C4
:101CD40086B01022002102A800F0F6FB2268104B07
:101CE4009A421BD103F56C439A6902A942F400722B
:101CF4009A619A690B4802F400720092009A9A69F8
:101D040042F004029A619B6903F004030193019B6E
:101D14000223029303230393FFF7F8F806B010BDE0
:101D2400002401400008014013B500240A480B4B6D
:101D3400009401940360FFF77DF808B100F02EF9D8
:101D440000226946044800940194FFF7ADF808B1F5
:101D540000F024F902B010BD5C00002000740040C3
:101D640030B51024054687B02246002102A800F0B1
:101D7400ABFB2A680F4B9A421AD103F5CE33DA69CA
:101D840002A942F00052DA61DA690B4802F000520B
:101D94000092009A9A6942F004029A619B69029443
:101DA40003F004030193019B03230393FFF7AEF8AD
:101DB40007B030BD00740040000801400A4B82B0F7
:101DC4009A6942F004029A619A6902F0040200924C
:101DD400009A9A6942F008029A619B6903F0080329
:101DE4000193019B02B070470010024008B50C48F3
:101DF4000C4BDFF834E04FF4804280E808400023C5
:101E040002618360C36043618361C3610362FFF75E
:101E14008BFA18B1BDE8084000F0C0B808BD00BF97
:101E24007000002000540040A086010010B5044654
:101E340086B01022002102A800F046FB2268114B54
:101E44009A421CD1104C02A9A369104843F008031C
:101E5400A361A36903F008030093009BC0230293CA
:101E64001223039303230593FFF750F8E36943F424
:101E74000013E361E36903F400130193019B06B0CB
:101E840010BD00BF0054004000100240000C01408F
:101E940010B596B0282200210CA800F015FB1422DE
:101EA400002101A800F010FB182200210DEB020014
:101EB40000F00AFB4FF48033022401220D931493A3
:101EC4004FF4E0130CA80C92109215931394FFF79F
:101ED40041FB0F234FF4806201930023214601A8A4
:101EE4000393049205930294FFF7FCFC4FF4004320
:101EF40006A806940893FFF7C7FD16B010BD0000AE
:101F040008B5FEF72FFCFFF7C3FFFFF757FFFFF7F6
:101F1400B5FEFFF709FFFFF769FF00F0BBF800F01B
:101F24003EF90123184A1846002100F03BF9012329
:101F3400164A1846022100F035F900224FF40063D6
:101F440011461348FEF7D0FF00211148FEF785FF24
:101F54001048FEF7ABFE0F4C0F4D2046FEF798FDE0
:101F640032212046FEF734FC2046FEF757FD830558
:101F740003D52046FEF7CAFC288001232A880021C5
:101F8400322000F0FDF9E8E7142500081D250008BB
:101F94005C0000202C000020C600002070470000D8
:101FA4000E4B82B09A6942F001029A619A6902F07A
:101FB40001020092009ADA6942F08052DA61DB6928
:101FC400074A03F080530193019B536823F0E063B5
:101FD40043F00073536002B0704700BF001002402A
:101FE400000001407047FEE7FEE7FEE7FEE77047AA
:101FF40070477047FEF7C8BB0F4B1A6842F00102E6
:102004001A6059680D4A0A405A601A6822F08472AC
:1020140022F480321A601A6822F480221A605A6804
:1020240022F4FE025A604FF41F029A604FF00062DD
:10203400034B9A60704700BF001002400000FFF895
:1020440000ED00E07FB5642306AA02F8010D0293B7
:10205400012378218DE80C0003480022FFF7E4F9FE
:1020640007B05DF804FB00BF700000207FB5642357
:1020740006AA02F8010D0293012378218DE80C00D1
:1020840003484022FFF7D0F907B05DF804FB00BF16
:102094007000002008B56420FEF788FBAE20FFF72F
:1020A400D1FF2020FFF7CEFF1020FFF7CBFFB02099
:1020B400FFF7C8FFC820FFF7C5FF0020FFF7C2FFE6
:1020C4001020FFF7BFFF4020FFF7BCFF8120FFF780
:1020D400B9FFFF20FFF7B6FFA120FFF7B3FFA6204B
:1020E400FFF7B0FFA820FFF7ADFF3F20FFF7AAFFDF
:1020F400A420FFF7A7FFD320FFF7A4FF0020FFF7DA
:10210400A1FFD520FFF79EFFF020FFF79BFFD9200A
:10211400FFF798FF2220FFF795FFDA20FFF792FFE1
:102124001220FFF78FFFDB20FFF78CFF2020FFF743
:1021340089FF8D20FFF786FF1420FFF783FFBDE89A
:102144000840AF20FFF77EBF10B504465039C8B22F
:10215400FFF778FF200940F01000FFF773FF04F049
:102164000E0040F00100BDE81040FFF76BBF70B5F2
:102174000646B0242046FFF765FF0020FFF762FF04
:102184001020FFF75FFF8125013D04D10134E4B243
:10219400B82CEFD170BD3046FFF768FFF4E700209C
:1021A400FFF7E5BF012B2DE9F84F04460D4617460E
:1021B4000BD0022B13D14FF00008DFF8BC905FFA6C
:1021C40088F3FE5C6EB9BDE8F88F4FF0000A4FF05B
:1021D4000609DFF8A8805FFA8AF3FB5C7BBBBDE8E5
:1021E400F88F782C82BF00240135EDB229462046B1
:1021F400FFF7AAFF4FF0000A203EF6B209EB0616DD
:1022040016F80A000AF1010AFFF730FFBAF1080FC5
:10221400F6D1691CC9B22046FFF796FF4FF0000AB9
:1022240006EB0A03187A0AF1010AFFF71FFFBAF155
:10223400080FF5D10834E4B208F10108BFE77E2C99
:1022440082BF00240135EDB2203B29462046DEB290
:102254004FF0000BFFF778FF09FB068616F80B001A
:102264000BF1010BFFF702FFBBF1060FF6D10634A9
:10227400E4B20AF1010AAEE7712700084925000813
:10228400F8B5203A0C46D5B20206064642BF0026EF
:102294000234E4B2102B2146304619D10027FFF74F
:1022A40053FF124A02EB0515E85D0137FFF7DEFE26
:1022B400082FF9D1611CC9B23046FFF745FF00244D
:1022C4002B19187A0134FFF7D1FE082CF8D1F8BD88
:1022D400FFF73AFF06230024054A03FB0525285D82
:1022E4000134FFF7C3FE062CF9D1F8BD71270008AD
:1022F400492500082DE9F04F9946002405468A46F1
:1023040006464FF00A0885B09DF8387003927B08A2
:102314000293019409F1FF3B4C4502D105B0BDE89D
:10232400F08F0122ABEB0403DBB2013BDBB2FF2BEA
:1023340019D1039B0199B3FBF2F2B2FBF8F308FB4A
:102344001322D3B2A1B9A34512DD7AB93B462022A8
:1023540051462846FFF794FF029B01341D441E4456
:10236400EDB2F6B2D8E708FB02F2DEE701220192F1
:1023740003F13002D2B23B4651463046EAE7000050
:102384002DE9F341044610461E460D46FEF702F8B9
:102394002349FEF753F82349FEF704F98046FEF774
:1023A4009DF987B23A460223294620460096FFF754
:1023B400A1FFFA20FEF7FAF93846FDF7EBFF0146D4
:1023C4004046FDF731FF074604F108003346164A3C
:1023D4002946C0B2FFF7E6FEFA20FEF7E7F91349F3
:1023E4003846FEF72BF8FEF779F904F11207024696
:1023F40029460323F8B20096FFF77CFFFA20FEF784
:10240400D5F904F11E003346094A2946C0B2FFF744
:10241400C9FEFA2002B0BDE8F041FEF7C7B900BF1B
:102424003333534000F07F45612D000800007A44A7
:10243400632D0008002103E00B4B5B58435004312B
:102444000A480B4B42189A42F6D30A4A02E0002388
:1024540042F8043B084B9A42F9D3FFF7CDFD00F054
:102464000FF8FFF74DFD7047702D000800000020A5
:102474000C0000200C000020CC000020FEE700002F
:1024840070B500250C4E0D4CA41BA410A54209D117
:1024940000F022F800250A4E0A4CA41BA410A54201
:1024A40005D170BD56F8253098470135EEE756F84A
:1024B400253098470135F2E7682D0008682D00089B
:1024C400682D00086C2D000803460244934200D195
:1024D400704703F8011BF9E7F8B500BFF8BC08BC66
:1024E4009E467047F8B500BFF8BC08BC9E467047CE
:1024F40002030405060708090A0B0C0D0E0F101041
:1025040002030405060708090A0B0C0D0E0F101030
:10251400566F6C746167653A0044657369676E65EC
:1025240064206279204A6F655F6A6F65000000006D
:10253400000000000001020304060708090000006F
:1025440000010203040000000000000000002F004E
:102554000000000700070000147F147F1400242AE1
:102564007F2A120062640813230036495522500062
:10257400000503000000001C224100000041221C51
:10258400000014083E08140008083E080800000073
:10259400A06000000808080808000060600000004F
:1025A4002010080402003E5149453E0000427F408D
:1025B40000004261514946002141454B3100181445
:1025C400127F10002745454539003C4A49493000EF
:1025D400017109050300364949493600064949296C
:1025E4001E000036360000000056360000000814B5
:1025F4002241000014141414140000412214080091
:10260400020151090600324959513E007C1211124F
:102614007C007F49494936003E41414122007F41C7
:1026240041221C007F49494941007F0909090100F1
:102634003E4149497A007F0808087F0000417F41F4
:1026440000002040413F01007F08142241007F40E8
:10265400404040007F020C027F007F0408107F008E
:102664003E4141413E007F09090906003E41512196
:102674005E007F0919294600464949493100010194
:102684007F0101003F4040403F001F2040201F00C9
:102694003F4038403F006314081463000708700883
:1026A4000700615149454300007F41410000552A1C
:1026B400552A55000041417F000004020102040034
:1026C40040404040400000010204000020545454A3
:1026D40078007F4844443800384444442000384457
:1026E40044487F00385454541800087E09010200FD
:1026F40018A4A4A47C007F080404780000447D404E
:1027040000004080847D00007F10284400000041C8
:102714007F4000007C04180478007C0804047800DE
:10272400384444443800FC24242418001824241871
:10273400FC007C0804040800485454542000043F5E
:10274400444020003C4040207C001C2040201C00D1
:102754003C4030403C004428102844001CA0A0A069
:102764007C004464544C44141414141414000000E5
:102774000000000000000000000000000000000055
:10278400F800000000000000333000000000100CCE
:1027940006100C0600000000000000000040C07895
:1027A40040C0784000043F04043F040400007088E3
:1027B400FC08300000001820FF211E0000F008F083
:1027C40000E018000000211C031E211E0000F00878
:1027D40088700000001E2123241927211010160ED2
:1027E40000000000000000000000000000000000E5
:1027F400E018040200000000071820400000020452
:1028040018E000000000402018070000004040804D
:10281400F0804040000202010F01020200000000AB
:10282400F0000000000101011F010101000000008F
:10283400000000000080B0700000000000000000F4
:10284400000000000000010101010101010000007D
:102854000000000000003030000000000000000014
:102864000080601804006018060100000000E010F9
:10287400080810E000000F102020100F00001010B6
:10288400F8000000000020203F2020000000700815
:102894000808887000003028242221300000300805
:1028A40088884830000018202020110E000000C045
:1028B4002010F8000000070424243F240000F80836
:1028C40088880808000019212020110E0000E0105B
:1028D4008888180000000F112020110E000038080D
:1028E40008C83808000000003F000000000070889D
:1028F4000808887000001C222121221C0000E0101E
:10290400080810E0000000312222110F000000002E
:10291400C0C00000000000003030000000000000D3
:1029240080000000000000806000000000000080C3
:10293400402010080000010204081020004040401C
:10294400404040400004040404040404000008104F
:10295400204080000000201008040201000070489C
:10296400080808F0000000003036010000C030C83C
:1029740028E810E0000718272423140B000000C0E7
:1029840038E0000000203C23020227382008F888A1
:102994008888700000203F202020110E00C03008DD
:1029A4000808083800071820202010080008F80834
:1029B400080810E000203F202020100F0008F888AD
:1029C40088E8081000203F20202320180008F888F9
:1029D40088E8081000203F200003000000C03008F1
:1029E400080838000007182020221E020008F808F2
:1029F400000008F808203F210101213F20000808B9
:102A0400F8080800000020203F20200000000008F3
:102A140008F8080800C08080807F00000008F8885B
:102A2400C028180800203F20012638200008F80894
:102A34000000000000203F20202020300008F8F88B
:102A440000F8F80800203F003F003F200008F8305D
:102A5400C00008F808203F200007183F00E01008D5
:102A6400080810E0000F10202020100F0008F808BC
:102A7400080808F000203F210101010000E01008CF
:102A8400080810E0000F18242438504F0008F88874
:102A94008888887000203F2000030C302000708854
:102AA40008080838000038202121221C00180808D2
:102AB400F8080818000000203F2000000008F8086B
:102AC400000008F808001F202020201F0008788834
:102AD4000000C83808000007380E010000F808009C
:102AE400F80008F800033C0700073C0300081868D6
:102AF400808068180820302C03032C30200838C844
:102B040000C83808000000203F200000001008081A
:102B140008C83808002038262120201800000000AA
:102B2400FE020202000000007F40404000000C3022
:102B3400C000000000000000010638C000000202CE
:102B440002FE000000004040407F0000000000043E
:102B54000202020400000000000000000000000067
:102B6400000000000080808080808080800002025D
:102B740004000000000000000000000000000080CD
:102B840080808000000019242222223F2008F800BF
:102B94008080000000003F112020110E0000000082
:102BA4008080800000000E11202020110000000011
:102BB400808088F800000E112020103F2000008043
:102BC4008080800000001F222222221300008080C7
:102BD400F0888888180020203F2020000000008012
:102BE4008080808000006B94949493600008F800C7
:102BF4008080800000203F210000203F200080983A
:102C040098000000000020203F2020000000000069
:102C1400809898000000C08080807F000008F80041
:102C24000080808000203F24022D3020000008080E
:102C3400F8000000000020203F2020000080808059
:102C44008080808000203F20003F20003F80800063
:102C54008080800000203F210000203F2000008071
:102C64008080800000001F202020201F0080800022
:102C7400808000000080FFA12020110E00000000D1
:102C84008080808000000E112020A0FF8080808042
:102C9400008080800020203F21200001000000806F
:102CA4008080808000003324242424190000808044
:102CB400E0808000000000001F20200000808000D1
:102CC4000000808000001F202020103F2080808092
:102CD400000080808000010E300806010080800022
:102CE40080008080800F300C030C300F0000808047
:102CF40000808080000020312E0E312000808080F2
:102D0400000080808080818E701806010000808021
:102D140080808080000021302C22213000000000BF
:102D240000807C020200000000003F4040000000E0
:102D340000FF00000000000000FF0000000002028D
:102D44007C800000000040403F00000000000601BD
:102D5400010202040400000000000000002E0056DE
:042D6400000000006B
:042D68000902000854
:042D6C00E501000875
:0C2D7000010000001000000000A24A0456
:040000050800243992
:00000001FF
