:020000040800F2
:1000000000000120410D0008CD0C0008CF0C0008B5
:10001000D10C0008D30C0008D50C0008000000002B
:10002000000000000000000000000000D70C0008E5
:10003000D90C000800000000DB0C0008DD0C0008F3
:10004000890D0008890D0008890D0008890D000838
:10005000890D0008890D0008E10C0008890D0008D1
:10006000890D0008E70C0008ED0C0008890D000858
:10007000890D0008890D0008890D0008890D000808
:10008000890D0008890D0008890D0008890D0008F8
:10009000890D0008890D0008890D0008890D0008E8
:1000A000890D0008890D0008890D0008890D0008D8
:1000B000890D0008890D0008890D0008890D0008C8
:1000C000890D0008890D0008890D0008890D0008B8
:1000D000890D0008890D0008890D0008890D0008A8
:1000E000890D0008890D0008890D0008890D000898
:1000F000890D0008890D0008890D0008890D000888
:10010000890D0008890D0008890D0008890D000877
:10011000890D0008890D0008890D0008890D000867
:10012000890D0008890D0008890D0008890D000857
:1001300000000000000000000000000000000000BF
:1001400000000000000000000000000000000000AF
:10015000000000000000000000000000000000009F
:10016000000000000000000000000000000000008F
:10017000000000000000000000000000000000007F
:10018000000000000000000000000000000000006F
:10019000000000000000000000000000000000005F
:1001A000000000000000000000000000000000004F
:1001B000000000000000000000000000000000003F
:1001C000000000000000000000000000000000002F
:1001D000000000000000000000000000000000001F
:0401E0005FF8E0F1F3
:1001E40010B5054C237833B9044B13B10448AFF36D
:1001F40000800123237010BD0C00002000000000CB
:10020400E40D000808B5034B1BB103490348AFF3E1
:10021400008008BD0000000010000020E40D00086C
:1002240038B50E4B054618784FF47A73B3FBF0F3E8
:100234000B4A1068B0FBF3F000F09EF8044658B97E
:100244000F2D09D8024629464FF0FF3000F054F82C
:10025400044B20461D6038BD012038BD000000203D
:100264000800002004000020074A08B51368032092
:1002740043F01003136000F02DF80020FFF7D0FFC7
:1002840000F0FCFC002008BD00200240034A044B9F
:1002940011681B780B441360704700BF28000020CE
:1002A40000000020014B1868704700BF28000020A0
:1002B40038B50446FFF7F6FF0546631C1EBF044B22
:1002C4001B78E418FFF7EEFF401B8442FAD838BDD0
:1002D40000000020074A0002D36800F4E06023F421
:1002E400E0631B041B0C43F0BF6343F4003303437C
:1002F400D360704700ED00E0174B30B5DC68C4F301
:100304000224C4F10703251D042B28BF0423062D52
:100314004FF0010598BF002405FA03F303F1FF33FE
:1003240088BF033C1940A14005FA04F4013C224073
:10033400002842EA01024FEA0212AFBF00F1604016
:10034400064B00F00F00D2B2A5BFD2B200F5614057
:100354001A5480F8002330BD00ED00E014ED00E0F5
:100364000123420900F01F0003FA00F0014B43F897
:100374002200704700E100E00138B0F1807F0AD22A
:10038400F021064B064A586082F823100020072209
:1003940098601A6070470120704700BF10E000E0C9
:1003A40000ED00E02DE9F74F002216466C4F6D4B2F
:1003B400DFF8B8E1DFF8B8C14FF001080C6808FABB
:1003C40006F808EA0404A04540F085804D68122D23
:1003D40000F0B78000F28D80022D00F0AF8000F2B3
:1003E4008180002D00F09180012D00F0A5804FF058
:1003F4000F09FF2C93BF824606F18045083DD0F8D3
:1004040000B092BFB500D0F804B0AD0009FA05F809
:100414002BEA080802FA05F588BF00F1040A48EA45
:100424000505CAF80050D1F804A01AF0805F52D034
:10043400BD6926F0030845F00105BD61BD6908F1F9
:10044400804805F00105019508F5803806F0030B96
:10045400019D4FEA8B0BD8F8085009FA0BF925EAED
:100464000909414DA84271D005F58065A8426FD0B5
:1004740005F58065A8426DD005F58065A8426BD06E
:1004840005F58065A84269D070450CBF0525062591
:1004940005FA0BF545EA0905C8F808501D681AF471
:1004A400803F14BF2543A5431D605D681AF4003FD7
:1004B40014BF2543A5435D609D681AF4801F14BFD3
:1004C4002543A5439D60DD681AF4001F14BF2C4327
:1004D40025EA0404DC600136102E7FF46DAF03B00E
:1004E400BDE8F08F032D25D0112D80D1CA680432C8
:1004F4007DE7654509D012D8DFF878904D4504D0E2
:1005040009F580394D457FF472AF8A68E2B1012A5A
:100514000CBFC0F81080C0F81480082267E7DFF829
:1005240058904D45F1D009F580394D45EDD0A9F5E8
:100534008019E7E700225AE7CA6858E7CA68083210
:1005440055E7CA680C3252E7042250E700259FE7BA
:1005540001259DE702259BE7032599E7042597E7F5
:10056400001002400004014000080140001C01404A
:10057400000021100000111000003110836819429E
:1005840014BF0120002070470AB1016170470904BB
:10059400FBE7C3685940C1607047000008B5044BCD
:1005A4005969014202D0586100F034FB08BD00BF14
:1005B4000004014003682DE9F341DB07054610D42C
:1005C4002B689F075ED42B68190700F195802B6870
:1005D4005A0700F1BF80EA69002A40F02D8100200B
:1005E40014E0904C636803F00C03042B07D0636899
:1005F40003F00C03082B0CD16368DE0309D52368D0
:100604009C03DDD56B68002BDAD1012002B0BDE874
:10061400F0816B68B3F5803F10D1236843F48033D5
:100624002360FFF73FFE064623689803C8D4FFF70C
:1006340039FE801B6428F7D90320E7E79BB92368B8
:1006440023F480332360236823F480232360FFF79B
:1006540029FE064623689903B2D5FFF723FE801BC3
:100664006428F7D9E8E7B3F5A02F236803D143F44E
:1006740080232360D1E723F480332360236823F4A9
:100684008023CDE7674C636813F00C0F07D06368D1
:1006940003F00C03082B10D16368DA030DD423682C
:1006A4009B0702D52B69012BAFD123686A6923F01C
:1006B400F80343EAC203236085E72A695A4B6AB107
:1006C40001221A60FFF7EEFD064623689F07ECD46B
:1006D400FFF7E8FD801B0228F7D9ADE71A60FFF7A2
:1006E400E1FD0646236898077FF56DAFFFF7DAFD55
:1006F400801B0228F6D99FE7AA694A4C4B4BDAB112
:1007040001221A60FFF7CEFD0646636A9B070DD5EA
:100714004FF4FA52464B1B68B3FBF2F3019300BF4C
:10072400019B5A1E0192002BF9D150E7FFF7BAFD45
:10073400801B0228E9D97FE71A60FFF7B3FD06465C
:10074400636A9F077FF543AFFFF7ACFD801B022868
:10075400F6D971E7334CE369D80024D40127E3695F
:1007640043F08053E361E36903F080530093009BFB
:10077400304E3368D90518D5EB68012B26D1236A8E
:1007840043F001032362FFF78DFD41F28836804672
:10079400236A9B073FD5002F3FF41DAFE36923F085
:1007A4008053E36117E70027E2E7336843F480737B
:1007B4003360FFF777FD80463368DA05DCD4FFF752
:1007C40071FDA0EB08006428F6D935E7ABB9236ABC
:1007D40041F2883823F001032362236A23F00403DF
:1007E4002362FFF75FFD0646236A9807D3D5FFF718
:1007F40059FD801B4045F7D91EE7052B236A03D119
:1008040043F004032362BAE723F001032362236A5B
:1008140023F00403B6E7FFF745FDA0EB0800B04260
:10082400B6D909E700100240000042428004424267
:100834000800002000700040224C636803F00C03A1
:10084400082B3FF4E2AE00231F4E022A33602BD163
:10085400FFF728FD0746236899011FD42B6AB3F5D7
:10086400803F05D16268A96822F400320A436260BD
:10087400696A62680B4322F47412134363600123B0
:100884003360FFF70FFD054623689A013FF5A7AED5
:10089400FFF708FD401B0228F6D9CDE6FFF702FD5D
:1008A400C01B0228D7D9C7E6FFF7FCFC054623681E
:1008B4009B017FF594AEFFF7F5FC401B0228F6D9A7
:1008C400BAE600BF001002406000424230B5194B46
:1008D40087B002AC03F11005224618685968083342
:1008E40003C2AB421446F7D101238DF8043002232E
:1008F40011498DF805304B6803F00C02082A17D112
:10090400C3F3834206A80244DB0312F8102C0CD56F
:100914004B680A48C3F34043504306AA134413F8F0
:10092400143CB0FBF3F007B030BD05485043FAE780
:100934000248F8E7FC0D00080010024000127A009B
:1009440000093D00544A2DE9F0411368054603F0BF
:1009540007038B420E462AD329688C0734D4CA076E
:1009640047D44D4A136803F007039E42C0F08280C7
:100974002A684A4C12F0040F40F08780130706D50A
:1009840063682A6923F4605343EAC2036360FFF790
:100994009DFF6368424AC3F30313D35CD840414BC1
:1009A40018600020FFF73CFC0020BDE8F0811368CC
:1009B40023F007030B431360136803F00703994202
:1009C400CAD00120BDE8F081344B11F0040F1EBFE2
:1009D4005A6842F4E0625A60080742BF5A6842F417
:1009E40060525A605A68A86822F0F00202435A60C2
:1009F400B5E76A68294C012A23681CD113F4003F27
:100A0400DFD0636841F2883823F003031343636043
:100A1400FFF748FC6B680746012B14D1636803F0A9
:100A24000C03042B9DD0FFF73DFCC01B4045F5D9BA
:100A34000320BDE8F081022A02D113F0007FDFE732
:100A440013F0020FDCE7022B0FD1636803F00C03F1
:100A5400082B86D0FFF726FCC01B4045F5D9E7E7F5
:100A6400FFF720FCC01B4045E2D8636813F00C0F6D
:100A7400F6D176E7136823F0070333431360136852
:100A840003F007039E429CD172E76368E96823F48C
:100A9400E0630B43636071E70020024000100240F2
:100AA4000C0E00080800002010222DE9F04188B047
:100AB4000DEB0200002100F08BF9374B374E9A6999
:100AC400374F42F040029A619A69304602F0400280
:100AD4000192019A9A69202142F004029A619A696A
:100AE400002402F004020292029A9A69012542F05B
:100AF40008029A619B69002203F008030393039B95
:100B0400FFF742FD002238464FF49071FFF73CFD99
:100B140018230493234B04A9304605934FF003088C
:100B24000694FFF73FFC202304A93046049305955F
:100B34000694CDF81C80FFF735FC1B4B04A91B4819
:100B4400059304950694FFF72DFC4FF4907304A9C4
:100B54003846049305950694CDF81C80FFF722FCD3
:100B6400224602210620FFF7C7FB0620FFF7F8FB09
:100B74002A4602210920FFF7BFFB0920FFF7F0FBFB
:100B840002220A201146FFF7B7FB0A20FFF7E8FB11
:100B940008B0BDE8F08100BF001002400018014019
:100BA400000C014000002110000011100008014059
:100BB40010B590B02822002106A800F009F9002100
:100BC400142201A800F004F94FF480330122022416
:100BD40007930E934FF4E01306A806920A920F931C
:100BE4000D94FFF7E7FC0F234FF480620193002379
:100BF400214601A80294039304920593FFF7A2FEF1
:100C040010B010BD08B5FFF72FFBFFF7D1FFFFF7BA
:100C14004BFFFEE710B504460A20FFF749FB102CF2
:100C24000AD121461248FFF7A9FCF8B9BDE81040E3
:100C340020211048FFF7ADBC082C09D121460C48EF
:100C4400FFF79CFC90B920210948FFF7A2FCEDE7CF
:100C5400012C0BD121460848FFF790FC012805D14F
:100C64004FF480710348FFF794FCECE710BD00BF1C
:100C740000180140000C014000080140104B07B56A
:100C84009A69052042F001029A619A6902F0010210
:100C94000092009ADA6942F08052DA61DB6903F06B
:100CA40080530193019BFFF715FB064A536823F019
:100CB400E06343F00073536003B05DF804FB00BFCE
:100CC40000100240000001407047FEE7FEE7FEE727
:100CD400FEE7704770477047FFF7D8BA0120FFF767
:100CE4005DBC0820FFF75ABC1020FFF757BC00007A
:100CF4000F4B1A6842F001021A6059680D4A0A4003
:100D04005A601A6822F0847222F480321A601A68D7
:100D140022F480221A605A6822F4FE025A604FF4C8
:100D24001F029A604FF00062034B9A60704700BF45
:100D3400001002400000FFF800ED00E0002103E095
:100D44000B4B5B58435004310A480B4B42189A42F0
:100D5400F6D30A4A02E0002342F8043B084B9A42C5
:100D6400F9D3FFF7C5FF00F00FF8FFF74BFF70470B
:100D7400240E0008000000200C0000200C000020BD
:100D84002C000020FEE7000070B500250C4E0D4C31
:100D9400A41BA410A54209D100F022F800250A4E94
:100DA4000A4CA41BA410A54205D170BD56F82530E9
:100DB40098470135EEE756F8253098470135F2E7B4
:100DC4001C0E00081C0E00081C0E0008200E000853
:100DD40003460244934200D1704703F8011BF9E72C
:100DE400F8B500BFF8BC08BC9E467047F8B500BF14
:080DF400F8BC08BC9E467047E4
:100DFC0002030405060708090A0B0C0D0E0F101050
:100E0C0000000000000000000102030406070809AE
:040E1C0009020008BF
:040E2000E5010008E0
:0C0E2400010000001000000000A24A04C1
:0400000508000D41A1
:00000001FF
