:020000040800F2
:100000000000022069450008493A00084B3A000800
:100010004D3A00084F3A0008513A0008000000002D
:10002000000000000000000000000000533A00083B
:10003000553A000800000000573A0008593A0008F5
:10004000B9450008B9450008B9450008B945000898
:10005000B9450008B9450008B9450008B945000888
:10006000B9450008B9450008B9450008B945000878
:10007000B9450008B9450008B9450008B945000868
:10008000B9450008B9450008B9450008B945000858
:10009000B9450008B9450008B9450008B945000848
:1000A000B9450008B9450008B9450008B945000838
:1000B000B9450008B9450008B9450008B945000828
:1000C000B9450008B9450008B9450008B945000818
:1000D000B9450008B9450008B9450008B945000808
:1000E000B9450008B9450008B9450008B9450008F8
:1000F000B9450008B9450008B9450008B9450008E8
:10010000B9450008B9450008B9450008B9450008D7
:10011000B9450008B9450008B9450008B9450008C7
:10012000B9450008B9450008B9450008B9450008B7
:10013000B9450008B9450008B9450008B9450008A7
:10014000B9450008B9450008B9450008B945000897
:10015000B9450008B9450008B9450008B945000887
:10016000B9450008B9450008B9450008B945000877
:10017000B9450008B9450008B9450008000000006D
:08018000B9450008B94500086B
:1001900010B5054C237833B9044B13B10448AFF3C1
:1001A00000800123237010BD7800002000000000B3
:1001B000E058000808B5034B1BB103490348AFF3EF
:1001C000008008BD000000007C000020E05800080E
:1001D00001F0FF01102A2BDB10F0070F08D010F8F8
:1001E000013B013A8B422DD010F0070F42B3F6D1FC
:1001F000F0B441EA012141EA014122F007047FF015
:1002000000070023F0E80256083C85EA010586EA6B
:10021000010685FA47F5A3FA87F586FA47F6A5FAA7
:1002200087F68EB9EED1F0BC01F0FF0102F00702B3
:1002300032B110F8013B013A83EA010313B1F8D15E
:100240000020704701387047002D06BF354603383F
:10025000073815F0010F07D1013015F4807F02BF78
:10026000013015F4C03F0130F0BC0138704700BFC9
:1002700070B54FF0FF0C4CF4E06C1CEA11541DBF3C
:100280001CEA135594EA0C0F95EA0C0F00F0DEF807
:100290002C4481EA030621EA4C5123EA4C5350EAEC
:1002A000013518BF52EA033541F4801143F480133D
:1002B00038D0A0FB02CE4FF00005E1FB02E506F0CE
:1002C0000042E0FB03E54FF00006E1FB03569CF023
:1002D000000F18BF4EF0010EA4F1FF04B6F5007F29
:1002E00064F5407404D25FEA4E0E6D4146EB06069B
:1002F00042EAC62141EA55514FEAC52040EA5E5024
:100300004FEACE2EB4F1FD0C88BFBCF5E06F1ED8CD
:10031000BEF1004F08BF5FEA500E50F1000041EB04
:10032000045170BD06F0004646EA010140EA0200B1
:1003300081EA0301B4EB5C04C2BFD4EB0C0541EAD3
:10034000045170BD41F480114FF0000E013C00F3E8
:10035000AB8014F1360FDEBF002001F0004170BD0C
:10036000C4F10004203C35DA0C341BDC04F1140425
:10037000C4F1200500FA05F320FA04F001FA05F2B1
:1003800040EA020001F0004221F0004110EBD3707E
:1003900021FA04F642EB06015EEA430E08BF20EAAA
:1003A000D37070BDC4F10C04C4F1200500FA04F34D
:1003B00020FA05F001FA04F240EA020001F00041DF
:1003C00010EBD37041F100015EEA430E08BF20EA52
:1003D000D37070BDC4F1200500FA05F24EEA020E9A
:1003E00020FA04F301FA05F243EA020321FA04F0C9
:1003F00001F0004121FA04F220EA020000EBD37080
:100400005EEA430E08BF20EAD37070BD94F0000F7F
:100410000FD101F00046400041EB010111F4801FB3
:1004200008BF013CF7D041EA060195F0000F18BF64
:10043000704703F00046520043EB030313F4801FA0
:1004400008BF013DF7D043EA0603704794EA0C0F5A
:100450000CEA135518BF95EA0C0F0CD050EA410670
:1004600018BF52EA4306D1D181EA030101F00041ED
:100470004FF0000070BD50EA410606BF1046194615
:1004800052EA430619D094EA0C0F02D150EA013621
:1004900013D195EA0C0F05D152EA03361CBF104662
:1004A00019460AD181EA030101F0004141F0FE4101
:1004B00041F470014FF0000070BD41F0FE4141F485
:1004C000780170BD81F0004102E000BF83F000437D
:1004D00030B54FEA41044FEA430594EA050F08BFDF
:1004E00090EA020F1FBF54EA000C55EA020C7FEAA3
:1004F000645C7FEA655C00F0E2804FEA5454D4EB20
:100500005555B8BF6D420CDD2C4480EA020281EAE9
:10051000030382EA000083EA010180EA020281EA21
:100520000303362D88BF30BD11F0004F4FEA013173
:100530004FF4801C4CEA113102D0404261EB410182
:1005400013F0004F4FEA03334CEA133302D0524208
:1005500063EB430394EA050F00F0A780A4F10104C4
:10056000D5F1200E0DDB02FA0EFC22FA05F28018FE
:1005700041F1000103FA0EF2801843FA05F35941E4
:100580000EE0A5F120050EF1200E012A03FA0EFC63
:1005900028BF4CF0020C43FA05F3C01851EBE3718D
:1005A00001F0004507D54FF0000EDCF1000C7EEBAA
:1005B00000006EEB0101B1F5801F1BD3B1F5001FE8
:1005C0000CD349085FEA30004FEA3C0C04F1010407
:1005D0004FEA445212F5800F80F09A80BCF1004F30
:1005E00008BF5FEA500C50F1000041EB045141EAB2
:1005F000050130BD5FEA4C0C404141EB0101013C7B
:1006000028BFB1F5801FE9D291F0000F04BF014669
:100610000020B1FA81F308BF2033A3F10B03B3F13B
:1006200020020CDA0C3208DD02F1140CC2F10C02CB
:1006300001FA0CF021FA02F10CE002F11402D8BF29
:10064000C2F1200C01FA02F120FA0CFCDCBF41EAF5
:100650000C019040E41AA2BF01EB0451294330BDC4
:100660006FEA04041F3C1CDA0C340EDC04F11404A1
:10067000C4F1200220FA04F001FA02F340EA030078
:1006800021FA04F345EA030130BDC4F10C04C4F1BE
:10069000200220FA02F001FA04F340EA030029469E
:1006A00030BD21FA04F0294630BD94F0000F83F4E8
:1006B000801306BF81F480110134013D4EE77FEACB
:1006C000645C18BF7FEA655C29D094EA050F08BF17
:1006D00090EA020F05D054EA000C04BF19461046F8
:1006E00030BD91EA030F1EBF0021002030BD5FEA3C
:1006F000545C05D14000494128BF41F0004130BD64
:1007000014F580043CBF01F5801130BD01F00045B7
:1007100045F0FE4141F470014FF0000030BD7FEA2A
:10072000645C1ABF194610467FEA655C1CBF0B4625
:10073000024650EA013406BF52EA033591EA030F3C
:1007400041F4002130BD00BF90F0000F04BF002134
:10075000704730B54FF4806404F132044FF0000567
:100760004FF0000150E700BF90F0000F04BF0021E0
:10077000704730B54FF4806404F1320410F0004546
:1007800048BF40424FF000013EE700BF42004FEA41
:10079000E2014FEA31014FEA02701FBF12F07F43BE
:1007A00093F07F4F81F06051704732F07F4208BF75
:1007B000704793F07F4F04BF41F40021704730B57C
:1007C0004FF4607401F0004521F000411CE700BFC8
:1007D00050EA010208BF704730B54FF000050AE04B
:1007E00050EA010208BF704730B511F0004502D54C
:1007F000404261EB41014FF4806404F132045FEA4E
:10080000915C3FF4D8AE4FF003025FEADC0C18BFF6
:1008100003325FEADC0C18BF033202EBDC02C2F1E8
:10082000200300FA03FC20FA02F001FA03FE40EA7A
:100830000E0021FA02F11444BDE600BF4A0011D2B5
:1008400012F5001211D20DD56FF47873B3EB62522A
:100850000ED44FEAC12343F0004343EA505323FA36
:1008600002F070474FF00000704750EA013002D1AB
:100870004FF0FF3070474FF00000704753B94AB94E
:10088000002908BF00281CBF4FF0FF314FF0FF3098
:1008900000F06EB9ADF1080C6DE904CE00F006F879
:1008A000DDF804E0DDE9022304B070472DE9F047EC
:1008B000089D04468C46002B40F083808A421746F0
:1008C00047D9B2FA82F242B1C2F1200024FA00F014
:1008D0009140974040EA010C94404FEA1748230C9E
:1008E000BCFBF8F61FFA87FE08FB16C143EA01437A
:1008F00006FB0EF1994209D9FB1806F1FF3080F092
:100900001981994240F21681023E3B445B1AA4B21F
:10091000B3FBF8F008FB103344EA034400FB0EFE7F
:10092000A64509D93C1900F1FF3380F00581A645A1
:1009300040F2028102383C4440EA0640A4EB0E0437
:1009400000261DB1D4400023C5E900433146BDE86F
:10095000F08702B9FFDEB2FA82F2002A50D1CB1B37
:100960004FEA174E1FFA87F80126B3FBFEFC210C55
:100970000EFB1C3341EA034108FB0CF38B4207D901
:1009800079180CF1FF3002D28B4200F2E9808446E4
:10099000C91AA3B2B1FBFEF00EFB101143EA0144E9
:1009A00008FB00F8A04507D93C1900F1FF3302D23B
:1009B000A04500F2D9801846A4EB080440EA0C4098
:1009C000BFE78B4209D9002D00F0B1800026C5E9B0
:1009D000000130463146BDE8F087B3FA83F6002EB9
:1009E0004AD18B4202D3824200F2B880841A61EB72
:1009F000030101208C46002DA8D0C5E9004CA5E7D5
:100A0000C2F1200320FA03F6974001FA02F04FEA00
:100A1000174ED9403043030CB1FBFEF61FFA87F89E
:100A20000EFB161143EA014306FB08F1994204FA52
:100A300002F409D9FB1806F1FF3C80F08D80994241
:100A400040F28A80023E3B445B1A81B2B3FBFEF067
:100A50000EFB103341EA034100FB08F38B4207D938
:100A6000791800F1FF3C73D28B4271D902383944B6
:100A7000CB1A40EA064678E7C6F1200C03FA06F4E2
:100A800022FA0CF31C4320FA0CF701FA06F34FEAA2
:100A9000144E21FA0CF11F433B0CB1FBFEF91FFA77
:100AA00084F80EFB191143EA014109FB08FA8A4553
:100AB00002FA06F200FA06F308D9611809F1FF30CC
:100AC00048D28A4546D9A9F102092144A1EB0A017D
:100AD000BFB2B1FBFEF00EFB101147EA014700FB6D
:100AE00008F8B84507D9E71900F1FF312ED2B8450B
:100AF0002CD90238274440EA0940A7EB0807A0FB9D
:100B000002894F45C64649461AD317D05DB1B3EBAB
:100B10000E0267EB010707FA0CFCF2404CEA0202F6
:100B2000F740C5E9002700263146BDE8F0872E468C
:100B300028460BE70646E9E61846FDE64345E5D2BA
:100B4000B8EB020E69EB04010138DFE70846D2E793
:100B500060468DE78146B9E7664675E730464AE765
:100B6000ACF1020C394413E702383C4424E700BFDF
:100B7000704700BF30B595B03022002108A803F0BF
:100B800041FD002403940494059406940794019471
:100B90001C4B1A6C42F080521A641B6C03F0805399
:100BA0000193019B0294184B1A6842F480421A6028
:100BB0001B6803F480430293029B012308934FF4C4
:100BC0008033099302250E954FF480030F93082379
:100BD00010934FF4A873119312950423139308A84C
:100BE00002F0CAFF0F230393049505944FF4A0531A
:100BF00006934FF480530793052103A803F018FAD6
:100C000015B030BD003802400070004030B587B0EC
:100C100003F032FCFFF7AEFF00F0B2F800F054F939
:100C200000F088FD4E4B4FF478421A604D4B9A8885
:100C30004D4903A803F006FD00243EE04FF6FF7087
:100C400000F096FC464B4FF478421A60474B0193F4
:100C500020230093F02228210A2000F02BFD444B92
:100C6000019318230093F02250210A2000F022FD66
:100C7000404B0193102500952B46F0226E210A204F
:100C800000F018FD03AB019300952B46F022822162
:100C90000A2000F00FFD384B01930C230093F02243
:100CA00096210A2000F006FD0134E4B20C2C00D19C
:100CB00000244FF47A7003F00BFC0B2CC2D801A374
:100CC00053F824F03D0C0008F50C0008FD0C00085A
:100CD000050D00080F0D0008190D0008230D000870
:100CE0002D0D0008370D0008410D00084B0D0008C0
:100CF000550D0008002000F03BFCA3E71F2000F08A
:100D000037FC9FE74FF4784000F032FC9AE74FF64B
:100D10001F0000F02DFC95E74FF4FC6000F028FC6C
:100D200090E747F6FF7000F023FC8BE74FF6E0708A
:100D300000F01EFC86E74FF6074000F019FC81E743
:100D400048F2304000F014FC7CE74CF2186000F0F0
:100D50000FFC77E74BF6404000F00AFC72E700BF5B
:100D600004000020F4000020F8580008045900088E
:100D70001859000824590008345900087047000029
:100D800010B58CB000220792089209920A920B9239
:100D90000192284B196B41F080011963196B01F026
:100DA0008001019101990292196B41F020011963B0
:100DB000196B01F02001029102990392196B41F025
:100DC00010011963196B01F010010391039904924A
:100DD000196B41F002011963196B01F002010491D2
:100DE00004990592196B41F008011963196B01F020
:100DF0000801059105990692196B41F001011963EB
:100E00001B6B03F001030693069B0B4C4FF4004150
:100E1000204603F0A9FA4FF40043079301230893F7
:100E2000099302230A9307A9204603F0B7F90CB0EF
:100E300010BD00BF00380240000402401D4B1B687B
:100E400003B17047F0B587B01A4B01221A60002435
:100E50000094194B9A6B42F001029A639B6B03F06A
:100E600001030093009B4FF48053019302270297E4
:100E70000394032604960C25059501A90F4803F059
:100E80008DF94FF6807301930297039404960595AC
:100E900001A90B4803F082F94CF2B3730193029756
:100EA00003940496059501A9064803F077F907B065
:100EB000F0BD00BF94000020003802400014024042
:100EC00000100240000C024030B58FB01A484FF0BD
:100ED0002043036003F58273436000238360C36093
:100EE0000361102141618361C361036243624FF476
:100EF00080528262C3624FF4804202634363836321
:100F000043640F2207920892FF2509950A920B91DC
:100F100011240C940D930092019202950392049176
:100F2000059406936A4607A903F0E6FA08B90FB0DC
:100F300030BDFFF723FFFAE7A400002008B5FFF754
:100F40007DFF08BD82B0ADF80600BDF806309BB24B
:100F5000ADF80630BDF806309BB2024A138002B0ED
:100F6000704700BFFEFF076082B0ADF80600BDF815
:100F700006309BB2ADF80630BDF806309BB2024A8F
:100F8000538002B0704700BFFEFF076082B0054B80
:100F90005B889BB2ADF80630BDF8060080B202B0A7
:100FA000704700BFFEFF0760014B188059807047F3
:100FB000FEFF0760024B1A89024B1A80704700BF80
:100FC000F4000020FEFF076070B505460C46444B58
:100FD0009B8849F24132934229D045F21032934224
:100FE00025D041F66312934235D045F21052934218
:100FF00030D13B4E7089FFF7A5FF280AFFF7B4FFF9
:101000007089013080B2FFF79DFFE8B2FFF7ACFFB7
:10101000B089FFF797FF200AFFF7A6FFB0890130DC
:1010200080B2FFF78FFFE0B2FFF79EFF12E02C4E79
:101030007089FFF787FF280AFFF796FFE8B2FFF7EE
:1010400093FFB089FFF77EFF200AFFF78DFFE0B224
:10105000FFF78AFF70BD224B9B7953BB204B18884A
:10106000451BADB2013DADB25889FFF76BFF0020C3
:10107000FFF77AFF0020FFF777FF280AFFF774FFDA
:10108000E8B2FFF771FF164DA889FFF75BFF200A52
:10109000FFF76AFFE0B2FFF767FF68880138C0F327
:1010A0000F20FFF761FF68880138C0B2FFF75CFFCF
:1010B000D0E70B4E7089FFF745FF280AFFF754FF72
:1010C000E8B2FFF751FF30880138C0F30F20FFF777
:1010D0004BFF30880138C0B2FFF746FFD3E700BFAF
:1010E000F40000207E4B9B79012B19D02BB97C4B4F
:1010F0009A8841F663139A4218D0794B9B8849F23B
:10110000413293422AD045F21032934226D045F222
:101110001052934222D041F6631293421ED0704780
:101120006F4A918841F663129142DFD00728E4D8D4
:10113000DFE800F0120406080A0C0E100720DCE7B6
:101140000420DAE70520D8E70120D6E70020D4E71D
:101150000320D2E70220D0E70620CEE710B5013801
:10116000062805D8DFE800F066065C5E6062640071
:10117000002400E0402445F2105293425CD0362017
:1011800045F21032934209D045F21052934205D0F5
:1011900041F66312934201D044F008042146FFF760
:1011A00003FF4F4B9B8841F6631293420AD014F021
:1011B000200F44D04A4A11885288914202D24848AE
:1011C0000280418045F21052934241D0444C6089E4
:1011D000FFF7B8FE0020FFF7C7FE0020FFF7C4FEB0
:1011E00020880138C0F30F20FFF7BEFE20880138A9
:1011F000C0B2FFF7B9FEA089FFF7A4FE0020FFF7F9
:10120000B3FE0020FFF7B0FE60880138C0F30F2066
:10121000FFF7AAFE60880138C0B2FFF7A5FE10BD37
:10122000C024A8E72024A6E76024A4E7A024A2E71E
:10123000E024A0E780249EE74FF45850A0E7284A16
:10124000118852889142BDD9254802804180B9E772
:10125000234C6089FFF776FE0020FFF785FE60894A
:10126000013080B2FFF76EFE0020FFF77DFE60893F
:10127000023080B2FFF766FE20880138C0F30F20ED
:10128000FFF772FE6089033080B2FFF75BFE2088B3
:101290000138C0B2FFF768FEA089FFF753FE0020B7
:1012A000FFF762FEA089013080B2FFF74BFE0020FD
:1012B000FFF75AFEA089023080B2FFF743FE608834
:1012C0000138C0F30F20FFF74FFEA089033080B232
:1012D000FFF738FE60880138C0B2FFF745FE9EE791
:1012E000F40000202DE9F04105460E4614463C4B23
:1012F0009B8849F24132934239D045F210329342F1
:1013000035D045F2105293424CD041F663129342CD
:1013100040D1334B9B792BB9314B1888451BADB26B
:10132000013DADB22E4F7889FFF70CFE4FEA15282C
:101330004046FFF719FEEDB22846FFF715FE40467E
:10134000FFF712FE2846FFF70FFEB889FFF7FAFDF8
:10135000350A2846FFF708FEF6B23046FFF704FECE
:101360002846FFF701FE3046FFF7FEFD12E01C4F56
:101370007889FFF7E7FD280AFFF7F6FDE8B2FFF7E7
:10138000F3FDB889FFF7DEFD300AFFF7EDFDF0B29F
:10139000FFF7EAFD124B1A89124B1A80A4B25C8047
:1013A000BDE8F0810E4F7889FFF7CCFD280AFFF7E2
:1013B000DBFD7889013080B2FFF7C4FDE8B2FFF7AA
:1013C000D3FDB889FFF7BEFD300AFFF7CDFDB88920
:1013D000013080B2FFF7B6FDF0B2FFF7C5FDD9E7E7
:1013E000F4000020FEFF076010B50446BE20FFF7A2
:1013F000A9FD0520FFF7B8FD2046FFF7B5F90CA3BE
:10140000D3E90023FEF734FFFFF718FA80B2FFF7A5
:10141000ABFD0120FFF7A8FDFF20FFF7A5FD002091
:10142000FFF7A2FD0020FFF79FFD10BDAFF3008086
:10143000666666666666044008B54C4B987100287F
:1014400047D1F0221A804FF4A0725A809B8849F24B
:101450004132934219D045F21032934215D045F2F1
:101460001052934224D041F66312934261D13F4B14
:101470002C221A812B225A812A229A814FF4F0724F
:101480001A804FF448725A8053E0384A2C21118157
:101490002A2151812B21918145F21032934248D16A
:1014A000324B4FF4A0721A804FF4F0725A8040E031
:1014B0002E4B4FF430521A814FF428525A814FF478
:1014C0002C529A814FF4F0721A804FF448725A806D
:1014D0002FE0264B4FF4A0721A80F0225A809B888E
:1014E00049F24132934219D045F21032934215D05D
:1014F00045F21052934220D041F66312934214D128
:101500001A4A2C2111812A2151812B2191814FF4DA
:10151000487111804FF4F071518006E0134A2C217C
:1015200011812A2151812B21918145F21032934260
:1015300014D00020FFF7D6FD08BD0C4A4FF43051FF
:1015400011814FF4285151814FF42C5191814FF466
:10155000487111804FF4F0715180E6E7034B4FF46E
:10156000F0721A804FF4A0725A80E2E7F400002073
:1015700038B50546094B1C885B8804FB03F4002141
:101580000846FFF721FDFFF715FD0022A24204D215
:10159000ABB203494B800132F8E738BDF4000020BC
:1015A000FEFF07602DE9F04F83B0824688461F4654
:1015B0009DF830B013F0070318BF012303EBD703E6
:1015C000790811FB03F3DBB20093203AD3B2019305
:1015D00044464FF0000949E0019B03EB43032E4AC8
:1015E00002EB830313F80950002623E02B4B019AEA
:1015F00003EB021313F80950F6E7019B03EBC30357
:10160000274A02EB830313F80950EDE7254B1A68CC
:1016100021465046FFF766FE6D00EDB20134A4B2DC
:10162000214B5B88A34233D9A4EB0803BB4210D003
:101630000136F6B2072E15D815F0800FE6D1BBF1B2
:10164000000FE9D1194B1A6821465046FFF74AFEB0
:10165000E2E70AF1010A1FFA8AFA134B1B88534585
:1016600016D9444609F101095FFA89F9009B9945A9
:101670000ED20C2FB0D0102FB8D0182FBDD0202FE5
:1016800006D10B4B019A03EBC21313F80950ABE7D9
:1016900003B0BDE8F08F00BF50590008C45D0008DA
:1016A000B463000804000020F400002000000020C3
:1016B000107100082DE9F04782B082460D469DF872
:1016C00028700B9E02441FFA82F90B441FFA83F81C
:1016D00004460CE0454517D2002300933B462946BB
:1016E0002046FFF75FFF04EB5704A4B201363278BF
:1016F000A2F12003DBB25E2B06D84C45EAD35FFA99
:101700008AF43D44ADB2E5E702B0BDE8F0870000E1
:1017100010B5044602F03CFD054BA3FB0030000D64
:1017200004FB00F003460138002BFBD110BD00BFC5
:1017300083DE1B4310B5D320FFF704FCFFF726FC24
:101740005A4CA080FFF722FCA080FFF71FFC00028C
:10175000A080FFF71BFCA388184380B2A08049F249
:10176000413398424AD1514CA188514802F052FF6E
:10177000A38849F24132934200F0A08045F2103232
:10178000934200F0B08145F21052934201F024815F
:1017900041F66312934202F09D80444B9B8849F2CC
:1017A000413293420BD045F21032934207D045F2BA
:1017B0001052934203D041F66312934210D13D4B35
:1017C0001A6822F00F021A601A6822F470621A6016
:1017D0001A6842F004021A601A6842F480621A60C1
:1017E0000020FFF729FE01224FF40041324802F0A9
:1017F000BBFD4FF6FF70FFF7BBFE10BDD420FFF717
:10180000A1FBFFF7C3FBA080FFF7C0FBA080FFF7A1
:10181000BDFB0002A080FFF7B9FBA388184380B28C
:10182000A08045F2103398429DD04FF45A40FFF704
:1018300089FBFFF7ABFBA0804FF45B40FFF782FB17
:10184000FFF7A4FB0002A0804FF45C40FFF77AFB97
:10185000FFF79CFBA388184380B2A080B0F5004F2F
:1018600020D0124B9A8845F210539A423FF47BAF36
:10187000A120FFF767FBFFF789FB0C4CA080FFF767
:1018800085FB0002A080FFF781FBA388184380B28C
:10189000A08045F2617398427FF465AF41F6631210
:1018A000A28060E745F21052A280DAE7F40000203F
:1018B00040590008040100A000040240CF20FFF7B7
:1018C00041FB0020FFF750FBC120FFF74DFB30200C
:1018D000FFF74AFBED20FFF735FB6420FFF744FBE1
:1018E0000320FFF741FB1220FFF73EFB8120FFF7AB
:1018F0003BFBE820FFF726FB8520FFF735FB102098
:10190000FFF732FB7A20FFF72FFBCB20FFF71AFB04
:101910003920FFF729FB2C20FFF726FB0020FFF7DB
:1019200023FB3420FFF720FB0220FFF71DFBF720ED
:10193000FFF708FB2020FFF717FBEA20FFF702FB69
:101940000020FFF711FB0020FFF70EFBC020FFF780
:10195000F9FA1B20FFF708FBC120FFF7F3FA01207B
:10196000FFF702FBC520FFF7EDFA3020FFF7FCFA86
:101970003020FFF7F9FAC720FFF7E4FAB720FFF7A6
:10198000F3FA3620FFF7DEFA4820FFF7EDFA3A20A7
:10199000FFF7D8FA5520FFF7E7FAB120FFF7D2FAA0
:1019A0000020FFF7E1FA1A20FFF7DEFAB620FFF772
:1019B000C9FA0A20FFF7D8FAA220FFF7D5FAF220D9
:1019C000FFF7C0FA0020FFF7CFFA2620FFF7BAFA98
:1019D0000120FFF7C9FAE020FFF7B4FA0F20FFF764
:1019E000C3FA2A20FFF7C0FA2820FFF7BDFA082023
:1019F000FFF7BAFA0E20FFF7B7FA0820FFF7B4FA9C
:101A00005420FFF7B1FAA920FFF7AEFA4320FFF701
:101A1000ABFA0A20FFF7A8FA0F20FFF7A5FA00207B
:101A2000FFF7A2FA0020FFF79FFA0020FFF79CFAC9
:101A30000020FFF799FAE120FFF784FA0020FFF772
:101A400093FA1520FFF790FA1720FFF78DFA072079
:101A5000FFF78AFA1120FFF787FA0620FFF784FACA
:101A60002B20FFF781FA5620FFF77EFA3C20FFF784
:101A70007BFA0520FFF778FA1020FFF775FA0F20A0
:101A8000FFF772FA3F20FFF76FFA3F20FFF76CFA7B
:101A90000F20FFF769FA2B20FFF754FA0020FFF719
:101AA00063FA0020FFF760FA0120FFF75DFA3F209C
:101AB000FFF75AFA2A20FFF745FA0020FFF754FAF9
:101AC0000020FFF751FA0020FFF74EFAEF20FFF752
:101AD0004BFA1120FFF736FA782002F0F9FC2920A2
:101AE000FFF730FA59E6ED20FFF72CFA0120FFF757
:101AF0003BFAFE20FFF738FAEE20FFF723FADE204C
:101B0000FFF732FA2120FFF72FFAF120FFF71AFA38
:101B10000120FFF729FADF20FFF714FA1020FFF762
:101B200023FAC420FFF70EFA8F20FFF71DFAC62014
:101B3000FFF708FA0020FFF717FAE220FFF714FA80
:101B4000E220FFF711FAE220FFF70EFABF20FFF7BD
:101B5000F9F9AA20FFF708FAB020FFF7F3F90D20F2
:101B6000FFF702FA0020FFF7FFF90D20FFF7FCF95D
:101B70000020FFF7F9F91120FFF7F6F90020FFF731
:101B8000F3F91920FFF7F0F90020FFF7EDF9212014
:101B9000FFF7EAF90020FFF7E7F92D20FFF7E4F956
:101BA0000020FFF7E1F93D20FFF7DEF90020FFF705
:101BB000DBF95D20FFF7D8F90020FFF7D5F95D20AC
:101BC000FFF7D2F90020FFF7CFF9B120FFF7BAF9FC
:101BD0008020FFF7C9F90020FFF7C6F98B20FFF737
:101BE000C3F90020FFF7C0F99620FFF7BDF90020E8
:101BF000FFF7BAF9B220FFF7A5F90020FFF7B4F913
:101C00000020FFF7B1F90220FFF7AEF90020FFF73F
:101C1000ABF90320FFF7A8F90020FFF7A5F9B320DF
:101C2000FFF790F90020FFF79FF90020FFF79CF9DC
:101C30000020FFF799F90020FFF796F90020FFF741
:101C400093F90020FFF790F90020FFF78DF90020AD
:101C5000FFF78AF90020FFF787F90020FFF784F9E2
:101C60000020FFF781F90020FFF77EF90020FFF741
:101C70007BF90020FFF778F90020FFF775F90020C5
:101C8000FFF772F90020FFF76FF90020FFF76CF9FA
:101C90000020FFF769F90020FFF766F90020FFF741
:101CA00063F90020FFF760F90020FFF75DF90020DD
:101CB000FFF75AF9B420FFF745F98B20FFF754F9E5
:101CC0000020FFF751F99620FFF74EF90020FFF7AB
:101CD0004BF9A120FFF748F90020FFF745F9B5209F
:101CE000FFF730F90220FFF73FF90020FFF73CF93A
:101CF0000320FFF739F90020FFF736F90420FFF73A
:101D000033F90020FFF730F9B620FFF71BF9002068
:101D1000FFF72AF90020FFF727F9B720FFF712F99C
:101D20000020FFF721F90020FFF71EF93F20FFF701
:101D30001BF90020FFF718F95E20FFF715F90020C6
:101D4000FFF712F96420FFF70FF90020FFF70CF9F5
:101D50008C20FFF709F90020FFF706F9AC20FFF708
:101D600003F90020FFF700F9DC20FFF7FDF8002061
:101D7000FFF7FAF87020FFF7F7F80020FFF7F4F804
:101D80009020FFF7F1F80020FFF7EEF8EB20FFF7C7
:101D9000EBF80020FFF7E8F8DC20FFF7E5F800207B
:101DA000FFF7E2F8B820FFF7CDF80020FFF7DCF8E6
:101DB0000020FFF7D9F80020FFF7D6F80020FFF742
:101DC000D3F80020FFF7D0F80020FFF7CDF800206F
:101DD000FFF7CAF80020FFF7C7F8BA20FFF7B2F8FC
:101DE0002420FFF7C1F80020FFF7BEF80020FFF71E
:101DF000BBF80020FFF7B8F8C120FFF7A3F82020B8
:101E0000FFF7B2F80020FFF7AFF85420FFF7ACF867
:101E10000020FFF7A9F8FF20FFF7A6F80020FFF742
:101E2000A3F8C220FFF78EF80A20FFF79DF80020E4
:101E3000FFF79AF80420FFF797F80020FFF794F8CF
:101E4000C320FFF77FF83C20FFF78EF80020FFF754
:101E50008BF83A20FFF788F80020FFF785F8392043
:101E6000FFF782F80020FFF77FF83720FFF77CF8B4
:101E70000020FFF779F83C20FFF776F80020FFF705
:101E800073F83620FFF770F80020FFF76DF8322066
:101E9000FFF76AF80020FFF767F82F20FFF764F8D4
:101EA0000020FFF761F82C20FFF75EF80020FFF715
:101EB0005BF82920FFF758F80020FFF755F8262097
:101EC000FFF752F80020FFF74FF82420FFF74CF8F7
:101ED0000020FFF749F82420FFF746F80020FFF71D
:101EE00043F82320FFF740F80020FFF73DF83C209F
:101EF000FFF73AF80020FFF737F83620FFF734F8FD
:101F00000020FFF731F83220FFF72EF80020FFF70E
:101F10002BF82F20FFF728F80020FFF725F82C20BA
:101F2000FFF722F80020FFF71FF82920FFF71CF821
:101F30000020FFF719F82620FFF716F80020FFF71A
:101F400013F82420FFF710F80020FFF70DF82420E5
:101F5000FFF70AF80020FFF707F82320FFF704F83F
:101F60000020FFF701F8C420FEF7ECFF6220FEF727
:101F7000FBFF0020FEF7F8FF0520FEF7F5FF00202D
:101F8000FEF7F2FF8420FEF7EFFF0020FEF7ECFFE4
:101F9000F020FEF7E9FF0020FEF7E6FF1820FEF72D
:101FA000E3FF0020FEF7E0FFA420FEF7DDFF0020A6
:101FB000FEF7DAFF1820FEF7D7FF0020FEF7D4FF68
:101FC0005020FEF7D1FF0020FEF7CEFF0C20FEF7D9
:101FD000CBFF0020FEF7C8FF1720FEF7C5FF00204B
:101FE000FEF7C2FF9520FEF7BFFF0020FEF7BCFF03
:101FF000F320FEF7B9FF0020FEF7B6FFE620FEF75C
:10200000B3FF0020FEF7B0FFC520FEF79BFF322094
:10201000FEF7AAFF0020FEF7A7FF4420FEF7A4FF6B
:102020000020FEF7A1FF6520FEF79EFF0020FEF7CF
:102030009BFF7620FEF798FF0020FEF795FF882093
:10204000FEF792FF0020FEF78FFFC620FEF77AFF13
:102050002020FEF789FF0020FEF786FF1720FEF7FD
:1020600083FF0020FEF780FF0120FEF77DFF0020A8
:10207000FEF77AFFC720FEF765FF0020FEF774FF2A
:102080000020FEF771FF0020FEF76EFF0020FEF734
:102090006BFFC820FEF756FF0020FEF765FF00200B
:1020A000FEF762FF0020FEF75FFF0020FEF75CFFF7
:1020B000C920FEF747FF0020FEF756FF0020FEF77D
:1020C00053FF0020FEF750FF0020FEF74DFF0020D9
:1020D000FEF74AFF0020FEF747FF0020FEF744FF0F
:1020E0000020FEF741FF0020FEF73EFF0020FEF734
:1020F0003BFF0020FEF738FF0020FEF735FF0020F1
:10210000FEF732FF0020FEF72FFF0020FEF72CFF26
:102110000020FEF729FFE020FEF714FF1620FEF74F
:1021200023FF0020FEF720FF1C20FEF71DFF0020EC
:10213000FEF71AFF2120FEF717FF0020FEF714FF1D
:102140003620FEF711FF0020FEF70EFF4620FEF7B7
:102150000BFF0020FEF708FF5220FEF705FF0020CE
:10216000FEF702FF6420FEF7FFFE0020FEF7FCFEF4
:102170007A20FEF7F9FE0020FEF7F6FE8B20FEF730
:10218000F3FE0020FEF7F0FE9920FEF7EDFE0020A2
:10219000FEF7EAFEA820FEF7E7FE0020FEF7E4FEC9
:1021A000B920FEF7E1FE0020FEF7DEFEC420FEF7B8
:1021B000DBFE0020FEF7D8FECA20FEF7D5FE002089
:1021C000FEF7D2FED220FEF7CFFE0020FEF7CCFEB7
:1021D000D920FEF7C9FE0020FEF7C6FEE020FEF77C
:1021E000C3FE0020FEF7C0FEF320FEF7BDFE002078
:1021F000FEF7BAFEE120FEF7A5FE1620FEF7B4FEBC
:102200000020FEF7B1FE1C20FEF7AEFE0020FEF718
:10221000ABFE2220FEF7A8FE0020FEF7A5FE36202A
:10222000FEF7A2FE0020FEF79FFE4520FEF79CFE73
:102230000020FEF799FE5220FEF796FE0020FEF7E2
:1022400093FE6420FEF790FE0020FEF78DFE7A20BC
:10225000FEF78AFE0020FEF787FE8B20FEF784FE45
:102260000020FEF781FE9920FEF77EFE0020FEF79B
:102270007BFEA820FEF778FE0020FEF775FEB92051
:10228000FEF772FE0020FEF76FFEC420FEF76CFE24
:102290000020FEF769FECA20FEF766FE0020FEF76A
:1022A00063FED220FEF760FE0020FEF75DFED82020
:1022B000FEF75AFE0020FEF757FEE020FEF754FE20
:1022C0000020FEF751FEF320FEF74EFE0020FEF741
:1022D0004BFEE220FEF736FE0520FEF745FE00200D
:1022E000FEF742FE0B20FEF73FFE0020FEF73CFE0D
:1022F0001B20FEF739FE0020FEF736FE3420FEF7E5
:1023000033FE0020FEF730FE4420FEF72DFE0020B5
:10231000FEF72AFE4F20FEF727FE0020FEF724FEE0
:102320006120FEF721FE0020FEF71EFE7920FEF759
:102330001BFE0020FEF718FE8820FEF715FE002089
:10234000FEF712FE9720FEF70FFE0020FEF70CFEB0
:10235000A620FEF709FE0020FEF706FEB720FEF7D6
:1023600003FE0020FEF700FEC220FEF7FDFD002068
:10237000FEF7FAFDC720FEF7F7FD0020FEF7F4FD9B
:10238000D120FEF7F1FD0020FEF7EEFDD620FEF78E
:10239000EBFD0020FEF7E8FDDD20FEF7E5FD002067
:1023A000FEF7E2FDF320FEF7DFFD0020FEF7DCFD87
:1023B000E320FEF7C7FD0520FEF7D6FD0020FEF75F
:1023C000D3FD0A20FEF7D0FD0020FEF7CDFD1C2036
:1023D000FEF7CAFD0020FEF7C7FD3320FEF7C4FD5F
:1023E0000020FEF7C1FD4420FEF7BEFD0020FEF7F1
:1023F000BBFD5020FEF7B8FD0020FEF7B5FD6220C2
:10240000FEF7B2FD0020FEF7AFFD7820FEF7ACFD31
:102410000020FEF7A9FD8820FEF7A6FD0020FEF7AC
:10242000A3FD9720FEF7A0FD0020FEF79DFDA6204E
:10243000FEF79AFD0020FEF797FDB720FEF794FD0A
:102440000020FEF791FDC220FEF78EFD0020FEF772
:102450008BFDC720FEF788FD0020FEF785FDD1200B
:10246000FEF782FD0020FEF77FFDD520FEF77CFD04
:102470000020FEF779FDDD20FEF776FD0020FEF757
:1024800073FDF320FEF770FD0020FEF76DFDE420E4
:10249000FEF758FD0120FEF767FD0020FEF764FD02
:1024A0000120FEF761FD0020FEF75EFD0220FEF731
:1024B0005BFD0020FEF758FD2A20FEF755FD0020A9
:1024C000FEF752FD3C20FEF74FFD0020FEF74CFDCD
:1024D0004B20FEF749FD0020FEF746FD5D20FEF78C
:1024E00043FD0020FEF740FD7420FEF73DFD002077
:1024F000FEF73AFD8420FEF737FD0020FEF734FD9D
:102500009320FEF731FD0020FEF72EFDA220FEF7FE
:102510002BFD0020FEF728FDB320FEF725FD00204F
:10252000FEF722FDBE20FEF71FFD0020FEF71CFD7A
:10253000C420FEF719FD0020FEF716FDCD20FEF7A2
:1025400013FD0020FEF710FDD320FEF70DFD002047
:10255000FEF70AFDDD20FEF707FD0020FEF704FD73
:10256000F320FEF701FD0020FEF7FEFCE520FEF75C
:10257000E9FC0020FEF7F8FC0020FEF7F5FC002047
:10258000FEF7F2FC0020FEF7EFFC0220FEF7ECFC69
:102590000020FEF7E9FC2920FEF7E6FC0020FEF70C
:1025A000E3FC3C20FEF7E0FC0020FEF7DDFC4B20C6
:1025B000FEF7DAFC0020FEF7D7FC5D20FEF7D4FC26
:1025C0000020FEF7D1FC7420FEF7CEFC0020FEF7C1
:1025D000CBFC8420FEF7C8FC0020FEF7C5FC93204E
:1025E000FEF7C2FC0020FEF7BFFCA220FEF7BCFCF9
:1025F0000020FEF7B9FCB320FEF7B6FC0020FEF782
:10260000B3FCBE20FEF7B0FC0020FEF7ADFCC420FA
:10261000FEF7AAFC0020FEF7A7FCCD20FEF7A4FCE5
:102620000020FEF7A1FCD320FEF79EFC0020FEF761
:102630009BFCDC20FEF798FC0020FEF795FCF320C5
:10264000FEF792FC0020FEF78FFCE620FEF77AFCF6
:102650001120FEF789FC0020FEF786FC3420FEF7EF
:1026600083FC0020FEF780FC5620FEF77DFC002056
:10267000FEF77AFC7620FEF777FC0020FEF774FC6C
:102680007720FEF771FC0020FEF76EFC6620FEF757
:102690006BFC0020FEF768FC8820FEF765FC00203C
:1026A000FEF762FC9920FEF75FFC0020FEF75CFC61
:1026B000BB20FEF759FC0020FEF756FC9920FEF7E0
:1026C00053FC0020FEF750FC6620FEF74DFC002076
:1026D000FEF74AFC5520FEF747FC0020FEF744FCBD
:1026E0005520FEF741FC0020FEF73EFC4520FEF79A
:1026F0003BFC0020FEF738FC4320FEF735FC0020B1
:10270000FEF732FC4420FEF72FFC0020FEF72CFCE5
:10271000E720FEF717FC3220FEF726FC0020FEF72C
:1027200023FC5520FEF720FC0020FEF71DFC762040
:10273000FEF71AFC0020FEF717FC6620FEF714FCDB
:102740000020FEF711FC6720FEF70EFC0020FEF7CC
:102750000BFC6720FEF708FC0020FEF705FC872035
:10276000FEF702FC0020FEF7FFFB9920FEF7FCFBC2
:102770000020FEF7F9FBBB20FEF7F6FB0020FEF77A
:10278000F3FB9920FEF7F0FB0020FEF7EDFB77202E
:10279000FEF7EAFB0020FEF7E7FB4420FEF7E4FB30
:1027A0000020FEF7E1FB5620FEF7DEFB0020FEF7DF
:1027B000DBFB2320FEF7D8FB0020FEF7D5FB332000
:1027C000FEF7D2FB0020FEF7CFFB4520FEF7CCFB47
:1027D0000020FEF7C9FBE820FEF7B4FB0020FEF75F
:1027E000C3FB0020FEF7C0FB9920FEF7BDFB0020D5
:1027F000FEF7BAFB8720FEF7B7FB0020FEF7B4FB1D
:102800008820FEF7B1FB0020FEF7AEFB7720FEF735
:10281000ABFB0020FEF7A8FB6620FEF7A5FB00201F
:10282000FEF7A2FB8820FEF79FFB0020FEF79CFB33
:10283000AA20FEF799FB0020FEF796FBBB20FEF7CF
:1028400093FB0020FEF790FB9920FEF78DFB002004
:10285000FEF78AFB6620FEF787FB0020FEF784FB6D
:102860005520FEF781FB0020FEF77EFB5520FEF78A
:102870007BFB0020FEF778FB4420FEF775FB002071
:10288000FEF772FB4420FEF76FFB0020FEF76CFBA7
:102890005520FEF769FB0020FEF766FBE920FEF7F6
:1028A00051FBAA20FEF760FB0020FEF75DFB002035
:1028B000FEF75AFB0020FEF757FB0020FEF742FB15
:1028C000AA20FEF751FBCF20FEF73CFB0020FEF7CD
:1028D0004BFB0020FEF748FB0020FEF745FB0020E5
:1028E000FEF742FB0020FEF73FFB0020FEF73CFB1B
:1028F0000020FEF739FB0020FEF736FB0020FEF734
:1029000033FB0020FEF730FB0020FEF72DFB0020FC
:10291000FEF72AFB0020FEF727FB0020FEF724FB32
:102920000020FEF721FB0020FEF71EFB0020FEF733
:102930001BFBF020FEF706FB0020FEF715FB5020E6
:10294000FEF712FB0020FEF70FFB0020FEF70CFB4A
:102950000020FEF709FBF320FEF7F4FA0020FEF753
:1029600003FBF920FEF7EEFA0620FEF7FDFA102031
:10297000FEF7FAFA2920FEF7F7FA0020FEF7F4FA3C
:102980003A20FEF7DFFA5520FEF7EEFA1120FEF7A7
:10299000D9FA642001F09CFD2920FEF7D3FA3520F6
:1029A000FEF7D0FA0020FEF7DFFA5120FEF7CAFA50
:1029B000FF20FEF7D9FA5320FEF7C4FA2C20FEF7C9
:1029C000D3FA5520FEF7BEFA8220FEF7CDFA2C206E
:1029D000FEF7B8FAFEF7E1BE55214FF47040FEF75E
:1029E000E3FAAA214FF20100FEF7DEFA52214FF27C
:1029F0000200FEF7D9FA08214FF20300FEF7D4FADD
:102A000001214FF20400FEF7CFFA0D214FF43040C0
:102A1000FEF7CAFA0D214BF20100FEF7C5FA0D21AF
:102A20004BF20200FEF7C0FA34214FF43640FEF7B5
:102A3000BBFA34214BF20160FEF7B6FA34214BF2B7
:102A40000260FEF7B1FA0D214FF43140FEF7ACFA07
:102A50000D214BF20110FEF7A7FA0D214BF20210E7
:102A6000FEF7A2FA34214FF43740FEF79DFA3421E5
:102A70004BF20170FEF798FA34214BF20270FEF728
:102A800093FA00214FF43240FEF78EFA00214BF208
:102A90000120FEF789FA00214BF20220FEF784FAAA
:102AA00024214FF43840FEF77FFA24214BF6010031
:102AB000FEF77AFA24214BF60200FEF775FA01219F
:102AC0004FF43F40FEF770FA0F214FF43340FEF70A
:102AD0006BFA0F214BF20130FEF766FA0F214BF231
:102AE0000230FEF761FA34214FF43940FEF75CFA08
:102AF00034214BF60110FEF757FA34214BF6021041
:102B0000FEF752FA08214FF43540FEF74DFA08213E
:102B10004BF20150FEF748FA08214BF20250FEF743
:102B200043FA03214FF44240FEF73EFA24214FF4CA
:102B30003A40FEF739FA24214BF60120FEF734FA29
:102B400024214BF60220FEF72FFA00214FF43C40DF
:102B5000FEF72AFA78214BF60140FEF725FA00210C
:102B60004BF60240FEF720FA00214FF43D40FEF7FD
:102B70001BFA78214BF60150FEF716FA00214BF6AE
:102B80000250FEF711FA00214FF43E40FEF70CFA16
:102B900064214BF60160FEF707FA00214FF4514023
:102BA000FEF702FA33214DF20110FEF7FDF9002184
:102BB0004DF20210FEF7F8F934214DF20310FEF742
:102BC000F3F900214DF20410FEF7EEF93A214DF22F
:102BD0000510FEF7E9F900214DF20610FEF7E4F9C1
:102BE0004A214DF20710FEF7DFF900214DF20810DF
:102BF000FEF7DAF95C214DF20910FEF7D5F9002154
:102C00004DF20A10FEF7D0F981214DF20B10FEF7BC
:102C1000CBF900214DF20C10FEF7C6F9A6214DF2BA
:102C20000D10FEF7C1F900214DF20E10FEF7BCF9B0
:102C3000E5214DF20F10FEF7B7F901214DF210100A
:102C4000FEF7B2F913214DF21110FEF7ADF9012193
:102C50004DF21210FEF7A8F954214DF21310FEF7B1
:102C6000A3F901214DF21410FEF79EF982214DF2D5
:102C70001510FEF799F901214DF21610FEF794F99F
:102C8000CA214DF21710FEF78FF902214DF21810EC
:102C9000FEF78AF900214DF21910FEF785F902219D
:102CA0004DF21A10FEF780F901214DF21B10FEF7CC
:102CB0007BF902214DF21C10FEF776F934214DF21A
:102CC0001D10FEF771F902214DF21E10FEF76CF98E
:102CD00067214DF21F10FEF767F902214DF2201017
:102CE000FEF762F984214DF22110FEF75DF9022111
:102CF0004DF22210FEF758F9A4214DF22310FEF7F1
:102D000053F902214DF22410FEF74EF9B7214DF28E
:102D10002510FEF749F902214DF22610FEF744F97D
:102D2000CF214DF22710FEF73FF902214DF2281076
:102D3000FEF73AF9DE214DF22910FEF735F90221AE
:102D40004DF22A10FEF730F9F2214DF22B10FEF76A
:102D50002BF902214DF22C10FEF726F9FE214DF23F
:102D60002D10FEF721F903214DF22E10FEF71CF96C
:102D700010214DF22F10FEF717F903214DF23010FC
:102D8000FEF712F933214DF23110FEF70DF9032150
:102D90004DF23210FEF708F96D214DF23310FEF7B7
:102DA00003F900214FF45240FEF7FEF833214DF2B3
:102DB0000120FEF7F9F800214DF20220FEF7F4F8A9
:102DC00034214DF20320FEF7EFF800214DF20420EC
:102DD000FEF7EAF83A214DF20520FEF7E5F800216A
:102DE0004DF20620FEF7E0F84A214DF20720FEF7EB
:102DF000DBF800214DF20820FEF7D6F85C214DF2F9
:102E00000920FEF7D1F800214DF20A20FEF7CCF898
:102E100081214DF20B20FEF7C7F800214DF20C2066
:102E2000FEF7C2F8A6214DF20D20FEF7BDF80021F5
:102E30004DF20E20FEF7B8F8E5214DF20F20FEF717
:102E4000B3F801214DF21020FEF7AEF813214DF238
:102E50001120FEF7A9F801214DF21220FEF7A4F887
:102E600054214DF21320FEF79FF801214DF214205A
:102E7000FEF79AF882214DF21520FEF795F8012110
:102E80004DF21620FEF790F8CA214DF21720FEF7FA
:102E90008BF802214DF21820FEF786F800214DF242
:102EA0001920FEF781F802214DF21A20FEF77CF876
:102EB00001214DF21B20FEF777F802214DF21C2074
:102EC000FEF772F834214DF21D20FEF76DF8022155
:102ED0004DF21E20FEF768F867214DF21F20FEF725
:102EE00063F802214DF22020FEF75EF884214DF2B6
:102EF0002120FEF759F802214DF22220FEF754F866
:102F0000A4214DF22320FEF74FF802214DF2242098
:102F1000FEF74AF8B7214DF22520FEF745F80221C9
:102F20004DF22620FEF740F8CF214DF22720FEF784
:102F30003BF802214DF22820FEF736F8DE214DF253
:102F40002920FEF731F802214DF22A20FEF72CF855
:102F5000F2214DF22B20FEF727F802214DF22C2012
:102F6000FEF722F8FE214DF22D20FEF71DF8032179
:102F70004DF22E20FEF718F810214DF22F20FEF70B
:102F800013F803214DF23020FEF70EF833214DF2F5
:102F90003120FEF709F803214DF23220FEF704F844
:102FA0006D214DF23320FDF7FFFF00214FF4534018
:102FB000FDF7FAFF33214DF20130FDF7F5FF002157
:102FC0004DF20230FDF7F0FF34214DF20330FDF7F2
:102FD000EBFF00214DF20430FDF7E6FF3A214DF200
:102FE0000530FDF7E1FF00214DF20630FDF7DCFF73
:102FF0004A214DF20730FDF7D7FF00214DF208308E
:10300000FDF7D2FF5C214DF20930FDF7CDFF002125
:103010004DF20A30FDF7C8FF81214DF20B30FDF76C
:10302000C3FF00214DF20C30FDF7BEFFA6214DF28B
:103030000D30FDF7B9FF00214DF20E30FDF7B4FF62
:10304000E5214DF20F30FDF7AFFF01214DF21030B9
:10305000FDF7AAFF13214DF21130FDF7A5FF012165
:103060004DF21230FDF7A0FF54214DF21330FDF761
:103070009BFF01214DF21430FDF796FF82214DF2A6
:103080001530FDF791FF01214DF21630FDF78CFF51
:10309000CA214DF21730FDF787FF02214DF218309B
:1030A000FDF782FF00214DF21930FDF77DFF02216F
:1030B0004DF21A30FDF778FF01214DF21B30FDF77C
:1030C00073FF02214DF21C30FDF76EFF34214DF2EB
:1030D0001D30FDF769FF02214DF21E30FDF764FF40
:1030E00067214DF21F30FDF75FFF02214DF22030C6
:1030F000FDF75AFF84214DF22130FDF755FF0221E3
:103100004DF22230FDF750FFA4214DF22330FDF7A0
:103110004BFF02214DF22430FDF746FFB7214DF25F
:103120002530FDF741FF02214DF22630FDF73CFF2F
:10313000CF214DF22730FDF737FF02214DF2283025
:10314000FDF732FFDE214DF22930FDF72DFF022180
:103150004DF22A30FDF728FFF2214DF22B30FDF71A
:1031600023FF02214DF22C30FDF71EFFFE214DF210
:103170002D30FDF719FF03214DF22E30FDF714FF1E
:1031800010214DF22F30FDF70FFF03214DF23030AB
:10319000FDF70AFF33214DF23130FDF705FF032122
:1031A0004DF23230FDF700FF6D214DF23330FDF767
:1031B000FBFE00214FF45440FDF7F6FE33214DF2A3
:1031C0000140FDF7F1FE00214DF20240FDF7ECFE5B
:1031D00034214DF20340FDF7E7FE00214DF204409B
:1031E000FDF7E2FE3A214DF20540FDF7DDFE00213C
:1031F0004DF20640FDF7D8FE4A214DF20740FDF79B
:10320000D3FE00214DF20840FDF7CEFE5C214DF2C9
:103210000940FDF7C9FE00214DF20A40FDF7C4FE4A
:1032200081214DF20B40FDF7BFFE00214DF20C4015
:10323000FDF7BAFEA6214DF20D40FDF7B5FE0021C7
:103240004DF20E40FDF7B0FEE5214DF20F40FDF7C7
:10325000ABFE01214DF21040FDF7A6FE13214DF209
:103260001140FDF7A1FE01214DF21240FDF79CFE39
:1032700054214DF21340FDF797FE01214DF2144009
:10328000FDF792FE82214DF21540FDF78DFE0121E2
:103290004DF21640FDF788FECA214DF21740FDF7AA
:1032A00083FE02214DF21840FDF77EFE00214DF213
:1032B0001940FDF779FE02214DF21A40FDF774FE28
:1032C00001214DF21B40FDF76FFE02214DF21C4023
:1032D000FDF76AFE34214DF21D40FDF765FE022127
:1032E0004DF21E40FDF760FE67214DF21F40FDF7D5
:1032F0005BFE02214DF22040FDF756FE84214DF287
:103300002140FDF751FE02214DF22240FDF74CFE17
:10331000A4214DF22340FDF747FE02214DF2244047
:10332000FDF742FEB7214DF22540FDF73DFE02219B
:103330004DF22640FDF738FECF214DF22740FDF734
:1033400033FE02214DF22840FDF72EFEDE214DF224
:103350002940FDF729FE02214DF22A40FDF724FE07
:10336000F2214DF22B40FDF71FFE02214DF22C40C1
:10337000FDF71AFEFE214DF22D40FDF715FE03214B
:103380004DF22E40FDF710FE10214DF22F40FDF7BB
:103390000BFE03214DF23040FDF706FE33214DF2C6
:1033A0003140FDF701FE03214DF23240FDF7FCFDF7
:1033B0006D214DF23340FDF7F7FD00214FF45540EC
:1033C000FDF7F2FD33214DF20150FDF7EDFD002137
:1033D0004DF20250FDF7E8FD34214DF20350FDF7A8
:1033E000E3FD00214DF20450FDF7DEFD3A214DF2E0
:1033F0000550FDF7D9FD00214DF20650FDF7D4FD33
:103400004A214DF20750FDF7CFFD00214DF2085043
:10341000FDF7CAFD5C214DF20950FDF7C5FD002105
:103420004DF20A50FDF7C0FD81214DF20B50FDF722
:10343000BBFD00214DF20C50FDF7B6FDA6214DF26B
:103440000D50FDF7B1FD00214DF20E50FDF7ACFD22
:10345000E5214DF20F50FDF7A7FD01214DF210506F
:10346000FDF7A2FD13214DF21150FDF79DFD012145
:103470004DF21250FDF798FD54214DF21350FDF717
:1034800093FD01214DF21450FDF78EFD82214DF286
:103490001550FDF789FD01214DF21650FDF784FD11
:1034A000CA214DF21750FDF77FFD02214DF2185051
:1034B000FDF77AFD00214DF21950FDF775FD02214F
:1034C0004DF21A50FDF770FD01214DF21B50FDF732
:1034D0006BFD02214DF21C50FDF766FD34214DF2CB
:1034E0001D50FDF761FD02214DF21E50FDF75CFD00
:1034F00067214DF21F50FDF757FD02214DF220507C
:10350000FDF752FD84214DF22150FDF74DFD0221C2
:103510004DF22250FDF748FDA4214DF22350FDF756
:1035200043FD02214DF22450FDF73EFDB7214DF23F
:103530002550FDF739FD02214DF22650FDF734FDEF
:10354000CF214DF22750FDF72FFD02214DF22850DB
:10355000FDF72AFDDE214DF22950FDF725FD022160
:103560004DF22A50FDF720FDF2214DF22B50FDF7D0
:103570001BFD02214DF22C50FDF716FDFE214DF2F0
:103580002D50FDF711FD03214DF22E50FDF70CFDDE
:1035900010214DF22F50FDF707FD03214DF2305061
:1035A000FDF702FD33214DF23150FDF7FDFC032103
:1035B0004DF23250FDF7F8FC6D214DF23350FDF71E
:1035C000F3FC00214FF45640FDF7EEFC33214DF2A1
:1035D0000160FDF7E9FC00214DF20260FDF7E4FC1B
:1035E00034214DF20360FDF7DFFC00214DF2046051
:1035F000FDF7DAFC3A214DF20560FDF7D5FC00211C
:103600004DF20660FDF7D0FC4A214DF20760FDF750
:10361000CBFC00214DF20860FDF7C6FC5C214DF2A9
:103620000960FDF7C1FC00214DF20A60FDF7BCFC0A
:1036300081214DF20B60FDF7B7FC00214DF20C60CB
:10364000FDF7B2FCA6214DF20D60FDF7ADFC0021A7
:103650004DF20E60FDF7A8FCE5214DF20F60FDF77D
:10366000A3FC01214DF21060FDF79EFC13214DF2E9
:103670001160FDF799FC01214DF21260FDF794FCF9
:1036800054214DF21360FDF78FFC01214DF21460BF
:10369000FDF78AFC82214DF21560FDF785FC0121C2
:1036A0004DF21660FDF780FCCA214DF21760FDF760
:1036B0007BFC02214DF21860FDF776FC00214DF2F3
:1036C0001960FDF771FC02214DF21A60FDF76CFCE8
:1036D00001214DF21B60FDF767FC02214DF21C60D9
:1036E000FDF762FC34214DF21D60FDF75DFC022107
:1036F0004DF21E60FDF758FC67214DF21F60FDF78B
:1037000053FC02214DF22060FDF74EFC84214DF266
:103710002160FDF749FC02214DF22260FDF744FCD7
:10372000A4214DF22360FDF73FFC02214DF22460FD
:10373000FDF73AFCB7214DF22560FDF735FC02217B
:103740004DF22660FDF730FCCF214DF22760FDF7EA
:103750002BFC02214DF22860FDF726FCDE214DF204
:103760002960FDF721FC02214DF22A60FDF71CFCC7
:10377000F2214DF22B60FDF717FC02214DF22C6077
:10378000FDF712FCFE214DF22D60FDF70DFC03212B
:103790004DF22E60FDF708FC10214DF22F60FDF771
:1037A00003FC03214DF23060FDF7FEFB33214DF2A7
:1037B0003160FDF7F9FB03214DF23260FDF7F4FBB8
:1037C0006D214DF23360FDF7EFFB55214FF4704052
:1037D000FDF7EAFBAA214FF20100FDF7E5FB5221BC
:1037E0004FF20200FDF7E0FB08214FF20300FDF766
:1037F000DBFB00214FF20400FDF7D6FBCC214FF498
:103800003140FDF7D1FB00214BF20110FDF7CCFB5D
:1038100005214FF43640FDF7C7FB70214FF43740C8
:10382000FDF7C2FB70214BF20170FDF7BDFB0121DA
:103830004FF43840FDF7B8FB03214BF60100FDF7CC
:10384000B3FB03214BF60200FDF7AEFB03214BF661
:103850000300FDF7A9FB02214FF43C40FDF7A4FB58
:1038600000214BF60140FDF79FFB00214BF6024083
:10387000FDF79AFBD0214FF44940FDF795FB02215B
:103880004CF60110FDF790FB50214CF60210FDF7AD
:103890008BFB50214CF60310FDF786FB50214CF6B4
:1038A0000410FDF781FB00214FF45450FDF77CFB21
:1038B00055214FF46850FDF777FB4FF48850FDF722
:1038C00041FB7820FDF724FF4FF42450FDF73AFB2D
:1038D000FDF763BFE220FDF735FB1D20FDF744FB3C
:1038E0000220FDF741FB0420FDF73EFB6420FDF7BD
:1038F0000FFFE020FDF726FB0120FDF735FB0A2036
:1039000000F0E6FDE020FDF71DFB0320FDF72CFB9A
:103910000C2000F0DDFD0120FDF714FB0A2000F073
:10392000D7FDE620FDF70EFB2F20FDF71DFBFF2046
:10393000FDF71AFBFF20FDF717FBB020FDF702FB98
:103940002020FDF711FB0020FDF70EFB0320FDF703
:103950000BFB40F21F30FDF707FB0120FDF704FBD6
:1039600040F2DF10FDF700FB0020FDF7FDFAB42068
:10397000FDF7E8FA0420FDF7F7FA40F21F40FDF7E3
:10398000F3FA0020FDF7F0FA2E20FDF7EDFA002003
:10399000FDF7EAFA0020FDF7E7FA0020FDF7E4FA68
:1039A0000020FDF7E1FAB620FDF7CCFA0220FDF782
:1039B000DBFA4FF40370FDF7D7FA0020FDF7D4FAD5
:1039C0001720FDF7D1FA1520FDF7CEFA0020FDF7FC
:1039D000CBFA0020FDF7C8FAF020FDF7B3FA032078
:1039E000FDF7C2FA2920FDF7ADFAD020FDF7AAFABB
:1039F0000020FDF7B9FABE20FDF7A4FA0520FDF777
:103A0000B3FAFE20FDF7B0FA0120FDF7ADFA002071
:103A1000FDF7AAFA0020FDF7A7FA0020FDF7A4FAA7
:103A2000B820FDF78FFA0320FDF79EFA0120FDF77D
:103A30009BFABA20FDF786FA0120FDF795FA64207B
:103A4000FDF7D2FCFDF7A9BE7047FEE7FEE7FEE7F3
:103A5000FEE770477047704708B500F027FD08BDC6
:103A600082B0002100910B4B5A6C42F480425A64A0
:103A70005A6C02F480420092009A01911A6C42F052
:103A800080521A641B6C03F080530193019B02B0B7
:103A9000704700BF0038024070B40C6850F8243002
:103AA000134E1E404A688D6842EA0503CA681343F4
:103AB0000A6913434A6913438A691343CA69134362
:103AC0000A6A13434A6A13438A6A1343CA6A13434E
:103AD000CA6B13430A6B13433343082D04D040F8D9
:103AE0002430002070BC704743F04003F7E700BF6C
:103AF0008000F0FF30B4013250F8224004F040441E
:103B00000B684D6843EA05138D6843EA0523CD68C9
:103B100043EA05430D69013D43EA05534D69023D02
:103B200043EA056389690B43234340F822300020B0
:103B300030BC7047B3F5804F05D06FF0704340F84C
:103B400022300020704730B450F82230094C1C401D
:103B50000B684D6843EA05138D6843EA0523CD6879
:103B600043EA054389690B43234340F82230002090
:103B700030BC70470000F0CF002800F0D98170B54C
:103B800082B00446036813F0010F3BD0A64B9B683C
:103B900003F00C03042B2CD0A34B9B6803F00C0305
:103BA000082B21D06368B3F5803F4FD0B3F5A02F29
:103BB00052D09D4B1A6822F480321A601A6822F49F
:103BC00080221A606368002B50D000F07BFC054611
:103BD000954B1B6813F4003F14D100F073FC401B9D
:103BE0006428F5D90320AAE18F4B5B6813F4800F9A
:103BF000D8D08D4B1B6813F4003F03D06368002BB3
:103C000000F09881236813F0020F54D0864B9B6814
:103C100013F00C0F3ED0844B9B6803F00C03082B71
:103C200033D0E368002B67D0804B01221A6000F08C
:103C300049FC05467C4B1B6813F0020F53D100F082
:103C400041FC401B0228F5D9032078E1764A13682D
:103C500043F480331360B5E7734B1A6842F4802253
:103C60001A601A6842F480321A60ABE700F02AFC4E
:103C700005466D4B1B6813F4003FC3D000F022FCD7
:103C8000401B6428F5D9032059E1674B5B6813F4A6
:103C9000800FC6D1644B1B6813F0020F03D0E3689A
:103CA000012B40F04981604A136823F0F803216931
:103CB00043EAC1031360236813F0080F40D063691F
:103CC00063B35B4B01221A6000F0FCFB0546564BC8
:103CD0005B6F13F0020F33D100F0F4FB401B02289E
:103CE000F5D903202BE1504A136823F0F80321692A
:103CF00043EAC1031360DEE74C4B00221A6000F078
:103D0000E1FB0546484B1B6813F0020FD3D000F0CF
:103D1000D9FB401B0228F5D9032010E1444B0022B7
:103D20001A6000F0CFFB05463F4B5B6F13F0020FAC
:103D300006D000F0C7FB401B0228F5D90320FEE0A7
:103D4000236813F0040F78D0374B1B6C13F0805F9F
:103D50000DD100230193344B1A6C42F080521A6447
:103D60001B6C03F080530193019B012500E00025AB
:103D7000304B1B6813F4807F21D0A368012B32D015
:103D8000052B36D0284B1A6F22F001021A671A6FE2
:103D900022F004021A67A368002B34D000F092FBD3
:103DA0000646214B1B6F13F0020F45D100F08AFB32
:103DB000801B41F288339842F3D90320BFE01D4AAB
:103DC000136843F48073136000F07CFB0646194BC4
:103DD0001B6813F4807FD0D100F074FB801B022895
:103DE000F5D90320ABE0104A136F43F001031367CA
:103DF000D1E70D4B1A6F42F004021A671A6F42F0B6
:103E000001021A67C7E700F05DFB0646064B1B6F11
:103E100013F0020F10D000F055FB801B41F28833E5
:103E20009842F3D903208AE000380240000047425C
:103E3000800E474200700040E5B9A369002B7DD099
:103E4000464A926802F00C02082A51D0022B17D081
:103E5000434B00221A6000F035FB04463F4B1B68C1
:103E600013F0007F42D000F02DFB001B0228F5D993
:103E7000032064E0394A136C23F080531364DCE7B9
:103E8000374B00221A6000F01DFB0546334B1B68C0
:103E900013F0007F06D000F015FB401B0228F5D977
:103EA00003204CE0E369226A1343626A43EA821307
:103EB000A26A5208013A43EA0243E26A43EA026311
:103EC000264A5360264B01221A6000F0FBFA044692
:103ED000224B1B6813F0007F06D100F0F3FA001BA1
:103EE0000228F5D903202AE0002028E0002026E05F
:103EF000012B26D0194B9B6803F48001E2699142A3
:103F000021D103F03F02216A8A421ED1616A47F63D
:103F1000C0721A408A421AD103F44032A16A8A421E
:103F200017D103F07063E26A934214D1002006E0D7
:103F300001207047012002E0012000E0002002B0D3
:103F400070BD0120FBE70120F9E70120F7E7012020
:103F5000F5E70120F3E70120F1E700BF0038024058
:103F600060004742F8B52F4B9B6803F00C03042B0D
:103F700053D0082B53D12B4B5A6802F03F025B6899
:103F800013F4800F28D0274B5B68C3F388135801C4
:103F90000021C01A61F100018E0146EA9066870196
:103FA0003C1A66EB0105E90041EA5471E000C018D3
:103FB00041F100014B0243EAD05344022046194626
:103FC0000023FCF75BFC174B5B68C3F30143013331
:103FD0005B00B0FBF3F023E0124B5B68C3F3881384
:103FE0005C010025E41A65F10005AE0146EA94661D
:103FF000A701381B66EB0501CC0044EA5074C500EC
:10400000E81844F100018B0243EA905384022046F1
:1040100019460023FCF732FCD5E7034800E00348CB
:10402000F8BD00BF0038024000127A000024F400FE
:10403000002800F09B8070B50D4604464F4B1B686E
:1040400003F00F038B4208D2CBB24C4A13701368B3
:1040500003F00F038B4240F08B80236813F0020FB4
:1040600017D013F0040F04D0454A936843F4E0538B
:104070009360236813F0080F04D0414A936843F417
:10408000604393603E4A936823F0F003A1680B43BA
:104090009360236813F0010F32D06368012B21D0A5
:1040A0009A1E012A25D9364A126812F0020F61D0F1
:1040B00033498A6822F0030213438B6000F002FA4E
:1040C00006462F4B9B6803F00C036268B3EB820F2C
:1040D00016D000F0F7F9801B41F288339842F0D9EE
:1040E000032042E0264A126812F4003FE0D101208A
:1040F0003BE0234A126812F0007FD9D1012034E05E
:104100001E4B1B6803F00F03AB4207D9EAB21B4BEF
:104110001A701B6803F00F03AB422DD1236813F014
:10412000040F06D0164A936823F4E053E1680B436A
:104130009360236813F0080F07D0114A936823F4A3
:104140006043216943EAC1039360FFF70BFF0C4B07
:104150009B68C3F303130B4AD35CD8400A4B186027
:104160000A4B186800F062F9002070BD012070470A
:104170000120FAE70120F8E70120F6E7003C0240C1
:104180000038024090A00008100000200C00002021
:10419000014B1868704700BF1000002000230F2B50
:1041A00000F2D980F0B583B039E0072200E00022A8
:1041B000B2403A430234684E46F82420674A1468F5
:1041C000EA4324EA05064F6817F4803F01D045EA28
:1041D0000406624C2660646802EA04064F6817F41D
:1041E000003F01D045EA04065C4C6660A46802EA20
:1041F00004064F6817F4801F01D045EA0406574CA7
:10420000A660E46822404E6816F4001F01D045EA1B
:104210000402524CE26001330F2B00F29A8001221B
:104220009A400C6804EA020532EA0404F3D14C68AF
:10423000661E012E03D9112C01D0122C12D18668D2
:104240005F000324BC4026EA0406CC68BC4034432B
:104250008460466826EA02064C68C4F300129A405D
:1042600032434260C7685E000324B440E24327EA59
:1042700004078C68B4403C43C4604C68022C01D0F5
:10428000122C13D1DF08083750F827E003F0070499
:104290004FEA840C0F2404FA0CF42EEA040E0C6985
:1042A00004FA0CF444EA0E0440F827400468144071
:1042B0004A6802F00302B240224302604A6812F0E8
:1042C000805FA8D000220192254A546C44F48044B7
:1042D0005464526C02F480420192019A9C08A61C1C
:1042E0001D4A52F8267003F0030296000F22B240D6
:1042F00027EA02071B4A90423FF459AF02F5806259
:1043000090421AD002F58062904218D002F5806285
:10431000904216D002F58062904214D002F580627D
:10432000904212D002F58062904210D002F5806275
:1043300090423FF43AAF08223AE7012238E70222DE
:1043400036E7032234E7042232E7052230E706226B
:104350002EE703B0F0BD704700380140003C01403B
:1043600000380240000002400AB181617047090430
:1043700081617047074AD36823F4E0631B041B0C78
:10438000000200F4E060034343F0BF6343F40033F2
:10439000D360704700ED00E030B4174BDB68C3F327
:1043A0000223C3F10704042C28BF04241D1D062D7D
:1043B00018D9033B4FF0FF3505FA04F421EA040154
:1043C000994005FA03F322EA0303194300280BDBA3
:1043D0000901C9B200F1604000F5614080F80013A6
:1043E00030BC70470023E5E700F00F000901C9B2B7
:1043F000024B1954F4E700BF00ED00E014ED00E0BB
:104400000138B0F1807F0AD2064B5860064AF0218D
:1044100082F823100020986007221A60704701205C
:10442000704700BF10E000E000ED00E010B504466A
:104430000E4B18784FF47A73B3FBF0F30C4A106804
:10444000B0FBF3F0FFF7DCFF68B90F2C01D90120B6
:104450000AE0002221464FF0FF30FFF79DFF054B99
:104460001C60002000E0012010BD00BF08000020FB
:10447000100000200C00002008B50B4B1A6842F415
:1044800000721A601A6842F480621A601A6842F474
:1044900080721A600320FFF76DFF0020FFF7C6FF50
:1044A000FFF7DEFA002008BD003C0240034A116815
:1044B000034B1B780B441360704700BF04010020BE
:1044C00008000020014B1868704700BF040100205D
:1044D00038B50446FFF7F6FF0546B4F1FF3F02D0BA
:1044E000044B1B781C44FFF7EDFF401BA042FAD39E
:1044F00038BD00BF0800002028B370B50E46154631
:10450000044690F84930CBB1214651F8080BFFF72B
:10451000C3FAA26831462068FFF7ECFA236BA26861
:1045200029466068FFF706FB2268A16852F821302F
:1045300043F0010342F82130002070BD80F848307C
:10454000FCF7FCFCE0E7012070470000054BD3F8C6
:10455000882042F47002C3F888204FF000629A600D
:10456000704700BF00ED00E0DFF834D0002103E029
:104570000C4B5B58435004310B480C4B42189A4289
:10458000F6D30B4A02E0002342F8043B094B9A425F
:10459000F9D3FFF7DBFF00F011F8FCF737FB7047AA
:1045A0000000022048A10008000000207800002040
:1045B0007800002018010020FEE7000070B50D4DC6
:1045C0000D4C641BA4100026A64209D10B4D0C4CC7
:1045D00001F086F9641BA4100026A64205D170BD27
:1045E00055F8043B98470136EEE755F8043B9847E9
:1045F0000136F2E740A1000840A1000840A10008F0
:1046000044A1000802440346934200D1704703F8D6
:10461000011BF9E70FB40A4B13B51C6824B1A36959
:1046200013B9204600F086F805AB049AA1680193FF
:10463000204600F0FFFA02B0BDE8104004B0704719
:10464000140000200EB400B59CB01DAB0290069083
:104650006FF00041094807910491094953F8042B70
:1046600005910068019302A900F0BAF9029B0022AB
:104670001A701CB05DF804EB03B070471400002002
:104680000802FFFF002310B50446C0E90033C0E96B
:104690000433836081814366C281836119460822A5
:1046A0005C30FFF7AFFF054B6362054BA362054B20
:1046B000E362054B2462236310BD00BFDD51000897
:1046C000FF510008375200085B520008014900F012
:1046D000AFB800BF3555000870B54A1E6825554370
:1046E0000E4605F1740100F0C5F8044640B1002102
:1046F000C0E900160C30A06005F16802FFF782FFE8
:10470000204670BD014800F0B3B800BF1001002082
:10471000014800F0AEB800BF10010020014800F0D1
:10472000A7B800BF0B010020014800F0A2B800BFED
:104730000B01002010B50446FFF7F0FFA3691BB181
:10474000BDE81040FFF7F0BFC4E912332365134BF7
:10475000134A1B68A262A34204BF0123A36120463F
:1047600000F020F86060204600F01CF8A0602046B1
:1047700000F018F80022E06004216068FFF782FF73
:10478000A06801220921FFF77DFFE06802221221C3
:10479000FFF778FF0123A361D2E700BFA0A00008C4
:1047A000CD460008F8B50746FFF7ACFF1E4B1E6864
:1047B000B36913B93046FFF7BDFF4836D6E9013477
:1047C000013B03D533680BB33668F7E7B4F90C50F7
:1047D000D5B9164BE36004F15800656600F047F860
:1047E000FFF796FFC4E90155C4E904552560A561AA
:1047F0000822294604F15C00FFF704FFC4E90D55C7
:10480000C4E912552046F8BD6834D9E7042138467A
:10481000FFF762FF044630600028D5D1FFF778FF2C
:104820000C233B60EEE700BFA0A000080100FFFFE3
:104830002DE9F8430646884600F148040027D4E9EC
:104840000195B9F1010905D52468002CF7D1384646
:10485000BDE8F883AB89012B07D9B5F90E300133D8
:1048600003D029463046C04707436835E9E770471B
:1048700070477047F8B5CD1C25F0030508350C2DA1
:1048800038BF0C25002D064601DBA94203D90C23B5
:1048900033600020F8BD00F027FF21490A68144664
:1048A0009CB9204F3B6823B92146304600F086FC76
:1048B00038602946304600F081FC431C23D10C238C
:1048C0003360304600F016FFE3E723685B1B17D424
:1048D0000B2B03D923601C44256004E06368A242CB
:1048E0000CBF0B605360304600F004FF04F10B0076
:1048F000231D20F00700C21ACCD01B1AA350C9E711
:1049000022466468CCE7C41C24F00304A042E3D030
:10491000211A304600F052FC0130DDD1CFE700BF54
:10492000980000209C0000202DE9F0478E689E42F0
:1049300082460C4690461F4638D88A8912F4906FFA
:1049400032D025680969A5EB0109656905EB4505C4
:1049500005EBD57501334B446D109D4238BF1D46A4
:10496000530531D52946FFF785FF064650B90C237C
:10497000CAF80030A38943F04003A3814FF0FF3011
:10498000BDE8F08721694A4600F086FEA38923F43A
:10499000906343F08003A381266165614E44A5EBDB
:1049A00009052660A5603E46BE4200D93E46324615
:1049B0002068414600F07EFEA36822689B1B3244BB
:1049C000A36022600020DBE72A4600F0E9FE0646ED
:1049D0000028E1D12169504600F092FEC7E70000AF
:1049E0002DE9F04F98468B891B069DB007460D4672
:1049F00014460ED50B6963B94021FFF73BFF2860D1
:104A0000286120B90C233B604FF0FF30D1E04023F8
:104A10006B610023099320238DF82930CDF80C8099
:104A20003023DFF8A8818DF82A304FF001092346A2
:104A30009A4613F8012B0AB1252AF9D1BAEB040BD7
:104A40000BD05B46224629463846FFF76DFF013002
:104A500000F0AA80099A5A4409929AF80030002B73
:104A600000F0A28000234FF0FF32CDE905230AF1C8
:104A7000010A049307938DF853301A935446052284
:104A800014F8011B5148FBF7A3FB049AD8B9D006D0
:104A900044BF20238DF85330110744BF2B238DF8DA
:104AA00053309AF800302A2B15D0079A544600202C
:104AB0004FF00A0C214611F8013B303B092B4ED92F
:104AC000B0B1079214E0A0EB080309FA03F3134313
:104AD0000493A246D2E7039B191D1B680391002B88
:104AE000BBBF5B4242F0020207930793B8BF049238
:104AF00023782E2B0CD163782A2B35D1039B1A1DDA
:104B00001B680392002BB8BF4FF0FF3302340593AC
:104B1000DFF8C8A0217803225046FBF759FB40B1CB
:104B20004023A0EB0A0003FA00F0049B0343013486
:104B3000049314F8011B26488DF828100622FBF771
:104B400047FB002838D0234B1BBB039B073323F0C4
:104B5000070308330393099B3344099367E70CFB6E
:104B600002320C460120A5E70023013405931946C3
:104B70004FF00A0C204610F8012B303A092A03D9CD
:104B8000002BC5D00591C3E70CFB0121044601238E
:104B9000F0E703AB00932A460F4B04A93846AFF366
:104BA0000080421C0646D6D1AB895B063FF52CAF90
:104BB00009981DB0BDE8F08F03AB00932A46064B61
:104BC00004A9384600F0D4F9EBE700BF04A10008BF
:104BD0000EA1000800000000294900080AA10008F1
:104BE0009368013B002B10B4936008DA9469A342E8
:104BF00001DB0A2903D15DF8044B00F033BB1368D5
:104C0000581C1060197008465DF8044B7047F8B5E1
:104C100006460F461446D518AC4201D1002007E0E5
:104C200014F8011B3A463046FFF7DAFF431CF3D174
:104C3000F8BD00002DE9F04F0D469DB01446984692
:104C4000064618B183690BB9FFF774FD894B9D4285
:104C50001BD175686B6ED90705D4AB899A0502D450
:104C6000A86DFFF705FEAB891B0701D52B69EBB9D2
:104C70002946304600F05AFBC0B16B6EDC070ED5FA
:104C80004FF0FF301DB0BDE8F08F7B4B9D4201D14E
:104C9000B568DFE7794B9D4208BFF568DAE7AB8975
:104CA0009805EDD4A86DFFF7E4FDE9E7002309932B
:104CB00020238DF82930CDF80C803023DFF8C08117
:104CC0008DF82A304FF0010923469A4613F8012B3C
:104CD0000AB1252AF9D1BAEB040B0BD05B46224668
:104CE00029463046FFF793FF013000F0AA80099A69
:104CF0005A4409929AF80030002B00F0A280002359
:104D00004FF0FF32CDE905230AF1010A049307931E
:104D10008DF853301A935446052214F8011B584855
:104D2000FBF756FA049AD8B9D10644BF20238DF870
:104D30005330130744BF2B238DF853309AF80030BB
:104D40002A2B15D0079A544600204FF00A0C214612
:104D500011F8013B303B092B4ED9B0B1079214E05A
:104D6000A0EB080309FA03F313430493A246D2E726
:104D7000039B191D1B680391002BBBBF5B4242F0D4
:104D8000020207930793B8BF049223782E2B0CD10D
:104D900063782A2B35D1039B1A1D1B680392002BC5
:104DA000B8BF4FF0FF3302340593DFF8E4A0217859
:104DB00003225046FBF70CFA40B14023A0EB0A0057
:104DC00003FA00F0049B03430134049314F8011B1D
:104DD0002C488DF828100622FBF7FAF900283FD05E
:104DE000294B1BBB039B073323F0070308330393B3
:104DF000099B3B44099367E70CFB02320C460120F8
:104E0000A5E700230134059319464FF00A0C20460C
:104E100010F8012B303A092A03D9002BC5D005918F
:104E2000C3E70CFB012104460123F0E703AB009329
:104E30002A46164B04A93046AFF300800746781C7B
:104E4000D6D16B6ED90705D4AB899A0502D4A86D6B
:104E5000FFF70FFDAB895B063FF512AF099811E72D
:104E600003AB00932A46094B04A9304600F080F8B2
:104E7000E4E700BFC4A00008E4A00008A4A0000864
:104E800004A100080EA10008000000000F4C00085B
:104E90000AA100082DE9F047164699468A680B6971
:104EA000DDF820809342B8BF1346336091F8432069
:104EB00007460C460AB1013333602368990642BFA6
:104EC000336802333360256815F0060506D104F116
:104ED000190AE36832689B1AAB4226DC94F8432037
:104EE000131E226818BF012392062BD404F143023B
:104EF00049463846C04701301ED02368E56832680D
:104F000003F00603042B08BFAD1AA36822690CBF87
:104F100025EAE57500259342C4BF9B1AED180026CB
:104F20001A34B5421AD1002008E0012352464946FE
:104F30003846C047013003D14FF0FF30BDE8F0875D
:104F40000135C6E7E1185A1C302081F8430022449D
:104F500094F8451082F843100233C7E70123224634
:104F600049463846C0470130E6D00136D9E700004F
:104F70002DE9FF470C469146277E0C99782F8046F5
:104F80009A4604F1430207D8622F0AD8002F00F096
:104F9000D880582F00F0A38004F1420684F84270B4
:104FA0003AE0A7F16303152BF6D801A050F823F0DF
:104FB000095000081D500008994F0008994F00083B
:104FC000994F0008994F00081D500008994F00089C
:104FD000994F0008994F0008994F0008295100087F
:104FE0004D5000080B510008994F0008994F0008D8
:104FF0004B510008994F00084D500008994F000888
:10500000994F0008135100080B681A1D1B680A60AD
:1050100004F1420684F842300123A3E025680868C1
:105020002E0600F104030AD505680B60002D03DA93
:105030002D236D4284F843305E480A2319E015F0B1
:10504000400F05680B6018BF2DB2EFE70B682568AD
:10505000181D0860280601D51D6802E06906FBD509
:105060001D8854486F2F0CBF08230A23002184F8A1
:1050700043106668A660002EA2BF216821F00401DB
:1050800021600DB9002E4DD01646B5FBF3F103FBA0
:105090001157C75D06F8017D2F46BB420D46F4D976
:1050A000082B0BD12368DF0708D523696168994273
:1050B000DEBF302306F8013C06F1FF36921B226169
:1050C000CDF800A04B4603AA21464046FFF7E2FE7A
:1050D00001304CD14FF0FF3004B0BDE8F0873548C7
:1050E00084F8457023680E681F0656F8045B0E604E
:1050F00014D5D90744BF43F0200323601DB92368AA
:1051000023F0200323601023B0E7236843F020033B
:1051100023607823284884F84530E3E75E0648BFDB
:10512000ADB2E6E71646BBE70B68266860691D1D51
:105130000D6035061B6801D5186002E07106FBD5CD
:105140001880002323611646BAE70B681A1D0A600F
:105150001E68626800213046FBF73AF808B1801BF0
:10516000606063682361002384F84330A8E7236903
:10517000324649464046D0470130ABD023689B07B2
:1051800013D4E068039B9842B8BF1846A4E70123F4
:10519000324649464046D04701309BD00135E3684E
:1051A00003995B1AAB42F2DCEBE7002504F1190628
:1051B000F5E700BF15A1000826A1000838B5064D87
:1051C0000023044608462B6000F074FB431C02D108
:1051D0002B6803B1236038BD1401002010B50C46C4
:1051E000B1F90E1000F002FB0028ABBF636DA3897C
:1051F0001B1823F48053ACBF6365A38110BD2DE958
:10520000F0411F468B89DB0505460C46164605D541
:10521000B1F90E100223002200F0C8F9A389B4F9F5
:105220000E1023F48053A38132463B462846BDE846
:10523000F04100F069B810B50C46B1F90E1000F05D
:10524000B5F9431CA38915BF606523F4805343F46B
:105250008053A38118BFA38110BDB1F90E1000F0D7
:10526000D3B80000F8B50E461446054618B1836958
:105270000BB9FFF75FFA214B9C422BD16C68A369F5
:10528000A360A3891A072FD523696BB3236920680C
:10529000C01A6369F6B28342374604DC21462846C9
:1052A00000F048F930BBA368013BA36023685A1C97
:1052B00022601E7063690130834204D0A389DB073A
:1052C00006D50A2E04D12146284600F033F988B9C4
:1052D0003846F8BD0A4B9C4201D1AC68CFE7094B78
:1052E0009C4208BFEC68CAE72146284600F01EF839
:1052F0000028CBD04FF0FF37EAE700BFC4A000087A
:10530000E4A00008A4A0000838B5074D04460846EC
:10531000114600222A601A4600F0DAFA431C02D134
:105320002B6803B1236038BD14010020324B70B5E7
:105330001D6806460C4625B1AB6913B92846FFF730
:10534000F9F92E4B9C420FD16C68A389B4F90C205B
:1053500019072CD4DD0611D40923336042F0400331
:10536000A3814FF0FF303EE0254B9C4201D1AC6859
:10537000EBE7244B9C4208BFEC68E6E7580712D5E0
:10538000616B41B104F14403994202D0304600F010
:10539000B7F900236363A38923F02403A3810023C7
:1053A000636023692360A38943F00803A381236911
:1053B0004BB9A38903F42073B3F5007F03D02146D2
:1053C000304600F029F9A089B4F90C2010F001034F
:1053D0000AD00023A36063695B42A361236943B9D8
:1053E00010F08000BAD170BD810758BF6369A36017
:1053F000F4E70020F7E700BF14000020C4A0000875
:10540000E4A00008A4A0000838B5064D0023044617
:1054100008462B6000F026FA431C02D12B6803B12A
:10542000236038BD140100208A892DE9F04105462A
:1054300010070C4658D44B68002B05DC0B6C002B76
:1054400002DC0020BDE8F081E66A002EF9D00023DE
:1054500012F480522F682B6032D0606DA3895A07F6
:1054600005D56368C01A636B0BB1236CC01A0023A7
:105470000246E66A216A2846B047431CA38906D142
:1054800029681D292CD82A4ACA40D60728D50022C7
:105490006260D9042269226004D5421C01D12B68C4
:1054A00003B96065616B2F600029CAD004F1440321
:1054B000994202D0284600F023F900206063C1E73A
:1054C000216A01232846B047411CC7D12B68002B15
:1054D000C4D01D2B01D0162B01D12F60B1E7A389B9
:1054E00043F04003A381ADE70F69002FA9D09307D4
:1054F0000E6808BF4B690F6018BF0023A6EB0708B2
:105500008B60B8F1000F9CDD216AA66A43463A46DB
:105510002846B047002806DCA38943F04003A38156
:105520004FF0FF308EE70744A8EB0008E9E700BF23
:105530000100402038B50B6905460C4613B900251B
:10554000284638BD18B183690BB9FFF7F3F8144B3F
:105550009C421BD16C68B4F90C30002BEFD0626E0A
:10556000D00704D4990502D4A06DFFF781F928462D
:105570002146FFF759FF636EDA070546E0D4A38999
:105580009B05DDD4A06DFFF774F9D9E7054B9C426C
:1055900001D1AC68DFE7044B9C4208BFEC68DAE756
:1055A000C4A00008E4A00008A4A0000838B5074D76
:1055B00004460846114600222A601A4600F06AF99D
:1055C000431C02D12B6803B1236038BD14010020B5
:1055D00070B50E46B1F90E10002996B014461D465E
:1055E00007DA00232B60B3891A0610D44FF48063C6
:1055F0000EE06A4600F00CF90028F2DB019A02F492
:105600007042A2F500535A425A412A60EEE7402305
:105610000020236016B070BD8B8973B59D070646C8
:105620000C4607D504F1470323602361012363611E
:1056300002B070BD01AB6A46FFF7CAFF009905468C
:105640003046FFF717F948B9B4F90C309A05EFD492
:1056500023F0030343F00203A381E3E70D4BB3629E
:10566000A389206043F08003A381009B6361019BB9
:1056700020615BB1B4F90E10304600F0DBF828B1C0
:10568000A38923F0030343F00103A381A089054309
:10569000A581CDE7CD4600080A44914200F1FF33D1
:1056A00000D1704710B511F8014B03F8014F91423A
:1056B000F9D110BD884210B501EB020402D9844231
:1056C000234607D8431EA14208D011F8012B03F846
:1056D000012FF8E7024401468A4200D110BD13F8B9
:1056E000014D02F8014DF7E70148FFF7C1B800BFCF
:1056F0000C0100200148FFF7BCB800BF0C010020DE
:1057000037B5002948D051F8043C0190002BA1F195
:105710000404B8BFE418FFF7E7FF204A01981368B4
:10572000154633B96360146003B0BDE83040FFF73D
:10573000E1BFA3420BD921686218934204BF1A68E3
:105740005B68636004BF521822602C60ECE71A4665
:105750005B680BB1A342FAD911685518A5420BD169
:10576000246821445418A3421160DDD11C685B6891
:10577000536021441160D7E702D90C230360D3E7BB
:10578000256861198B4204BF19685B68636004BFB8
:10579000491921605460C7E703B030BD980000206C
:1057A000F8B5074614460E4621B9BDE8F840114643
:1057B000FFF760B822B9FFF7A3FF25462846F8BDDA
:1057C00000F048F8A0420FD221463846FFF752F8C1
:1057D00005460028F2D031462246FFF75DFF3146EC
:1057E0003846FFF78DFFE9E73546E7E738B5074D5F
:1057F00004460846114600222A601A4600F052F874
:10580000431C02D12B6803B1236038BD1401002072
:1058100038B5074D00230446084611462B6000F0BA
:1058200029F8431C02D12B6803B1236038BD00BFA7
:105830001401002038B5064D0023044608462B60AD
:1058400000F020F8431C02D12B6803B1236038BD5F
:105850001401002051F8043C181F002BBCBF0B584A
:10586000C0187047024B58221A604FF0FF30704743
:1058700014010020024B58221A604FF0FF3070478D
:1058800014010020024B58221A600020704700BF0C
:1058900014010020024B58221A604FF0FF3070476D
:1058A00014010020024B58221A604FF0FF3070475D
:1058B00014010020044A05491368002B08BF0B4659
:1058C0001844106018467047A000002018010020FE
:1058D000024B58221A604FF0FF307047140100202D
:1058E000F8B500BFF8BC08BC9E467047F8B500BFCD
:0858F000F8BC08BC9E4670479D
:1058F8004C43442049443A253034580041706F6C79
:105908006C6F2053544D333246342F463700000015
:105918005446544C434420544553540041544F4D2D
:1059280040414C49454E54454B0000003230313619
:105938002F312F3600000000204C43442049443AC0
:1059480025780D0A0000000000000000000000009B
:1059580000000000000000003F40000000000000C0
:1059680000003000400030004000000009000BC07B
:105978003D000BC03D00090018C024407FE02240D4
:1059880031800000180024C01B000D8032400180C7
:1059980003801C4027401C80074000401000600026
:1059A80000000000000000000000000000001F8050
:1059B800204040200000402020401F8000000000C0
:1059C800090006001F80060009000000040004000A
:1059D8003F80040004000000001000600000000088
:1059E800000000000400040004000400040000009B
:1059F800000000400000000000000000002001C07E
:105A080006003800400000001F8020402040204051
:105A18001F800000000010403FC000400000000050
:105A280018C0214022402440184000001080204027
:105A3800244024401B80000002000D0011003FC0DC
:105A4800014000003C802440244024402380000082
:105A58001F80244024403440038000003000200090
:105A680027C03800200000001B8024402440244028
:105A78001B8000001C0022C0224022401F80000022
:105A880000000000084000000000000000000000C6
:105A98000460000000000000000004000A0011007B
:105AA80020804040090009000900090009000000A1
:105AB80000004040208011000A0004001800200067
:105AC80023402400180000001F8020402740294060
