:020000040800F2
:1000000000000220A1450008813A0008833A000858
:10001000853A0008873A0008893A00080000000085
:100020000000000000000000000000008B3A000803
:100030008D3A0008000000008F3A0008913A00084D
:10004000F1450008F1450008F1450008F1450008B8
:10005000F1450008F1450008F1450008F1450008A8
:10006000F1450008F1450008F1450008F145000898
:10007000F1450008F1450008F1450008F145000888
:10008000F1450008F1450008F1450008F145000878
:10009000F1450008F1450008F1450008F145000868
:1000A000F1450008F1450008F1450008F145000858
:1000B000F1450008F1450008F1450008F145000848
:1000C000F1450008F1450008F1450008F145000838
:1000D000F1450008F1450008F1450008F145000828
:1000E000F1450008F1450008F1450008F145000818
:1000F000F1450008F1450008F1450008F145000808
:10010000F1450008F1450008F1450008F1450008F7
:10011000F1450008F1450008F1450008F1450008E7
:10012000F1450008F1450008F1450008F1450008D7
:10013000F1450008F1450008F1450008F1450008C7
:10014000F1450008F1450008F1450008F1450008B7
:10015000F1450008F1450008F1450008F1450008A7
:10016000F1450008F1450008F1450008F145000897
:10017000F1450008F1450008F145000800000000C5
:08018000F1450008F1450008FB
:1001900010B5054C237833B9044B13B10448AFF3C1
:1001A00000800123237010BD7800002000000000B3
:1001B0001859000808B5034B1BB103490348AFF3B6
:1001C000008008BD000000007C00002018590008D5
:1001D00001F0FF01102A2BDB10F0070F08D010F8F8
:1001E000013B013A8B422DD010F0070F42B3F6D1FC
:1001F000F0B441EA012141EA014122F007047FF015
:1002000000070023F0E80256083C85EA010586EA6B
:10021000010685FA47F5A3FA87F586FA47F6A5FAA7
:1002200087F68EB9EED1F0BC01F0FF0102F00702B3
:1002300032B110F8013B013A83EA010313B1F8D15E
:100240000020704701387047002D06BF354603383F
:10025000073815F0010F07D1013015F4807F02BF78
:10026000013015F4C03F0130F0BC0138704700BFC9
:1002700070B54FF0FF0C4CF4E06C1CEA11541DBF3C
:100280001CEA135594EA0C0F95EA0C0F00F0DEF807
:100290002C4481EA030621EA4C5123EA4C5350EAEC
:1002A000013518BF52EA033541F4801143F480133D
:1002B00038D0A0FB02CE4FF00005E1FB02E506F0CE
:1002C0000042E0FB03E54FF00006E1FB03569CF023
:1002D000000F18BF4EF0010EA4F1FF04B6F5007F29
:1002E00064F5407404D25FEA4E0E6D4146EB06069B
:1002F00042EAC62141EA55514FEAC52040EA5E5024
:100300004FEACE2EB4F1FD0C88BFBCF5E06F1ED8CD
:10031000BEF1004F08BF5FEA500E50F1000041EB04
:10032000045170BD06F0004646EA010140EA0200B1
:1003300081EA0301B4EB5C04C2BFD4EB0C0541EAD3
:10034000045170BD41F480114FF0000E013C00F3E8
:10035000AB8014F1360FDEBF002001F0004170BD0C
:10036000C4F10004203C35DA0C341BDC04F1140425
:10037000C4F1200500FA05F320FA04F001FA05F2B1
:1003800040EA020001F0004221F0004110EBD3707E
:1003900021FA04F642EB06015EEA430E08BF20EAAA
:1003A000D37070BDC4F10C04C4F1200500FA04F34D
:1003B00020FA05F001FA04F240EA020001F00041DF
:1003C00010EBD37041F100015EEA430E08BF20EA52
:1003D000D37070BDC4F1200500FA05F24EEA020E9A
:1003E00020FA04F301FA05F243EA020321FA04F0C9
:1003F00001F0004121FA04F220EA020000EBD37080
:100400005EEA430E08BF20EAD37070BD94F0000F7F
:100410000FD101F00046400041EB010111F4801FB3
:1004200008BF013CF7D041EA060195F0000F18BF64
:10043000704703F00046520043EB030313F4801FA0
:1004400008BF013DF7D043EA0603704794EA0C0F5A
:100450000CEA135518BF95EA0C0F0CD050EA410670
:1004600018BF52EA4306D1D181EA030101F00041ED
:100470004FF0000070BD50EA410606BF1046194615
:1004800052EA430619D094EA0C0F02D150EA013621
:1004900013D195EA0C0F05D152EA03361CBF104662
:1004A00019460AD181EA030101F0004141F0FE4101
:1004B00041F470014FF0000070BD41F0FE4141F485
:1004C000780170BD81F0004102E000BF83F000437D
:1004D00030B54FEA41044FEA430594EA050F08BFDF
:1004E00090EA020F1FBF54EA000C55EA020C7FEAA3
:1004F000645C7FEA655C00F0E2804FEA5454D4EB20
:100500005555B8BF6D420CDD2C4480EA020281EAE9
:10051000030382EA000083EA010180EA020281EA21
:100520000303362D88BF30BD11F0004F4FEA013173
:100530004FF4801C4CEA113102D0404261EB410182
:1005400013F0004F4FEA03334CEA133302D0524208
:1005500063EB430394EA050F00F0A780A4F10104C4
:10056000D5F1200E0DDB02FA0EFC22FA05F28018FE
:1005700041F1000103FA0EF2801843FA05F35941E4
:100580000EE0A5F120050EF1200E012A03FA0EFC63
:1005900028BF4CF0020C43FA05F3C01851EBE3718D
:1005A00001F0004507D54FF0000EDCF1000C7EEBAA
:1005B00000006EEB0101B1F5801F1BD3B1F5001FE8
:1005C0000CD349085FEA30004FEA3C0C04F1010407
:1005D0004FEA445212F5800F80F09A80BCF1004F30
:1005E00008BF5FEA500C50F1000041EB045141EAB2
:1005F000050130BD5FEA4C0C404141EB0101013C7B
:1006000028BFB1F5801FE9D291F0000F04BF014669
:100610000020B1FA81F308BF2033A3F10B03B3F13B
:1006200020020CDA0C3208DD02F1140CC2F10C02CB
:1006300001FA0CF021FA02F10CE002F11402D8BF29
:10064000C2F1200C01FA02F120FA0CFCDCBF41EAF5
:100650000C019040E41AA2BF01EB0451294330BDC4
:100660006FEA04041F3C1CDA0C340EDC04F11404A1
:10067000C4F1200220FA04F001FA02F340EA030078
:1006800021FA04F345EA030130BDC4F10C04C4F1BE
:10069000200220FA02F001FA04F340EA030029469E
:1006A00030BD21FA04F0294630BD94F0000F83F4E8
:1006B000801306BF81F480110134013D4EE77FEACB
:1006C000645C18BF7FEA655C29D094EA050F08BF17
:1006D00090EA020F05D054EA000C04BF19461046F8
:1006E00030BD91EA030F1EBF0021002030BD5FEA3C
:1006F000545C05D14000494128BF41F0004130BD64
:1007000014F580043CBF01F5801130BD01F00045B7
:1007100045F0FE4141F470014FF0000030BD7FEA2A
:10072000645C1ABF194610467FEA655C1CBF0B4625
:10073000024650EA013406BF52EA033591EA030F3C
:1007400041F4002130BD00BF90F0000F04BF002134
:10075000704730B54FF4806404F132044FF0000567
:100760004FF0000150E700BF90F0000F04BF0021E0
:10077000704730B54FF4806404F1320410F0004546
:1007800048BF40424FF000013EE700BF42004FEA41
:10079000E2014FEA31014FEA02701FBF12F07F43BE
:1007A00093F07F4F81F06051704732F07F4208BF75
:1007B000704793F07F4F04BF41F40021704730B57C
:1007C0004FF4607401F0004521F000411CE700BFC8
:1007D00050EA010208BF704730B54FF000050AE04B
:1007E00050EA010208BF704730B511F0004502D54C
:1007F000404261EB41014FF4806404F132045FEA4E
:10080000915C3FF4D8AE4FF003025FEADC0C18BFF6
:1008100003325FEADC0C18BF033202EBDC02C2F1E8
:10082000200300FA03FC20FA02F001FA03FE40EA7A
:100830000E0021FA02F11444BDE600BF4A0011D2B5
:1008400012F5001211D20DD56FF47873B3EB62522A
:100850000ED44FEAC12343F0004343EA505323FA36
:1008600002F070474FF00000704750EA013002D1AB
:100870004FF0FF3070474FF00000704753B94AB94E
:10088000002908BF00281CBF4FF0FF314FF0FF3098
:1008900000F06EB9ADF1080C6DE904CE00F006F879
:1008A000DDF804E0DDE9022304B070472DE9F047EC
:1008B000089D04468C46002B40F083808A421746F0
:1008C00047D9B2FA82F242B1C2F1200024FA00F014
:1008D0009140974040EA010C94404FEA1748230C9E
:1008E000BCFBF8F61FFA87FE08FB16C143EA01437A
:1008F00006FB0EF1994209D9FB1806F1FF3080F092
:100900001981994240F21681023E3B445B1AA4B21F
:10091000B3FBF8F008FB103344EA034400FB0EFE7F
:10092000A64509D93C1900F1FF3380F00581A645A1
:1009300040F2028102383C4440EA0640A4EB0E0437
:1009400000261DB1D4400023C5E900433146BDE86F
:10095000F08702B9FFDEB2FA82F2002A50D1CB1B37
:100960004FEA174E1FFA87F80126B3FBFEFC210C55
:100970000EFB1C3341EA034108FB0CF38B4207D901
:1009800079180CF1FF3002D28B4200F2E9808446E4
:10099000C91AA3B2B1FBFEF00EFB101143EA0144E9
:1009A00008FB00F8A04507D93C1900F1FF3302D23B
:1009B000A04500F2D9801846A4EB080440EA0C4098
:1009C000BFE78B4209D9002D00F0B1800026C5E9B0
:1009D000000130463146BDE8F087B3FA83F6002EB9
:1009E0004AD18B4202D3824200F2B880841A61EB72
:1009F000030101208C46002DA8D0C5E9004CA5E7D5
:100A0000C2F1200320FA03F6974001FA02F04FEA00
:100A1000174ED9403043030CB1FBFEF61FFA87F89E
:100A20000EFB161143EA014306FB08F1994204FA52
:100A300002F409D9FB1806F1FF3C80F08D80994241
:100A400040F28A80023E3B445B1A81B2B3FBFEF067
:100A50000EFB103341EA034100FB08F38B4207D938
:100A6000791800F1FF3C73D28B4271D902383944B6
:100A7000CB1A40EA064678E7C6F1200C03FA06F4E2
:100A800022FA0CF31C4320FA0CF701FA06F34FEAA2
:100A9000144E21FA0CF11F433B0CB1FBFEF91FFA77
:100AA00084F80EFB191143EA014109FB08FA8A4553
:100AB00002FA06F200FA06F308D9611809F1FF30CC
:100AC00048D28A4546D9A9F102092144A1EB0A017D
:100AD000BFB2B1FBFEF00EFB101147EA014700FB6D
:100AE00008F8B84507D9E71900F1FF312ED2B8450B
:100AF0002CD90238274440EA0940A7EB0807A0FB9D
:100B000002894F45C64649461AD317D05DB1B3EBAB
:100B10000E0267EB010707FA0CFCF2404CEA0202F6
:100B2000F740C5E9002700263146BDE8F0872E468C
:100B300028460BE70646E9E61846FDE64345E5D2BA
:100B4000B8EB020E69EB04010138DFE70846D2E793
:100B500060468DE78146B9E7664675E730464AE765
:100B6000ACF1020C394413E702383C4424E700BFDF
:100B7000704700BF30B595B03022002108A803F0BF
:100B80005DFD002403940494059406940794019455
:100B90001C4B1A6C42F080521A641B6C03F0805399
:100BA0000193019B0294184B1A6842F480421A6028
:100BB0001B6803F480430293029B012308934FF4C4
:100BC0008033099302250E954FF480030F93082379
:100BD00010934FF4A873119312950423139308A84C
:100BE00002F0E6FF0F230393049505944FF4A053FE
:100BF00006934FF480530793052103A803F034FABA
:100C000015B030BD003802400070004030B587B0EC
:100C100003F04EFCFFF7AEFF00F0B2F800F06CF905
:100C200000F0A4FD4E4B4FF478421A604D4B9A8869
:100C30004D4903A803F022FD00243EE04FF6FF706B
:100C400000F0B2FC464B4FF478421A60474B0193D8
:100C500020230093F02228210A2000F047FD444B76
:100C6000019318230093F02250210A2000F03EFD4A
:100C7000404B0193102500952B46F0226E210A204F
:100C800000F034FD03AB019300952B46F022822146
:100C90000A2000F02BFD384B01930C230093F02227
:100CA00096210A2000F022FD0134E4B20C2C00D180
:100CB00000244FF47A7003F027FC0B2CC2D801A358
:100CC00053F824F03D0C0008F50C0008FD0C00085A
:100CD000050D00080F0D0008190D0008230D000870
:100CE0002D0D0008370D0008410D00084B0D0008C0
:100CF000550D0008002000F057FCA3E71F2000F06E
:100D000053FC9FE74FF4784000F04EFC9AE74FF613
:100D10001F0000F049FC95E74FF4FC6000F044FC34
:100D200090E747F6FF7000F03FFC8BE74FF6E0706E
:100D300000F03AFC86E74FF6074000F035FC81E70B
:100D400048F2304000F030FC7CE74CF2186000F0D4
:100D50002BFC77E74BF6404000F026FC72E700BF23
:100D600004000020F4000020305900083C5900081D
:100D7000505900085C5900086C5900087047000081
:100D800010B58CB000220792089209920A920B9239
:100D900000922D4B196B41F080011963196B01F022
:100DA0008001009100990192196B41F020011963B3
:100DB000196B01F02001019101990292196B41F028
:100DC00010011963196B01F010010291029903924D
:100DD000196B41F002011963196B01F002010391D3
:100DE00003990492196B41F008011963196B01F022
:100DF0000801049104990592196B41F001011963EE
:100E0000196B01F00101059105990692196B41F0EA
:100E1000400119631B6B03F040030693069B0B4CC8
:100E20004FF40041204603F0BBFA4FF40043079310
:100E300001230893099302230A9307A9204603F08C
:100E4000C9F90CB010BD00BF0038024000040240D8
:100E5000234B1B6803B170472DE9F04186B0204B4E
:100E600001221A60002400941E4B9A6B42F001028A
:100E70009A639B6B03F001030093009B4FF480582F
:100E8000CDF80480022702970394032604960C25CC
:100E9000059501A9144803F09DF94FF6807301935D
:100EA000029703940496059501A9104803F092F95E
:100EB0004CF233730193029703940496059501A9AC
:100EC0000B4803F087F9CDF8048002970394049649
:100ED000059501A9074803F07DF906B0BDE8F0814A
:100EE000940000200038024000140240001002402C
:100EF000000C02400018024030B58FB01B484FF084
:100F00002043036003F5827343600623836000235C
:100F1000C3600361102141618361C3610362436265
:100F20004FF480528262C3624FF480420263436393
:100F3000836343640F2207920892FF2509950A9262
:100F40000B9111240C940D9300920192029503923F
:100F50000491059406936A4607A903F0E9FA08B9D3
:100F60000FB030BDFFF70AFFFAE700BFA400002072
:100F700008B5FFF76DFF08BD82B0ADF80600BDF8FB
:100F800006309BB2ADF80630BDF806309BB2024A7F
:100F9000138002B0704700BFFEFF076082B0ADF85B
:100FA0000600BDF806309BB2ADF80630BDF806303D
:100FB0009BB2024A538002B0704700BFFEFF076039
:100FC00082B0054B5B889BB2ADF80630BDF80600D9
:100FD00080B202B0704700BFFEFF0760014B18806F
:100FE00059807047FEFF0760024B1A89024B1A8036
:100FF000704700BFF4000020FEFF076070B5054693
:101000000C46444B9B8849F24132934229D045F229
:101010001032934225D041F66312934235D045F207
:101020001052934230D13B4E7089FFF7A5FF280A3A
:10103000FFF7B4FF7089013080B2FFF79DFFE8B27F
:10104000FFF7ACFFB089FFF797FF200AFFF7A6FF75
:10105000B089013080B2FFF78FFFE0B2FFF79EFF4B
:1010600012E02C4E7089FFF787FF280AFFF796FFE2
:10107000E8B2FFF793FFB089FFF77EFF200AFFF782
:101080008DFFE0B2FFF78AFF70BD224B9B7953BB07
:10109000204B1888451BADB2013DADB25889FFF712
:1010A0006BFF0020FFF77AFF0020FFF777FF280A89
:1010B000FFF774FFE8B2FFF771FF164DA889FFF73D
:1010C0005BFF200AFFF76AFFE0B2FFF767FF68885F
:1010D0000138C0F30F20FFF761FF68880138C0B204
:1010E000FFF75CFFD0E70B4E7089FFF745FF280A3A
:1010F000FFF754FFE8B2FFF751FF30880138C0F323
:101100000F20FFF74BFF30880138C0B2FFF746FFD2
:10111000D3E700BFF40000207E4B9B79012B19D050
:101120002BB97C4B9A8841F663139A4218D0794BBD
:101130009B8849F2413293422AD045F210329342C1
:1011400026D045F21052934222D041F663129342C8
:101150001ED070476F4A918841F663129142DFD0EA
:101160000728E4D8DFE800F0120406080A0C0E1085
:101170000720DCE70420DAE70520D8E70120D6E7DE
:101180000020D4E70320D2E70220D0E70620CEE7F4
:1011900010B50138062805D8DFE800F066065C5E69
:1011A00060626400002400E0402445F21052934243
:1011B0005CD0362045F21032934209D045F21052ED
:1011C000934205D041F66312934201D044F00804E3
:1011D0002146FFF703FF4F4B9B8841F66312934272
:1011E0000AD014F0200F44D04A4A11885288914204
:1011F00002D248480280418045F21052934241D0C9
:10120000444C6089FFF7B8FE0020FFF7C7FE0020BE
:10121000FFF7C4FE20880138C0F30F20FFF7BEFEA1
:1012200020880138C0B2FFF7B9FEA089FFF7A4FEFD
:101230000020FFF7B3FE0020FFF7B0FE6088013802
:10124000C0F30F20FFF7AAFE60880138C0B2FFF795
:10125000A5FE10BDC024A8E72024A6E76024A4E7CB
:10126000A024A2E7E024A0E780249EE74FF4585092
:10127000A0E7284A118852889142BDD925480280AA
:101280004180B9E7234C6089FFF776FE0020FFF725
:1012900085FE6089013080B2FFF76EFE0020FFF707
:1012A0007DFE6089023080B2FFF766FE208801383B
:1012B000C0F30F20FFF772FE6089033080B2FFF7A2
:1012C0005BFE20880138C0B2FFF768FEA089FFF7F7
:1012D00053FE0020FFF762FEA089013080B2FFF7C5
:1012E0004BFE0020FFF75AFEA089023080B2FFF7C4
:1012F00043FE60880138C0F30F20FFF74FFEA0893E
:10130000033080B2FFF738FE60880138C0B2FFF7C3
:1013100045FE9EE7F40000202DE9F04105460E460B
:1013200014463C4B9B8849F24132934239D045F2F6
:101330001032934235D045F2105293424CD041F6D0
:101340006312934240D1334B9B792BB9314B1888B0
:10135000451BADB2013DADB22E4F7889FFF70CFEB3
:101360004FEA15284046FFF719FEEDB22846FFF771
:1013700015FE4046FFF712FE2846FFF70FFEB8891C
:10138000FFF7FAFD350A2846FFF708FEF6B23046A9
:10139000FFF704FE2846FFF701FE3046FFF7FEFD8B
:1013A00012E01C4F7889FFF7E7FD280AFFF7F6FDEA
:1013B000E8B2FFF7F3FDB889FFF7DEFD300AFFF76B
:1013C000EDFDF0B2FFF7EAFD124B1A89124B1A80BD
:1013D000A4B25C80BDE8F0810E4F7889FFF7CCFDA8
:1013E000280AFFF7DBFD7889013080B2FFF7C4FDE2
:1013F000E8B2FFF7D3FDB889FFF7BEFD300AFFF76B
:10140000CDFDB889013080B2FFF7B6FDF0B2FFF72D
:10141000C5FDD9E7F4000020FEFF076000000000D2
:1014200010B50446BE20FFF7A7FD0520FFF7B6FD67
:101430002046FFF799F90CA3D3E90023FEF718FF24
:10144000FFF7FCF980B2FFF7A9FD0120FFF7A6FD29
:10145000FF20FFF7A3FD0020FFF7A0FD0020FFF70E
:101460009DFD10BDAFF3008066666666666604404B
:1014700008B54C4B9871002847D1F0221A804FF4E0
:10148000A0725A809B8849F24132934219D045F2AA
:101490001032934215D045F21052934224D041F6B7
:1014A0006312934261D13F4B2C221A812B225A8125
:1014B0002A229A814FF4F0721A804FF448725A80AF
:1014C00053E0384A2C2111812A2151812B2191810D
:1014D00045F21032934248D1324B4FF4A0721A8039
:1014E0004FF4F0725A8040E02E4B4FF430521A8184
:1014F0004FF428525A814FF42C529A814FF4F072D3
:101500001A804FF448725A802FE0264B4FF4A07295
:101510001A80F0225A809B8849F24132934219D0B6
:1015200045F21032934215D045F21052934220D02A
:1015300041F66312934214D11A4A2C2111812A21B7
:1015400051812B2191814FF4487111804FF4F0713A
:10155000518006E0134A2C2111812A2151812B212F
:10156000918145F21032934214D00020FFF7D4FD50
:1015700008BD0C4A4FF4305111814FF4285151816C
:101580004FF42C5191814FF4487111804FF4F07158
:101590005180E6E7034B4FF4F0721A804FF4A072CB
:1015A0005A80E2E7F400002038B50546094B1C8854
:1015B0005B8804FB03F400210846FFF71FFDFFF7DB
:1015C00013FD0022A24204D2ABB203494B80013288
:1015D000F8E738BDF4000020FEFF07602DE9F04F6A
:1015E00083B0824688461F469DF830B013F007034B
:1015F00018BF012303EBD703790811FB03F3DBB218
:101600000093203AD3B2019344464FF0000949E0D9
:10161000019B03EB43032E4A02EB830313F80950AB
:10162000002623E02B4B019A03EB021313F8095019
:10163000F6E7019B03EBC303274A02EB830313F88E
:101640000950EDE7254B1A6821465046FFF764FE26
:101650006D00EDB20134A4B2214B5B88A34233D9B3
:10166000A4EB0803BB4210D00136F6B2072E15D802
:1016700015F0800FE6D1BBF1000FE9D1194B1A68C4
:1016800021465046FFF748FEE2E70AF1010A1FFA39
:101690008AFA134B1B88534516D9444609F10109B0
:1016A0005FFA89F9009B99450ED20C2FB0D0102F0C
:1016B000B8D0182FBDD0202F06D10B4B019A03EBC9
:1016C000C21313F80950ABE703B0BDE8F08F00BFB9
:1016D00088590008FC5D0008EC6300080400002045
:1016E000F400002000000020487100082DE9F047B8
:1016F00082B082460D469DF828700B9E02441FFA68
:1017000082F90B441FFA83F804460CE0454517D2D2
:10171000002300933B4629462046FFF75FFF04EB7A
:101720005704A4B201363278A2F12003DBB25E2B5B
:1017300006D84C45EAD35FFA8AF43D44ADB2E5E7FA
:1017400002B0BDE8F087000010B5044602F03CFD91
:10175000054BA3FB0030000D04FB00F003460138ED
:10176000002BFBD110BD00BF83DE1B4310B5D3207F
:10177000FFF702FCFFF724FC5A4CA080FFF720FC87
:10178000A080FFF71DFC0002A080FFF719FCA388D2
:10179000184380B2A08049F2413398424AD1514C5B
:1017A000A188514802F052FFA38849F24132934286
:1017B00000F0A08045F21032934200F0B08145F273
:1017C0001052934201F0248141F66312934202F0D9
:1017D0009D80444B9B8849F2413293420BD045F2A5
:1017E0001032934207D045F21052934203D041F693
:1017F0006312934210D13D4B1A6822F00F021A6017
:101800001A6822F470621A601A6842F004021A60C0
:101810001A6842F480621A600020FFF729FE012254
:101820004FF40041324802F0BBFD4FF6FF70FFF766
:10183000BBFE10BDD420FFF79FFBFFF7C1FBA080CC
:10184000FFF7BEFBA080FFF7BBFB0002A080FFF705
:10185000B7FBA388184380B2A08045F210339842AA
:101860009DD04FF45A40FFF787FBFFF7A9FBA080FC
:101870004FF45B40FFF780FBFFF7A2FB0002A08064
:101880004FF45C40FFF778FBFFF79AFBA3881843FF
:1018900080B2A080B0F5004F20D0124B9A8845F25C
:1018A00010539A423FF47BAFA120FFF765FBFFF78F
:1018B00087FB0C4CA080FFF783FB0002A080FFF7A2
:1018C0007FFBA388184380B2A08045F261739842E1
:1018D0007FF465AF41F66312A28060E745F21052D3
:1018E000A280DAE7F400002078590008040100A083
:1018F00000040240CF20FFF73FFB0020FFF74EFB24
:10190000C120FFF74BFB3020FFF748FBED20FFF72E
:1019100033FB6420FFF742FB0320FFF73FFB12205D
:10192000FFF73CFB8120FFF739FBE820FFF724FBA2
:101930008520FFF733FB1020FFF730FB7A20FFF7FD
:101940002DFBCB20FFF718FB3920FFF727FB2C20BE
:10195000FFF724FB0020FFF721FB3420FFF71EFBDD
:101960000220FFF71BFBF720FFF706FB2020FFF705
:1019700015FBEA20FFF700FB0020FFF70FFB00201C
:10198000FFF70CFBC020FFF7F7FA1B20FFF706FB61
:10199000C120FFF7F1FA0120FFF700FBC520FFF798
:1019A000EBFA3020FFF7FAFA3020FFF7F7FAC720FA
:1019B000FFF7E2FAB720FFF7F1FA3620FFF7DCFA7B
:1019C0004820FFF7EBFA3A20FFF7D6FA5520FFF749
:1019D000E5FAB120FFF7D0FA0020FFF7DFFA1A206E
:1019E000FFF7DCFAB620FFF7C7FA0A20FFF7D6FAAE
:1019F000A220FFF7D3FAF220FFF7BEFA0020FFF78C
:101A0000CDFA2620FFF7B8FA0120FFF7C7FAE02049
:101A1000FFF7B2FA0F20FFF7C1FA2A20FFF7BEFA4C
:101A20002820FFF7BBFA0820FFF7B8FA0E20FFF7CF
:101A3000B5FA0820FFF7B2FA5420FFF7AFFAA92051
:101A4000FFF7ACFA4320FFF7A9FA0A20FFF7A6FA3E
:101A50000F20FFF7A3FA0020FFF7A0FA0020FFF7FE
:101A60009DFA0020FFF79AFA0020FFF797FAE1208D
:101A7000FFF782FA0020FFF791FA1520FFF78EFAA0
:101A80001720FFF78BFA0720FFF788FA1120FFF7DE
:101A900085FA0620FFF782FA2B20FFF77FFA5620FF
:101AA000FFF77CFA3C20FFF779FA0520FFF776FA7A
:101AB0001020FFF773FA0F20FFF770FA3F20FFF7AF
:101AC0006DFA3F20FFF76AFA0F20FFF767FA2B2025
:101AD000FFF752FA0020FFF761FA0020FFF75EFAE5
:101AE0000120FFF75BFA3F20FFF758FA2A20FFF7A3
:101AF00043FA0020FFF752FA0020FFF74FFA0020C8
:101B0000FFF74CFAEF20FFF749FA1120FFF734FAFC
:101B1000782002F0F9FC2920FFF72EFA59E6ED2093
:101B2000FFF72AFA0120FFF739FAFE20FFF736FA0D
:101B3000EE20FFF721FADE20FFF730FA2120FFF731
:101B40002DFAF120FFF718FA0120FFF727FADF201E
:101B5000FFF712FA1020FFF721FAC420FFF70CFA62
:101B60008F20FFF71BFAC620FFF706FA0020FFF7C9
:101B700015FAE220FFF712FAE220FFF70FFAE2204F
:101B8000FFF70CFABF20FFF7F7F9AA20FFF706FAD4
:101B9000B020FFF7F1F90D20FFF700FA0020FFF762
:101BA000FDF90D20FFF7FAF90020FFF7F7F91120F2
:101BB000FFF7F4F90020FFF7F1F91920FFF7EEF92C
:101BC0000020FFF7EBF92120FFF7E8F90020FFF7ED
:101BD000E5F92D20FFF7E2F90020FFF7DFF93D20BE
:101BE000FFF7DCF90020FFF7D9F95D20FFF7D6F900
:101BF0000020FFF7D3F95D20FFF7D0F90020FFF7B1
:101C0000CDF9B120FFF7B8F98020FFF7C7F9002020
:101C1000FFF7C4F98B20FFF7C1F90020FFF7BEF9E9
:101C20009620FFF7BBF90020FFF7B8F9B220FFF7C5
:101C3000A3F90020FFF7B2F90020FFF7AFF9022067
:101C4000FFF7ACF90020FFF7A9F90320FFF7A6F989
:101C50000020FFF7A3F9B320FFF78EF90020FFF76C
:101C60009DF90020FFF79AF90020FFF797F900206F
:101C7000FFF794F90020FFF791F90020FFF78EF9A4
:101C80000020FFF78BF90020FFF788F90020FFF70D
:101C900085F90020FFF782F90020FFF77FF9002087
:101CA000FFF77CF90020FFF779F90020FFF776F9BC
:101CB0000020FFF773F90020FFF770F90020FFF70D
:101CC0006DF90020FFF76AF90020FFF767F900209F
:101CD000FFF764F90020FFF761F90020FFF75EF9D4
:101CE0000020FFF75BF90020FFF758F9B420FFF759
:101CF00043F98B20FFF752F90020FFF74FF99620A8
:101D0000FFF74CF90020FFF749F9A120FFF746F94A
:101D10000020FFF743F9B520FFF72EF90220FFF767
:101D20003DF90020FFF73AF90320FFF737F90020CB
:101D3000FFF734F90420FFF731F90020FFF72EF9FF
:101D4000B620FFF719F90020FFF728F90020FFF768
:101D500025F9B720FFF710F90020FFF71FF9002041
:101D6000FFF71CF93F20FFF719F90020FFF716F9DC
:101D70005E20FFF713F90020FFF710F96420FFF74A
:101D80000DF90020FFF70AF98C20FFF707F9002072
:101D9000FFF704F9AC20FFF701F90020FFF7FEF888
:101DA000DC20FFF7FBF80020FFF7F8F87020FFF7C2
:101DB000F5F80020FFF7F2F89020FFF7EFF8002089
:101DC000FFF7ECF8EB20FFF7E9F80020FFF7E6F863
:101DD000DC20FFF7E3F80020FFF7E0F8B820FFF77A
:101DE000CBF80020FFF7DAF80020FFF7D7F8002043
:101DF000FFF7D4F80020FFF7D1F80020FFF7CEF866
:101E00000020FFF7CBF80020FFF7C8F80020FFF70D
:101E1000C5F8BA20FFF7B0F82420FFF7BFF800207C
:101E2000FFF7BCF80020FFF7B9F80020FFF7B6F87D
:101E3000C120FFF7A1F82020FFF7B0F80020FFF73E
:101E4000ADF85420FFF7AAF80020FFF7A7F8FF200D
:101E5000FFF7A4F80020FFF7A1F8C220FFF78CF8E5
:101E60000A20FFF79BF80020FFF798F80420FFF7FF
:101E700095F80020FFF792F8C320FFF77DF83C208B
:101E8000FFF78CF80020FFF789F83A20FFF786F873
:101E90000020FFF783F83920FFF780F80020FFF7D4
:101EA0007DF83720FFF77AF80020FFF777F83C201D
:101EB000FFF774F80020FFF771F83620FFF76EF88F
:101EC0000020FFF76BF83220FFF768F80020FFF7DB
:101ED00065F82F20FFF762F80020FFF75FF82C204D
:101EE000FFF75CF80020FFF759F82920FFF756F8B4
:101EF0000020FFF753F82620FFF750F80020FFF7E7
:101F00004DF82420FFF74AF80020FFF747F8242077
:101F1000FFF744F80020FFF741F82320FFF73EF8D1
:101F20000020FFF73BF83C20FFF738F80020FFF7D0
:101F300035F83620FFF732F80020FFF72FF832206F
:101F4000FFF72CF80020FFF729F82F20FFF726F8DD
:101F50000020FFF723F82C20FFF720F80020FFF7E0
:101F60001DF82920FFF71AF80020FFF717F82620A0
:101F7000FFF714F80020FFF711F82420FFF70EF800
:101F80000020FFF70BF82420FFF708F80020FFF7E8
:101F900005F82320FFF702F80020FEF7FFFFC4201A
:101FA000FEF7EAFF6220FEF7F9FF0020FEF7F6FFDA
:101FB0000520FEF7F3FF0020FEF7F0FF8420FEF778
:101FC000EDFF0020FEF7EAFFF020FEF7E7FF00201C
:101FD000FEF7E4FF1820FEF7E1FF0020FEF7DEFF2A
:101FE000A420FEF7DBFF0020FEF7D8FF1820FEF745
:101FF000D5FF0020FEF7D2FF5020FEF7CFFF0020D4
:10200000FEF7CCFF0C20FEF7C9FF0020FEF7C6FF4D
:102010001720FEF7C3FF0020FEF7C0FF9520FEF754
:10202000BDFF0020FEF7BAFFF320FEF7B7FF002048
:10203000FEF7B4FFE620FEF7B1FF0020FEF7AEFF8B
:10204000C520FEF799FF3220FEF7A8FF0020FEF71B
:10205000A5FF4420FEF7A2FF0020FEF79FFF6520AA
:10206000FEF79CFF0020FEF799FF7620FEF796FF13
:102070000020FEF793FF8820FEF790FF0020FEF778
:102080008DFFC620FEF778FF2020FEF787FF002097
:10209000FEF784FF1720FEF781FF0020FEF77EFF8A
:1020A0000120FEF77BFF0020FEF778FFC720FEF738
:1020B00063FF0020FEF772FF0020FEF76FFF002095
:1020C000FEF76CFF0020FEF769FFC820FEF754FF03
:1020D0000020FEF763FF0020FEF760FF0020FEF700
:1020E0005DFF0020FEF75AFFC920FEF745FF0020E4
:1020F000FEF754FF0020FEF751FF0020FEF74EFFD1
:102100000020FEF74BFF0020FEF748FF0020FEF7FF
:1021100045FF0020FEF742FF0020FEF73FFF0020B2
:10212000FEF73CFF0020FEF739FF0020FEF736FFE8
:102130000020FEF733FF0020FEF730FF0020FEF7FF
:102140002DFF0020FEF72AFF0020FEF727FFE020EA
:10215000FEF712FF1620FEF721FF0020FEF71EFFFC
:102160001C20FEF71BFF0020FEF718FF2120FEF7C2
:1021700015FF0020FEF712FF3620FEF70FFF0020AC
:10218000FEF70CFF4620FEF709FF0020FEF706FFD2
:102190005220FEF703FF0020FEF700FF6420FEF749
:1021A000FDFE0020FEF7FAFE7A20FEF7F7FE002083
:1021B000FEF7F4FE8B20FEF7F1FE0020FEF7EEFEA8
:1021C0009920FEF7EBFE0020FEF7E8FEA820FEF7C0
:1021D000E5FE0020FEF7E2FEB920FEF7DFFE00205C
:1021E000FEF7DCFEC420FEF7D9FE0020FEF7D6FE87
:1021F000CA20FEF7D3FE0020FEF7D0FED220FEF765
:10220000CDFE0020FEF7CAFED920FEF7C7FE002053
:10221000FEF7C4FEE020FEF7C1FE0020FEF7BEFE82
:10222000F320FEF7BBFE0020FEF7B8FEE120FEF72C
:10223000A3FE1620FEF7B2FE0020FEF7AFFE1C2024
:10224000FEF7ACFE0020FEF7A9FE2220FEF7A6FE58
:102250000020FEF7A3FE3620FEF7A0FE0020FEF7CA
:102260009DFE4520FEF79AFE0020FEF797FE5220C5
:10227000FEF794FE0020FEF791FE6420FEF78EFE2E
:102280000020FEF78BFE7A20FEF788FE0020FEF786
:1022900085FE8B20FEF782FE0020FEF77FFE992050
:1022A000FEF77CFE0020FEF779FEA820FEF776FE02
:1022B0000020FEF773FEB920FEF770FE0020FEF747
:1022C0006DFEC420FEF76AFE0020FEF767FECA20FE
:1022D000FEF764FE0020FEF761FED220FEF75EFEF0
:1022E0000020FEF75BFED820FEF758FE0020FEF728
:1022F00055FEE020FEF752FE0020FEF74FFEF320D1
:10230000FEF74CFE0020FEF749FEE220FEF734FE09
:102310000520FEF743FE0020FEF740FE0B20FEF7EF
:102320003DFE0020FEF73AFE1B20FEF737FE0020A0
:10233000FEF734FE3420FEF731FE0020FEF72EFEBD
:102340004420FEF72BFE0020FEF728FE4F20FEF76C
:1023500025FE0020FEF722FE6120FEF71FFE002072
:10236000FEF71CFE7920FEF719FE0020FEF716FE90
:102370008820FEF713FE0020FEF710FE9720FEF7E0
:102380000DFE0020FEF70AFEA620FEF707FE002045
:10239000FEF704FEB720FEF701FE0020FEF7FEFD6B
:1023A000C220FEF7FBFD0020FEF7F8FDC720FEF778
:1023B000F5FD0020FEF7F2FDD120FEF7EFFD002035
:1023C000FEF7ECFDD620FEF7E9FD0020FEF7E6FD66
:1023D000DD20FEF7E3FD0020FEF7E0FDF320FEF731
:1023E000DDFD0020FEF7DAFDE320FEF7C5FD052048
:1023F000FEF7D4FD0020FEF7D1FD0A20FEF7CEFD4A
:102400000020FEF7CBFD1C20FEF7C8FD0020FEF7E4
:10241000C5FD3320FEF7C2FD0020FEF7BFFD4420BE
:10242000FEF7BCFD0020FEF7B9FD5020FEF7B6FD1B
:102430000020FEF7B3FD6220FEF7B0FD0020FEF79E
:10244000ADFD7820FEF7AAFD0020FEF7A7FD88204D
:10245000FEF7A4FD0020FEF7A1FD9720FEF79EFDEC
:102460000020FEF79BFDA620FEF798FD0020FEF75A
:1024700095FDB720FEF792FD0020FEF78FFDC220EC
:10248000FEF78CFD0020FEF789FDC720FEF786FDD4
:102490000020FEF783FDD120FEF780FD0020FEF72F
:1024A0007DFDD520FEF77AFD0020FEF777FDDD20CB
:1024B000FEF774FD0020FEF771FDF320FEF76EFDC0
:1024C0000020FEF76BFDE420FEF756FD0120FEF72D
:1024D00065FD0020FEF762FD0120FEF75FFD002094
:1024E000FEF75CFD0220FEF759FD0020FEF756FDC9
:1024F0002A20FEF753FD0020FEF750FD3C20FEF79A
:102500004DFD0020FEF74AFD4B20FEF747FD002061
:10251000FEF744FD5D20FEF741FD0020FEF73EFD85
:102520007420FEF73BFD0020FEF738FD8420FEF707
:1025300035FD0020FEF732FD9320FEF72FFD002031
:10254000FEF72CFDA220FEF729FD0020FEF726FD58
:10255000B320FEF723FD0020FEF720FDBE20FEF78E
:102560001DFD0020FEF71AFDC420FEF717FD002018
:10257000FEF714FDCD20FEF711FD0020FEF70EFD45
:10258000D320FEF70BFD0020FEF708FDDD20FEF74F
:1025900005FD0020FEF702FDF320FEF7FFFC002002
:1025A000FEF7FCFCE520FEF7E7FC0020FEF7F6FC5A
:1025B0000020FEF7F3FC0020FEF7F0FC0020FEF701
:1025C000EDFC0220FEF7EAFC0020FEF7E7FC2920E4
:1025D000FEF7E4FC0020FEF7E1FC3C20FEF7DEFC09
:1025E0000020FEF7DBFC4B20FEF7D8FC0020FEF7B6
:1025F000D5FC5D20FEF7D2FC0020FEF7CFFC742056
:10260000FEF7CCFC0020FEF7C9FC8420FEF7C6FCD8
:102610000020FEF7C3FC9320FEF7C0FC0020FEF76D
:10262000BDFCA220FEF7BAFC0020FEF7B7FCB320E9
:10263000FEF7B4FC0020FEF7B1FCBE20FEF7AEFCB6
:102640000020FEF7ABFCC420FEF7A8FC0020FEF73C
:10265000A5FCCD20FEF7A2FC0020FEF79FFCD320B6
:10266000FEF79CFC0020FEF799FCDC20FEF796FCB0
:102670000020FEF793FCF320FEF790FC0020FEF70D
:102680008DFCE620FEF778FC1120FEF787FC002089
:10269000FEF784FC3420FEF781FC0020FEF77EFC70
:1026A0005620FEF77BFC0020FEF778FC7620FEF734
:1026B00075FC0020FEF772FC7720FEF76FFC00200F
:1026C000FEF76CFC6620FEF769FC0020FEF766FC56
:1026D0008820FEF763FC0020FEF760FC9920FEF7DF
:1026E0005DFC0020FEF75AFCBB20FEF757FC0020E3
:1026F000FEF754FC9920FEF751FC0020FEF74EFC3B
:102700006620FEF74BFC0020FEF748FC5520FEF744
:1027100045FC0020FEF742FC5520FEF73FFC002060
:10272000FEF73CFC4520FEF739FC0020FEF736FCA6
:102730004320FEF733FC0020FEF730FC4420FEF778
:102740002DFC0020FEF72AFCE720FEF715FC3220C6
:10275000FEF724FC0020FEF721FC5520FEF71EFCAE
:102760000020FEF71BFC7620FEF718FC0020FEF789
:1027700015FC6620FEF712FC0020FEF70FFC672018
:10278000FEF70CFC0020FEF709FC6720FEF706FCB4
:102790000020FEF703FC8720FEF700FC0020FEF778
:1027A000FDFB9920FEF7FAFB0020FEF7F7FBBB20AC
:1027B000FEF7F4FB0020FEF7F1FB9920FEF7EEFB9D
:1027C0000020FEF7EBFB7720FEF7E8FB0020FEF78A
:1027D000E5FB4420FEF7E2FB0020FEF7DFFB56207E
:1027E000FEF7DCFB0020FEF7D9FB2320FEF7D6FB2B
:1027F0000020FEF7D3FB3320FEF7D0FB0020FEF7CE
:10280000CDFB4520FEF7CAFB0020FEF7C7FBE82002
:10281000FEF7B2FB0020FEF7C1FB0020FEF7BEFB77
:102820009920FEF7BBFB0020FEF7B8FB8720FEF7E0
:10283000B5FB0020FEF7B2FB8820FEF7AFFB0020BF
:10284000FEF7ACFB7720FEF7A9FB0020FEF7A6FB06
:102850006620FEF7A3FB0020FEF7A0FB8820FEF712
:102860009DFB0020FEF79AFBAA20FEF797FB0020B5
:10287000FEF794FBBB20FEF791FB0020FEF78EFBDA
:102880009920FEF78BFB0020FEF788FB6620FEF701
:1028900085FB0020FEF782FB5520FEF77FFB002022
:1028A000FEF77CFB5520FEF779FB0020FEF776FB58
:1028B0004420FEF773FB0020FEF770FB4420FEF778
:1028C0006DFB0020FEF76AFB5520FEF767FB00203A
:1028D000FEF764FBE920FEF74FFBAA20FEF75EFB44
:1028E0000020FEF75BFB0020FEF758FB0020FEF700
:1028F00055FB0020FEF740FBAA20FEF74FFBCF2040
:10290000FEF73AFB0020FEF749FB0020FEF746FBEE
:102910000020FEF743FB0020FEF740FB0020FEF7FF
:102920003DFB0020FEF73AFB0020FEF737FB0020BE
:10293000FEF734FB0020FEF731FB0020FEF72EFBF4
:102940000020FEF72BFB0020FEF728FB0020FEF7FF
:1029500025FB0020FEF722FB0020FEF71FFB0020D6
:10296000FEF71CFB0020FEF719FBF020FEF704FB2E
:102970000020FEF713FB5020FEF710FB0020FEF7AF
:102980000DFB0020FEF70AFB0020FEF707FBF320FB
:10299000FEF7F2FA0020FEF701FBF920FEF7ECFA51
:1029A0000620FEF7FBFA1020FEF7F8FA2920FEF7C2
:1029B000F5FA0020FEF7F2FA3A20FEF7DDFA55208C
:1029C000FEF7ECFA1120FEF7D7FA642001F09CFD27
:1029D0002920FEF7D1FA3520FEF7CEFA0020FEF7C7
:1029E000DDFA5120FEF7C8FAFF20FEF7D7FA532090
:1029F000FEF7C2FA2C20FEF7D1FA5520FEF7BCFAFA
:102A00008220FEF7CBFA2C20FEF7B6FAFEF7E1BEE5
:102A100055214FF47040FEF7E1FAAA214FF2010070
:102A2000FEF7DCFA52214FF20200FEF7D7FA082136
:102A30004FF20300FEF7D2FA01214FF20400FEF735
:102A4000CDFA0D214FF43040FEF7C8FA0D214BF2BC
:102A50000100FEF7C3FA0D214BF20200FEF7BEFAA9
:102A600034214FF43640FEF7B9FA34214BF20160BD
:102A7000FEF7B4FA34214BF20260FEF7AFFA0D21F3
:102A80004FF43140FEF7AAFA0D214BF20110FEF788
:102A9000A5FA0D214BF20210FEF7A0FA34214FF4F3
:102AA0003740FEF79BFA34214BF20170FEF796FA9D
:102AB00034214BF20270FEF791FA00214FF43240BC
:102AC000FEF78CFA00214BF20120FEF787FA002175
:102AD0004BF20220FEF782FA24214FF43840FEF731
:102AE0007DFA24214BF60100FEF778FA24214BF6FB
:102AF0000200FEF773FA01214FF43F40FEF76EFA31
:102B00000F214FF43340FEF769FA0F214BF20130E9
:102B1000FEF764FA0F214BF20230FEF75FFA342120
:102B20004FF43940FEF75AFA34214BF60110FEF704
:102B300055FA34214BF60210FEF750FA08214FF4F3
:102B40003540FEF74BFA08214BF20150FEF746FAEA
:102B500008214BF20250FEF741FA03214FF44240A4
:102B6000FEF73CFA24214FF43A40FEF737FA2421CD
:102B70004BF60120FEF732FA24214BF60220FEF735
:102B80002DFA00214FF43C40FEF728FA78214BF64D
:102B90000140FEF723FA00214BF60240FEF71EFA31
:102BA00000214FF43D40FEF719FA78214BF6015011
:102BB000FEF714FA00214BF60250FEF70FFA00213F
:102BC0004FF43E40FEF70AFA64214BF60160FEF72F
:102BD00005FA00214FF45140FEF700FA33214DF27F
:102BE0000110FEF7FBF900214DF20210FEF7F6F995
:102BF00034214DF20310FEF7F1F900214DF20410DB
:102C0000FEF7ECF93A214DF20510FEF7E7F9002145
:102C10004DF20610FEF7E2F94A214DF20710FEF7D9
:102C2000DDF900214DF20810FEF7D8F95C214DF2D4
:102C30000910FEF7D3F900214DF20A10FEF7CEF984
:102C400081214DF20B10FEF7C9F900214DF20C1055
:102C5000FEF7C4F9A6214DF20D10FEF7BFF90021D1
:102C60004DF20E10FEF7BAF9E5214DF20F10FEF706
:102C7000B5F901214DF21010FEF7B0F913214DF214
:102C80001110FEF7ABF901214DF21210FEF7A6F973
:102C900054214DF21310FEF7A1F901214DF2141049
:102CA000FEF79CF982214DF21510FEF797F90121EC
:102CB0004DF21610FEF792F9CA214DF21710FEF7E9
:102CC0008DF902214DF21810FEF788F900214DF21E
:102CD0001910FEF783F902214DF21A10FEF77EF962
:102CE00001214DF21B10FEF779F902214DF21C1063
:102CF000FEF774F934214DF21D10FEF76FF9022131
:102D00004DF21E10FEF76AF967214DF21F10FEF713
:102D100065F902214DF22010FEF760F984214DF291
:102D20002110FEF75BF902214DF22210FEF756F951
:102D3000A4214DF22310FEF751F902214DF2241087
:102D4000FEF74CF9B7214DF22510FEF747F90221A5
:102D50004DF22610FEF742F9CF214DF22710FEF773
:102D60003DF902214DF22810FEF738F9DE214DF22F
:102D70002910FEF733F902214DF22A10FEF72EF941
:102D8000F2214DF22B10FEF729F902214DF22C1001
:102D9000FEF724F9FE214DF22D10FEF71FF9032155
:102DA0004DF22E10FEF71AF910214DF22F10FEF7FA
:102DB00015F903214DF23010FEF710F933214DF2D1
:102DC0003110FEF70BF903214DF23210FEF706F930
:102DD0006D214DF23310FEF701F900214FF45240FE
:102DE000FEF7FCF833214DF20120FEF7F7F8002141
:102DF0004DF20220FEF7F2F834214DF20320FEF7E7
:102E0000EDF800214DF20420FEF7E8F83A214DF2EA
:102E10000520FEF7E3F800214DF20620FEF7DEF86C
:102E20004A214DF20720FEF7D9F800214DF2082083
:102E3000FEF7D4F85C214DF20920FEF7CFF800210F
:102E40004DF20A20FEF7CAF881214DF20B20FEF761
:102E5000C5F800214DF20C20FEF7C0F8A6214DF276
:102E60000D20FEF7BBF800214DF20E20FEF7B6F85C
:102E7000E5214DF20F20FEF7B1F801214DF21020AF
:102E8000FEF7ACF813214DF21120FEF7A7F801214F
:102E90004DF21220FEF7A2F854214DF21320FEF756
:102EA0009DF801214DF21420FEF798F882214DF291
:102EB0001520FEF793F801214DF21620FEF78EF84B
:102EC000CA214DF21720FEF789F802214DF2182091
:102ED000FEF784F800214DF21920FEF77FF8022159
:102EE0004DF21A20FEF77AF801214DF21B20FEF771
:102EF00075F802214DF21C20FEF770F834214DF2D6
:102F00001D20FEF76BF802214DF21E20FEF766F839
:102F100067214DF21F20FEF761F802214DF22020BB
:102F2000FEF75CF884214DF22120FEF757F80221CC
:102F30004DF22220FEF752F8A4214DF22320FEF795
:102F40004DF802214DF22420FEF748F8B7214DF24A
:102F50002520FEF743F802214DF22620FEF73EF829
:102F6000CF214DF22720FEF739F802214DF228201B
:102F7000FEF734F8DE214DF22920FEF72FF802216A
:102F80004DF22A20FEF72AF8F2214DF22B20FEF70F
:102F900025F802214DF22C20FEF720F8FE214DF2FB
:102FA0002D20FEF71BF803214DF22E20FEF716F818
:102FB00010214DF22F20FEF711F803214DF23020A1
:102FC000FEF70CF833214DF23120FEF707F803210C
:102FD0004DF23220FEF702F86D214DF23320FDF75D
:102FE000FDFF00214FF45340FDF7F8FF33214DF270
:102FF0000130FDF7F3FF00214DF20230FDF7EEFF47
:1030000034214DF20330FDF7E9FF00214DF2043089
:10301000FDF7E4FF3A214DF20530FDF7DFFF002117
:103020004DF20630FDF7DAFF4A214DF20730FDF789
:10303000D5FF00214DF20830FDF7D0FF5C214DF2A5
:103040000930FDF7CBFF00214DF20A30FDF7C6FF36
:1030500081214DF20B30FDF7C1FF00214DF20C3004
:10306000FDF7BCFFA6214DF20D30FDF7B7FF0021A3
:103070004DF20E30FDF7B2FFE5214DF20F30FDF7B6
:10308000ADFF01214DF21030FDF7A8FF13214DF2E5
:103090001130FDF7A3FF01214DF21230FDF79EFF25
:1030A00054214DF21330FDF799FF01214DF21430F8
:1030B000FDF794FF82214DF21530FDF78FFF0121BE
:1030C0004DF21630FDF78AFFCA214DF21730FDF799
:1030D00085FF02214DF21830FDF780FF00214DF2EF
:1030E0001930FDF77BFF02214DF21A30FDF776FF14
:1030F00001214DF21B30FDF771FF02214DF21C3012
:10310000FDF76CFF34214DF21D30FDF767FF022102
:103110004DF21E30FDF762FF67214DF21F30FDF7C3
:103120005DFF02214DF22030FDF758FF84214DF262
:103130002130FDF753FF02214DF22230FDF74EFF03
:10314000A4214DF22330FDF749FF02214DF2243036
:10315000FDF744FFB7214DF22530FDF73FFF022177
:103160004DF22630FDF73AFFCF214DF22730FDF723
:1031700035FF02214DF22830FDF730FFDE214DF200
:103180002930FDF72BFF02214DF22A30FDF726FFF3
:10319000F2214DF22B30FDF721FF02214DF22C30B0
:1031A000FDF71CFFFE214DF22D30FDF717FF032127
:1031B0004DF22E30FDF712FF10214DF22F30FDF7AA
:1031C0000DFF03214DF23030FDF708FF33214DF2A2
:1031D0003130FDF703FF03214DF23230FDF7FEFEE3
:1031E0006D214DF23330FDF7F9FE00214FF45440CC
:1031F000FDF7F4FE33214DF20140FDF7EFFE002113
:103200004DF20240FDF7EAFE34214DF20340FDF796
:10321000E5FE00214DF20440FDF7E0FE3A214DF2BB
:103220000540FDF7DBFE00214DF20640FDF7D6FE1E
:103230004A214DF20740FDF7D1FE00214DF2084032
:10324000FDF7CCFE5C214DF20940FDF7C7FE0021E1
:103250004DF20A40FDF7C2FE81214DF20B40FDF711
:10326000BDFE00214DF20C40FDF7B8FEA6214DF247
:103270000D40FDF7B3FE00214DF20E40FDF7AEFE0E
:10328000E5214DF20F40FDF7A9FE01214DF210405E
:10329000FDF7A4FE13214DF21140FDF79FFE012121
:1032A0004DF21240FDF79AFE54214DF21340FDF706
:1032B00095FE01214DF21440FDF790FE82214DF262
:1032C0001540FDF78BFE01214DF21640FDF786FEFD
:1032D000CA214DF21740FDF781FE02214DF2184040
:1032E000FDF77CFE00214DF21940FDF777FE02212B
:1032F0004DF21A40FDF772FE01214DF21B40FDF721
:103300006DFE02214DF21C40FDF768FE34214DF2A6
:103310001D40FDF763FE02214DF21E40FDF75EFEEB
:1033200067214DF21F40FDF759FE02214DF220406A
:10333000FDF754FE84214DF22140FDF74FFE02219E
:103340004DF22240FDF74AFEA4214DF22340FDF745
:1033500045FE02214DF22440FDF740FEB7214DF21B
:103360002540FDF73BFE02214DF22640FDF736FEDB
:10337000CF214DF22740FDF731FE02214DF22840CA
:10338000FDF72CFEDE214DF22940FDF727FE02213C
:103390004DF22A40FDF722FEF2214DF22B40FDF7BF
:1033A0001DFE02214DF22C40FDF718FEFE214DF2CC
:1033B0002D40FDF713FE03214DF22E40FDF70EFECA
:1033C00010214DF22F40FDF709FE03214DF2304050
:1033D000FDF704FE33214DF23140FDF7FFFD0321DF
:1033E0004DF23240FDF7FAFD6D214DF23340FDF70D
:1033F000F5FD00214FF45540FDF7F0FD33214DF26E
:103400000150FDF7EBFD00214DF20250FDF7E6FD06
:1034100034214DF20350FDF7E1FD00214DF204503F
:10342000FDF7DCFD3A214DF20550FDF7D7FD0021F7
:103430004DF20650FDF7D2FD4A214DF20750FDF73F
:10344000CDFD00214DF20850FDF7C8FD5C214DF285
:103450000950FDF7C3FD00214DF20A50FDF7BEFDF6
:1034600081214DF20B50FDF7B9FD00214DF20C50BA
:10347000FDF7B4FDA6214DF20D50FDF7AFFD002183
:103480004DF20E50FDF7AAFDE5214DF20F50FDF76C
:10349000A5FD01214DF21050FDF7A0FD13214DF2C5
:1034A0001150FDF79BFD01214DF21250FDF796FDE5
:1034B00054214DF21350FDF791FD01214DF21450AE
:1034C000FDF78CFD82214DF21550FDF787FD01219E
:1034D0004DF21650FDF782FDCA214DF21750FDF74F
:1034E0007DFD02214DF21850FDF778FD00214DF2CF
:1034F0001950FDF773FD02214DF21A50FDF76EFDD4
:1035000001214DF21B50FDF769FD02214DF21C50C7
:10351000FDF764FD34214DF21D50FDF75FFD0221E2
:103520004DF21E50FDF75AFD67214DF21F50FDF779
:1035300055FD02214DF22050FDF750FD84214DF242
:103540002150FDF74BFD02214DF22250FDF746FDC3
:10355000A4214DF22350FDF741FD02214DF22450EC
:10356000FDF73CFDB7214DF22550FDF737FD022157
:103570004DF22650FDF732FDCF214DF22750FDF7D9
:103580002DFD02214DF22850FDF728FDDE214DF2E0
:103590002950FDF723FD02214DF22A50FDF71EFDB3
:1035A000F2214DF22B50FDF719FD02214DF22C5066
:1035B000FDF714FDFE214DF22D50FDF70FFD032107
:1035C0004DF22E50FDF70AFD10214DF22F50FDF760
:1035D00005FD03214DF23050FDF700FD33214DF282
:1035E0003150FDF7FBFC03214DF23250FDF7F6FCA4
:1035F0006D214DF23350FDF7F1FC00214FF45640A0
:10360000FDF7ECFC33214DF20160FDF7E7FC0021F2
:103610004DF20260FDF7E2FC34214DF20360FDF74C
:10362000DDFC00214DF20460FDF7D8FC3A214DF29B
:103630000560FDF7D3FC00214DF20660FDF7CEFCDE
:103640004A214DF20760FDF7C9FC00214DF20860E8
:10365000FDF7C4FC5C214DF20960FDF7BFFC0021C1
:103660004DF20A60FDF7BAFC81214DF20B60FDF7C7
:10367000B5FC00214DF20C60FDF7B0FCA6214DF227
:103680000D60FDF7ABFC00214DF20E60FDF7A6FCCE
:10369000E5214DF20F60FDF7A1FC01214DF2106014
:1036A000FDF79CFC13214DF21160FDF797FC012101
:1036B0004DF21260FDF792FC54214DF21360FDF7BC
:1036C0008DFC01214DF21460FDF788FC82214DF242
:1036D0001560FDF783FC01214DF21660FDF77EFCBD
:1036E000CA214DF21760FDF779FC02214DF21860F6
:1036F000FDF774FC00214DF21960FDF76FFC02210B
:103700004DF21A60FDF76AFC01214DF21B60FDF7D6
:1037100065FC02214DF21C60FDF760FC34214DF286
:103720001D60FDF75BFC02214DF21E60FDF756FCAB
:1037300067214DF21F60FDF751FC02214DF2206020
:10374000FDF74CFC84214DF22160FDF747FC02217E
:103750004DF22260FDF742FCA4214DF22360FDF7FB
:103760003DFC02214DF22460FDF738FCB7214DF2FB
:103770002560FDF733FC02214DF22660FDF72EFC9B
:10378000CF214DF22760FDF729FC02214DF2286080
:10379000FDF724FCDE214DF22960FDF71FFC02211C
:1037A0004DF22A60FDF71AFCF2214DF22B60FDF775
:1037B00015FC02214DF22C60FDF710FCFE214DF2AC
:1037C0002D60FDF70BFC03214DF22E60FDF706FC8A
:1037D00010214DF22F60FDF701FC03214DF2306006
:1037E000FDF7FCFB33214DF23160FDF7F7FB0321C0
:1037F0004DF23260FDF7F2FB6D214DF23360FDF7C3
:10380000EDFB55214FF47040FDF7E8FBAA214FF284
:103810000100FDF7E3FB52214FF20200FDF7DEFB52
:1038200008214FF20300FDF7D9FB00214FF20400FD
:10383000FDF7D4FBCC214FF43140FDF7CFFB002145
:103840004BF20110FDF7CAFB05214FF43640FDF79E
:10385000C5FB70214FF43740FDF7C0FB70214BF2E0
:103860000170FDF7BBFB01214FF43840FDF7B6FBBB
:1038700003214BF60100FDF7B1FB03214BF60200DB
:10388000FDF7ACFB03214BF60300FDF7A7FB02217C
:103890004FF43C40FDF7A2FB00214BF60140FDF741
:1038A0009DFB00214BF60240FDF798FBD0214FF421
:1038B0004940FDF793FB02214CF60110FDF78EFB0A
:1038C00050214CF60210FDF789FB50214CF60310F5
:1038D000FDF784FB50214CF60410FDF77FFB00211F
:1038E0004FF45450FDF77AFB55214FF46850FDF723
:1038F00075FB4FF48850FDF73FFB7820FDF724FF60
:103900004FF42450FDF738FBFDF763BFE220FDF7CD
:1039100033FB1D20FDF742FB0220FDF73FFB042097
:10392000FDF73CFB6420FDF70FFFE020FDF724FBD3
:103930000120FDF733FB0A2000F0E6FDE020FDF753
:103940001BFB0320FDF72AFB0C2000F0DDFD01200E
:10395000FDF712FB0A2000F0D7FDE620FDF70CFB77
:103960002F20FDF71BFBFF20FDF718FBFF20FDF7C5
:1039700015FBB020FDF700FB2020FDF70FFB00201A
:10398000FDF70CFB0320FDF709FB40F21F30FDF7AC
:1039900005FB0120FDF702FB40F2DF10FDF7FEFA08
:1039A0000020FDF7FBFAB420FDF7E6FA0420FDF74E
:1039B000F5FA40F21F40FDF7F1FA0020FDF7EEFAAC
:1039C0002E20FDF7EBFA0020FDF7E8FA0020FDF7C6
:1039D000E5FA0020FDF7E2FA0020FDF7DFFAB62055
:1039E000FDF7CAFA0220FDF7D9FA4FF40370FDF78C
:1039F000D5FA0020FDF7D2FA1720FDF7CFFA1520EF
:103A0000FDF7CCFA0020FDF7C9FA0020FDF7C6FA51
:103A1000F020FDF7B1FA0320FDF7C0FA2920FDF7E9
:103A2000ABFAD020FDF7A8FA0020FDF7B7FABE20C8
:103A3000FDF7A2FA0520FDF7B1FAFE20FDF7AEFA78
:103A40000120FDF7ABFA0020FDF7A8FA0020FDF7F2
:103A5000A5FA0020FDF7A2FAB820FDF78DFA0320A1
:103A6000FDF79CFA0120FDF799FABA20FDF784FAD8
:103A70000120FDF793FA6420FDF7D2FCFDF7A9BE03
:103A80007047FEE7FEE7FEE7FEE7704770477047C6
:103A900008B500F027FD08BD82B0002100910B4B56
:103AA0005A6C42F480425A645A6C02F4804200928A
:103AB000009A01911A6C42F080521A641B6C03F058
:103AC00080530193019B02B0704700BF0038024051
:103AD00070B40C6850F82430134E1E404A688D684C
:103AE00042EA0503CA6813430A6913434A69134348
:103AF0008A691343CA6913430A6A13434A6A134320
:103B00008A6A1343CA6A1343CA6B13430A6B13438B
:103B10003343082D04D040F82430002070BC704797
:103B200043F04003F7E700BF8000F0FF30B40132FC
:103B300050F8224004F040440B684D6843EA0513F6
:103B40008D6843EA0523CD6843EA05430D69013DCD
:103B500043EA05534D69023D43EA056389690B4316
:103B6000234340F82230002030BC7047B3F5804F2B
:103B700005D06FF0704340F822300020704730B419
:103B800050F82230094C1C400B684D6843EA05137D
:103B90008D6843EA0523CD6843EA054389690B43F1
:103BA000234340F82230002030BC70470000F0CFA3
:103BB000002800F0D98170B582B00446036813F084
:103BC000010F3BD0A64B9B6803F00C03042B2CD0B9
:103BD000A34B9B6803F00C03082B21D06368B3F55B
:103BE000803F4FD0B3F5A02F52D09D4B1A6822F4DE
:103BF00080321A601A6822F480221A606368002BEF
:103C000050D000F07BFC0546954B1B6813F4003F39
:103C100014D100F073FC401B6428F5D90320AAE1FD
:103C20008F4B5B6813F4800FD8D08D4B1B6813F457
:103C3000003F03D06368002B00F09881236813F0E5
:103C4000020F54D0864B9B6813F00C0F3ED0844B70
:103C50009B6803F00C03082B33D0E368002B67D07C
:103C6000804B01221A6000F049FC05467C4B1B6822
:103C700013F0020F53D100F041FC401B0228F5D98C
:103C8000032078E1764A136843F480331360B5E784
:103C9000734B1A6842F480221A601A6842F4803228
:103CA0001A60ABE700F02AFC05466D4B1B6813F465
:103CB000003FC3D000F022FC401B6428F5D903204C
:103CC00059E1674B5B6813F4800FC6D1644B1B68E6
:103CD00013F0020F03D0E368012B40F04981604AE2
:103CE000136823F0F803216943EAC10313602368D2
:103CF00013F0080F40D0636963B35B4B01221A6075
:103D000000F0FCFB0546564B5B6F13F0020F33D1FE
:103D100000F0F4FB401B0228F5D903202BE1504AA8
:103D2000136823F0F803216943EAC1031360DEE757
:103D30004C4B00221A6000F0E1FB0546484B1B6823
:103D400013F0020FD3D000F0D9FB401B0228F5D9A5
:103D5000032010E1444B00221A6000F0CFFB05461F
:103D60003F4B5B6F13F0020F06D000F0C7FB401B08
:103D70000228F5D90320FEE0236813F0040F78D061
:103D8000374B1B6C13F0805F0DD100230193344B34
:103D90001A6C42F080521A641B6C03F0805301933A
:103DA000019B012500E00025304B1B6813F4807F48
:103DB00021D0A368012B32D0052B36D0284B1A6FA7
:103DC00022F001021A671A6F22F004021A67A36830
:103DD000002B34D000F092FB0646214B1B6F13F0F2
:103DE000020F45D100F08AFB801B41F288339842D4
:103DF000F3D90320BFE01D4A136843F480731360B6
:103E000000F07CFB0646194B1B6813F4807FD0D171
:103E100000F074FB801B0228F5D90320ABE0104AA8
:103E2000136F43F001031367D1E70D4B1A6F42F094
:103E300004021A671A6F42F001021A67C7E700F01E
:103E40005DFB0646064B1B6F13F0020F10D000F00F
:103E500055FB801B41F288339842F3D903208AE056
:103E60000038024000004742800E47420070004088
:103E7000E5B9A369002B7DD0464A926802F00C0296
:103E8000082A51D0022B17D0434B00221A6000F0B1
:103E900035FB04463F4B1B6813F0007F42D000F017
:103EA0002DFB001B0228F5D9032064E0394A136C6E
:103EB00023F080531364DCE7374B00221A6000F0D4
:103EC0001DFB0546334B1B6813F0007F06D000F046
:103ED00015FB401B0228F5D903204CE0E369226A58
:103EE0001343626A43EA8213A26A5208013A43EA20
:103EF0000243E26A43EA0263264A5360264B0122E8
:103F00001A6000F0FBFA0446224B1B6813F0007F96
:103F100006D100F0F3FA001B0228F5D903202AE0AD
:103F2000002028E0002026E0012B26D0194B9B68BA
:103F300003F48001E269914221D103F03F02216A3A
:103F40008A421ED1616A47F6C0721A408A421AD16B
:103F500003F44032A16A8A4217D103F07063E26A27
:103F6000934214D1002006E001207047012002E0B6
:103F7000012000E0002002B070BD0120FBE701201D
:103F8000F9E70120F7E70120F5E70120F3E7012039
:103F9000F1E700BF0038024060004742F8B52F4B00
:103FA0009B6803F00C03042B53D0082B53D12B4BED
:103FB0005A6802F03F025B6813F4800F28D0274B49
:103FC0005B68C3F3881358010021C01A61F1000136
:103FD0008E0146EA906687013C1A66EB0105E9000E
:103FE00041EA5471E000C01841F100014B0243EA7C
:103FF000D0534402204619460023FCF73FFC174BE0
:104000005B68C3F3014301335B00B0FBF3F023E0D3
:10401000124B5B68C3F388135C010025E41A65F159
:104020000005AE0146EA9466A701381B66EB050160
:10403000CC0044EA5074C500E81844F100018B023A
:1040400043EA90538402204619460023FCF716FCED
:10405000D5E7034800E00348F8BD00BF0038024040
:1040600000127A000024F400002800F09B8070B554
:104070000D4604464F4B1B6803F00F038B4208D2DA
:10408000CBB24C4A1370136803F00F038B4240F01D
:104090008B80236813F0020F17D013F0040F04D0A5
:1040A000454A936843F4E0539360236813F0080F84
:1040B00004D0414A936843F4604393603E4A936856
:1040C00023F0F003A1680B439360236813F0010F02
:1040D00032D06368012B21D09A1E012A25D9364A95
:1040E000126812F0020F61D033498A6822F003028D
:1040F00013438B6000F002FA06462F4B9B6803F0D7
:104100000C036268B3EB820F16D000F0F7F9801B46
:1041100041F288339842F0D9032042E0264A1268DF
:1041200012F4003FE0D101203BE0234A126812F074
:10413000007FD9D1012034E01E4B1B6803F00F0330
:10414000AB4207D9EAB21B4B1A701B6803F00F038E
:10415000AB422DD1236813F0040F06D0164A9368A2
:1041600023F4E053E1680B439360236813F0080FD6
:1041700007D0114A936823F46043216943EAC103DD
:104180009360FFF70BFF0C4B9B68C3F303130B4AC1
:10419000D35CD8400A4B18600A4B186800F062F9EB
:1041A000002070BD012070470120FAE70120F8E7E8
:1041B0000120F6E7003C024000380240C8A0000899
:1041C000100000200C000020014B1868704700BF51
:1041D0001000002000230F2B00F2D980F0B583B02F
:1041E00039E0072200E00022B2403A430234684E30
:1041F00046F82420674A1468EA4324EA05064F6813
:1042000017F4803F01D045EA0406624C26606468DA
:1042100002EA04064F6817F4003F01D045EA04069D
:104220005C4C6660A46802EA04064F6817F4801FBD
:1042300001D045EA0406574CA660E46822404E6867
:1042400016F4001F01D045EA0402524CE26001332B
:104250000F2B00F29A8001229A400C6804EA0205B2
:1042600032EA0404F3D14C68661E012E03D9112CE6
:1042700001D0122C12D186685F000324BC4026EACC
:104280000406CC68BC4034438460466826EA0206D3
:104290004C68C4F300129A4032434260C7685E0023
:1042A0000324B440E24327EA04078C68B4403C434B
:1042B000C4604C68022C01D0122C13D1DF080837DF
:1042C00050F827E003F007044FEA840C0F2404FAA7
:1042D0000CF42EEA040E0C6904FA0CF444EA0E0401
:1042E00040F82740046814404A6802F00302B240D4
:1042F000224302604A6812F0805FA8D00022019237
:10430000254A546C44F480445464526C02F4804254
:104310000192019A9C08A61C1D4A52F8267003F0CF
:10432000030296000F22B24027EA02071B4A90427E
:104330003FF459AF02F5806290421AD002F58062D4
:10434000904218D002F58062904216D002F5806249
:10435000904214D002F58062904212D002F5806241
:10436000904210D002F5806290423FF43AAF0822AA
:104370003AE7012238E7022236E7032234E7042233
:1043800032E7052230E706222EE703B0F0BD704782
:1043900000380140003C014000380240000002406B
:1043A0000AB181617047090481617047074AD36887
:1043B00023F4E0631B041B0C000200F4E0600343E1
:1043C00043F0BF6343F40033D360704700ED00E077
:1043D00030B4174BDB68C3F30223C3F10704042C8A
:1043E00028BF04241D1D062D18D9033B4FF0FF35AF
:1043F00005FA04F421EA0401994005FA03F322EADC
:104400000303194300280BDB0901C9B200F1604026
:1044100000F5614080F8001330BC70470023E5E7E9
:1044200000F00F000901C9B2024B1954F4E700BFB4
:1044300000ED00E014ED00E00138B0F1807F0AD219
:10444000064B5860064AF02182F82310002098603D
:1044500007221A6070470120704700BF10E000E09B
:1044600000ED00E010B504460E4B18784FF47A7357
:10447000B3FBF0F30C4A1068B0FBF3F0FFF7DCFF7E
:1044800068B90F2C01D901200AE0002221464FF023
:10449000FF30FFF79DFF054B1C60002000E001206E
:1044A00010BD00BF08000020100000200C000020FC
:1044B00008B50B4B1A6842F400721A601A6842F48D
:1044C00080621A601A6842F480721A600320FFF753
:1044D0006DFF0020FFF7C6FFFFF7DEFA002008BDE2
:1044E000003C0240034A1168034B1B780B441360E5
:1044F000704700BF0401002008000020014B18682D
:10450000704700BF0401002038B50446FFF7F6FFEE
:104510000546B4F1FF3F02D0044B1B781C44FFF763
:10452000EDFF401BA042FAD338BD00BF08000020B9
:1045300028B370B50E461546044690F84930CBB105
:10454000214651F8080BFFF7C3FAA26831462068EC
:10455000FFF7ECFA236BA26829466068FFF706FBB9
:104560002268A16852F8213043F0010342F821305B
:10457000002070BD80F84830FCF7FAFCE0E701202D
:1045800070470000054BD3F8882042F47002C3F84E
:1045900088204FF000629A60704700BF00ED00E095
:1045A000DFF834D0002103E00C4B5B58435004315A
:1045B0000B480C4B42189A42F6D30B4A02E00023F8
:1045C00042F8043B094B9A42F9D3FFF7DBFF00F0B6
:1045D00011F8FCF71BFB70470000022080A10008C7
:1045E0000000002078000020780000201801002042
:1045F000FEE7000070B50D4D0D4C641BA4100026A5
:10460000A64209D10B4D0C4C01F086F9641BA41095
:104610000026A64205D170BD55F8043B98470136E7
:10462000EEE755F8043B98470136F2E778A1000819
:1046300078A1000878A100087CA100080244034684
:10464000934200D1704703F8011BF9E70FB40A4BFE
:1046500013B51C6824B1A36913B9204600F086F88D
:1046600005AB049AA1680193204600F0FFFA02B05E
:10467000BDE8104004B07047140000200EB400B52F
:104680009CB01DAB029006906FF000410948079165
:104690000491094953F8042B05910068019302A97C
:1046A00000F0BAF9029B00221A701CB05DF804EB0E
:1046B00003B07047140000200802FFFF002310B56C
:1046C0000446C0E90033C0E9043383608181436656
:1046D000C2818361194608225C30FFF7AFFF054BAA
:1046E0006362054BA362054BE362054B24622363BF
:1046F00010BD00BF15520008375200086F52000865
:1047000093520008014900F0AFB800BF6D55000892
:1047100070B54A1E682555430E4605F1740100F038
:10472000C5F8044640B10021C0E900160C30A06075
:1047300005F16802FFF782FF204670BD014800F0D6
:10474000B3B800BF10010020014800F0AEB800BFB0
:1047500010010020014800F0A7B800BF0B010020A5
:10476000014800F0A2B800BF0B01002010B50446BC
:10477000FFF7F0FFA3691BB1BDE81040FFF7F0BFE2
:10478000C4E912332365134B134A1B68A262A34288
:1047900004BF0123A361204600F020F8606020469A
:1047A00000F01CF8A060204600F018F80022E0603D
:1047B00004216068FFF782FFA06801220921FFF74A
:1047C0007DFFE06802221221FFF778FF0123A36139
:1047D000D2E700BFD8A0000805470008F8B5074693
:1047E000FFF7ACFF1E4B1E68B36913B93046FFF7E5
:1047F000BDFF4836D6E90134013B03D533680BB31E
:104800003668F7E7B4F90C50D5B9164BE36004F1FC
:104810005800656600F047F8FFF796FFC4E90155B8
:10482000C4E904552560A5610822294604F15C000D
:10483000FFF704FFC4E90D55C4E912552046F8BD41
:104840006834D9E704213846FFF762FF0446306038
:104850000028D5D1FFF778FF0C233B60EEE700BFBF
:10486000D8A000080100FFFF2DE9F843064688465E
:1048700000F148040027D4E90195B9F1010905D5F3
:104880002468002CF7D13846BDE8F883AB89012BAA
:1048900007D9B5F90E30013303D029463046C04759
:1048A00007436835E9E7704770477047F8B5CD1C96
:1048B00025F0030508350C2D38BF0C25002D0646C4
:1048C00001DBA94203D90C2333600020F8BD00F0BE
:1048D00027FF21490A6814469CB9204F3B6823B939
:1048E0002146304600F086FC38602946304600F00C
:1048F00081FC431C23D10C233360304600F016FFAB
:10490000E3E723685B1B17D40B2B03D923601C44FC
:10491000256004E06368A2420CBF0B605360304620
:1049200000F004FF04F10B00231D20F00700C21A61
:10493000CCD01B1AA350C9E722466468CCE7C41C3C
:1049400024F00304A042E3D0211A304600F052FCC8
:104950000130DDD1CFE700BF980000209C0000208F
:104960002DE9F0478E689E4282460C4690461F46CF
:1049700038D88A8912F4906F32D025680969A5EB7E
:104980000109656905EB450505EBD57501334B4418
:104990006D109D4238BF1D46530531D52946FFF79E
:1049A00085FF064650B90C23CAF80030A38943F0AE
:1049B0004003A3814FF0FF30BDE8F08721694A46EC
:1049C00000F086FEA38923F4906343F08003A38163
:1049D000266165614E44A5EB09052660A5603E464B
:1049E000BE4200D93E4632462068414600F07EFE77
:1049F000A36822689B1B3244A36022600020DBE78F
:104A00002A4600F0E9FE06460028E1D12169504619
:104A100000F092FEC7E700002DE9F04F98468B8921
:104A20001B069DB007460D4614460ED50B6963B9AB
:104A30004021FFF73BFF2860286120B90C233B6031
:104A40004FF0FF30D1E040236B6100230993202316
:104A50008DF82930CDF80C803023DFF8A8818DF84F
:104A60002A304FF0010923469A4613F8012B0AB168
:104A7000252AF9D1BAEB040B0BD05B462246294616
:104A80003846FFF76DFF013000F0AA80099A5A44BA
:104A900009929AF80030002B00F0A28000234FF01A
:104AA000FF32CDE905230AF1010A049307938DF83B
:104AB00053301A935446052214F8011B5148FBF752
:104AC00087FB049AD8B9D00644BF20238DF8533011
:104AD000110744BF2B238DF853309AF800302A2B4E
:104AE00015D0079A544600204FF00A0C214611F8C1
:104AF000013B303B092B4ED9B0B1079214E0A0EB3B
:104B0000080309FA03F313430493A246D2E7039B75
:104B1000191D1B680391002BBBBF5B4242F00202D0
:104B200007930793B8BF049223782E2B0CD1637898
:104B30002A2B35D1039B1A1D1B680392002BB8BF8B
:104B40004FF0FF3302340593DFF8C8A02178032229
:104B50005046FBF73DFB40B14023A0EB0A0003FAAF
:104B600000F0049B03430134049314F8011B26480E
:104B70008DF828100622FBF72BFB002838D0234B9A
:104B80001BBB039B073323F0070308330393099BE5
:104B90003344099367E70CFB02320C460120A5E77A
:104BA00000230134059319464FF00A0C204610F8F3
:104BB000012B303A092A03D9002BC5D00591C3E750
:104BC0000CFB012104460123F0E703AB00932A46C6
:104BD0000F4B04A93846AFF30080421C0646D6D1DD
:104BE000AB895B063FF52CAF09981DB0BDE8F08F8F
:104BF00003AB00932A46064B04A9384600F0D4F9CB
:104C0000EBE700BF3CA1000846A10008000000003F
:104C10006149000842A100089368013B002B10B4D1
:104C2000936008DA9469A34201DB0A2903D15DF895
:104C3000044B00F033BB1368581C10601970084611
:104C40005DF8044B7047F8B506460F461446D51874
:104C5000AC4201D1002007E014F8011B3A4630466F
:104C6000FFF7DAFF431CF3D1F8BD00002DE9F04F48
:104C70000D469DB014469846064618B183690BB997
:104C8000FFF774FD894B9D421BD175686B6ED90788
:104C900005D4AB899A0502D4A86DFFF705FEAB8950
:104CA0001B0701D52B69EBB92946304600F05AFBAA
:104CB000C0B16B6EDC070ED54FF0FF301DB0BDE804
:104CC000F08F7B4B9D4201D1B568DFE7794B9D4268
:104CD00008BFF568DAE7AB899805EDD4A86DFFF752
:104CE000E4FDE9E70023099320238DF82930CDF86E
:104CF0000C803023DFF8C0818DF82A304FF0010995
:104D000023469A4613F8012B0AB1252AF9D1BAEBAA
:104D1000040B0BD05B46224629463046FFF793FF33
:104D2000013000F0AA80099A5A4409929AF800309A
:104D3000002B00F0A28000234FF0FF32CDE90523C5
:104D40000AF1010A049307938DF853301A935446DD
:104D5000052214F8011B5848FBF73AFA049AD8B90F
:104D6000D10644BF20238DF85330130744BF2B23B3
:104D70008DF853309AF800302A2B15D0079A5446F4
:104D800000204FF00A0C214611F8013B303B092B63
:104D90004ED9B0B1079214E0A0EB080309FA03F36F
:104DA00013430493A246D2E7039B191D1B6803918A
:104DB000002BBBBF5B4242F0020207930793B8BFD0
:104DC000049223782E2B0CD163782A2B35D1039BA8
:104DD0001A1D1B680392002BB8BF4FF0FF3302343B
:104DE0000593DFF8E4A0217803225046FBF7F0F9A1
:104DF00040B14023A0EB0A0003FA00F0049B0343F8
:104E00000134049314F8011B2C488DF82810062255
:104E1000FBF7DEF900283FD0294B1BBB039B073370
:104E200023F0070308330393099B3B44099367E787
:104E30000CFB02320C460120A5E700230134059348
:104E400019464FF00A0C204610F8012B303A092A77
:104E500003D9002BC5D00591C3E70CFB0121044603
:104E60000123F0E703AB00932A46164B04A9304612
:104E7000AFF300800746781CD6D16B6ED90705D4F6
:104E8000AB899A0502D4A86DFFF70FFDAB895B06CD
:104E90003FF512AF099811E703AB00932A46094B7F
:104EA00004A9304600F080F8E4E700BFFCA0000849
:104EB0001CA10008DCA000083CA1000846A10008D5
:104EC00000000000474C000842A100082DE9F0470F
:104ED000164699468A680B69DDF820809342B8BF70
:104EE0001346336091F8432007460C460AB101335C
:104EF00033602368990642BF336802333360256804
:104F000015F0060506D104F1190AE36832689B1A08
:104F1000AB4226DC94F84320131E226818BF0123FD
:104F200092062BD404F1430249463846C04701306B
:104F30001ED02368E568326803F00603042B08BF1F
:104F4000AD1AA36822690CBF25EAE57500259342D6
:104F5000C4BF9B1AED1800261A34B5421AD100209E
:104F600008E00123524649463846C047013003D184
:104F70004FF0FF30BDE8F0870135C6E7E1185A1C55
:104F8000302081F84300224494F8451082F8431001
:104F90000233C7E70123224649463846C04701305D
:104FA000E6D00136D9E700002DE9FF470C469146CF
:104FB000277E0C99782F80469A4604F1430207D841
:104FC000622F0AD8002F00F0D880582F00F0A3805D
:104FD00004F1420684F842703AE0A7F16303152B0E
:104FE000F6D801A050F823F04150000855500008B1
:104FF000D14F0008D14F0008D14F0008D14F000811
:1050000055500008D14F0008D14F0008D14F00087B
:10501000D14F000861510008855000084351000835
:10502000D14F0008D14F000883510008D14F00082C
:1050300085500008D14F0008D14F00084B5100089F
:105040000B681A1D1B680A6004F1420684F842309E
:105050000123A3E0256808682E0600F104030AD5A1
:1050600005680B60002D03DA2D236D4284F8433070
:105070005E480A2319E015F0400F05680B6018BF61
:105080002DB2EFE70B682568181D0860280601D5CA
:105090001D6802E06906FBD51D8854486F2F0CBFC0
:1050A00008230A23002184F843106668A660002EB6
:1050B000A2BF216821F0040121600DB9002E4DD05E
:1050C0001646B5FBF3F103FB1157C75D06F8017DEA
:1050D0002F46BB420D46F4D9082B0BD12368DF07BE
:1050E00008D5236961689942DEBF302306F8013C88
:1050F00006F1FF36921B2261CDF800A04B4603AAB1
:1051000021464046FFF7E2FE01304CD14FF0FF3020
:1051100004B0BDE8F087354884F8457023680E6810
:105120001F0656F8045B0E6014D5D90744BF43F040
:10513000200323601DB9236823F02003236010237C
:10514000B0E7236843F0200323607823284884F8DD
:105150004530E3E75E0648BFADB2E6E71646BBE77B
:105160000B68266860691D1D0D6035061B6801D53A
:10517000186002E07106FBD51880002323611646F3
:10518000BAE70B681A1D0A601E6862680021304683
:10519000FBF71EF808B1801B606063682361002381
:1051A00084F84330A8E72369324649464046D04751
:1051B0000130ABD023689B0713D4E068039B98426F
:1051C000B8BF1846A4E70123324649464046D047B7
:1051D00001309BD00135E36803995B1AAB42F2DCE6
:1051E000EBE7002504F11906F5E700BF4DA1000823
:1051F0005EA1000838B5064D0023044608462B6022
:1052000000F074FB431C02D12B6803B1236038BD4E
:105210001401002010B50C46B1F90E1000F002FB8D
:105220000028ABBF636DA3891B1823F48053ACBF68
:105230006365A38110BD2DE9F0411F468B89DB0515
:1052400005460C46164605D5B1F90E10022300227C
:1052500000F0C8F9A389B4F90E1023F48053A38198
:1052600032463B462846BDE8F04100F069B810B52B
:105270000C46B1F90E1000F0B5F9431CA38915BF17
:10528000606523F4805343F48053A38118BFA38146
:1052900010BDB1F90E1000F0D3B80000F8B50E46FD
:1052A0001446054618B183690BB9FFF75FFA214B25
:1052B0009C422BD16C68A369A360A3891A072FD5E0
:1052C00023696BB323692068C01A6369F6B283420D
:1052D000374604DC2146284600F048F930BBA36875
:1052E000013BA36023685A1C22601E706369013071
:1052F000834204D0A389DB0706D50A2E04D12146B8
:10530000284600F033F988B93846F8BD0A4B9C426C
:1053100001D1AC68CFE7094B9C4208BFEC68CAE7F3
:105320002146284600F01EF80028CBD04FF0FF376A
:10533000EAE700BFFCA000081CA10008DCA00008F0
:1053400038B5074D04460846114600222A601A4621
:1053500000F0DAFA431C02D12B6803B1236038BD98
:1053600014010020324B70B51D6806460C4625B16D
:10537000AB6913B92846FFF7F9F92E4B9C420FD1C0
:105380006C68A389B4F90C2019072CD4DD0611D45C
:105390000923336042F04003A3814FF0FF303EE029
:1053A000254B9C4201D1AC68EBE7244B9C4208BFE3
:1053B000EC68E6E7580712D5616B41B104F144038C
:1053C000994202D0304600F0B7F900236363A38905
:1053D00023F02403A3810023636023692360A3894E
:1053E00043F00803A38123694BB9A38903F4207315
:1053F000B3F5007F03D02146304600F029F9A0899B
:10540000B4F90C2010F001030AD00023A3606369F3
:105410005B42A361236943B910F08000BAD170BD2B
:10542000810758BF6369A360F4E70020F7E700BF76
:1054300014000020FCA000081CA10008DCA000084B
:1054400038B5064D0023044608462B6000F026FAC6
:10545000431C02D12B6803B1236038BD1401002026
:105460008A892DE9F041054610070C4658D44B684F
:10547000002B05DC0B6C002B02DC0020BDE8F0816A
:10548000E66A002EF9D0002312F480522F682B60B8
:1054900032D0606DA3895A0705D56368C01A636B63
:1054A0000BB1236CC01A00230246E66A216A284623
:1054B000B047431CA38906D129681D292CD82A4A44
:1054C000CA40D60728D500226260D904226922602A
:1054D00004D5421C01D12B6803B96065616B2F6054
:1054E0000029CAD004F14403994202D0284600F0B2
:1054F00023F900206063C1E7216A01232846B047F1
:10550000411CC7D12B68002BC4D01D2B01D0162BFA
:1055100001D12F60B1E7A38943F04003A381ADE738
:105520000F69002FA9D093070E6808BF4B690F6061
:1055300018BF0023A6EB07088B60B8F1000F9CDDB5
:10554000216AA66A43463A462846B047002806DC48
:10555000A38943F04003A3814FF0FF308EE7074457
:10556000A8EB0008E9E700BF0100402038B50B694F
:1055700005460C4613B90025284638BD18B1836985
:105580000BB9FFF7F3F8144B9C421BD16C68B4F9CC
:105590000C30002BEFD0626ED00704D4990502D4F2
:1055A000A06DFFF781F928462146FFF759FF636E8A
:1055B000DA070546E0D4A3899B05DDD4A06DFFF78B
:1055C00074F9D9E7054B9C4201D1AC68DFE7044B85
:1055D0009C4208BFEC68DAE7FCA000081CA10008A8
:1055E000DCA0000838B5074D0446084611460022E5
:1055F0002A601A4600F06AF9431C02D12B6803B1F5
:10560000236038BD1401002070B50E46B1F90E10AC
:10561000002996B014461D4607DA00232B60B38993
:105620001A0610D44FF480630EE06A4600F00CF9BD
:105630000028F2DB019A02F47042A2F500535A42AC
:105640005A412A60EEE740230020236016B070BD67
:105650008B8973B59D0706460C4607D504F14703B1
:10566000236023610123636102B070BD01AB6A4610
:10567000FFF7CAFF009905463046FFF717F948B90A
:10568000B4F90C309A05EFD423F0030343F002037E
:10569000A381E3E70D4BB362A389206043F080034D
:1056A000A381009B6361019B20615BB1B4F90E1083
:1056B000304600F0DBF828B1A38923F0030343F060
:1056C0000103A381A0890543A581CDE70547000813
:1056D0000A44914200F1FF3300D1704710B511F830
:1056E000014B03F8014F9142F9D110BD884210B52A
:1056F00001EB020402D98442234607D8431EA1428B
:1057000008D011F8012B03F8012FF8E702440146F5
:105710008A4200D110BD13F8014D02F8014DF7E7A0
:105720000148FFF7C1B800BF0C0100200148FFF796
:10573000BCB800BF0C01002037B5002948D051F893
:10574000043C0190002BA1F10404B8BFE418FFF75A
:10575000E7FF204A01981368154633B96360146067
:1057600003B0BDE83040FFF7E1BFA3420BD9216889
:105770006218934204BF1A685B68636004BF5218E2
:1057800022602C60ECE71A465B680BB1A342FAD9A1
:1057900011685518A5420BD1246821445418A3421E
:1057A0001160DDD11C685B68536021441160D7E74C
:1057B00002D90C230360D3E7256861198B4204BF2B
:1057C00019685B68636004BF491921605460C7E7CA
:1057D00003B030BD98000020F8B5074614460E46C9
:1057E00021B9BDE8F8401146FFF760B822B9FFF7CC
:1057F000A3FF25462846F8BD00F048F8A0420FD286
:1058000021463846FFF752F805460028F2D03146C7
:105810002246FFF75DFF31463846FFF78DFFE9E787
:105820003546E7E738B5074D0446084611460022DD
:105830002A601A4600F052F8431C02D12B6803B1CB
:10584000236038BD1401002038B5074D00230446FD
:10585000084611462B6000F029F8431C02D12B6842
:1058600003B1236038BD00BF1401002038B5064DD8
:105870000023044608462B6000F020F8431C02D1A8
:105880002B6803B1236038BD1401002051F8043C9B
:10589000181F002BBCBF0B58C0187047024B582272
:1058A0001A604FF0FF30704714010020024B58225D
:1058B0001A604FF0FF30704714010020024B58224D
:1058C0001A600020704700BF14010020024B5822CC
:1058D0001A604FF0FF30704714010020024B58222D
:1058E0001A604FF0FF30704714010020044A054948
:1058F0001368002B08BF0B46184410601846704709
:10590000A000002018010020024B58221A604FF01E
:10591000FF30704714010020F8B500BFF8BC08BC88
:105920009E467047F8B500BFF8BC08BC9E4670475D
:105930004C43442049443A253034580041706F6C40
:105940006C6F2053544D333246342F4637000000DD
:105950005446544C434420544553540041544F4DF5
:1059600040414C49454E54454B00000032303136E1
:105970002F312F3600000000204C43442049443A88
:1059800025780D0A00000000000000000000000063
:1059900000000000000000003F4000000000000088
:1059A00000003000400030004000000009000BC043
:1059B0003D000BC03D00090018C024407FE022409C
:1059C00031800000180024C01B000D80324001808F
:1059D00003801C4027401C800740004010006000EE
:1059E00000000000000000000000000000001F8018
:1059F000204040200000402020401F800000000088
:105A0000090006001F8006000900000004000400D1
:105A10003F8004000400000000100060000000004F
:105A20000000000004000400040004000400000062
:105A3000000000400000000000000000002001C045
:105A400006003800400000001F8020402040204019
:105A50001F800000000010403FC000400000000018
:105A600018C02140224024401840000010802040EF
:105A7000244024401B80000002000D0011003FC0A4
:105A8000014000003C80244024402440238000004A
:105A90001F80244024403440038000003000200058
:105AA00027C03800200000001B80244024402440F0
:105AB0001B8000001C0022C0224022401F800000EA
:105AC000000000000840000000000000000000008E
:105AD0000460000000000000000004000A00110043
